{
  "address": "0x16eff5b01123605924d9BF74Ed947F8Fd3015f44",
  "abi": [
    {
      "inputs": [],
      "name": "MAX_DEPTH",
      "outputs": [
        {
          "internalType": "uint8",
          "name": "",
          "type": "uint8"
        }
      ],
      "stateMutability": "view",
      "type": "function"
    },
    {
      "inputs": [],
      "name": "SNARK_SCALAR_FIELD",
      "outputs": [
        {
          "internalType": "uint256",
          "name": "",
          "type": "uint256"
        }
      ],
      "stateMutability": "view",
      "type": "function"
    },
    {
      "inputs": [],
      "name": "Z_0",
      "outputs": [
        {
          "internalType": "uint256",
          "name": "",
          "type": "uint256"
        }
      ],
      "stateMutability": "view",
      "type": "function"
    },
    {
      "inputs": [],
      "name": "Z_1",
      "outputs": [
        {
          "internalType": "uint256",
          "name": "",
          "type": "uint256"
        }
      ],
      "stateMutability": "view",
      "type": "function"
    },
    {
      "inputs": [],
      "name": "Z_10",
      "outputs": [
        {
          "internalType": "uint256",
          "name": "",
          "type": "uint256"
        }
      ],
      "stateMutability": "view",
      "type": "function"
    },
    {
      "inputs": [],
      "name": "Z_11",
      "outputs": [
        {
          "internalType": "uint256",
          "name": "",
          "type": "uint256"
        }
      ],
      "stateMutability": "view",
      "type": "function"
    },
    {
      "inputs": [],
      "name": "Z_12",
      "outputs": [
        {
          "internalType": "uint256",
          "name": "",
          "type": "uint256"
        }
      ],
      "stateMutability": "view",
      "type": "function"
    },
    {
      "inputs": [],
      "name": "Z_13",
      "outputs": [
        {
          "internalType": "uint256",
          "name": "",
          "type": "uint256"
        }
      ],
      "stateMutability": "view",
      "type": "function"
    },
    {
      "inputs": [],
      "name": "Z_14",
      "outputs": [
        {
          "internalType": "uint256",
          "name": "",
          "type": "uint256"
        }
      ],
      "stateMutability": "view",
      "type": "function"
    },
    {
      "inputs": [],
      "name": "Z_15",
      "outputs": [
        {
          "internalType": "uint256",
          "name": "",
          "type": "uint256"
        }
      ],
      "stateMutability": "view",
      "type": "function"
    },
    {
      "inputs": [],
      "name": "Z_16",
      "outputs": [
        {
          "internalType": "uint256",
          "name": "",
          "type": "uint256"
        }
      ],
      "stateMutability": "view",
      "type": "function"
    },
    {
      "inputs": [],
      "name": "Z_17",
      "outputs": [
        {
          "internalType": "uint256",
          "name": "",
          "type": "uint256"
        }
      ],
      "stateMutability": "view",
      "type": "function"
    },
    {
      "inputs": [],
      "name": "Z_18",
      "outputs": [
        {
          "internalType": "uint256",
          "name": "",
          "type": "uint256"
        }
      ],
      "stateMutability": "view",
      "type": "function"
    },
    {
      "inputs": [],
      "name": "Z_19",
      "outputs": [
        {
          "internalType": "uint256",
          "name": "",
          "type": "uint256"
        }
      ],
      "stateMutability": "view",
      "type": "function"
    },
    {
      "inputs": [],
      "name": "Z_2",
      "outputs": [
        {
          "internalType": "uint256",
          "name": "",
          "type": "uint256"
        }
      ],
      "stateMutability": "view",
      "type": "function"
    },
    {
      "inputs": [],
      "name": "Z_20",
      "outputs": [
        {
          "internalType": "uint256",
          "name": "",
          "type": "uint256"
        }
      ],
      "stateMutability": "view",
      "type": "function"
    },
    {
      "inputs": [],
      "name": "Z_21",
      "outputs": [
        {
          "internalType": "uint256",
          "name": "",
          "type": "uint256"
        }
      ],
      "stateMutability": "view",
      "type": "function"
    },
    {
      "inputs": [],
      "name": "Z_22",
      "outputs": [
        {
          "internalType": "uint256",
          "name": "",
          "type": "uint256"
        }
      ],
      "stateMutability": "view",
      "type": "function"
    },
    {
      "inputs": [],
      "name": "Z_23",
      "outputs": [
        {
          "internalType": "uint256",
          "name": "",
          "type": "uint256"
        }
      ],
      "stateMutability": "view",
      "type": "function"
    },
    {
      "inputs": [],
      "name": "Z_24",
      "outputs": [
        {
          "internalType": "uint256",
          "name": "",
          "type": "uint256"
        }
      ],
      "stateMutability": "view",
      "type": "function"
    },
    {
      "inputs": [],
      "name": "Z_25",
      "outputs": [
        {
          "internalType": "uint256",
          "name": "",
          "type": "uint256"
        }
      ],
      "stateMutability": "view",
      "type": "function"
    },
    {
      "inputs": [],
      "name": "Z_26",
      "outputs": [
        {
          "internalType": "uint256",
          "name": "",
          "type": "uint256"
        }
      ],
      "stateMutability": "view",
      "type": "function"
    },
    {
      "inputs": [],
      "name": "Z_27",
      "outputs": [
        {
          "internalType": "uint256",
          "name": "",
          "type": "uint256"
        }
      ],
      "stateMutability": "view",
      "type": "function"
    },
    {
      "inputs": [],
      "name": "Z_28",
      "outputs": [
        {
          "internalType": "uint256",
          "name": "",
          "type": "uint256"
        }
      ],
      "stateMutability": "view",
      "type": "function"
    },
    {
      "inputs": [],
      "name": "Z_29",
      "outputs": [
        {
          "internalType": "uint256",
          "name": "",
          "type": "uint256"
        }
      ],
      "stateMutability": "view",
      "type": "function"
    },
    {
      "inputs": [],
      "name": "Z_3",
      "outputs": [
        {
          "internalType": "uint256",
          "name": "",
          "type": "uint256"
        }
      ],
      "stateMutability": "view",
      "type": "function"
    },
    {
      "inputs": [],
      "name": "Z_30",
      "outputs": [
        {
          "internalType": "uint256",
          "name": "",
          "type": "uint256"
        }
      ],
      "stateMutability": "view",
      "type": "function"
    },
    {
      "inputs": [],
      "name": "Z_31",
      "outputs": [
        {
          "internalType": "uint256",
          "name": "",
          "type": "uint256"
        }
      ],
      "stateMutability": "view",
      "type": "function"
    },
    {
      "inputs": [],
      "name": "Z_32",
      "outputs": [
        {
          "internalType": "uint256",
          "name": "",
          "type": "uint256"
        }
      ],
      "stateMutability": "view",
      "type": "function"
    },
    {
      "inputs": [],
      "name": "Z_4",
      "outputs": [
        {
          "internalType": "uint256",
          "name": "",
          "type": "uint256"
        }
      ],
      "stateMutability": "view",
      "type": "function"
    },
    {
      "inputs": [],
      "name": "Z_5",
      "outputs": [
        {
          "internalType": "uint256",
          "name": "",
          "type": "uint256"
        }
      ],
      "stateMutability": "view",
      "type": "function"
    },
    {
      "inputs": [],
      "name": "Z_6",
      "outputs": [
        {
          "internalType": "uint256",
          "name": "",
          "type": "uint256"
        }
      ],
      "stateMutability": "view",
      "type": "function"
    },
    {
      "inputs": [],
      "name": "Z_7",
      "outputs": [
        {
          "internalType": "uint256",
          "name": "",
          "type": "uint256"
        }
      ],
      "stateMutability": "view",
      "type": "function"
    },
    {
      "inputs": [],
      "name": "Z_8",
      "outputs": [
        {
          "internalType": "uint256",
          "name": "",
          "type": "uint256"
        }
      ],
      "stateMutability": "view",
      "type": "function"
    },
    {
      "inputs": [],
      "name": "Z_9",
      "outputs": [
        {
          "internalType": "uint256",
          "name": "",
          "type": "uint256"
        }
      ],
      "stateMutability": "view",
      "type": "function"
    },
    {
      "inputs": [
        {
          "internalType": "uint256",
          "name": "index",
          "type": "uint256"
        }
      ],
      "name": "defaultZero",
      "outputs": [
        {
          "internalType": "uint256",
          "name": "",
          "type": "uint256"
        }
      ],
      "stateMutability": "pure",
      "type": "function"
    }
  ],
  "transactionHash": "0xd238ad4f50550de092e44527795ac822223dc21bade30a3db683dc86ba6ae33a",
  "args": [],
  "numDeployments": 1,
  "solcInputHash": "3f87313134e2217cb187bd594084789f",
  "bytecode": "0x612e3f610053600b82828239805160001a607314610046577f4e487b7100000000000000000000000000000000000000000000000000000000600052600060045260246000fd5b30600052607381538281f3fe730000000000000000000000000000000000000000301460806040526004361061025d5760003560e01c806365ad985e11610150578063b1849a1a116100cd578063c6675bbf11610091578063c6675bbf146106d9578063c7fadc67146106f7578063ccbad17414610715578063d2aa5c6214610733578063eb095a7d14610751578063f49babe61461076f5761025d565b8063b1849a1a14610638578063b410396a14610656578063b5f35eb914610674578063c0c5bf6714610692578063c2ad38d4146106b05761025d565b80639bf21071116101145780639bf21071146105a25780639cda4774146105c0578063a27154ba146105de578063a3205067146105fc578063af9d047c1461061a5761025d565b806365ad985e1461050c57806365f7bec31461052a5780638836ccf61461054857806389d0e9321461056657806394804215146105845761025d565b806344f9e1ac116101de578063583f8af4116101a2578063583f8af41461046b5780635da707d4146104895780635fcde067146104a757806362cff85e146104c557806364048bf2146104ee5761025d565b806344f9e1ac146103d557806352be1fb8146103f357806354f5a9011461041157806355005f761461042f578063565b427e1461044d5761025d565b806325c2cd121161022557806325c2cd121461033457806330314fc014610352578063309ec3c31461037057806334a84bb41461038e5780633994a957146103b75761025d565b80631150554414610262578063143dc3831461028057806314d8c626146102bd57806318f18fb1146102e65780631ddbea0014610316575b600080fd5b61026a61078d565b6040516102779190611fca565b60405180910390f35b81801561028c57600080fd5b506102a760048036038101906102a29190612051565b6107b1565b6040516102b49190611fca565b60405180910390f35b8180156102c957600080fd5b506102e460048036038101906102df9190612051565b610a24565b005b61030060048036038101906102fb9190612091565b610ab2565b60405161030d9190611fca565b60405180910390f35b61031e611104565b60405161032b9190611fca565b60405180910390f35b61033c611128565b6040516103499190611fca565b60405180910390f35b61035a61114c565b6040516103679190611fca565b60405180910390f35b610378611170565b6040516103859190611fca565b60405180910390f35b81801561039a57600080fd5b506103b560048036038101906103b091906120be565b611194565b005b6103bf611325565b6040516103cc9190611fca565b60405180910390f35b6103dd611349565b6040516103ea9190611fca565b60405180910390f35b6103fb61136d565b6040516104089190611fca565b60405180910390f35b610419611391565b6040516104269190611fca565b60405180910390f35b6104376113b5565b6040516104449190611fca565b60405180910390f35b6104556113d9565b6040516104629190611fca565b60405180910390f35b6104736113fd565b6040516104809190611fca565b60405180910390f35b610491611421565b60405161049e9190611fca565b60405180910390f35b6104af611445565b6040516104bc9190611fca565b60405180910390f35b8180156104d157600080fd5b506104ec60048036038101906104e791906121cc565b611469565b005b6104f66114b3565b6040516105039190611fca565b60405180910390f35b6105146114d7565b6040516105219190611fca565b60405180910390f35b6105326114dc565b60405161053f9190611fca565b60405180910390f35b610550611500565b60405161055d9190611fca565b60405180910390f35b61056e611524565b60405161057b9190611fca565b60405180910390f35b61058c611548565b6040516105999190611fca565b60405180910390f35b6105aa61156c565b6040516105b79190611fca565b60405180910390f35b6105c8611590565b6040516105d59190611fca565b60405180910390f35b6105e66115b4565b6040516105f3919061228f565b60405180910390f35b6106046115b9565b6040516106119190611fca565b60405180910390f35b6106226115dd565b60405161062f9190611fca565b60405180910390f35b610640611601565b60405161064d9190611fca565b60405180910390f35b61065e611625565b60405161066b9190611fca565b60405180910390f35b61067c611649565b6040516106899190611fca565b60405180910390f35b61069a61166d565b6040516106a79190611fca565b60405180910390f35b8180156106bc57600080fd5b506106d760048036038101906106d291906122aa565b611691565b005b6106e1611ad3565b6040516106ee9190611fca565b60405180910390f35b6106ff611af7565b60405161070c9190611fca565b60405180910390f35b61071d611b1b565b60405161072a9190611fca565b60405180910390f35b61073b611b3f565b6040516107489190611fca565b60405180910390f35b610759611b63565b6040516107669190611fca565b60405180910390f35b610777611b87565b6040516107849190611fca565b60405180910390f35b7f120c58f143d491e95902f7f5277778a2e0ad5168f6add75669932630ce61151881565b600080836000015490507f30644e72e131a029b85045b68181585d2833e84879b9709143e1f593f0000001831061081d576040517f08c379a0000000000000000000000000000000000000000000000000000000008152600401610814906123e9565b60405180910390fd5b80600261082a919061256b565b84600201541061086f576040517f08c379a000000000000000000000000000000000000000000000000000000000815260040161086690612602565b60405180910390fd5b600084600201549050600084905060008660050160009054906101000a900460ff16905060005b848160ff1610156109f1576000600185160361091c576040518060400160405280848152602001836108e0578960030160008460ff168152602001908152602001600020546108ed565b6108ec8360ff16610ab2565b5b8152508860040160008360ff168152602001908152602001600020906002610916929190611f54565b5061094e565b828860040160008360ff16815260200190815260200160002060016002811061094857610947612622565b5b01819055505b73926D62A7b0EBAeF934949499F89554DAa32DD7D563561558fe8960040160008460ff1681526020019081526020016000206040518263ffffffff1660e01b815260040161099c9190612747565b602060405180830381865af41580156109b9573d6000803e3d6000fd5b505050506040513d601f19601f820116820180604052508101906109dd9190612777565b9250600184901c9350806001019050610896565b508187600101819055506001876002016000828254610a1091906127a4565b925050819055508194505050505092915050565b600081118015610a385750602060ff168111155b610a77576040517f08c379a0000000000000000000000000000000000000000000000000000000008152600401610a6e9061286c565b60405180910390fd5b80826000018190555060018260050160006101000a81548160ff021916908315150217905550610aa681610ab2565b82600101819055505050565b6000808203610ac457600090506110ff565b60018203610af4577f2098f5fb9e239eab3ceac3f27b81e481dc3124d55ffed523a839ee8446b6486490506110ff565b60028203610b24577f1069673dcdb12263df301a6ff584a7ec261a44cb9dc68df067a4774460b1f1e190506110ff565b60038203610b54577f18f43331537ee2af2e3d758d50f72106467c6eea50371dd528d57eb2b856d23890506110ff565b60048203610b84577f07f9d837cb17b0d36320ffe93ba52345f1b728571a568265caac97559dbc952a90506110ff565b60058203610bb4577f2b94cf5e8746b3f5c9631f4c5df32907a699c58c94b2ad4d7b5cec1639183f5590506110ff565b60068203610be4577f2dee93c5a666459646ea7d22cca9e1bcfed71e6951b953611d11dda32ea09d7890506110ff565b60078203610c14577f078295e5a22b84e982cf601eb639597b8b0515a88cb5ac7fa8a4aabe3c87349d90506110ff565b60088203610c44577f2fa5e5f18f6027a6501bec864564472a616b2e274a41211a444cbe3a99f3cc6190506110ff565b60098203610c74577f0e884376d0d8fd21ecb780389e941f66e45e7acce3e228ab3e2156a614fcd74790506110ff565b600a8203610ca4577f1b7201da72494f1e28717ad1a52eb469f95892f957713533de6175e5da190af290506110ff565b600b8203610cd4577f1f8d8822725e36385200c0b201249819a6e6e1e4650808b5bebc6bface7d763690506110ff565b600c8203610d04577f2c5d82f66c914bafb9701589ba8cfcfb6162b0a12acf88a8d0879a0471b5f85a90506110ff565b600d8203610d34577f14c54148a0940bb820957f5adf3fa1134ef5c4aaa113f4646458f270e0bfbfd090506110ff565b600e8203610d64577f190d33b12f986f961e10c0ee44d8b9af11be25588cad89d416118e4bf4ebe80c90506110ff565b600f8203610d94577f22f98aa9ce704152ac17354914ad73ed1167ae6596af510aa5b3649325e06c9290506110ff565b60108203610dc4577f2a7c7c9b6ce5880b9f6f228d72bf6a575a526f29c66ecceef8b753d38bba732390506110ff565b60118203610df4577f2e8186e558698ec1c67af9c14d463ffc470043c9c2988b954d75dd643f36b99290506110ff565b60128203610e24577f0f57c5571e9a4eab49e2c8cf050dae948aef6ead647392273546249d1c1ff10f90506110ff565b60138203610e54577f1830ee67b5fb554ad5f63d4388800e1cfe78e310697d46e43c9ce36134f72cca90506110ff565b60148203610e84577f2134e76ac5d21aab186c2be1dd8f84ee880a1e46eaf712f9d371b6df22191f3e90506110ff565b60158203610eb4577f19df90ec844ebc4ffeebd866f33859b0c051d8c958ee3aa88f8f8df3db91a5b190506110ff565b60168203610ee4577f18cca2a66b5c0787981e69aefd84852d74af0e93ef4912b4648c05f722efe52b90506110ff565b60178203610f14577f2388909415230d1b4d1304d2d54f473a628338f2efad83fadf05644549d2538d90506110ff565b60188203610f44577f27171fb4a97b6cc0e9e8f543b5294de866a2af2c9c8d0b1d96e673e4529ed54090506110ff565b60198203610f74577f2ff6650540f629fd5711a0bc74fc0d28dcb230b9392583e5f8d59696dde6ae2190506110ff565b601a8203610fa4577f120c58f143d491e95902f7f5277778a2e0ad5168f6add75669932630ce61151890506110ff565b601b8203610fd4577f1f21feb70d3f21b07bf853d5e5db03071ec495a0a565a21da2d665d27948379590506110ff565b601c8203611004577f24be905fa71335e14c638cc0f66a8623a826e768068a9e968bb1a1dde18a72d290506110ff565b601d8203611034577f0f8666b62ed17491c50ceadead57d4cd597ef3821d65c328744c74e553dac26d90506110ff565b601e8203611064577f0918d46bf52d98b034413f4a1a1c41594e7a7a3f6ae08cb43d1a2a230e1959ef90506110ff565b601f8203611094577f1bbeb01b4c479ecde76917645e404dfa2e26f90d0afc5a65128513ad375c5ff290506110ff565b602082036110c4577f2f68a1c58e257e42a17a6c61dff5551ed560b9922ab119d5ac8e184c9734ead990506110ff565b6040517f08c379a00000000000000000000000000000000000000000000000000000000081526004016110f6906128fe565b60405180910390fd5b919050565b7f2388909415230d1b4d1304d2d54f473a628338f2efad83fadf05644549d2538d81565b7f30644e72e131a029b85045b68181585d2833e84879b9709143e1f593f000000181565b7f18cca2a66b5c0787981e69aefd84852d74af0e93ef4912b4648c05f722efe52b81565b7f2e8186e558698ec1c67af9c14d463ffc470043c9c2988b954d75dd643f36b99281565b7f30644e72e131a029b85045b68181585d2833e84879b9709143e1f593f000000181106111f6576040517f08c379a00000000000000000000000000000000000000000000000000000000081526004016111ed906123e9565b60405180910390fd5b60008211801561120a5750602060ff168211155b611249576040517f08c379a00000000000000000000000000000000000000000000000000000000081526004016112409061286c565b60405180910390fd5b81836000018190555060005b828160ff16101561131657818460030160008360ff1681526020019081526020016000208190555073926D62A7b0EBAeF934949499F89554DAa32DD7D563561558fe6040518060400160405280858152602001858152506040518263ffffffff1660e01b81526004016112c89190612997565b602060405180830381865af41580156112e5573d6000803e3d6000fd5b505050506040513d601f19601f820116820180604052508101906113099190612777565b9150806001019050611255565b50808360010181905550505050565b7f2ff6650540f629fd5711a0bc74fc0d28dcb230b9392583e5f8d59696dde6ae2181565b7f24be905fa71335e14c638cc0f66a8623a826e768068a9e968bb1a1dde18a72d281565b7f1069673dcdb12263df301a6ff584a7ec261a44cb9dc68df067a4774460b1f1e181565b7f14c54148a0940bb820957f5adf3fa1134ef5c4aaa113f4646458f270e0bfbfd081565b7f0f57c5571e9a4eab49e2c8cf050dae948aef6ead647392273546249d1c1ff10f81565b7f2dee93c5a666459646ea7d22cca9e1bcfed71e6951b953611d11dda32ea09d7881565b7f2fa5e5f18f6027a6501bec864564472a616b2e274a41211a444cbe3a99f3cc6181565b7f27171fb4a97b6cc0e9e8f543b5294de866a2af2c9c8d0b1d96e673e4529ed54081565b7f078295e5a22b84e982cf601eb639597b8b0515a88cb5ac7fa8a4aabe3c87349d81565b6114ab86868860050160009054906101000a900460ff1661149f57886003016000808152602001908152602001600020546114a2565b60005b87878787611691565b505050505050565b7f1830ee67b5fb554ad5f63d4388800e1cfe78e310697d46e43c9ce36134f72cca81565b600081565b7f190d33b12f986f961e10c0ee44d8b9af11be25588cad89d416118e4bf4ebe80c81565b7f18f43331537ee2af2e3d758d50f72106467c6eea50371dd528d57eb2b856d23881565b7f2a7c7c9b6ce5880b9f6f228d72bf6a575a526f29c66ecceef8b753d38bba732381565b7f0e884376d0d8fd21ecb780389e941f66e45e7acce3e228ab3e2156a614fcd74781565b7f2c5d82f66c914bafb9701589ba8cfcfb6162b0a12acf88a8d0879a0471b5f85a81565b7f0f8666b62ed17491c50ceadead57d4cd597ef3821d65c328744c74e553dac26d81565b602081565b7f22f98aa9ce704152ac17354914ad73ed1167ae6596af510aa5b3649325e06c9281565b7f0918d46bf52d98b034413f4a1a1c41594e7a7a3f6ae08cb43d1a2a230e1959ef81565b7f19df90ec844ebc4ffeebd866f33859b0c051d8c958ee3aa88f8f8df3db91a5b181565b7f1f21feb70d3f21b07bf853d5e5db03071ec495a0a565a21da2d665d27948379581565b7f2134e76ac5d21aab186c2be1dd8f84ee880a1e46eaf712f9d371b6df22191f3e81565b7f2b94cf5e8746b3f5c9631f4c5df32907a699c58c94b2ad4d7b5cec1639183f5581565b8585036116d3576040517f08c379a00000000000000000000000000000000000000000000000000000000081526004016116ca90612a24565b60405180910390fd5b7f30644e72e131a029b85045b68181585d2833e84879b9709143e1f593f00000018510611735576040517f08c379a000000000000000000000000000000000000000000000000000000000815260040161172c90612ab6565b60405180910390fd5b611743878786868686611bab565b611782576040517f08c379a000000000000000000000000000000000000000000000000000000000815260040161177990612b48565b60405180910390fd5b6000876000015490506000869050600080600090505b838160ff161015611a77578060ff1686868360ff168181106117bd576117bc612622565b5b90506020020160208101906117d29190612b94565b60ff16901b82179150600086868360ff168181106117f3576117f2612622565b5b90506020020160208101906118089190612b94565b60ff1603611940578a60040160008260ff16815260200190815260200160002060016002811061183b5761183a612622565b5b015488888360ff1681811061185357611852612622565b5b905060200201350361189157828b60040160008360ff16815260200190815260200160002060006002811061188b5761188a612622565b5b01819055505b73926D62A7b0EBAeF934949499F89554DAa32DD7D563561558fe60405180604001604052808681526020018b8b8660ff168181106118d2576118d1612622565b5b905060200201358152506040518263ffffffff1660e01b81526004016118f89190612997565b602060405180830381865af4158015611915573d6000803e3d6000fd5b505050506040513d601f19601f820116820180604052508101906119399190612777565b9250611a6c565b8a60040160008260ff16815260200190815260200160002060006002811061196b5761196a612622565b5b015488888360ff1681811061198357611982612622565b5b90506020020135036119c157828b60040160008360ff1681526020019081526020016000206001600281106119bb576119ba612622565b5b01819055505b73926D62A7b0EBAeF934949499F89554DAa32DD7D563561558fe60405180604001604052808b8b8660ff168181106119fc576119fb612622565b5b905060200201358152602001868152506040518263ffffffff1660e01b8152600401611a289190612997565b602060405180830381865af4158015611a45573d6000803e3d6000fd5b505050506040513d601f19601f82011682018060405250810190611a699190612777565b92505b806001019050611798565b5089600201548110611abe576040517f08c379a0000000000000000000000000000000000000000000000000000000008152600401611ab590612c33565b60405180910390fd5b818a6001018190555050505050505050505050565b7f07f9d837cb17b0d36320ffe93ba52345f1b728571a568265caac97559dbc952a81565b7f1bbeb01b4c479ecde76917645e404dfa2e26f90d0afc5a65128513ad375c5ff281565b7f2098f5fb9e239eab3ceac3f27b81e481dc3124d55ffed523a839ee8446b6486481565b7f1f8d8822725e36385200c0b201249819a6e6e1e4650808b5bebc6bface7d763681565b7f1b7201da72494f1e28717ad1a52eb469f95892f957713533de6175e5da190af281565b7f2f68a1c58e257e42a17a6c61dff5551ed560b9922ab119d5ac8e184c9734ead981565b60007f30644e72e131a029b85045b68181585d2833e84879b9709143e1f593f00000018610611c0f576040517f08c379a0000000000000000000000000000000000000000000000000000000008152600401611c06906123e9565b60405180910390fd5b6000876000015490508084849050148015611c2c57508086869050145b611c6b576040517f08c379a0000000000000000000000000000000000000000000000000000000008152600401611c6290612cc5565b60405180910390fd5b600087905060005b828160ff161015611f3e577f30644e72e131a029b85045b68181585d2833e84879b9709143e1f593f000000188888360ff16818110611cb557611cb4612622565b5b9050602002013510611cfc576040517f08c379a0000000000000000000000000000000000000000000000000000000008152600401611cf390612d57565b60405180910390fd5b600186868360ff16818110611d1457611d13612622565b5b9050602002016020810190611d299190612b94565b60ff161480611d655750600086868360ff16818110611d4b57611d4a612622565b5b9050602002016020810190611d609190612b94565b60ff16145b611da4576040517f08c379a0000000000000000000000000000000000000000000000000000000008152600401611d9b90612de9565b60405180910390fd5b600086868360ff16818110611dbc57611dbb612622565b5b9050602002016020810190611dd19190612b94565b60ff1603611e885773926D62A7b0EBAeF934949499F89554DAa32DD7D563561558fe60405180604001604052808581526020018b8b8660ff16818110611e1a57611e19612622565b5b905060200201358152506040518263ffffffff1660e01b8152600401611e409190612997565b602060405180830381865af4158015611e5d573d6000803e3d6000fd5b505050506040513d601f19601f82011682018060405250810190611e819190612777565b9150611f33565b73926D62A7b0EBAeF934949499F89554DAa32DD7D563561558fe60405180604001604052808b8b8660ff16818110611ec357611ec2612622565b5b905060200201358152602001858152506040518263ffffffff1660e01b8152600401611eef9190612997565b602060405180830381865af4158015611f0c573d6000803e3d6000fd5b505050506040513d601f19601f82011682018060405250810190611f309190612777565b91505b806001019050611c73565b5088600101548114925050509695505050505050565b8260028101928215611f83579160200282015b82811115611f82578251825591602001919060010190611f67565b5b509050611f909190611f94565b5090565b5b80821115611fad576000816000905550600101611f95565b5090565b6000819050919050565b611fc481611fb1565b82525050565b6000602082019050611fdf6000830184611fbb565b92915050565b600080fd5b600080fd5b6000819050919050565b61200281611fef565b811461200d57600080fd5b50565b60008135905061201f81611ff9565b92915050565b61202e81611fb1565b811461203957600080fd5b50565b60008135905061204b81612025565b92915050565b6000806040838503121561206857612067611fe5565b5b600061207685828601612010565b92505060206120878582860161203c565b9150509250929050565b6000602082840312156120a7576120a6611fe5565b5b60006120b58482850161203c565b91505092915050565b6000806000606084860312156120d7576120d6611fe5565b5b60006120e586828701612010565b93505060206120f68682870161203c565b92505060406121078682870161203c565b9150509250925092565b600080fd5b600080fd5b600080fd5b60008083601f84011261213657612135612111565b5b8235905067ffffffffffffffff81111561215357612152612116565b5b60208301915083602082028301111561216f5761216e61211b565b5b9250929050565b60008083601f84011261218c5761218b612111565b5b8235905067ffffffffffffffff8111156121a9576121a8612116565b5b6020830191508360208202830111156121c5576121c461211b565b5b9250929050565b600080600080600080608087890312156121e9576121e8611fe5565b5b60006121f789828a01612010565b965050602061220889828a0161203c565b955050604087013567ffffffffffffffff81111561222957612228611fea565b5b61223589828a01612120565b9450945050606087013567ffffffffffffffff81111561225857612257611fea565b5b61226489828a01612176565b92509250509295509295509295565b600060ff82169050919050565b61228981612273565b82525050565b60006020820190506122a46000830184612280565b92915050565b600080600080600080600060a0888a0312156122c9576122c8611fe5565b5b60006122d78a828b01612010565b97505060206122e88a828b0161203c565b96505060406122f98a828b0161203c565b955050606088013567ffffffffffffffff81111561231a57612319611fea565b5b6123268a828b01612120565b9450945050608088013567ffffffffffffffff81111561234957612348611fea565b5b6123558a828b01612176565b925092505092959891949750929550565b600082825260208201905092915050565b7f42696e617279494d543a206c656166206d757374206265203c20534e41524b5f60008201527f5343414c41525f4649454c440000000000000000000000000000000000000000602082015250565b60006123d3602c83612366565b91506123de82612377565b604082019050919050565b60006020820190508181036000830152612402816123c6565b9050919050565b7f4e487b7100000000000000000000000000000000000000000000000000000000600052601160045260246000fd5b60008160011c9050919050565b6000808291508390505b600185111561248f5780860481111561246b5761246a612409565b5b600185161561247a5780820291505b808102905061248885612438565b945061244f565b94509492505050565b6000826124a85760019050612564565b816124b65760009050612564565b81600181146124cc57600281146124d657612505565b6001915050612564565b60ff8411156124e8576124e7612409565b5b8360020a9150848211156124ff576124fe612409565b5b50612564565b5060208310610133831016604e8410600b841016171561253a5782820a90508381111561253557612534612409565b5b612564565b6125478484846001612445565b9250905081840481111561255e5761255d612409565b5b81810290505b9392505050565b600061257682611fb1565b915061258183611fb1565b92506125ae7fffffffffffffffffffffffffffffffffffffffffffffffffffffffffffffffff8484612498565b905092915050565b7f42696e617279494d543a20747265652069732066756c6c000000000000000000600082015250565b60006125ec601783612366565b91506125f7826125b6565b602082019050919050565b6000602082019050818103600083015261261b816125df565b9050919050565b7f4e487b7100000000000000000000000000000000000000000000000000000000600052603260045260246000fd5b600060029050919050565b600081905092915050565b6000819050919050565b61267a81611fb1565b82525050565b600061268c8383612671565b60208301905092915050565b60008160001c9050919050565b6000819050919050565b60006126c26126bd83612698565b6126a5565b9050919050565b60006126d582546126af565b9050919050565b6000600182019050919050565b6126f281612651565b6126fc818461265c565b925061270782612667565b8060005b8381101561273f5761271c826126c9565b6127268782612680565b9650612731836126dc565b92505060018101905061270b565b505050505050565b600060408201905061275c60008301846126e9565b92915050565b60008151905061277181612025565b92915050565b60006020828403121561278d5761278c611fe5565b5b600061279b84828501612762565b91505092915050565b60006127af82611fb1565b91506127ba83611fb1565b9250827fffffffffffffffffffffffffffffffffffffffffffffffffffffffffffffffff038211156127ef576127ee612409565b5b828201905092915050565b7f42696e617279494d543a2074726565206465707468206d75737420626520626560008201527f747765656e203120616e64203332000000000000000000000000000000000000602082015250565b6000612856602e83612366565b9150612861826127fa565b604082019050919050565b6000602082019050818103600083015261288581612849565b9050919050565b7f496e6372656d656e74616c42696e617279547265653a2064656661756c745a6560008201527f726f2062616420696e6465780000000000000000000000000000000000000000602082015250565b60006128e8602c83612366565b91506128f38261288c565b604082019050919050565b60006020820190508181036000830152612917816128db565b9050919050565b600060029050919050565b6000819050919050565b6000602082019050919050565b6129498161291e565b612953818461265c565b925061295e82612929565b8060005b8381101561298f5781516129768782612680565b965061298183612933565b925050600181019050612962565b505050505050565b60006040820190506129ac6000830184612940565b92915050565b7f42696e617279494d543a206e6577206c6561662063616e6e6f7420626520746860008201527f652073616d6520617320746865206f6c64206f6e650000000000000000000000602082015250565b6000612a0e603583612366565b9150612a19826129b2565b604082019050919050565b60006020820190508181036000830152612a3d81612a01565b9050919050565b7f42696e617279494d543a206e6577206c656166206d757374206265203c20534e60008201527f41524b5f5343414c41525f4649454c4400000000000000000000000000000000602082015250565b6000612aa0603083612366565b9150612aab82612a44565b604082019050919050565b60006020820190508181036000830152612acf81612a93565b9050919050565b7f42696e617279494d543a206c656166206973206e6f742070617274206f66207460008201527f6865207472656500000000000000000000000000000000000000000000000000602082015250565b6000612b32602783612366565b9150612b3d82612ad6565b604082019050919050565b60006020820190508181036000830152612b6181612b25565b9050919050565b612b7181612273565b8114612b7c57600080fd5b50565b600081359050612b8e81612b68565b92915050565b600060208284031215612baa57612ba9611fe5565b5b6000612bb884828501612b7f565b91505092915050565b7f42696e617279494d543a206c65616620696e646578206f7574206f662072616e60008201527f6765000000000000000000000000000000000000000000000000000000000000602082015250565b6000612c1d602283612366565b9150612c2882612bc1565b604082019050919050565b60006020820190508181036000830152612c4c81612c10565b9050919050565b7f42696e617279494d543a206c656e677468206f662070617468206973206e6f7460008201527f20636f7272656374000000000000000000000000000000000000000000000000602082015250565b6000612caf602883612366565b9150612cba82612c53565b604082019050919050565b60006020820190508181036000830152612cde81612ca2565b9050919050565b7f42696e617279494d543a207369626c696e67206e6f6465206d7573742062652060008201527f3c20534e41524b5f5343414c41525f4649454c44000000000000000000000000602082015250565b6000612d41603483612366565b9150612d4c82612ce5565b604082019050919050565b60006020820190508181036000830152612d7081612d34565b9050919050565b7f42696e617279494d543a207061746820696e646578206973206e65697468657260008201527f2030206e6f722031000000000000000000000000000000000000000000000000602082015250565b6000612dd3602883612366565b9150612dde82612d77565b604082019050919050565b60006020820190508181036000830152612e0281612dc6565b905091905056fea2646970667358221220589cbf72cc2d84eab9c18913d1987756da4f6f0cf670db3e3b48633df0cb1f5764736f6c634300080f0033",
  "deployedBytecode": "0x730000000000000000000000000000000000000000301460806040526004361061025d5760003560e01c806365ad985e11610150578063b1849a1a116100cd578063c6675bbf11610091578063c6675bbf146106d9578063c7fadc67146106f7578063ccbad17414610715578063d2aa5c6214610733578063eb095a7d14610751578063f49babe61461076f5761025d565b8063b1849a1a14610638578063b410396a14610656578063b5f35eb914610674578063c0c5bf6714610692578063c2ad38d4146106b05761025d565b80639bf21071116101145780639bf21071146105a25780639cda4774146105c0578063a27154ba146105de578063a3205067146105fc578063af9d047c1461061a5761025d565b806365ad985e1461050c57806365f7bec31461052a5780638836ccf61461054857806389d0e9321461056657806394804215146105845761025d565b806344f9e1ac116101de578063583f8af4116101a2578063583f8af41461046b5780635da707d4146104895780635fcde067146104a757806362cff85e146104c557806364048bf2146104ee5761025d565b806344f9e1ac146103d557806352be1fb8146103f357806354f5a9011461041157806355005f761461042f578063565b427e1461044d5761025d565b806325c2cd121161022557806325c2cd121461033457806330314fc014610352578063309ec3c31461037057806334a84bb41461038e5780633994a957146103b75761025d565b80631150554414610262578063143dc3831461028057806314d8c626146102bd57806318f18fb1146102e65780631ddbea0014610316575b600080fd5b61026a61078d565b6040516102779190611fca565b60405180910390f35b81801561028c57600080fd5b506102a760048036038101906102a29190612051565b6107b1565b6040516102b49190611fca565b60405180910390f35b8180156102c957600080fd5b506102e460048036038101906102df9190612051565b610a24565b005b61030060048036038101906102fb9190612091565b610ab2565b60405161030d9190611fca565b60405180910390f35b61031e611104565b60405161032b9190611fca565b60405180910390f35b61033c611128565b6040516103499190611fca565b60405180910390f35b61035a61114c565b6040516103679190611fca565b60405180910390f35b610378611170565b6040516103859190611fca565b60405180910390f35b81801561039a57600080fd5b506103b560048036038101906103b091906120be565b611194565b005b6103bf611325565b6040516103cc9190611fca565b60405180910390f35b6103dd611349565b6040516103ea9190611fca565b60405180910390f35b6103fb61136d565b6040516104089190611fca565b60405180910390f35b610419611391565b6040516104269190611fca565b60405180910390f35b6104376113b5565b6040516104449190611fca565b60405180910390f35b6104556113d9565b6040516104629190611fca565b60405180910390f35b6104736113fd565b6040516104809190611fca565b60405180910390f35b610491611421565b60405161049e9190611fca565b60405180910390f35b6104af611445565b6040516104bc9190611fca565b60405180910390f35b8180156104d157600080fd5b506104ec60048036038101906104e791906121cc565b611469565b005b6104f66114b3565b6040516105039190611fca565b60405180910390f35b6105146114d7565b6040516105219190611fca565b60405180910390f35b6105326114dc565b60405161053f9190611fca565b60405180910390f35b610550611500565b60405161055d9190611fca565b60405180910390f35b61056e611524565b60405161057b9190611fca565b60405180910390f35b61058c611548565b6040516105999190611fca565b60405180910390f35b6105aa61156c565b6040516105b79190611fca565b60405180910390f35b6105c8611590565b6040516105d59190611fca565b60405180910390f35b6105e66115b4565b6040516105f3919061228f565b60405180910390f35b6106046115b9565b6040516106119190611fca565b60405180910390f35b6106226115dd565b60405161062f9190611fca565b60405180910390f35b610640611601565b60405161064d9190611fca565b60405180910390f35b61065e611625565b60405161066b9190611fca565b60405180910390f35b61067c611649565b6040516106899190611fca565b60405180910390f35b61069a61166d565b6040516106a79190611fca565b60405180910390f35b8180156106bc57600080fd5b506106d760048036038101906106d291906122aa565b611691565b005b6106e1611ad3565b6040516106ee9190611fca565b60405180910390f35b6106ff611af7565b60405161070c9190611fca565b60405180910390f35b61071d611b1b565b60405161072a9190611fca565b60405180910390f35b61073b611b3f565b6040516107489190611fca565b60405180910390f35b610759611b63565b6040516107669190611fca565b60405180910390f35b610777611b87565b6040516107849190611fca565b60405180910390f35b7f120c58f143d491e95902f7f5277778a2e0ad5168f6add75669932630ce61151881565b600080836000015490507f30644e72e131a029b85045b68181585d2833e84879b9709143e1f593f0000001831061081d576040517f08c379a0000000000000000000000000000000000000000000000000000000008152600401610814906123e9565b60405180910390fd5b80600261082a919061256b565b84600201541061086f576040517f08c379a000000000000000000000000000000000000000000000000000000000815260040161086690612602565b60405180910390fd5b600084600201549050600084905060008660050160009054906101000a900460ff16905060005b848160ff1610156109f1576000600185160361091c576040518060400160405280848152602001836108e0578960030160008460ff168152602001908152602001600020546108ed565b6108ec8360ff16610ab2565b5b8152508860040160008360ff168152602001908152602001600020906002610916929190611f54565b5061094e565b828860040160008360ff16815260200190815260200160002060016002811061094857610947612622565b5b01819055505b73__$75f79a42d9bcbdbb69ad79ebd80f556f39$__63561558fe8960040160008460ff1681526020019081526020016000206040518263ffffffff1660e01b815260040161099c9190612747565b602060405180830381865af41580156109b9573d6000803e3d6000fd5b505050506040513d601f19601f820116820180604052508101906109dd9190612777565b9250600184901c9350806001019050610896565b508187600101819055506001876002016000828254610a1091906127a4565b925050819055508194505050505092915050565b600081118015610a385750602060ff168111155b610a77576040517f08c379a0000000000000000000000000000000000000000000000000000000008152600401610a6e9061286c565b60405180910390fd5b80826000018190555060018260050160006101000a81548160ff021916908315150217905550610aa681610ab2565b82600101819055505050565b6000808203610ac457600090506110ff565b60018203610af4577f2098f5fb9e239eab3ceac3f27b81e481dc3124d55ffed523a839ee8446b6486490506110ff565b60028203610b24577f1069673dcdb12263df301a6ff584a7ec261a44cb9dc68df067a4774460b1f1e190506110ff565b60038203610b54577f18f43331537ee2af2e3d758d50f72106467c6eea50371dd528d57eb2b856d23890506110ff565b60048203610b84577f07f9d837cb17b0d36320ffe93ba52345f1b728571a568265caac97559dbc952a90506110ff565b60058203610bb4577f2b94cf5e8746b3f5c9631f4c5df32907a699c58c94b2ad4d7b5cec1639183f5590506110ff565b60068203610be4577f2dee93c5a666459646ea7d22cca9e1bcfed71e6951b953611d11dda32ea09d7890506110ff565b60078203610c14577f078295e5a22b84e982cf601eb639597b8b0515a88cb5ac7fa8a4aabe3c87349d90506110ff565b60088203610c44577f2fa5e5f18f6027a6501bec864564472a616b2e274a41211a444cbe3a99f3cc6190506110ff565b60098203610c74577f0e884376d0d8fd21ecb780389e941f66e45e7acce3e228ab3e2156a614fcd74790506110ff565b600a8203610ca4577f1b7201da72494f1e28717ad1a52eb469f95892f957713533de6175e5da190af290506110ff565b600b8203610cd4577f1f8d8822725e36385200c0b201249819a6e6e1e4650808b5bebc6bface7d763690506110ff565b600c8203610d04577f2c5d82f66c914bafb9701589ba8cfcfb6162b0a12acf88a8d0879a0471b5f85a90506110ff565b600d8203610d34577f14c54148a0940bb820957f5adf3fa1134ef5c4aaa113f4646458f270e0bfbfd090506110ff565b600e8203610d64577f190d33b12f986f961e10c0ee44d8b9af11be25588cad89d416118e4bf4ebe80c90506110ff565b600f8203610d94577f22f98aa9ce704152ac17354914ad73ed1167ae6596af510aa5b3649325e06c9290506110ff565b60108203610dc4577f2a7c7c9b6ce5880b9f6f228d72bf6a575a526f29c66ecceef8b753d38bba732390506110ff565b60118203610df4577f2e8186e558698ec1c67af9c14d463ffc470043c9c2988b954d75dd643f36b99290506110ff565b60128203610e24577f0f57c5571e9a4eab49e2c8cf050dae948aef6ead647392273546249d1c1ff10f90506110ff565b60138203610e54577f1830ee67b5fb554ad5f63d4388800e1cfe78e310697d46e43c9ce36134f72cca90506110ff565b60148203610e84577f2134e76ac5d21aab186c2be1dd8f84ee880a1e46eaf712f9d371b6df22191f3e90506110ff565b60158203610eb4577f19df90ec844ebc4ffeebd866f33859b0c051d8c958ee3aa88f8f8df3db91a5b190506110ff565b60168203610ee4577f18cca2a66b5c0787981e69aefd84852d74af0e93ef4912b4648c05f722efe52b90506110ff565b60178203610f14577f2388909415230d1b4d1304d2d54f473a628338f2efad83fadf05644549d2538d90506110ff565b60188203610f44577f27171fb4a97b6cc0e9e8f543b5294de866a2af2c9c8d0b1d96e673e4529ed54090506110ff565b60198203610f74577f2ff6650540f629fd5711a0bc74fc0d28dcb230b9392583e5f8d59696dde6ae2190506110ff565b601a8203610fa4577f120c58f143d491e95902f7f5277778a2e0ad5168f6add75669932630ce61151890506110ff565b601b8203610fd4577f1f21feb70d3f21b07bf853d5e5db03071ec495a0a565a21da2d665d27948379590506110ff565b601c8203611004577f24be905fa71335e14c638cc0f66a8623a826e768068a9e968bb1a1dde18a72d290506110ff565b601d8203611034577f0f8666b62ed17491c50ceadead57d4cd597ef3821d65c328744c74e553dac26d90506110ff565b601e8203611064577f0918d46bf52d98b034413f4a1a1c41594e7a7a3f6ae08cb43d1a2a230e1959ef90506110ff565b601f8203611094577f1bbeb01b4c479ecde76917645e404dfa2e26f90d0afc5a65128513ad375c5ff290506110ff565b602082036110c4577f2f68a1c58e257e42a17a6c61dff5551ed560b9922ab119d5ac8e184c9734ead990506110ff565b6040517f08c379a00000000000000000000000000000000000000000000000000000000081526004016110f6906128fe565b60405180910390fd5b919050565b7f2388909415230d1b4d1304d2d54f473a628338f2efad83fadf05644549d2538d81565b7f30644e72e131a029b85045b68181585d2833e84879b9709143e1f593f000000181565b7f18cca2a66b5c0787981e69aefd84852d74af0e93ef4912b4648c05f722efe52b81565b7f2e8186e558698ec1c67af9c14d463ffc470043c9c2988b954d75dd643f36b99281565b7f30644e72e131a029b85045b68181585d2833e84879b9709143e1f593f000000181106111f6576040517f08c379a00000000000000000000000000000000000000000000000000000000081526004016111ed906123e9565b60405180910390fd5b60008211801561120a5750602060ff168211155b611249576040517f08c379a00000000000000000000000000000000000000000000000000000000081526004016112409061286c565b60405180910390fd5b81836000018190555060005b828160ff16101561131657818460030160008360ff1681526020019081526020016000208190555073__$75f79a42d9bcbdbb69ad79ebd80f556f39$__63561558fe6040518060400160405280858152602001858152506040518263ffffffff1660e01b81526004016112c89190612997565b602060405180830381865af41580156112e5573d6000803e3d6000fd5b505050506040513d601f19601f820116820180604052508101906113099190612777565b9150806001019050611255565b50808360010181905550505050565b7f2ff6650540f629fd5711a0bc74fc0d28dcb230b9392583e5f8d59696dde6ae2181565b7f24be905fa71335e14c638cc0f66a8623a826e768068a9e968bb1a1dde18a72d281565b7f1069673dcdb12263df301a6ff584a7ec261a44cb9dc68df067a4774460b1f1e181565b7f14c54148a0940bb820957f5adf3fa1134ef5c4aaa113f4646458f270e0bfbfd081565b7f0f57c5571e9a4eab49e2c8cf050dae948aef6ead647392273546249d1c1ff10f81565b7f2dee93c5a666459646ea7d22cca9e1bcfed71e6951b953611d11dda32ea09d7881565b7f2fa5e5f18f6027a6501bec864564472a616b2e274a41211a444cbe3a99f3cc6181565b7f27171fb4a97b6cc0e9e8f543b5294de866a2af2c9c8d0b1d96e673e4529ed54081565b7f078295e5a22b84e982cf601eb639597b8b0515a88cb5ac7fa8a4aabe3c87349d81565b6114ab86868860050160009054906101000a900460ff1661149f57886003016000808152602001908152602001600020546114a2565b60005b87878787611691565b505050505050565b7f1830ee67b5fb554ad5f63d4388800e1cfe78e310697d46e43c9ce36134f72cca81565b600081565b7f190d33b12f986f961e10c0ee44d8b9af11be25588cad89d416118e4bf4ebe80c81565b7f18f43331537ee2af2e3d758d50f72106467c6eea50371dd528d57eb2b856d23881565b7f2a7c7c9b6ce5880b9f6f228d72bf6a575a526f29c66ecceef8b753d38bba732381565b7f0e884376d0d8fd21ecb780389e941f66e45e7acce3e228ab3e2156a614fcd74781565b7f2c5d82f66c914bafb9701589ba8cfcfb6162b0a12acf88a8d0879a0471b5f85a81565b7f0f8666b62ed17491c50ceadead57d4cd597ef3821d65c328744c74e553dac26d81565b602081565b7f22f98aa9ce704152ac17354914ad73ed1167ae6596af510aa5b3649325e06c9281565b7f0918d46bf52d98b034413f4a1a1c41594e7a7a3f6ae08cb43d1a2a230e1959ef81565b7f19df90ec844ebc4ffeebd866f33859b0c051d8c958ee3aa88f8f8df3db91a5b181565b7f1f21feb70d3f21b07bf853d5e5db03071ec495a0a565a21da2d665d27948379581565b7f2134e76ac5d21aab186c2be1dd8f84ee880a1e46eaf712f9d371b6df22191f3e81565b7f2b94cf5e8746b3f5c9631f4c5df32907a699c58c94b2ad4d7b5cec1639183f5581565b8585036116d3576040517f08c379a00000000000000000000000000000000000000000000000000000000081526004016116ca90612a24565b60405180910390fd5b7f30644e72e131a029b85045b68181585d2833e84879b9709143e1f593f00000018510611735576040517f08c379a000000000000000000000000000000000000000000000000000000000815260040161172c90612ab6565b60405180910390fd5b611743878786868686611bab565b611782576040517f08c379a000000000000000000000000000000000000000000000000000000000815260040161177990612b48565b60405180910390fd5b6000876000015490506000869050600080600090505b838160ff161015611a77578060ff1686868360ff168181106117bd576117bc612622565b5b90506020020160208101906117d29190612b94565b60ff16901b82179150600086868360ff168181106117f3576117f2612622565b5b90506020020160208101906118089190612b94565b60ff1603611940578a60040160008260ff16815260200190815260200160002060016002811061183b5761183a612622565b5b015488888360ff1681811061185357611852612622565b5b905060200201350361189157828b60040160008360ff16815260200190815260200160002060006002811061188b5761188a612622565b5b01819055505b73__$75f79a42d9bcbdbb69ad79ebd80f556f39$__63561558fe60405180604001604052808681526020018b8b8660ff168181106118d2576118d1612622565b5b905060200201358152506040518263ffffffff1660e01b81526004016118f89190612997565b602060405180830381865af4158015611915573d6000803e3d6000fd5b505050506040513d601f19601f820116820180604052508101906119399190612777565b9250611a6c565b8a60040160008260ff16815260200190815260200160002060006002811061196b5761196a612622565b5b015488888360ff1681811061198357611982612622565b5b90506020020135036119c157828b60040160008360ff1681526020019081526020016000206001600281106119bb576119ba612622565b5b01819055505b73__$75f79a42d9bcbdbb69ad79ebd80f556f39$__63561558fe60405180604001604052808b8b8660ff168181106119fc576119fb612622565b5b905060200201358152602001868152506040518263ffffffff1660e01b8152600401611a289190612997565b602060405180830381865af4158015611a45573d6000803e3d6000fd5b505050506040513d601f19601f82011682018060405250810190611a699190612777565b92505b806001019050611798565b5089600201548110611abe576040517f08c379a0000000000000000000000000000000000000000000000000000000008152600401611ab590612c33565b60405180910390fd5b818a6001018190555050505050505050505050565b7f07f9d837cb17b0d36320ffe93ba52345f1b728571a568265caac97559dbc952a81565b7f1bbeb01b4c479ecde76917645e404dfa2e26f90d0afc5a65128513ad375c5ff281565b7f2098f5fb9e239eab3ceac3f27b81e481dc3124d55ffed523a839ee8446b6486481565b7f1f8d8822725e36385200c0b201249819a6e6e1e4650808b5bebc6bface7d763681565b7f1b7201da72494f1e28717ad1a52eb469f95892f957713533de6175e5da190af281565b7f2f68a1c58e257e42a17a6c61dff5551ed560b9922ab119d5ac8e184c9734ead981565b60007f30644e72e131a029b85045b68181585d2833e84879b9709143e1f593f00000018610611c0f576040517f08c379a0000000000000000000000000000000000000000000000000000000008152600401611c06906123e9565b60405180910390fd5b6000876000015490508084849050148015611c2c57508086869050145b611c6b576040517f08c379a0000000000000000000000000000000000000000000000000000000008152600401611c6290612cc5565b60405180910390fd5b600087905060005b828160ff161015611f3e577f30644e72e131a029b85045b68181585d2833e84879b9709143e1f593f000000188888360ff16818110611cb557611cb4612622565b5b9050602002013510611cfc576040517f08c379a0000000000000000000000000000000000000000000000000000000008152600401611cf390612d57565b60405180910390fd5b600186868360ff16818110611d1457611d13612622565b5b9050602002016020810190611d299190612b94565b60ff161480611d655750600086868360ff16818110611d4b57611d4a612622565b5b9050602002016020810190611d609190612b94565b60ff16145b611da4576040517f08c379a0000000000000000000000000000000000000000000000000000000008152600401611d9b90612de9565b60405180910390fd5b600086868360ff16818110611dbc57611dbb612622565b5b9050602002016020810190611dd19190612b94565b60ff1603611e885773__$75f79a42d9bcbdbb69ad79ebd80f556f39$__63561558fe60405180604001604052808581526020018b8b8660ff16818110611e1a57611e19612622565b5b905060200201358152506040518263ffffffff1660e01b8152600401611e409190612997565b602060405180830381865af4158015611e5d573d6000803e3d6000fd5b505050506040513d601f19601f82011682018060405250810190611e819190612777565b9150611f33565b73__$75f79a42d9bcbdbb69ad79ebd80f556f39$__63561558fe60405180604001604052808b8b8660ff16818110611ec357611ec2612622565b5b905060200201358152602001858152506040518263ffffffff1660e01b8152600401611eef9190612997565b602060405180830381865af4158015611f0c573d6000803e3d6000fd5b505050506040513d601f19601f82011682018060405250810190611f309190612777565b91505b806001019050611c73565b5088600101548114925050509695505050505050565b8260028101928215611f83579160200282015b82811115611f82578251825591602001919060010190611f67565b5b509050611f909190611f94565b5090565b5b80821115611fad576000816000905550600101611f95565b5090565b6000819050919050565b611fc481611fb1565b82525050565b6000602082019050611fdf6000830184611fbb565b92915050565b600080fd5b600080fd5b6000819050919050565b61200281611fef565b811461200d57600080fd5b50565b60008135905061201f81611ff9565b92915050565b61202e81611fb1565b811461203957600080fd5b50565b60008135905061204b81612025565b92915050565b6000806040838503121561206857612067611fe5565b5b600061207685828601612010565b92505060206120878582860161203c565b9150509250929050565b6000602082840312156120a7576120a6611fe5565b5b60006120b58482850161203c565b91505092915050565b6000806000606084860312156120d7576120d6611fe5565b5b60006120e586828701612010565b93505060206120f68682870161203c565b92505060406121078682870161203c565b9150509250925092565b600080fd5b600080fd5b600080fd5b60008083601f84011261213657612135612111565b5b8235905067ffffffffffffffff81111561215357612152612116565b5b60208301915083602082028301111561216f5761216e61211b565b5b9250929050565b60008083601f84011261218c5761218b612111565b5b8235905067ffffffffffffffff8111156121a9576121a8612116565b5b6020830191508360208202830111156121c5576121c461211b565b5b9250929050565b600080600080600080608087890312156121e9576121e8611fe5565b5b60006121f789828a01612010565b965050602061220889828a0161203c565b955050604087013567ffffffffffffffff81111561222957612228611fea565b5b61223589828a01612120565b9450945050606087013567ffffffffffffffff81111561225857612257611fea565b5b61226489828a01612176565b92509250509295509295509295565b600060ff82169050919050565b61228981612273565b82525050565b60006020820190506122a46000830184612280565b92915050565b600080600080600080600060a0888a0312156122c9576122c8611fe5565b5b60006122d78a828b01612010565b97505060206122e88a828b0161203c565b96505060406122f98a828b0161203c565b955050606088013567ffffffffffffffff81111561231a57612319611fea565b5b6123268a828b01612120565b9450945050608088013567ffffffffffffffff81111561234957612348611fea565b5b6123558a828b01612176565b925092505092959891949750929550565b600082825260208201905092915050565b7f42696e617279494d543a206c656166206d757374206265203c20534e41524b5f60008201527f5343414c41525f4649454c440000000000000000000000000000000000000000602082015250565b60006123d3602c83612366565b91506123de82612377565b604082019050919050565b60006020820190508181036000830152612402816123c6565b9050919050565b7f4e487b7100000000000000000000000000000000000000000000000000000000600052601160045260246000fd5b60008160011c9050919050565b6000808291508390505b600185111561248f5780860481111561246b5761246a612409565b5b600185161561247a5780820291505b808102905061248885612438565b945061244f565b94509492505050565b6000826124a85760019050612564565b816124b65760009050612564565b81600181146124cc57600281146124d657612505565b6001915050612564565b60ff8411156124e8576124e7612409565b5b8360020a9150848211156124ff576124fe612409565b5b50612564565b5060208310610133831016604e8410600b841016171561253a5782820a90508381111561253557612534612409565b5b612564565b6125478484846001612445565b9250905081840481111561255e5761255d612409565b5b81810290505b9392505050565b600061257682611fb1565b915061258183611fb1565b92506125ae7fffffffffffffffffffffffffffffffffffffffffffffffffffffffffffffffff8484612498565b905092915050565b7f42696e617279494d543a20747265652069732066756c6c000000000000000000600082015250565b60006125ec601783612366565b91506125f7826125b6565b602082019050919050565b6000602082019050818103600083015261261b816125df565b9050919050565b7f4e487b7100000000000000000000000000000000000000000000000000000000600052603260045260246000fd5b600060029050919050565b600081905092915050565b6000819050919050565b61267a81611fb1565b82525050565b600061268c8383612671565b60208301905092915050565b60008160001c9050919050565b6000819050919050565b60006126c26126bd83612698565b6126a5565b9050919050565b60006126d582546126af565b9050919050565b6000600182019050919050565b6126f281612651565b6126fc818461265c565b925061270782612667565b8060005b8381101561273f5761271c826126c9565b6127268782612680565b9650612731836126dc565b92505060018101905061270b565b505050505050565b600060408201905061275c60008301846126e9565b92915050565b60008151905061277181612025565b92915050565b60006020828403121561278d5761278c611fe5565b5b600061279b84828501612762565b91505092915050565b60006127af82611fb1565b91506127ba83611fb1565b9250827fffffffffffffffffffffffffffffffffffffffffffffffffffffffffffffffff038211156127ef576127ee612409565b5b828201905092915050565b7f42696e617279494d543a2074726565206465707468206d75737420626520626560008201527f747765656e203120616e64203332000000000000000000000000000000000000602082015250565b6000612856602e83612366565b9150612861826127fa565b604082019050919050565b6000602082019050818103600083015261288581612849565b9050919050565b7f496e6372656d656e74616c42696e617279547265653a2064656661756c745a6560008201527f726f2062616420696e6465780000000000000000000000000000000000000000602082015250565b60006128e8602c83612366565b91506128f38261288c565b604082019050919050565b60006020820190508181036000830152612917816128db565b9050919050565b600060029050919050565b6000819050919050565b6000602082019050919050565b6129498161291e565b612953818461265c565b925061295e82612929565b8060005b8381101561298f5781516129768782612680565b965061298183612933565b925050600181019050612962565b505050505050565b60006040820190506129ac6000830184612940565b92915050565b7f42696e617279494d543a206e6577206c6561662063616e6e6f7420626520746860008201527f652073616d6520617320746865206f6c64206f6e650000000000000000000000602082015250565b6000612a0e603583612366565b9150612a19826129b2565b604082019050919050565b60006020820190508181036000830152612a3d81612a01565b9050919050565b7f42696e617279494d543a206e6577206c656166206d757374206265203c20534e60008201527f41524b5f5343414c41525f4649454c4400000000000000000000000000000000602082015250565b6000612aa0603083612366565b9150612aab82612a44565b604082019050919050565b60006020820190508181036000830152612acf81612a93565b9050919050565b7f42696e617279494d543a206c656166206973206e6f742070617274206f66207460008201527f6865207472656500000000000000000000000000000000000000000000000000602082015250565b6000612b32602783612366565b9150612b3d82612ad6565b604082019050919050565b60006020820190508181036000830152612b6181612b25565b9050919050565b612b7181612273565b8114612b7c57600080fd5b50565b600081359050612b8e81612b68565b92915050565b600060208284031215612baa57612ba9611fe5565b5b6000612bb884828501612b7f565b91505092915050565b7f42696e617279494d543a206c65616620696e646578206f7574206f662072616e60008201527f6765000000000000000000000000000000000000000000000000000000000000602082015250565b6000612c1d602283612366565b9150612c2882612bc1565b604082019050919050565b60006020820190508181036000830152612c4c81612c10565b9050919050565b7f42696e617279494d543a206c656e677468206f662070617468206973206e6f7460008201527f20636f7272656374000000000000000000000000000000000000000000000000602082015250565b6000612caf602883612366565b9150612cba82612c53565b604082019050919050565b60006020820190508181036000830152612cde81612ca2565b9050919050565b7f42696e617279494d543a207369626c696e67206e6f6465206d7573742062652060008201527f3c20534e41524b5f5343414c41525f4649454c44000000000000000000000000602082015250565b6000612d41603483612366565b9150612d4c82612ce5565b604082019050919050565b60006020820190508181036000830152612d7081612d34565b9050919050565b7f42696e617279494d543a207061746820696e646578206973206e65697468657260008201527f2030206e6f722031000000000000000000000000000000000000000000000000602082015250565b6000612dd3602883612366565b9150612dde82612d77565b604082019050919050565b60006020820190508181036000830152612e0281612dc6565b905091905056fea2646970667358221220589cbf72cc2d84eab9c18913d1987756da4f6f0cf670db3e3b48633df0cb1f5764736f6c634300080f0033",
  "libraries": {
    "PoseidonT3": "0x926D62A7b0EBAeF934949499F89554DAa32DD7D5"
  },
  "devdoc": {
    "details": "The incremental tree allows to calculate the root hash each time a leaf is added, ensuring the integrity of the tree.",
    "kind": "dev",
    "methods": {
      "init(BinaryIMTData storage,uint256,uint256)": {
        "details": "Initializes a tree.",
        "params": {
          "depth": ": Depth of the tree.",
          "self": ": Tree data.",
          "zero": ": Zero value to be used."
        }
      },
      "insert(BinaryIMTData storage,uint256)": {
        "details": "Inserts a leaf in the tree.",
        "params": {
          "leaf": ": Leaf to be inserted.",
          "self": ": Tree data."
        }
      },
      "remove(BinaryIMTData storage,uint256,uint256[],uint8[])": {
        "details": "Removes a leaf from the tree.",
        "params": {
          "leaf": ": Leaf to be removed.",
          "proofPathIndices": ": Path of the proof of membership.",
          "proofSiblings": ": Array of the sibling nodes of the proof of membership.",
          "self": ": Tree data."
        }
      },
      "update(BinaryIMTData storage,uint256,uint256,uint256[],uint8[])": {
        "details": "Updates a leaf in the tree.",
        "params": {
          "leaf": ": Leaf to be updated.",
          "newLeaf": ": New leaf.",
          "proofPathIndices": ": Path of the proof of membership.",
          "proofSiblings": ": Array of the sibling nodes of the proof of membership.",
          "self": ": Tree data."
        }
      }
    },
    "title": "Incremental binary Merkle tree.",
    "version": 1
  },
  "userdoc": {
    "kind": "user",
    "methods": {},
    "version": 1
  },
  "storageLayout": {
    "storage": [],
    "types": null
  }
}