{
  "address": "0xd2727D17a9a2152944Db54889e18ebD2495344BB",
  "abi": [
    {
      "inputs": [
        {
          "internalType": "uint256",
          "name": "membershipDeposit",
          "type": "uint256"
        },
        {
          "internalType": "uint256",
          "name": "depth",
          "type": "uint256"
        },
        {
          "internalType": "address",
          "name": "_verifier",
          "type": "address"
        }
      ],
      "stateMutability": "nonpayable",
      "type": "constructor"
    },
    {
      "inputs": [],
      "name": "DuplicateIdCommitment",
      "type": "error"
    },
    {
      "inputs": [],
      "name": "FullTree",
      "type": "error"
    },
    {
      "inputs": [],
      "name": "InsufficientContractBalance",
      "type": "error"
    },
    {
      "inputs": [
        {
          "internalType": "uint256",
          "name": "required",
          "type": "uint256"
        },
        {
          "internalType": "uint256",
          "name": "provided",
          "type": "uint256"
        }
      ],
      "name": "InsufficientDeposit",
      "type": "error"
    },
    {
      "inputs": [],
      "name": "InsufficientWithdrawalBalance",
      "type": "error"
    },
    {
      "inputs": [
        {
          "internalType": "uint256",
          "name": "idCommitment",
          "type": "uint256"
        }
      ],
      "name": "InvalidIdCommitment",
      "type": "error"
    },
    {
      "inputs": [
        {
          "internalType": "uint256",
          "name": "startIndex",
          "type": "uint256"
        },
        {
          "internalType": "uint256",
          "name": "endIndex",
          "type": "uint256"
        }
      ],
      "name": "InvalidPaginationQuery",
      "type": "error"
    },
    {
      "inputs": [],
      "name": "InvalidProof",
      "type": "error"
    },
    {
      "inputs": [
        {
          "internalType": "address",
          "name": "to",
          "type": "address"
        }
      ],
      "name": "InvalidReceiverAddress",
      "type": "error"
    },
    {
      "inputs": [
        {
          "internalType": "uint256",
          "name": "idCommitment",
          "type": "uint256"
        }
      ],
      "name": "MemberHasNoStake",
      "type": "error"
    },
    {
      "inputs": [
        {
          "internalType": "uint256",
          "name": "idCommitment",
          "type": "uint256"
        }
      ],
      "name": "MemberNotRegistered",
      "type": "error"
    },
    {
      "anonymous": false,
      "inputs": [
        {
          "indexed": false,
          "internalType": "uint256",
          "name": "idCommitment",
          "type": "uint256"
        },
        {
          "indexed": false,
          "internalType": "uint256",
          "name": "index",
          "type": "uint256"
        }
      ],
      "name": "MemberRegistered",
      "type": "event"
    },
    {
      "anonymous": false,
      "inputs": [
        {
          "indexed": false,
          "internalType": "uint256",
          "name": "idCommitment",
          "type": "uint256"
        },
        {
          "indexed": false,
          "internalType": "uint256",
          "name": "index",
          "type": "uint256"
        }
      ],
      "name": "MemberWithdrawn",
      "type": "event"
    },
    {
      "inputs": [],
      "name": "DEPTH",
      "outputs": [
        {
          "internalType": "uint256",
          "name": "",
          "type": "uint256"
        }
      ],
      "stateMutability": "view",
      "type": "function"
    },
    {
      "inputs": [],
      "name": "MEMBERSHIP_DEPOSIT",
      "outputs": [
        {
          "internalType": "uint256",
          "name": "",
          "type": "uint256"
        }
      ],
      "stateMutability": "view",
      "type": "function"
    },
    {
      "inputs": [],
      "name": "Q",
      "outputs": [
        {
          "internalType": "uint256",
          "name": "",
          "type": "uint256"
        }
      ],
      "stateMutability": "view",
      "type": "function"
    },
    {
      "inputs": [],
      "name": "SET_SIZE",
      "outputs": [
        {
          "internalType": "uint256",
          "name": "",
          "type": "uint256"
        }
      ],
      "stateMutability": "view",
      "type": "function"
    },
    {
      "inputs": [],
      "name": "deployedBlockNumber",
      "outputs": [
        {
          "internalType": "uint32",
          "name": "",
          "type": "uint32"
        }
      ],
      "stateMutability": "view",
      "type": "function"
    },
    {
      "inputs": [
        {
          "internalType": "uint256",
          "name": "startIndex",
          "type": "uint256"
        },
        {
          "internalType": "uint256",
          "name": "endIndex",
          "type": "uint256"
        }
      ],
      "name": "getCommitments",
      "outputs": [
        {
          "internalType": "uint256[]",
          "name": "",
          "type": "uint256[]"
        }
      ],
      "stateMutability": "view",
      "type": "function"
    },
    {
      "inputs": [],
      "name": "idCommitmentIndex",
      "outputs": [
        {
          "internalType": "uint256",
          "name": "",
          "type": "uint256"
        }
      ],
      "stateMutability": "view",
      "type": "function"
    },
    {
      "inputs": [],
      "name": "imtData",
      "outputs": [
        {
          "internalType": "uint256",
          "name": "depth",
          "type": "uint256"
        },
        {
          "internalType": "uint256",
          "name": "root",
          "type": "uint256"
        },
        {
          "internalType": "uint256",
          "name": "numberOfLeaves",
          "type": "uint256"
        },
        {
          "internalType": "bool",
          "name": "useDefaultZeroes",
          "type": "bool"
        }
      ],
      "stateMutability": "view",
      "type": "function"
    },
    {
      "inputs": [
        {
          "internalType": "uint256",
          "name": "",
          "type": "uint256"
        }
      ],
      "name": "indexToCommitment",
      "outputs": [
        {
          "internalType": "uint256",
          "name": "",
          "type": "uint256"
        }
      ],
      "stateMutability": "view",
      "type": "function"
    },
    {
      "inputs": [
        {
          "internalType": "uint256",
          "name": "idCommitment",
          "type": "uint256"
        }
      ],
      "name": "isValidCommitment",
      "outputs": [
        {
          "internalType": "bool",
          "name": "",
          "type": "bool"
        }
      ],
      "stateMutability": "pure",
      "type": "function"
    },
    {
      "inputs": [
        {
          "internalType": "uint256",
          "name": "",
          "type": "uint256"
        }
      ],
      "name": "memberExists",
      "outputs": [
        {
          "internalType": "bool",
          "name": "",
          "type": "bool"
        }
      ],
      "stateMutability": "view",
      "type": "function"
    },
    {
      "inputs": [
        {
          "internalType": "uint256",
          "name": "",
          "type": "uint256"
        }
      ],
      "name": "members",
      "outputs": [
        {
          "internalType": "uint256",
          "name": "",
          "type": "uint256"
        }
      ],
      "stateMutability": "view",
      "type": "function"
    },
    {
      "inputs": [
        {
          "internalType": "uint256",
          "name": "idCommitment",
          "type": "uint256"
        }
      ],
      "name": "register",
      "outputs": [],
      "stateMutability": "payable",
      "type": "function"
    },
    {
      "inputs": [],
      "name": "root",
      "outputs": [
        {
          "internalType": "uint256",
          "name": "",
          "type": "uint256"
        }
      ],
      "stateMutability": "view",
      "type": "function"
    },
    {
      "inputs": [
        {
          "internalType": "uint256",
          "name": "idCommitment",
          "type": "uint256"
        },
        {
          "internalType": "address payable",
          "name": "receiver",
          "type": "address"
        },
        {
          "internalType": "uint256[8]",
          "name": "proof",
          "type": "uint256[8]"
        }
      ],
      "name": "slash",
      "outputs": [],
      "stateMutability": "nonpayable",
      "type": "function"
    },
    {
      "inputs": [
        {
          "internalType": "uint256",
          "name": "",
          "type": "uint256"
        }
      ],
      "name": "stakedAmounts",
      "outputs": [
        {
          "internalType": "uint256",
          "name": "",
          "type": "uint256"
        }
      ],
      "stateMutability": "view",
      "type": "function"
    },
    {
      "inputs": [],
      "name": "verifier",
      "outputs": [
        {
          "internalType": "contract IVerifier",
          "name": "",
          "type": "address"
        }
      ],
      "stateMutability": "view",
      "type": "function"
    },
    {
      "inputs": [],
      "name": "withdraw",
      "outputs": [],
      "stateMutability": "nonpayable",
      "type": "function"
    },
    {
      "inputs": [
        {
          "internalType": "address",
          "name": "",
          "type": "address"
        }
      ],
      "name": "withdrawalBalance",
      "outputs": [
        {
          "internalType": "uint256",
          "name": "",
          "type": "uint256"
        }
      ],
      "stateMutability": "view",
      "type": "function"
    }
  ],
  "transactionHash": "0x3f2a654bfdee20d4c1026ff702b6f651a8866a3c98ad061ed651e2a97672a1af",
  "args": [
    1000000000000000,
    20,
    "0xDFD4FC1c81Bd499d814fF876e34637bE58F85b90"
  ],
  "numDeployments": 4,
  "solcInputHash": "15f74e5f0c94470d1f8e998d023059bd",
  "bytecode": "0x610120604052600080553480156200001657600080fd5b5060405162001d0638038062001d0683398181016040528101906200003c9190620001c4565b82828282608081815250508160a08181525050816001901b60c081815250508073ffffffffffffffffffffffffffffffffffffffff1660e08173ffffffffffffffffffffffffffffffffffffffff16815250504363ffffffff166101008163ffffffff16815250507316eff5b01123605924d9BF74Ed947F8Fd3015f446314d8c626600660146040518363ffffffff1660e01b8152600401620000e192919062000274565b60006040518083038186803b158015620000fa57600080fd5b505af41580156200010f573d6000803e3d6000fd5b50505050505050505050620002a1565b600080fd5b6000819050919050565b620001398162000124565b81146200014557600080fd5b50565b60008151905062000159816200012e565b92915050565b600073ffffffffffffffffffffffffffffffffffffffff82169050919050565b60006200018c826200015f565b9050919050565b6200019e816200017f565b8114620001aa57600080fd5b50565b600081519050620001be8162000193565b92915050565b600080600060608486031215620001e057620001df6200011f565b5b6000620001f08682870162000148565b9350506020620002038682870162000148565b92505060406200021686828701620001ad565b9150509250925092565b8082525050565b6000819050919050565b6000819050919050565b60006200025c62000256620002508462000227565b62000231565b62000124565b9050919050565b6200026e816200023b565b82525050565b60006040820190506200028b600083018562000220565b6200029a602083018462000263565b9392505050565b60805160a05160c05160e05161010051611a046200030260003960006106760152600081816104e00152610f4d0152600081816108fe0152610da5015260006108a401526000818161099e015281816109c50152610a3b0152611a046000f3fe6080604052600436106101145760003560e01c8063933ebfdd116100a0578063d0383d6811610064578063d0383d68146103de578063e493ef8c14610409578063ebf0c71714610434578063f207564e1461045f578063f220b9ec1461047b57610114565b8063933ebfdd146102d157806398366e351461030e578063ae74552a14610339578063bc49912814610364578063c5b208ff146103a157610114565b80634add651e116100e75780634add651e146101c65780635daf08ca146101f15780636bdcc8ab1461022e5780637671ac051461026b5780638be9b119146102a857610114565b806322d9730c146101195780632b7ac3f3146101565780633c979b5f146101815780633ccfd60b146101af575b600080fd5b34801561012557600080fd5b50610140600480360381019061013b919061117d565b6104a6565b60405161014d91906111c5565b60405180910390f35b34801561016257600080fd5b5061016b6104de565b604051610178919061125f565b60405180910390f35b34801561018d57600080fd5b50610196610502565b6040516101a69493929190611289565b60405180910390f35b3480156101bb57600080fd5b506101c461052d565b005b3480156101d257600080fd5b506101db610674565b6040516101e891906112ed565b60405180910390f35b3480156101fd57600080fd5b506102186004803603810190610213919061117d565b610698565b6040516102259190611308565b60405180910390f35b34801561023a57600080fd5b506102556004803603810190610250919061117d565b6106b0565b60405161026291906111c5565b60405180910390f35b34801561027757600080fd5b50610292600480360381019061028d919061117d565b6106d0565b60405161029f9190611308565b60405180910390f35b3480156102b457600080fd5b506102cf60048036038101906102ca9190611388565b6106e8565b005b3480156102dd57600080fd5b506102f860048036038101906102f391906113dc565b61074f565b60405161030591906114da565b60405180910390f35b34801561031a57600080fd5b506103236108a2565b6040516103309190611308565b60405180910390f35b34801561034557600080fd5b5061034e6108c6565b60405161035b9190611308565b60405180910390f35b34801561037057600080fd5b5061038b6004803603810190610386919061117d565b6108cc565b6040516103989190611308565b60405180910390f35b3480156103ad57600080fd5b506103c860048036038101906103c3919061153a565b6108e4565b6040516103d59190611308565b60405180910390f35b3480156103ea57600080fd5b506103f36108fc565b6040516104009190611308565b60405180910390f35b34801561041557600080fd5b5061041e610920565b60405161042b9190611308565b60405180910390f35b34801561044057600080fd5b50610449610944565b6040516104569190611308565b60405180910390f35b6104796004803603810190610474919061117d565b610951565b005b34801561048757600080fd5b50610490610a39565b60405161049d9190611308565b60405180910390f35b60008082141580156104d757507f30644e72e131a029b85045b68181585d2833e84879b9709143e1f593f000000182105b9050919050565b7f000000000000000000000000000000000000000000000000000000000000000081565b60068060000154908060010154908060020154908060050160009054906101000a900460ff16905084565b6000600560003373ffffffffffffffffffffffffffffffffffffffff1673ffffffffffffffffffffffffffffffffffffffff168152602001908152602001600020549050600081036105ab576040517f6f50367a00000000000000000000000000000000000000000000000000000000815260040160405180910390fd5b478111156105e5576040517f786e0a9900000000000000000000000000000000000000000000000000000000815260040160405180910390fd5b6000600560003373ffffffffffffffffffffffffffffffffffffffff1673ffffffffffffffffffffffffffffffffffffffff168152602001908152602001600020819055503373ffffffffffffffffffffffffffffffffffffffff166108fc829081150290604051600060405180830381858888f19350505050158015610670573d6000803e3d6000fd5b5050565b7f000000000000000000000000000000000000000000000000000000000000000081565b60026020528060005260406000206000915090505481565b60046020528060005260406000206000915054906101000a900460ff1681565b60036020528060005260406000206000915090505481565b826106f2816104a6565b61073357806040517f7f3e75af00000000000000000000000000000000000000000000000000000000815260040161072a9190611308565b60405180910390fd5b61073e848484610a5d565b610749848484610a62565b50505050565b60608183106107975782826040517f9ffcd53d00000000000000000000000000000000000000000000000000000000815260040161078e929190611567565b60405180910390fd5b6000548211156107e05782826040517f9ffcd53d0000000000000000000000000000000000000000000000000000000081526004016107d7929190611567565b60405180910390fd5b600083836107ee91906115bf565b67ffffffffffffffff811115610807576108066115f3565b5b6040519080825280602002602001820160405280156108355781602001602082028036833780820191505090505b50905060008490505b8381101561089757600360008281526020019081526020016000205482868361086791906115bf565b8151811061087857610877611622565b5b602002602001018181525050808061088f90611651565b91505061083e565b508091505092915050565b7f000000000000000000000000000000000000000000000000000000000000000081565b60005481565b60016020528060005260406000206000915090505481565b60056020528060005260406000206000915090505481565b7f000000000000000000000000000000000000000000000000000000000000000081565b7f30644e72e131a029b85045b68181585d2833e84879b9709143e1f593f000000181565b6000600660010154905090565b8061095b816104a6565b61099c57806040517f7f3e75af0000000000000000000000000000000000000000000000000000000081526004016109939190611308565b60405180910390fd5b7f00000000000000000000000000000000000000000000000000000000000000003414610a22577f0000000000000000000000000000000000000000000000000000000000000000346040517f25c3f46e000000000000000000000000000000000000000000000000000000008152600401610a19929190611567565b60405180910390fd5b610a2b82610d49565b610a358234610d4c565b5050565b7f000000000000000000000000000000000000000000000000000000000000000081565b505050565b3073ffffffffffffffffffffffffffffffffffffffff168273ffffffffffffffffffffffffffffffffffffffff161480610ac85750600073ffffffffffffffffffffffffffffffffffffffff168273ffffffffffffffffffffffffffffffffffffffff16145b15610b0a57816040517f4a149d08000000000000000000000000000000000000000000000000000000008152600401610b0191906116ba565b60405180910390fd5b600015156004600085815260200190815260200160002060009054906101000a900460ff16151503610b7357826040517f5a971ebb000000000000000000000000000000000000000000000000000000008152600401610b6a9190611308565b60405180910390fd5b6000600160008581526020019081526020016000205403610bcb57826040517faabeeba5000000000000000000000000000000000000000000000000000000008152600401610bc29190611308565b60405180910390fd5b610bd6838383610f49565b610c0c576040517f09bde33900000000000000000000000000000000000000000000000000000000815260040160405180910390fd5b600060016000858152602001908152602001600020549050600060026000868152602001908152602001600020549050600060026000878152602001908152602001600020819055506000600360008381526020019081526020016000208190555060006004600087815260200190815260200160002060006101000a81548160ff0219169083151502179055506000600160008781526020019081526020016000208190555081600560008673ffffffffffffffffffffffffffffffffffffffff1673ffffffffffffffffffffffffffffffffffffffff1681526020019081526020016000206000828254610d0291906116d5565b925050819055507f62ec3a516d22a993ce5cb4e7593e878c74f4d799dde522a88dc27a994fd5a9438582604051610d3a929190611567565b60405180910390a15050505050565b50565b6004600083815260200190815260200160002060009054906101000a900460ff1615610da3576040517e0a60f700000000000000000000000000000000000000000000000000000000815260040160405180910390fd5b7f000000000000000000000000000000000000000000000000000000000000000060005410610dfe576040517f57f6953100000000000000000000000000000000000000000000000000000000815260040160405180910390fd5b60005460026000848152602001908152602001600020819055508160036000805481526020019081526020016000208190555060016004600084815260200190815260200160002060006101000a81548160ff0219169083151502179055507316eff5b01123605924d9BF74Ed947F8Fd3015f4463143dc3836006846040518363ffffffff1660e01b8152600401610e97929190611741565b602060405180830381865af4158015610eb4573d6000803e3d6000fd5b505050506040513d601f19601f82011682018060405250810190610ed8919061177f565b508060016000848152602001908152602001600020819055507f5a92c2530f207992057b9c3e544108ffce3beda4a63719f316967c49bf6159d282600054604051610f24929190611567565b60405180910390a16001600080828254610f3e91906116d5565b925050819055505050565b60007f000000000000000000000000000000000000000000000000000000000000000073ffffffffffffffffffffffffffffffffffffffff1663f5c9d69e604051806040016040528085600060088110610fa657610fa5611622565b5b6020020135815260200185600160088110610fc457610fc3611622565b5b60200201358152506040518060400160405280604051806040016040528088600260088110610ff657610ff5611622565b5b602002013581526020018860036008811061101457611013611622565b5b602002013581525081526020016040518060400160405280886004600881106110405761103f611622565b5b602002013581526020018860056008811061105e5761105d611622565b5b602002013581525081525060405180604001604052808760066008811061108857611087611622565b5b60200201358152602001876007600881106110a6576110a5611622565b5b602002013581525060405180604001604052808a81526020018973ffffffffffffffffffffffffffffffffffffffff168152506040518563ffffffff1660e01b81526004016110f8949392919061192e565b602060405180830381865afa158015611115573d6000803e3d6000fd5b505050506040513d601f19601f8201168201806040525081019061113991906119a1565b90509392505050565b600080fd5b6000819050919050565b61115a81611147565b811461116557600080fd5b50565b60008135905061117781611151565b92915050565b60006020828403121561119357611192611142565b5b60006111a184828501611168565b91505092915050565b60008115159050919050565b6111bf816111aa565b82525050565b60006020820190506111da60008301846111b6565b92915050565b600073ffffffffffffffffffffffffffffffffffffffff82169050919050565b6000819050919050565b600061122561122061121b846111e0565b611200565b6111e0565b9050919050565b60006112378261120a565b9050919050565b60006112498261122c565b9050919050565b6112598161123e565b82525050565b60006020820190506112746000830184611250565b92915050565b61128381611147565b82525050565b600060808201905061129e600083018761127a565b6112ab602083018661127a565b6112b8604083018561127a565b6112c560608301846111b6565b95945050505050565b600063ffffffff82169050919050565b6112e7816112ce565b82525050565b600060208201905061130260008301846112de565b92915050565b600060208201905061131d600083018461127a565b92915050565b600061132e826111e0565b9050919050565b61133e81611323565b811461134957600080fd5b50565b60008135905061135b81611335565b92915050565b600080fd5b60008190508260206008028201111561138257611381611361565b5b92915050565b600080600061014084860312156113a2576113a1611142565b5b60006113b086828701611168565b93505060206113c18682870161134c565b92505060406113d286828701611366565b9150509250925092565b600080604083850312156113f3576113f2611142565b5b600061140185828601611168565b925050602061141285828601611168565b9150509250929050565b600081519050919050565b600082825260208201905092915050565b6000819050602082019050919050565b61145181611147565b82525050565b60006114638383611448565b60208301905092915050565b6000602082019050919050565b60006114878261141c565b6114918185611427565b935061149c83611438565b8060005b838110156114cd5781516114b48882611457565b97506114bf8361146f565b9250506001810190506114a0565b5085935050505092915050565b600060208201905081810360008301526114f4818461147c565b905092915050565b6000611507826111e0565b9050919050565b611517816114fc565b811461152257600080fd5b50565b6000813590506115348161150e565b92915050565b6000602082840312156115505761154f611142565b5b600061155e84828501611525565b91505092915050565b600060408201905061157c600083018561127a565b611589602083018461127a565b9392505050565b7f4e487b7100000000000000000000000000000000000000000000000000000000600052601160045260246000fd5b60006115ca82611147565b91506115d583611147565b9250828210156115e8576115e7611590565b5b828203905092915050565b7f4e487b7100000000000000000000000000000000000000000000000000000000600052604160045260246000fd5b7f4e487b7100000000000000000000000000000000000000000000000000000000600052603260045260246000fd5b600061165c82611147565b91507fffffffffffffffffffffffffffffffffffffffffffffffffffffffffffffffff820361168e5761168d611590565b5b600182019050919050565b60006116a48261122c565b9050919050565b6116b481611699565b82525050565b60006020820190506116cf60008301846116ab565b92915050565b60006116e082611147565b91506116eb83611147565b9250827fffffffffffffffffffffffffffffffffffffffffffffffffffffffffffffffff038211156117205761171f611590565b5b828201905092915050565b8082525050565b61173b81611147565b82525050565b6000604082019050611756600083018561172b565b6117636020830184611732565b9392505050565b60008151905061177981611151565b92915050565b60006020828403121561179557611794611142565b5b60006117a38482850161176a565b91505092915050565b600060029050919050565b600081905092915050565b6000819050919050565b6000602082019050919050565b6117e2816117ac565b6117ec81846117b7565b92506117f7826117c2565b8060005b8381101561182857815161180f8782611457565b965061181a836117cc565b9250506001810190506117fb565b505050505050565b600060029050919050565b600081905092915050565b6000819050919050565b600081905092915050565b611864816117ac565b61186e8184611850565b9250611879826117c2565b8060005b838110156118aa5781516118918782611457565b965061189c836117cc565b92505060018101905061187d565b505050505050565b60006118be838361185b565b60408301905092915050565b6000602082019050919050565b6118e081611830565b6118ea818461183b565b92506118f582611846565b8060005b8381101561192657815161190d87826118b2565b9650611918836118ca565b9250506001810190506118f9565b505050505050565b60006101408201905061194460008301876117d9565b61195160408301866118d7565b61195e60c08301856117d9565b61196c6101008301846117d9565b95945050505050565b61197e816111aa565b811461198957600080fd5b50565b60008151905061199b81611975565b92915050565b6000602082840312156119b7576119b6611142565b5b60006119c58482850161198c565b9150509291505056fea26469706673582212202e9bc67c8f20f969dc5421fc5530cdf9eb2c421e99455d6a4d6e5ae804d59c9b64736f6c634300080f0033",
  "deployedBytecode": "0x6080604052600436106101145760003560e01c8063933ebfdd116100a0578063d0383d6811610064578063d0383d68146103de578063e493ef8c14610409578063ebf0c71714610434578063f207564e1461045f578063f220b9ec1461047b57610114565b8063933ebfdd146102d157806398366e351461030e578063ae74552a14610339578063bc49912814610364578063c5b208ff146103a157610114565b80634add651e116100e75780634add651e146101c65780635daf08ca146101f15780636bdcc8ab1461022e5780637671ac051461026b5780638be9b119146102a857610114565b806322d9730c146101195780632b7ac3f3146101565780633c979b5f146101815780633ccfd60b146101af575b600080fd5b34801561012557600080fd5b50610140600480360381019061013b919061117d565b6104a6565b60405161014d91906111c5565b60405180910390f35b34801561016257600080fd5b5061016b6104de565b604051610178919061125f565b60405180910390f35b34801561018d57600080fd5b50610196610502565b6040516101a69493929190611289565b60405180910390f35b3480156101bb57600080fd5b506101c461052d565b005b3480156101d257600080fd5b506101db610674565b6040516101e891906112ed565b60405180910390f35b3480156101fd57600080fd5b506102186004803603810190610213919061117d565b610698565b6040516102259190611308565b60405180910390f35b34801561023a57600080fd5b506102556004803603810190610250919061117d565b6106b0565b60405161026291906111c5565b60405180910390f35b34801561027757600080fd5b50610292600480360381019061028d919061117d565b6106d0565b60405161029f9190611308565b60405180910390f35b3480156102b457600080fd5b506102cf60048036038101906102ca9190611388565b6106e8565b005b3480156102dd57600080fd5b506102f860048036038101906102f391906113dc565b61074f565b60405161030591906114da565b60405180910390f35b34801561031a57600080fd5b506103236108a2565b6040516103309190611308565b60405180910390f35b34801561034557600080fd5b5061034e6108c6565b60405161035b9190611308565b60405180910390f35b34801561037057600080fd5b5061038b6004803603810190610386919061117d565b6108cc565b6040516103989190611308565b60405180910390f35b3480156103ad57600080fd5b506103c860048036038101906103c3919061153a565b6108e4565b6040516103d59190611308565b60405180910390f35b3480156103ea57600080fd5b506103f36108fc565b6040516104009190611308565b60405180910390f35b34801561041557600080fd5b5061041e610920565b60405161042b9190611308565b60405180910390f35b34801561044057600080fd5b50610449610944565b6040516104569190611308565b60405180910390f35b6104796004803603810190610474919061117d565b610951565b005b34801561048757600080fd5b50610490610a39565b60405161049d9190611308565b60405180910390f35b60008082141580156104d757507f30644e72e131a029b85045b68181585d2833e84879b9709143e1f593f000000182105b9050919050565b7f000000000000000000000000000000000000000000000000000000000000000081565b60068060000154908060010154908060020154908060050160009054906101000a900460ff16905084565b6000600560003373ffffffffffffffffffffffffffffffffffffffff1673ffffffffffffffffffffffffffffffffffffffff168152602001908152602001600020549050600081036105ab576040517f6f50367a00000000000000000000000000000000000000000000000000000000815260040160405180910390fd5b478111156105e5576040517f786e0a9900000000000000000000000000000000000000000000000000000000815260040160405180910390fd5b6000600560003373ffffffffffffffffffffffffffffffffffffffff1673ffffffffffffffffffffffffffffffffffffffff168152602001908152602001600020819055503373ffffffffffffffffffffffffffffffffffffffff166108fc829081150290604051600060405180830381858888f19350505050158015610670573d6000803e3d6000fd5b5050565b7f000000000000000000000000000000000000000000000000000000000000000081565b60026020528060005260406000206000915090505481565b60046020528060005260406000206000915054906101000a900460ff1681565b60036020528060005260406000206000915090505481565b826106f2816104a6565b61073357806040517f7f3e75af00000000000000000000000000000000000000000000000000000000815260040161072a9190611308565b60405180910390fd5b61073e848484610a5d565b610749848484610a62565b50505050565b60608183106107975782826040517f9ffcd53d00000000000000000000000000000000000000000000000000000000815260040161078e929190611567565b60405180910390fd5b6000548211156107e05782826040517f9ffcd53d0000000000000000000000000000000000000000000000000000000081526004016107d7929190611567565b60405180910390fd5b600083836107ee91906115bf565b67ffffffffffffffff811115610807576108066115f3565b5b6040519080825280602002602001820160405280156108355781602001602082028036833780820191505090505b50905060008490505b8381101561089757600360008281526020019081526020016000205482868361086791906115bf565b8151811061087857610877611622565b5b602002602001018181525050808061088f90611651565b91505061083e565b508091505092915050565b7f000000000000000000000000000000000000000000000000000000000000000081565b60005481565b60016020528060005260406000206000915090505481565b60056020528060005260406000206000915090505481565b7f000000000000000000000000000000000000000000000000000000000000000081565b7f30644e72e131a029b85045b68181585d2833e84879b9709143e1f593f000000181565b6000600660010154905090565b8061095b816104a6565b61099c57806040517f7f3e75af0000000000000000000000000000000000000000000000000000000081526004016109939190611308565b60405180910390fd5b7f00000000000000000000000000000000000000000000000000000000000000003414610a22577f0000000000000000000000000000000000000000000000000000000000000000346040517f25c3f46e000000000000000000000000000000000000000000000000000000008152600401610a19929190611567565b60405180910390fd5b610a2b82610d49565b610a358234610d4c565b5050565b7f000000000000000000000000000000000000000000000000000000000000000081565b505050565b3073ffffffffffffffffffffffffffffffffffffffff168273ffffffffffffffffffffffffffffffffffffffff161480610ac85750600073ffffffffffffffffffffffffffffffffffffffff168273ffffffffffffffffffffffffffffffffffffffff16145b15610b0a57816040517f4a149d08000000000000000000000000000000000000000000000000000000008152600401610b0191906116ba565b60405180910390fd5b600015156004600085815260200190815260200160002060009054906101000a900460ff16151503610b7357826040517f5a971ebb000000000000000000000000000000000000000000000000000000008152600401610b6a9190611308565b60405180910390fd5b6000600160008581526020019081526020016000205403610bcb57826040517faabeeba5000000000000000000000000000000000000000000000000000000008152600401610bc29190611308565b60405180910390fd5b610bd6838383610f49565b610c0c576040517f09bde33900000000000000000000000000000000000000000000000000000000815260040160405180910390fd5b600060016000858152602001908152602001600020549050600060026000868152602001908152602001600020549050600060026000878152602001908152602001600020819055506000600360008381526020019081526020016000208190555060006004600087815260200190815260200160002060006101000a81548160ff0219169083151502179055506000600160008781526020019081526020016000208190555081600560008673ffffffffffffffffffffffffffffffffffffffff1673ffffffffffffffffffffffffffffffffffffffff1681526020019081526020016000206000828254610d0291906116d5565b925050819055507f62ec3a516d22a993ce5cb4e7593e878c74f4d799dde522a88dc27a994fd5a9438582604051610d3a929190611567565b60405180910390a15050505050565b50565b6004600083815260200190815260200160002060009054906101000a900460ff1615610da3576040517e0a60f700000000000000000000000000000000000000000000000000000000815260040160405180910390fd5b7f000000000000000000000000000000000000000000000000000000000000000060005410610dfe576040517f57f6953100000000000000000000000000000000000000000000000000000000815260040160405180910390fd5b60005460026000848152602001908152602001600020819055508160036000805481526020019081526020016000208190555060016004600084815260200190815260200160002060006101000a81548160ff02191690831515021790555073__$156f483e97cedd2612cb663a75817771d9$__63143dc3836006846040518363ffffffff1660e01b8152600401610e97929190611741565b602060405180830381865af4158015610eb4573d6000803e3d6000fd5b505050506040513d601f19601f82011682018060405250810190610ed8919061177f565b508060016000848152602001908152602001600020819055507f5a92c2530f207992057b9c3e544108ffce3beda4a63719f316967c49bf6159d282600054604051610f24929190611567565b60405180910390a16001600080828254610f3e91906116d5565b925050819055505050565b60007f000000000000000000000000000000000000000000000000000000000000000073ffffffffffffffffffffffffffffffffffffffff1663f5c9d69e604051806040016040528085600060088110610fa657610fa5611622565b5b6020020135815260200185600160088110610fc457610fc3611622565b5b60200201358152506040518060400160405280604051806040016040528088600260088110610ff657610ff5611622565b5b602002013581526020018860036008811061101457611013611622565b5b602002013581525081526020016040518060400160405280886004600881106110405761103f611622565b5b602002013581526020018860056008811061105e5761105d611622565b5b602002013581525081525060405180604001604052808760066008811061108857611087611622565b5b60200201358152602001876007600881106110a6576110a5611622565b5b602002013581525060405180604001604052808a81526020018973ffffffffffffffffffffffffffffffffffffffff168152506040518563ffffffff1660e01b81526004016110f8949392919061192e565b602060405180830381865afa158015611115573d6000803e3d6000fd5b505050506040513d601f19601f8201168201806040525081019061113991906119a1565b90509392505050565b600080fd5b6000819050919050565b61115a81611147565b811461116557600080fd5b50565b60008135905061117781611151565b92915050565b60006020828403121561119357611192611142565b5b60006111a184828501611168565b91505092915050565b60008115159050919050565b6111bf816111aa565b82525050565b60006020820190506111da60008301846111b6565b92915050565b600073ffffffffffffffffffffffffffffffffffffffff82169050919050565b6000819050919050565b600061122561122061121b846111e0565b611200565b6111e0565b9050919050565b60006112378261120a565b9050919050565b60006112498261122c565b9050919050565b6112598161123e565b82525050565b60006020820190506112746000830184611250565b92915050565b61128381611147565b82525050565b600060808201905061129e600083018761127a565b6112ab602083018661127a565b6112b8604083018561127a565b6112c560608301846111b6565b95945050505050565b600063ffffffff82169050919050565b6112e7816112ce565b82525050565b600060208201905061130260008301846112de565b92915050565b600060208201905061131d600083018461127a565b92915050565b600061132e826111e0565b9050919050565b61133e81611323565b811461134957600080fd5b50565b60008135905061135b81611335565b92915050565b600080fd5b60008190508260206008028201111561138257611381611361565b5b92915050565b600080600061014084860312156113a2576113a1611142565b5b60006113b086828701611168565b93505060206113c18682870161134c565b92505060406113d286828701611366565b9150509250925092565b600080604083850312156113f3576113f2611142565b5b600061140185828601611168565b925050602061141285828601611168565b9150509250929050565b600081519050919050565b600082825260208201905092915050565b6000819050602082019050919050565b61145181611147565b82525050565b60006114638383611448565b60208301905092915050565b6000602082019050919050565b60006114878261141c565b6114918185611427565b935061149c83611438565b8060005b838110156114cd5781516114b48882611457565b97506114bf8361146f565b9250506001810190506114a0565b5085935050505092915050565b600060208201905081810360008301526114f4818461147c565b905092915050565b6000611507826111e0565b9050919050565b611517816114fc565b811461152257600080fd5b50565b6000813590506115348161150e565b92915050565b6000602082840312156115505761154f611142565b5b600061155e84828501611525565b91505092915050565b600060408201905061157c600083018561127a565b611589602083018461127a565b9392505050565b7f4e487b7100000000000000000000000000000000000000000000000000000000600052601160045260246000fd5b60006115ca82611147565b91506115d583611147565b9250828210156115e8576115e7611590565b5b828203905092915050565b7f4e487b7100000000000000000000000000000000000000000000000000000000600052604160045260246000fd5b7f4e487b7100000000000000000000000000000000000000000000000000000000600052603260045260246000fd5b600061165c82611147565b91507fffffffffffffffffffffffffffffffffffffffffffffffffffffffffffffffff820361168e5761168d611590565b5b600182019050919050565b60006116a48261122c565b9050919050565b6116b481611699565b82525050565b60006020820190506116cf60008301846116ab565b92915050565b60006116e082611147565b91506116eb83611147565b9250827fffffffffffffffffffffffffffffffffffffffffffffffffffffffffffffffff038211156117205761171f611590565b5b828201905092915050565b8082525050565b61173b81611147565b82525050565b6000604082019050611756600083018561172b565b6117636020830184611732565b9392505050565b60008151905061177981611151565b92915050565b60006020828403121561179557611794611142565b5b60006117a38482850161176a565b91505092915050565b600060029050919050565b600081905092915050565b6000819050919050565b6000602082019050919050565b6117e2816117ac565b6117ec81846117b7565b92506117f7826117c2565b8060005b8381101561182857815161180f8782611457565b965061181a836117cc565b9250506001810190506117fb565b505050505050565b600060029050919050565b600081905092915050565b6000819050919050565b600081905092915050565b611864816117ac565b61186e8184611850565b9250611879826117c2565b8060005b838110156118aa5781516118918782611457565b965061189c836117cc565b92505060018101905061187d565b505050505050565b60006118be838361185b565b60408301905092915050565b6000602082019050919050565b6118e081611830565b6118ea818461183b565b92506118f582611846565b8060005b8381101561192657815161190d87826118b2565b9650611918836118ca565b9250506001810190506118f9565b505050505050565b60006101408201905061194460008301876117d9565b61195160408301866118d7565b61195e60c08301856117d9565b61196c6101008301846117d9565b95945050505050565b61197e816111aa565b811461198957600080fd5b50565b60008151905061199b81611975565b92915050565b6000602082840312156119b7576119b6611142565b5b60006119c58482850161198c565b9150509291505056fea26469706673582212202e9bc67c8f20f969dc5421fc5530cdf9eb2c421e99455d6a4d6e5ae804d59c9b64736f6c634300080f0033",
  "libraries": {
    "BinaryIMT": "0x16eff5b01123605924d9BF74Ed947F8Fd3015f44"
  },
  "devdoc": {
    "errors": {
      "InsufficientDeposit(uint256,uint256)": [
        {
          "params": {
            "provided": "The provided deposit amount",
            "required": "The required deposit amount"
          }
        }
      ]
    },
    "kind": "dev",
    "methods": {
      "register(uint256)": {
        "params": {
          "idCommitment": "The idCommitment of the member"
        }
      },
      "slash(uint256,address,uint256[8])": {
        "details": "Allows a user to slash a member",
        "params": {
          "idCommitment": "The idCommitment of the member"
        }
      }
    },
    "version": 1
  },
  "userdoc": {
    "errors": {
      "DuplicateIdCommitment()": [
        {
          "notice": "Member is already registered"
        }
      ],
      "FullTree()": [
        {
          "notice": "The tree is full"
        }
      ],
      "InsufficientContractBalance()": [
        {
          "notice": "Contract has insufficient balance to return"
        }
      ],
      "InsufficientDeposit(uint256,uint256)": [
        {
          "notice": "Invalid deposit amount"
        }
      ],
      "InsufficientWithdrawalBalance()": [
        {
          "notice": "User has insufficient balance to withdraw"
        }
      ],
      "InvalidIdCommitment(uint256)": [
        {
          "notice": "Invalid idCommitment"
        }
      ],
      "InvalidPaginationQuery(uint256,uint256)": [
        {
          "notice": "Invalid pagination query"
        }
      ],
      "InvalidProof()": [
        {
          "notice": "Invalid proof"
        }
      ],
      "InvalidReceiverAddress(address)": [
        {
          "notice": "Invalid receiver address, when the receiver is the contract itself or 0x0"
        }
      ],
      "MemberHasNoStake(uint256)": [
        {
          "notice": "Member has no stake"
        }
      ],
      "MemberNotRegistered(uint256)": [
        {
          "notice": "Member is not registered"
        }
      ]
    },
    "events": {
      "MemberRegistered(uint256,uint256)": {
        "notice": "Emitted when a new member is added to the set"
      },
      "MemberWithdrawn(uint256,uint256)": {
        "notice": "Emitted when a member is removed from the set"
      }
    },
    "kind": "user",
    "methods": {
      "DEPTH()": {
        "notice": "The depth of the merkle tree"
      },
      "MEMBERSHIP_DEPOSIT()": {
        "notice": "The deposit amount required to register as a member"
      },
      "Q()": {
        "notice": "The Field"
      },
      "SET_SIZE()": {
        "notice": "The size of the merkle tree, i.e 2^depth"
      },
      "deployedBlockNumber()": {
        "notice": "the deployed block number"
      },
      "idCommitmentIndex()": {
        "notice": "The index of the next member to be registered"
      },
      "imtData()": {
        "notice": "the Incremental Merkle Tree"
      },
      "indexToCommitment(uint256)": {
        "notice": "the index to commitment mapping"
      },
      "memberExists(uint256)": {
        "notice": "The membership status of each member"
      },
      "members(uint256)": {
        "notice": "The membership status of each member maps from idCommitment to their index in the set"
      },
      "register(uint256)": {
        "notice": "Allows a user to register as a member"
      },
      "stakedAmounts(uint256)": {
        "notice": "The amount of eth staked by each member maps from idCommitment to the amount staked"
      },
      "verifier()": {
        "notice": "The groth16 verifier contract"
      },
      "withdraw()": {
        "notice": "Allows a user to withdraw funds allocated to them upon slashing a member"
      },
      "withdrawalBalance(address)": {
        "notice": "The balance of each user that can be withdrawn"
      }
    },
    "version": 1
  },
  "storageLayout": {
    "storage": [
      {
        "astId": 1038,
        "contract": "contracts/Rln.sol:RLN",
        "label": "idCommitmentIndex",
        "offset": 0,
        "slot": "0",
        "type": "t_uint256"
      },
      {
        "astId": 1043,
        "contract": "contracts/Rln.sol:RLN",
        "label": "stakedAmounts",
        "offset": 0,
        "slot": "1",
        "type": "t_mapping(t_uint256,t_uint256)"
      },
      {
        "astId": 1048,
        "contract": "contracts/Rln.sol:RLN",
        "label": "members",
        "offset": 0,
        "slot": "2",
        "type": "t_mapping(t_uint256,t_uint256)"
      },
      {
        "astId": 1053,
        "contract": "contracts/Rln.sol:RLN",
        "label": "indexToCommitment",
        "offset": 0,
        "slot": "3",
        "type": "t_mapping(t_uint256,t_uint256)"
      },
      {
        "astId": 1058,
        "contract": "contracts/Rln.sol:RLN",
        "label": "memberExists",
        "offset": 0,
        "slot": "4",
        "type": "t_mapping(t_uint256,t_bool)"
      },
      {
        "astId": 1063,
        "contract": "contracts/Rln.sol:RLN",
        "label": "withdrawalBalance",
        "offset": 0,
        "slot": "5",
        "type": "t_mapping(t_address,t_uint256)"
      },
      {
        "astId": 1074,
        "contract": "contracts/Rln.sol:RLN",
        "label": "imtData",
        "offset": 0,
        "slot": "6",
        "type": "t_struct(BinaryIMTData)22_storage"
      }
    ],
    "types": {
      "t_address": {
        "encoding": "inplace",
        "label": "address",
        "numberOfBytes": "20"
      },
      "t_array(t_uint256)2_storage": {
        "base": "t_uint256",
        "encoding": "inplace",
        "label": "uint256[2]",
        "numberOfBytes": "64"
      },
      "t_bool": {
        "encoding": "inplace",
        "label": "bool",
        "numberOfBytes": "1"
      },
      "t_mapping(t_address,t_uint256)": {
        "encoding": "mapping",
        "key": "t_address",
        "label": "mapping(address => uint256)",
        "numberOfBytes": "32",
        "value": "t_uint256"
      },
      "t_mapping(t_uint256,t_array(t_uint256)2_storage)": {
        "encoding": "mapping",
        "key": "t_uint256",
        "label": "mapping(uint256 => uint256[2])",
        "numberOfBytes": "32",
        "value": "t_array(t_uint256)2_storage"
      },
      "t_mapping(t_uint256,t_bool)": {
        "encoding": "mapping",
        "key": "t_uint256",
        "label": "mapping(uint256 => bool)",
        "numberOfBytes": "32",
        "value": "t_bool"
      },
      "t_mapping(t_uint256,t_uint256)": {
        "encoding": "mapping",
        "key": "t_uint256",
        "label": "mapping(uint256 => uint256)",
        "numberOfBytes": "32",
        "value": "t_uint256"
      },
      "t_struct(BinaryIMTData)22_storage": {
        "encoding": "inplace",
        "label": "struct BinaryIMTData",
        "members": [
          {
            "astId": 5,
            "contract": "contracts/Rln.sol:RLN",
            "label": "depth",
            "offset": 0,
            "slot": "0",
            "type": "t_uint256"
          },
          {
            "astId": 7,
            "contract": "contracts/Rln.sol:RLN",
            "label": "root",
            "offset": 0,
            "slot": "1",
            "type": "t_uint256"
          },
          {
            "astId": 9,
            "contract": "contracts/Rln.sol:RLN",
            "label": "numberOfLeaves",
            "offset": 0,
            "slot": "2",
            "type": "t_uint256"
          },
          {
            "astId": 13,
            "contract": "contracts/Rln.sol:RLN",
            "label": "zeroes",
            "offset": 0,
            "slot": "3",
            "type": "t_mapping(t_uint256,t_uint256)"
          },
          {
            "astId": 19,
            "contract": "contracts/Rln.sol:RLN",
            "label": "lastSubtrees",
            "offset": 0,
            "slot": "4",
            "type": "t_mapping(t_uint256,t_array(t_uint256)2_storage)"
          },
          {
            "astId": 21,
            "contract": "contracts/Rln.sol:RLN",
            "label": "useDefaultZeroes",
            "offset": 0,
            "slot": "5",
            "type": "t_bool"
          }
        ],
        "numberOfBytes": "192"
      },
      "t_uint256": {
        "encoding": "inplace",
        "label": "uint256",
        "numberOfBytes": "32"
      }
    }
  }
}