{
  "address": "0x5536F82a106D8C1f5F61D111DF57cae6218F6b54",
  "abi": [
    {
      "inputs": [
        {
          "internalType": "uint256",
          "name": "membershipDeposit",
          "type": "uint256"
        },
        {
          "internalType": "uint256",
          "name": "depth",
          "type": "uint256"
        },
        {
          "internalType": "address",
          "name": "_poseidonHasher",
          "type": "address"
        },
        {
          "internalType": "address",
          "name": "_verifier",
          "type": "address"
        }
      ],
      "stateMutability": "nonpayable",
      "type": "constructor"
    },
    {
      "inputs": [],
      "name": "DuplicateIdCommitment",
      "type": "error"
    },
    {
      "inputs": [],
      "name": "FullTree",
      "type": "error"
    },
    {
      "inputs": [],
      "name": "InsufficientContractBalance",
      "type": "error"
    },
    {
      "inputs": [
        {
          "internalType": "uint256",
          "name": "required",
          "type": "uint256"
        },
        {
          "internalType": "uint256",
          "name": "provided",
          "type": "uint256"
        }
      ],
      "name": "InsufficientDeposit",
      "type": "error"
    },
    {
      "inputs": [],
      "name": "InsufficientWithdrawalBalance",
      "type": "error"
    },
    {
      "inputs": [
        {
          "internalType": "uint256",
          "name": "idCommitment",
          "type": "uint256"
        }
      ],
      "name": "InvalidIdCommitment",
      "type": "error"
    },
    {
      "inputs": [],
      "name": "InvalidProof",
      "type": "error"
    },
    {
      "inputs": [
        {
          "internalType": "address",
          "name": "to",
          "type": "address"
        }
      ],
      "name": "InvalidReceiverAddress",
      "type": "error"
    },
    {
      "inputs": [
        {
          "internalType": "uint256",
          "name": "idCommitment",
          "type": "uint256"
        }
      ],
      "name": "MemberHasNoStake",
      "type": "error"
    },
    {
      "inputs": [
        {
          "internalType": "uint256",
          "name": "idCommitment",
          "type": "uint256"
        }
      ],
      "name": "MemberNotRegistered",
      "type": "error"
    },
    {
      "anonymous": false,
      "inputs": [
        {
          "indexed": false,
          "internalType": "uint256",
          "name": "idCommitment",
          "type": "uint256"
        },
        {
          "indexed": false,
          "internalType": "uint256",
          "name": "index",
          "type": "uint256"
        }
      ],
      "name": "MemberRegistered",
      "type": "event"
    },
    {
      "anonymous": false,
      "inputs": [
        {
          "indexed": false,
          "internalType": "uint256",
          "name": "idCommitment",
          "type": "uint256"
        },
        {
          "indexed": false,
          "internalType": "uint256",
          "name": "index",
          "type": "uint256"
        }
      ],
      "name": "MemberWithdrawn",
      "type": "event"
    },
    {
      "inputs": [],
      "name": "DEPTH",
      "outputs": [
        {
          "internalType": "uint256",
          "name": "",
          "type": "uint256"
        }
      ],
      "stateMutability": "view",
      "type": "function"
    },
    {
      "inputs": [],
      "name": "MEMBERSHIP_DEPOSIT",
      "outputs": [
        {
          "internalType": "uint256",
          "name": "",
          "type": "uint256"
        }
      ],
      "stateMutability": "view",
      "type": "function"
    },
    {
      "inputs": [],
      "name": "SET_SIZE",
      "outputs": [
        {
          "internalType": "uint256",
          "name": "",
          "type": "uint256"
        }
      ],
      "stateMutability": "view",
      "type": "function"
    },
    {
      "inputs": [],
      "name": "computeRoot",
      "outputs": [
        {
          "internalType": "uint256",
          "name": "",
          "type": "uint256"
        }
      ],
      "stateMutability": "view",
      "type": "function"
    },
    {
      "inputs": [],
      "name": "deployedBlockNumber",
      "outputs": [
        {
          "internalType": "uint32",
          "name": "",
          "type": "uint32"
        }
      ],
      "stateMutability": "view",
      "type": "function"
    },
    {
      "inputs": [],
      "name": "idCommitmentIndex",
      "outputs": [
        {
          "internalType": "uint256",
          "name": "",
          "type": "uint256"
        }
      ],
      "stateMutability": "view",
      "type": "function"
    },
    {
      "inputs": [],
      "name": "imtData",
      "outputs": [
        {
          "internalType": "uint256",
          "name": "depth",
          "type": "uint256"
        },
        {
          "internalType": "uint256",
          "name": "root",
          "type": "uint256"
        },
        {
          "internalType": "uint256",
          "name": "numberOfLeaves",
          "type": "uint256"
        },
        {
          "internalType": "bool",
          "name": "useDefaultZeroes",
          "type": "bool"
        }
      ],
      "stateMutability": "view",
      "type": "function"
    },
    {
      "inputs": [
        {
          "internalType": "uint256",
          "name": "idCommitment",
          "type": "uint256"
        }
      ],
      "name": "isValidCommitment",
      "outputs": [
        {
          "internalType": "bool",
          "name": "",
          "type": "bool"
        }
      ],
      "stateMutability": "view",
      "type": "function"
    },
    {
      "inputs": [
        {
          "internalType": "uint256",
          "name": "",
          "type": "uint256"
        }
      ],
      "name": "memberExists",
      "outputs": [
        {
          "internalType": "bool",
          "name": "",
          "type": "bool"
        }
      ],
      "stateMutability": "view",
      "type": "function"
    },
    {
      "inputs": [
        {
          "internalType": "uint256",
          "name": "",
          "type": "uint256"
        }
      ],
      "name": "members",
      "outputs": [
        {
          "internalType": "uint256",
          "name": "",
          "type": "uint256"
        }
      ],
      "stateMutability": "view",
      "type": "function"
    },
    {
      "inputs": [],
      "name": "poseidonHasher",
      "outputs": [
        {
          "internalType": "contract PoseidonHasher",
          "name": "",
          "type": "address"
        }
      ],
      "stateMutability": "view",
      "type": "function"
    },
    {
      "inputs": [
        {
          "internalType": "uint256",
          "name": "idCommitment",
          "type": "uint256"
        }
      ],
      "name": "register",
      "outputs": [],
      "stateMutability": "payable",
      "type": "function"
    },
    {
      "inputs": [
        {
          "internalType": "uint256",
          "name": "idCommitment",
          "type": "uint256"
        },
        {
          "internalType": "address payable",
          "name": "receiver",
          "type": "address"
        },
        {
          "internalType": "uint256[8]",
          "name": "proof",
          "type": "uint256[8]"
        }
      ],
      "name": "slash",
      "outputs": [],
      "stateMutability": "nonpayable",
      "type": "function"
    },
    {
      "inputs": [
        {
          "internalType": "uint256",
          "name": "",
          "type": "uint256"
        }
      ],
      "name": "stakedAmounts",
      "outputs": [
        {
          "internalType": "uint256",
          "name": "",
          "type": "uint256"
        }
      ],
      "stateMutability": "view",
      "type": "function"
    },
    {
      "inputs": [],
      "name": "verifier",
      "outputs": [
        {
          "internalType": "contract IVerifier",
          "name": "",
          "type": "address"
        }
      ],
      "stateMutability": "view",
      "type": "function"
    },
    {
      "inputs": [],
      "name": "withdraw",
      "outputs": [],
      "stateMutability": "nonpayable",
      "type": "function"
    },
    {
      "inputs": [
        {
          "internalType": "address",
          "name": "",
          "type": "address"
        }
      ],
      "name": "withdrawalBalance",
      "outputs": [
        {
          "internalType": "uint256",
          "name": "",
          "type": "uint256"
        }
      ],
      "stateMutability": "view",
      "type": "function"
    }
  ],
  "transactionHash": "0x9f57d8acb10fe22ada61aa61acec1db3e5ee73f9319f8211dcf3e70e36409914",
  "args": [
    1000000000000000,
    20,
    "0xe893c04DfB939CFC2FBC024Dae1B17623a487e0A",
    "0xDFD4FC1c81Bd499d814fF876e34637bE58F85b90"
  ],
  "numDeployments": 1,
  "solcInputHash": "3f87313134e2217cb187bd594084789f",
  "bytecode": "0x610140604052600080553480156200001657600080fd5b5060405162001a3f38038062001a3f83398181016040528101906200003c9190620001fc565b8383838383608081815250508260a08181525050826001901b60c081815250508173ffffffffffffffffffffffffffffffffffffffff1660e08173ffffffffffffffffffffffffffffffffffffffff16815250508073ffffffffffffffffffffffffffffffffffffffff166101008173ffffffffffffffffffffffffffffffffffffffff16815250504363ffffffff166101208163ffffffff16815250507316eff5b01123605924d9BF74Ed947F8Fd3015f446314d8c626600560146040518363ffffffff1660e01b815260040162000117929190620002c2565b60006040518083038186803b1580156200013057600080fd5b505af415801562000145573d6000803e3d6000fd5b505050505050505050505050620002ef565b600080fd5b6000819050919050565b62000171816200015c565b81146200017d57600080fd5b50565b600081519050620001918162000166565b92915050565b600073ffffffffffffffffffffffffffffffffffffffff82169050919050565b6000620001c48262000197565b9050919050565b620001d681620001b7565b8114620001e257600080fd5b50565b600081519050620001f681620001cb565b92915050565b6000806000806080858703121562000219576200021862000157565b5b6000620002298782880162000180565b94505060206200023c8782880162000180565b93505060406200024f87828801620001e5565b92505060606200026287828801620001e5565b91505092959194509250565b8082525050565b6000819050919050565b6000819050919050565b6000620002aa620002a46200029e8462000275565b6200027f565b6200015c565b9050919050565b620002bc8162000289565b82525050565b6000604082019050620002d960008301856200026e565b620002e86020830184620002b1565b9392505050565b60805160a05160c05160e05161010051610120516116dd6200036260003960006106850152600081816104cb0152610d8e01526000818161043201526104ef0152600081816107a20152610bff015260006107480152600081816108110152818161083801526108ae01526116dd6000f3fe6080604052600436106100fe5760003560e01c80636bdcc8ab11610095578063bc49912811610064578063bc4991281461032a578063c5b208ff14610367578063d0383d68146103a4578063f207564e146103cf578063f220b9ec146103eb576100fe565b80636bdcc8ab1461026e5780638be9b119146102ab57806398366e35146102d4578063ae74552a146102ff576100fe565b80633c979b5f116100d15780633c979b5f146101c15780633ccfd60b146101ef5780634add651e146102065780635daf08ca14610231576100fe565b806315068a5a1461010357806322d9730c1461012e5780632b7ac3f31461016b578063331b6ab314610196575b600080fd5b34801561010f57600080fd5b50610118610416565b6040516101259190610f9c565b60405180910390f35b34801561013a57600080fd5b5061015560048036038101906101509190610fe8565b610423565b6040516101629190611030565b60405180910390f35b34801561017757600080fd5b506101806104c9565b60405161018d91906110ca565b60405180910390f35b3480156101a257600080fd5b506101ab6104ed565b6040516101b89190611106565b60405180910390f35b3480156101cd57600080fd5b506101d6610511565b6040516101e69493929190611121565b60405180910390f35b3480156101fb57600080fd5b5061020461053c565b005b34801561021257600080fd5b5061021b610683565b6040516102289190611185565b60405180910390f35b34801561023d57600080fd5b5061025860048036038101906102539190610fe8565b6106a7565b6040516102659190610f9c565b60405180910390f35b34801561027a57600080fd5b5061029560048036038101906102909190610fe8565b6106bf565b6040516102a29190611030565b60405180910390f35b3480156102b757600080fd5b506102d260048036038101906102cd9190611205565b6106df565b005b3480156102e057600080fd5b506102e9610746565b6040516102f69190610f9c565b60405180910390f35b34801561030b57600080fd5b5061031461076a565b6040516103219190610f9c565b60405180910390f35b34801561033657600080fd5b50610351600480360381019061034c9190610fe8565b610770565b60405161035e9190610f9c565b60405180910390f35b34801561037357600080fd5b5061038e60048036038101906103899190611297565b610788565b60405161039b9190610f9c565b60405180910390f35b3480156103b057600080fd5b506103b96107a0565b6040516103c69190610f9c565b60405180910390f35b6103e960048036038101906103e49190610fe8565b6107c4565b005b3480156103f757600080fd5b506104006108ac565b60405161040d9190610f9c565b60405180910390f35b6000600560010154905090565b60008082141580156104c257507f000000000000000000000000000000000000000000000000000000000000000073ffffffffffffffffffffffffffffffffffffffff1663e493ef8c6040518163ffffffff1660e01b8152600401602060405180830381865afa15801561049b573d6000803e3d6000fd5b505050506040513d601f19601f820116820180604052508101906104bf91906112d9565b82105b9050919050565b7f000000000000000000000000000000000000000000000000000000000000000081565b7f000000000000000000000000000000000000000000000000000000000000000081565b60058060000154908060010154908060020154908060050160009054906101000a900460ff16905084565b6000600460003373ffffffffffffffffffffffffffffffffffffffff1673ffffffffffffffffffffffffffffffffffffffff168152602001908152602001600020549050600081036105ba576040517f6f50367a00000000000000000000000000000000000000000000000000000000815260040160405180910390fd5b478111156105f4576040517f786e0a9900000000000000000000000000000000000000000000000000000000815260040160405180910390fd5b6000600460003373ffffffffffffffffffffffffffffffffffffffff1673ffffffffffffffffffffffffffffffffffffffff168152602001908152602001600020819055503373ffffffffffffffffffffffffffffffffffffffff166108fc829081150290604051600060405180830381858888f1935050505015801561067f573d6000803e3d6000fd5b5050565b7f000000000000000000000000000000000000000000000000000000000000000081565b60026020528060005260406000206000915090505481565b60036020528060005260406000206000915054906101000a900460ff1681565b826106e981610423565b61072a57806040517f7f3e75af0000000000000000000000000000000000000000000000000000000081526004016107219190610f9c565b60405180910390fd5b6107358484846108d0565b6107408484846108d5565b50505050565b7f000000000000000000000000000000000000000000000000000000000000000081565b60005481565b60016020528060005260406000206000915090505481565b60046020528060005260406000206000915090505481565b7f000000000000000000000000000000000000000000000000000000000000000081565b806107ce81610423565b61080f57806040517f7f3e75af0000000000000000000000000000000000000000000000000000000081526004016108069190610f9c565b60405180910390fd5b7f00000000000000000000000000000000000000000000000000000000000000003414610895577f0000000000000000000000000000000000000000000000000000000000000000346040517f25c3f46e00000000000000000000000000000000000000000000000000000000815260040161088c929190611306565b60405180910390fd5b61089e82610ba3565b6108a88234610ba6565b5050565b7f000000000000000000000000000000000000000000000000000000000000000081565b505050565b3073ffffffffffffffffffffffffffffffffffffffff168273ffffffffffffffffffffffffffffffffffffffff16148061093b5750600073ffffffffffffffffffffffffffffffffffffffff168273ffffffffffffffffffffffffffffffffffffffff16145b1561097d57816040517f4a149d080000000000000000000000000000000000000000000000000000000081526004016109749190611350565b60405180910390fd5b600015156003600085815260200190815260200160002060009054906101000a900460ff161515036109e657826040517f5a971ebb0000000000000000000000000000000000000000000000000000000081526004016109dd9190610f9c565b60405180910390fd5b6000600160008581526020019081526020016000205403610a3e57826040517faabeeba5000000000000000000000000000000000000000000000000000000008152600401610a359190610f9c565b60405180910390fd5b610a49838383610d8a565b610a7f576040517f09bde33900000000000000000000000000000000000000000000000000000000815260040160405180910390fd5b6000600160008581526020019081526020016000205490506000600260008681526020019081526020016000205490506000600260008781526020019081526020016000208190555060006003600087815260200190815260200160002060006101000a81548160ff0219169083151502179055506000600160008781526020019081526020016000208190555081600460008673ffffffffffffffffffffffffffffffffffffffff1673ffffffffffffffffffffffffffffffffffffffff1681526020019081526020016000206000828254610b5c919061139a565b925050819055507f62ec3a516d22a993ce5cb4e7593e878c74f4d799dde522a88dc27a994fd5a9438582604051610b94929190611306565b60405180910390a15050505050565b50565b6003600083815260200190815260200160002060009054906101000a900460ff1615610bfd576040517e0a60f700000000000000000000000000000000000000000000000000000000815260040160405180910390fd5b7f000000000000000000000000000000000000000000000000000000000000000060005410610c58576040517f57f6953100000000000000000000000000000000000000000000000000000000815260040160405180910390fd5b600054600260008481526020019081526020016000208190555060016003600084815260200190815260200160002060006101000a81548160ff0219169083151502179055507316eff5b01123605924d9BF74Ed947F8Fd3015f4463143dc3836005846040518363ffffffff1660e01b8152600401610cd8929190611406565b602060405180830381865af4158015610cf5573d6000803e3d6000fd5b505050506040513d601f19601f82011682018060405250810190610d1991906112d9565b508060016000848152602001908152602001600020819055507f5a92c2530f207992057b9c3e544108ffce3beda4a63719f316967c49bf6159d282600054604051610d65929190611306565b60405180910390a16001600080828254610d7f919061139a565b925050819055505050565b60007f000000000000000000000000000000000000000000000000000000000000000073ffffffffffffffffffffffffffffffffffffffff1663f5c9d69e604051806040016040528085600060088110610de757610de661142f565b5b6020020135815260200185600160088110610e0557610e0461142f565b5b60200201358152506040518060400160405280604051806040016040528088600260088110610e3757610e3661142f565b5b6020020135815260200188600360088110610e5557610e5461142f565b5b60200201358152508152602001604051806040016040528088600460088110610e8157610e8061142f565b5b6020020135815260200188600560088110610e9f57610e9e61142f565b5b6020020135815250815250604051806040016040528087600660088110610ec957610ec861142f565b5b6020020135815260200187600760088110610ee757610ee661142f565b5b602002013581525060405180604001604052808a81526020018973ffffffffffffffffffffffffffffffffffffffff168152506040518563ffffffff1660e01b8152600401610f399493929190611607565b602060405180830381865afa158015610f56573d6000803e3d6000fd5b505050506040513d601f19601f82011682018060405250810190610f7a919061167a565b90509392505050565b6000819050919050565b610f9681610f83565b82525050565b6000602082019050610fb16000830184610f8d565b92915050565b600080fd5b610fc581610f83565b8114610fd057600080fd5b50565b600081359050610fe281610fbc565b92915050565b600060208284031215610ffe57610ffd610fb7565b5b600061100c84828501610fd3565b91505092915050565b60008115159050919050565b61102a81611015565b82525050565b60006020820190506110456000830184611021565b92915050565b600073ffffffffffffffffffffffffffffffffffffffff82169050919050565b6000819050919050565b600061109061108b6110868461104b565b61106b565b61104b565b9050919050565b60006110a282611075565b9050919050565b60006110b482611097565b9050919050565b6110c4816110a9565b82525050565b60006020820190506110df60008301846110bb565b92915050565b60006110f082611097565b9050919050565b611100816110e5565b82525050565b600060208201905061111b60008301846110f7565b92915050565b60006080820190506111366000830187610f8d565b6111436020830186610f8d565b6111506040830185610f8d565b61115d6060830184611021565b95945050505050565b600063ffffffff82169050919050565b61117f81611166565b82525050565b600060208201905061119a6000830184611176565b92915050565b60006111ab8261104b565b9050919050565b6111bb816111a0565b81146111c657600080fd5b50565b6000813590506111d8816111b2565b92915050565b600080fd5b6000819050826020600802820111156111ff576111fe6111de565b5b92915050565b6000806000610140848603121561121f5761121e610fb7565b5b600061122d86828701610fd3565b935050602061123e868287016111c9565b925050604061124f868287016111e3565b9150509250925092565b60006112648261104b565b9050919050565b61127481611259565b811461127f57600080fd5b50565b6000813590506112918161126b565b92915050565b6000602082840312156112ad576112ac610fb7565b5b60006112bb84828501611282565b91505092915050565b6000815190506112d381610fbc565b92915050565b6000602082840312156112ef576112ee610fb7565b5b60006112fd848285016112c4565b91505092915050565b600060408201905061131b6000830185610f8d565b6113286020830184610f8d565b9392505050565b600061133a82611097565b9050919050565b61134a8161132f565b82525050565b60006020820190506113656000830184611341565b92915050565b7f4e487b7100000000000000000000000000000000000000000000000000000000600052601160045260246000fd5b60006113a582610f83565b91506113b083610f83565b9250827fffffffffffffffffffffffffffffffffffffffffffffffffffffffffffffffff038211156113e5576113e461136b565b5b828201905092915050565b8082525050565b61140081610f83565b82525050565b600060408201905061141b60008301856113f0565b61142860208301846113f7565b9392505050565b7f4e487b7100000000000000000000000000000000000000000000000000000000600052603260045260246000fd5b600060029050919050565b600081905092915050565b6000819050919050565b61148781610f83565b82525050565b6000611499838361147e565b60208301905092915050565b6000602082019050919050565b6114bb8161145e565b6114c58184611469565b92506114d082611474565b8060005b838110156115015781516114e8878261148d565b96506114f3836114a5565b9250506001810190506114d4565b505050505050565b600060029050919050565b600081905092915050565b6000819050919050565b600081905092915050565b61153d8161145e565b6115478184611529565b925061155282611474565b8060005b8381101561158357815161156a878261148d565b9650611575836114a5565b925050600181019050611556565b505050505050565b60006115978383611534565b60408301905092915050565b6000602082019050919050565b6115b981611509565b6115c38184611514565b92506115ce8261151f565b8060005b838110156115ff5781516115e6878261158b565b96506115f1836115a3565b9250506001810190506115d2565b505050505050565b60006101408201905061161d60008301876114b2565b61162a60408301866115b0565b61163760c08301856114b2565b6116456101008301846114b2565b95945050505050565b61165781611015565b811461166257600080fd5b50565b6000815190506116748161164e565b92915050565b6000602082840312156116905761168f610fb7565b5b600061169e84828501611665565b9150509291505056fea26469706673582212202157fc09c0b2c118b7a22bafd75155e57be31040586feb6eb2ba8b28b1918a0764736f6c634300080f0033",
  "deployedBytecode": "0x6080604052600436106100fe5760003560e01c80636bdcc8ab11610095578063bc49912811610064578063bc4991281461032a578063c5b208ff14610367578063d0383d68146103a4578063f207564e146103cf578063f220b9ec146103eb576100fe565b80636bdcc8ab1461026e5780638be9b119146102ab57806398366e35146102d4578063ae74552a146102ff576100fe565b80633c979b5f116100d15780633c979b5f146101c15780633ccfd60b146101ef5780634add651e146102065780635daf08ca14610231576100fe565b806315068a5a1461010357806322d9730c1461012e5780632b7ac3f31461016b578063331b6ab314610196575b600080fd5b34801561010f57600080fd5b50610118610416565b6040516101259190610f9c565b60405180910390f35b34801561013a57600080fd5b5061015560048036038101906101509190610fe8565b610423565b6040516101629190611030565b60405180910390f35b34801561017757600080fd5b506101806104c9565b60405161018d91906110ca565b60405180910390f35b3480156101a257600080fd5b506101ab6104ed565b6040516101b89190611106565b60405180910390f35b3480156101cd57600080fd5b506101d6610511565b6040516101e69493929190611121565b60405180910390f35b3480156101fb57600080fd5b5061020461053c565b005b34801561021257600080fd5b5061021b610683565b6040516102289190611185565b60405180910390f35b34801561023d57600080fd5b5061025860048036038101906102539190610fe8565b6106a7565b6040516102659190610f9c565b60405180910390f35b34801561027a57600080fd5b5061029560048036038101906102909190610fe8565b6106bf565b6040516102a29190611030565b60405180910390f35b3480156102b757600080fd5b506102d260048036038101906102cd9190611205565b6106df565b005b3480156102e057600080fd5b506102e9610746565b6040516102f69190610f9c565b60405180910390f35b34801561030b57600080fd5b5061031461076a565b6040516103219190610f9c565b60405180910390f35b34801561033657600080fd5b50610351600480360381019061034c9190610fe8565b610770565b60405161035e9190610f9c565b60405180910390f35b34801561037357600080fd5b5061038e60048036038101906103899190611297565b610788565b60405161039b9190610f9c565b60405180910390f35b3480156103b057600080fd5b506103b96107a0565b6040516103c69190610f9c565b60405180910390f35b6103e960048036038101906103e49190610fe8565b6107c4565b005b3480156103f757600080fd5b506104006108ac565b60405161040d9190610f9c565b60405180910390f35b6000600560010154905090565b60008082141580156104c257507f000000000000000000000000000000000000000000000000000000000000000073ffffffffffffffffffffffffffffffffffffffff1663e493ef8c6040518163ffffffff1660e01b8152600401602060405180830381865afa15801561049b573d6000803e3d6000fd5b505050506040513d601f19601f820116820180604052508101906104bf91906112d9565b82105b9050919050565b7f000000000000000000000000000000000000000000000000000000000000000081565b7f000000000000000000000000000000000000000000000000000000000000000081565b60058060000154908060010154908060020154908060050160009054906101000a900460ff16905084565b6000600460003373ffffffffffffffffffffffffffffffffffffffff1673ffffffffffffffffffffffffffffffffffffffff168152602001908152602001600020549050600081036105ba576040517f6f50367a00000000000000000000000000000000000000000000000000000000815260040160405180910390fd5b478111156105f4576040517f786e0a9900000000000000000000000000000000000000000000000000000000815260040160405180910390fd5b6000600460003373ffffffffffffffffffffffffffffffffffffffff1673ffffffffffffffffffffffffffffffffffffffff168152602001908152602001600020819055503373ffffffffffffffffffffffffffffffffffffffff166108fc829081150290604051600060405180830381858888f1935050505015801561067f573d6000803e3d6000fd5b5050565b7f000000000000000000000000000000000000000000000000000000000000000081565b60026020528060005260406000206000915090505481565b60036020528060005260406000206000915054906101000a900460ff1681565b826106e981610423565b61072a57806040517f7f3e75af0000000000000000000000000000000000000000000000000000000081526004016107219190610f9c565b60405180910390fd5b6107358484846108d0565b6107408484846108d5565b50505050565b7f000000000000000000000000000000000000000000000000000000000000000081565b60005481565b60016020528060005260406000206000915090505481565b60046020528060005260406000206000915090505481565b7f000000000000000000000000000000000000000000000000000000000000000081565b806107ce81610423565b61080f57806040517f7f3e75af0000000000000000000000000000000000000000000000000000000081526004016108069190610f9c565b60405180910390fd5b7f00000000000000000000000000000000000000000000000000000000000000003414610895577f0000000000000000000000000000000000000000000000000000000000000000346040517f25c3f46e00000000000000000000000000000000000000000000000000000000815260040161088c929190611306565b60405180910390fd5b61089e82610ba3565b6108a88234610ba6565b5050565b7f000000000000000000000000000000000000000000000000000000000000000081565b505050565b3073ffffffffffffffffffffffffffffffffffffffff168273ffffffffffffffffffffffffffffffffffffffff16148061093b5750600073ffffffffffffffffffffffffffffffffffffffff168273ffffffffffffffffffffffffffffffffffffffff16145b1561097d57816040517f4a149d080000000000000000000000000000000000000000000000000000000081526004016109749190611350565b60405180910390fd5b600015156003600085815260200190815260200160002060009054906101000a900460ff161515036109e657826040517f5a971ebb0000000000000000000000000000000000000000000000000000000081526004016109dd9190610f9c565b60405180910390fd5b6000600160008581526020019081526020016000205403610a3e57826040517faabeeba5000000000000000000000000000000000000000000000000000000008152600401610a359190610f9c565b60405180910390fd5b610a49838383610d8a565b610a7f576040517f09bde33900000000000000000000000000000000000000000000000000000000815260040160405180910390fd5b6000600160008581526020019081526020016000205490506000600260008681526020019081526020016000205490506000600260008781526020019081526020016000208190555060006003600087815260200190815260200160002060006101000a81548160ff0219169083151502179055506000600160008781526020019081526020016000208190555081600460008673ffffffffffffffffffffffffffffffffffffffff1673ffffffffffffffffffffffffffffffffffffffff1681526020019081526020016000206000828254610b5c919061139a565b925050819055507f62ec3a516d22a993ce5cb4e7593e878c74f4d799dde522a88dc27a994fd5a9438582604051610b94929190611306565b60405180910390a15050505050565b50565b6003600083815260200190815260200160002060009054906101000a900460ff1615610bfd576040517e0a60f700000000000000000000000000000000000000000000000000000000815260040160405180910390fd5b7f000000000000000000000000000000000000000000000000000000000000000060005410610c58576040517f57f6953100000000000000000000000000000000000000000000000000000000815260040160405180910390fd5b600054600260008481526020019081526020016000208190555060016003600084815260200190815260200160002060006101000a81548160ff02191690831515021790555073__$156f483e97cedd2612cb663a75817771d9$__63143dc3836005846040518363ffffffff1660e01b8152600401610cd8929190611406565b602060405180830381865af4158015610cf5573d6000803e3d6000fd5b505050506040513d601f19601f82011682018060405250810190610d1991906112d9565b508060016000848152602001908152602001600020819055507f5a92c2530f207992057b9c3e544108ffce3beda4a63719f316967c49bf6159d282600054604051610d65929190611306565b60405180910390a16001600080828254610d7f919061139a565b925050819055505050565b60007f000000000000000000000000000000000000000000000000000000000000000073ffffffffffffffffffffffffffffffffffffffff1663f5c9d69e604051806040016040528085600060088110610de757610de661142f565b5b6020020135815260200185600160088110610e0557610e0461142f565b5b60200201358152506040518060400160405280604051806040016040528088600260088110610e3757610e3661142f565b5b6020020135815260200188600360088110610e5557610e5461142f565b5b60200201358152508152602001604051806040016040528088600460088110610e8157610e8061142f565b5b6020020135815260200188600560088110610e9f57610e9e61142f565b5b6020020135815250815250604051806040016040528087600660088110610ec957610ec861142f565b5b6020020135815260200187600760088110610ee757610ee661142f565b5b602002013581525060405180604001604052808a81526020018973ffffffffffffffffffffffffffffffffffffffff168152506040518563ffffffff1660e01b8152600401610f399493929190611607565b602060405180830381865afa158015610f56573d6000803e3d6000fd5b505050506040513d601f19601f82011682018060405250810190610f7a919061167a565b90509392505050565b6000819050919050565b610f9681610f83565b82525050565b6000602082019050610fb16000830184610f8d565b92915050565b600080fd5b610fc581610f83565b8114610fd057600080fd5b50565b600081359050610fe281610fbc565b92915050565b600060208284031215610ffe57610ffd610fb7565b5b600061100c84828501610fd3565b91505092915050565b60008115159050919050565b61102a81611015565b82525050565b60006020820190506110456000830184611021565b92915050565b600073ffffffffffffffffffffffffffffffffffffffff82169050919050565b6000819050919050565b600061109061108b6110868461104b565b61106b565b61104b565b9050919050565b60006110a282611075565b9050919050565b60006110b482611097565b9050919050565b6110c4816110a9565b82525050565b60006020820190506110df60008301846110bb565b92915050565b60006110f082611097565b9050919050565b611100816110e5565b82525050565b600060208201905061111b60008301846110f7565b92915050565b60006080820190506111366000830187610f8d565b6111436020830186610f8d565b6111506040830185610f8d565b61115d6060830184611021565b95945050505050565b600063ffffffff82169050919050565b61117f81611166565b82525050565b600060208201905061119a6000830184611176565b92915050565b60006111ab8261104b565b9050919050565b6111bb816111a0565b81146111c657600080fd5b50565b6000813590506111d8816111b2565b92915050565b600080fd5b6000819050826020600802820111156111ff576111fe6111de565b5b92915050565b6000806000610140848603121561121f5761121e610fb7565b5b600061122d86828701610fd3565b935050602061123e868287016111c9565b925050604061124f868287016111e3565b9150509250925092565b60006112648261104b565b9050919050565b61127481611259565b811461127f57600080fd5b50565b6000813590506112918161126b565b92915050565b6000602082840312156112ad576112ac610fb7565b5b60006112bb84828501611282565b91505092915050565b6000815190506112d381610fbc565b92915050565b6000602082840312156112ef576112ee610fb7565b5b60006112fd848285016112c4565b91505092915050565b600060408201905061131b6000830185610f8d565b6113286020830184610f8d565b9392505050565b600061133a82611097565b9050919050565b61134a8161132f565b82525050565b60006020820190506113656000830184611341565b92915050565b7f4e487b7100000000000000000000000000000000000000000000000000000000600052601160045260246000fd5b60006113a582610f83565b91506113b083610f83565b9250827fffffffffffffffffffffffffffffffffffffffffffffffffffffffffffffffff038211156113e5576113e461136b565b5b828201905092915050565b8082525050565b61140081610f83565b82525050565b600060408201905061141b60008301856113f0565b61142860208301846113f7565b9392505050565b7f4e487b7100000000000000000000000000000000000000000000000000000000600052603260045260246000fd5b600060029050919050565b600081905092915050565b6000819050919050565b61148781610f83565b82525050565b6000611499838361147e565b60208301905092915050565b6000602082019050919050565b6114bb8161145e565b6114c58184611469565b92506114d082611474565b8060005b838110156115015781516114e8878261148d565b96506114f3836114a5565b9250506001810190506114d4565b505050505050565b600060029050919050565b600081905092915050565b6000819050919050565b600081905092915050565b61153d8161145e565b6115478184611529565b925061155282611474565b8060005b8381101561158357815161156a878261148d565b9650611575836114a5565b925050600181019050611556565b505050505050565b60006115978383611534565b60408301905092915050565b6000602082019050919050565b6115b981611509565b6115c38184611514565b92506115ce8261151f565b8060005b838110156115ff5781516115e6878261158b565b96506115f1836115a3565b9250506001810190506115d2565b505050505050565b60006101408201905061161d60008301876114b2565b61162a60408301866115b0565b61163760c08301856114b2565b6116456101008301846114b2565b95945050505050565b61165781611015565b811461166257600080fd5b50565b6000815190506116748161164e565b92915050565b6000602082840312156116905761168f610fb7565b5b600061169e84828501611665565b9150509291505056fea26469706673582212202157fc09c0b2c118b7a22bafd75155e57be31040586feb6eb2ba8b28b1918a0764736f6c634300080f0033",
  "libraries": {
    "BinaryIMT": "0x16eff5b01123605924d9BF74Ed947F8Fd3015f44"
  },
  "devdoc": {
    "errors": {
      "InsufficientDeposit(uint256,uint256)": [
        {
          "params": {
            "provided": "The provided deposit amount",
            "required": "The required deposit amount"
          }
        }
      ]
    },
    "kind": "dev",
    "methods": {
      "register(uint256)": {
        "params": {
          "idCommitment": "The idCommitment of the member"
        }
      },
      "slash(uint256,address,uint256[8])": {
        "details": "Allows a user to slash a member",
        "params": {
          "idCommitment": "The idCommitment of the member"
        }
      }
    },
    "version": 1
  },
  "userdoc": {
    "errors": {
      "DuplicateIdCommitment()": [
        {
          "notice": "Member is already registered"
        }
      ],
      "FullTree()": [
        {
          "notice": "The tree is full"
        }
      ],
      "InsufficientContractBalance()": [
        {
          "notice": "Contract has insufficient balance to return"
        }
      ],
      "InsufficientDeposit(uint256,uint256)": [
        {
          "notice": "Invalid deposit amount"
        }
      ],
      "InsufficientWithdrawalBalance()": [
        {
          "notice": "User has insufficient balance to withdraw"
        }
      ],
      "InvalidIdCommitment(uint256)": [
        {
          "notice": "Invalid idCommitment"
        }
      ],
      "InvalidProof()": [
        {
          "notice": "Invalid proof"
        }
      ],
      "InvalidReceiverAddress(address)": [
        {
          "notice": "Invalid receiver address, when the receiver is the contract itself or 0x0"
        }
      ],
      "MemberHasNoStake(uint256)": [
        {
          "notice": "Member has no stake"
        }
      ],
      "MemberNotRegistered(uint256)": [
        {
          "notice": "Member is not registered"
        }
      ]
    },
    "events": {
      "MemberRegistered(uint256,uint256)": {
        "notice": "Emitted when a new member is added to the set"
      },
      "MemberWithdrawn(uint256,uint256)": {
        "notice": "Emitted when a member is removed from the set"
      }
    },
    "kind": "user",
    "methods": {
      "DEPTH()": {
        "notice": "The depth of the merkle tree"
      },
      "MEMBERSHIP_DEPOSIT()": {
        "notice": "The deposit amount required to register as a member"
      },
      "SET_SIZE()": {
        "notice": "The size of the merkle tree, i.e 2^depth"
      },
      "deployedBlockNumber()": {
        "notice": "the deployed block number"
      },
      "idCommitmentIndex()": {
        "notice": "The index of the next member to be registered"
      },
      "imtData()": {
        "notice": "the Incremental Merkle Tree"
      },
      "memberExists(uint256)": {
        "notice": "The membership status of each member"
      },
      "members(uint256)": {
        "notice": "The membership status of each member maps from idCommitment to their index in the set"
      },
      "poseidonHasher()": {
        "notice": "The Poseidon hasher contract"
      },
      "register(uint256)": {
        "notice": "Allows a user to register as a member"
      },
      "stakedAmounts(uint256)": {
        "notice": "The amount of eth staked by each member maps from idCommitment to the amount staked"
      },
      "verifier()": {
        "notice": "The groth16 verifier contract"
      },
      "withdraw()": {
        "notice": "Allows a user to withdraw funds allocated to them upon slashing a member"
      },
      "withdrawalBalance(address)": {
        "notice": "The balance of each user that can be withdrawn"
      }
    },
    "version": 1
  },
  "storageLayout": {
    "storage": [
      {
        "astId": 1069,
        "contract": "contracts/Rln.sol:RLN",
        "label": "idCommitmentIndex",
        "offset": 0,
        "slot": "0",
        "type": "t_uint256"
      },
      {
        "astId": 1074,
        "contract": "contracts/Rln.sol:RLN",
        "label": "stakedAmounts",
        "offset": 0,
        "slot": "1",
        "type": "t_mapping(t_uint256,t_uint256)"
      },
      {
        "astId": 1079,
        "contract": "contracts/Rln.sol:RLN",
        "label": "members",
        "offset": 0,
        "slot": "2",
        "type": "t_mapping(t_uint256,t_uint256)"
      },
      {
        "astId": 1084,
        "contract": "contracts/Rln.sol:RLN",
        "label": "memberExists",
        "offset": 0,
        "slot": "3",
        "type": "t_mapping(t_uint256,t_bool)"
      },
      {
        "astId": 1089,
        "contract": "contracts/Rln.sol:RLN",
        "label": "withdrawalBalance",
        "offset": 0,
        "slot": "4",
        "type": "t_mapping(t_address,t_uint256)"
      },
      {
        "astId": 1104,
        "contract": "contracts/Rln.sol:RLN",
        "label": "imtData",
        "offset": 0,
        "slot": "5",
        "type": "t_struct(BinaryIMTData)22_storage"
      }
    ],
    "types": {
      "t_address": {
        "encoding": "inplace",
        "label": "address",
        "numberOfBytes": "20"
      },
      "t_array(t_uint256)2_storage": {
        "base": "t_uint256",
        "encoding": "inplace",
        "label": "uint256[2]",
        "numberOfBytes": "64"
      },
      "t_bool": {
        "encoding": "inplace",
        "label": "bool",
        "numberOfBytes": "1"
      },
      "t_mapping(t_address,t_uint256)": {
        "encoding": "mapping",
        "key": "t_address",
        "label": "mapping(address => uint256)",
        "numberOfBytes": "32",
        "value": "t_uint256"
      },
      "t_mapping(t_uint256,t_array(t_uint256)2_storage)": {
        "encoding": "mapping",
        "key": "t_uint256",
        "label": "mapping(uint256 => uint256[2])",
        "numberOfBytes": "32",
        "value": "t_array(t_uint256)2_storage"
      },
      "t_mapping(t_uint256,t_bool)": {
        "encoding": "mapping",
        "key": "t_uint256",
        "label": "mapping(uint256 => bool)",
        "numberOfBytes": "32",
        "value": "t_bool"
      },
      "t_mapping(t_uint256,t_uint256)": {
        "encoding": "mapping",
        "key": "t_uint256",
        "label": "mapping(uint256 => uint256)",
        "numberOfBytes": "32",
        "value": "t_uint256"
      },
      "t_struct(BinaryIMTData)22_storage": {
        "encoding": "inplace",
        "label": "struct BinaryIMTData",
        "members": [
          {
            "astId": 5,
            "contract": "contracts/Rln.sol:RLN",
            "label": "depth",
            "offset": 0,
            "slot": "0",
            "type": "t_uint256"
          },
          {
            "astId": 7,
            "contract": "contracts/Rln.sol:RLN",
            "label": "root",
            "offset": 0,
            "slot": "1",
            "type": "t_uint256"
          },
          {
            "astId": 9,
            "contract": "contracts/Rln.sol:RLN",
            "label": "numberOfLeaves",
            "offset": 0,
            "slot": "2",
            "type": "t_uint256"
          },
          {
            "astId": 13,
            "contract": "contracts/Rln.sol:RLN",
            "label": "zeroes",
            "offset": 0,
            "slot": "3",
            "type": "t_mapping(t_uint256,t_uint256)"
          },
          {
            "astId": 19,
            "contract": "contracts/Rln.sol:RLN",
            "label": "lastSubtrees",
            "offset": 0,
            "slot": "4",
            "type": "t_mapping(t_uint256,t_array(t_uint256)2_storage)"
          },
          {
            "astId": 21,
            "contract": "contracts/Rln.sol:RLN",
            "label": "useDefaultZeroes",
            "offset": 0,
            "slot": "5",
            "type": "t_bool"
          }
        ],
        "numberOfBytes": "192"
      },
      "t_uint256": {
        "encoding": "inplace",
        "label": "uint256",
        "numberOfBytes": "32"
      }
    }
  }
}