{
  "address": "0xDc64a140Aa3E981100a9becA4E685f962f0cF6C9",
  "abi": [
    {
      "inputs": [
        {
          "internalType": "uint256",
          "name": "membershipDeposit",
          "type": "uint256"
        },
        {
          "internalType": "uint256",
          "name": "depth",
          "type": "uint256"
        },
        {
          "internalType": "address",
          "name": "_poseidonHasher",
          "type": "address"
        },
        {
          "internalType": "address",
          "name": "_validGroupStorage",
          "type": "address"
        }
      ],
      "stateMutability": "nonpayable",
      "type": "constructor"
    },
    {
      "anonymous": false,
      "inputs": [
        {
          "indexed": false,
          "internalType": "uint256",
          "name": "pubkey",
          "type": "uint256"
        },
        {
          "indexed": false,
          "internalType": "uint256",
          "name": "index",
          "type": "uint256"
        }
      ],
      "name": "MemberRegistered",
      "type": "event"
    },
    {
      "anonymous": false,
      "inputs": [
        {
          "indexed": false,
          "internalType": "uint256",
          "name": "pubkey",
          "type": "uint256"
        },
        {
          "indexed": false,
          "internalType": "uint256",
          "name": "index",
          "type": "uint256"
        }
      ],
      "name": "MemberWithdrawn",
      "type": "event"
    },
    {
      "inputs": [],
      "name": "DEPTH",
      "outputs": [
        {
          "internalType": "uint256",
          "name": "",
          "type": "uint256"
        }
      ],
      "stateMutability": "view",
      "type": "function"
    },
    {
      "inputs": [],
      "name": "MEMBERSHIP_DEPOSIT",
      "outputs": [
        {
          "internalType": "uint256",
          "name": "",
          "type": "uint256"
        }
      ],
      "stateMutability": "view",
      "type": "function"
    },
    {
      "inputs": [],
      "name": "SET_SIZE",
      "outputs": [
        {
          "internalType": "uint256",
          "name": "",
          "type": "uint256"
        }
      ],
      "stateMutability": "view",
      "type": "function"
    },
    {
      "inputs": [],
      "name": "interep",
      "outputs": [
        {
          "internalType": "contract IInterep",
          "name": "",
          "type": "address"
        }
      ],
      "stateMutability": "view",
      "type": "function"
    },
    {
      "inputs": [
        {
          "internalType": "uint256",
          "name": "",
          "type": "uint256"
        }
      ],
      "name": "members",
      "outputs": [
        {
          "internalType": "uint256",
          "name": "",
          "type": "uint256"
        }
      ],
      "stateMutability": "view",
      "type": "function"
    },
    {
      "inputs": [],
      "name": "poseidonHasher",
      "outputs": [
        {
          "internalType": "contract IPoseidonHasher",
          "name": "",
          "type": "address"
        }
      ],
      "stateMutability": "view",
      "type": "function"
    },
    {
      "inputs": [],
      "name": "pubkeyIndex",
      "outputs": [
        {
          "internalType": "uint256",
          "name": "",
          "type": "uint256"
        }
      ],
      "stateMutability": "view",
      "type": "function"
    },
    {
      "inputs": [
        {
          "internalType": "uint256",
          "name": "groupId",
          "type": "uint256"
        },
        {
          "internalType": "string",
          "name": "signal",
          "type": "string"
        },
        {
          "internalType": "uint256",
          "name": "nullifierHash",
          "type": "uint256"
        },
        {
          "internalType": "uint256",
          "name": "externalNullifier",
          "type": "uint256"
        },
        {
          "internalType": "uint256[8]",
          "name": "proof",
          "type": "uint256[8]"
        },
        {
          "internalType": "uint256",
          "name": "pubkey",
          "type": "uint256"
        }
      ],
      "name": "register",
      "outputs": [],
      "stateMutability": "nonpayable",
      "type": "function"
    },
    {
      "inputs": [
        {
          "internalType": "uint256",
          "name": "pubkey",
          "type": "uint256"
        }
      ],
      "name": "register",
      "outputs": [],
      "stateMutability": "payable",
      "type": "function"
    },
    {
      "inputs": [
        {
          "internalType": "uint256[]",
          "name": "pubkeys",
          "type": "uint256[]"
        }
      ],
      "name": "registerBatch",
      "outputs": [],
      "stateMutability": "payable",
      "type": "function"
    },
    {
      "inputs": [],
      "name": "validGroupStorage",
      "outputs": [
        {
          "internalType": "contract IValidGroupStorage",
          "name": "",
          "type": "address"
        }
      ],
      "stateMutability": "view",
      "type": "function"
    },
    {
      "inputs": [
        {
          "internalType": "uint256",
          "name": "secret",
          "type": "uint256"
        },
        {
          "internalType": "uint256",
          "name": "_pubkeyIndex",
          "type": "uint256"
        },
        {
          "internalType": "address payable",
          "name": "receiver",
          "type": "address"
        }
      ],
      "name": "withdraw",
      "outputs": [],
      "stateMutability": "nonpayable",
      "type": "function"
    },
    {
      "inputs": [
        {
          "internalType": "uint256[]",
          "name": "secrets",
          "type": "uint256[]"
        },
        {
          "internalType": "uint256[]",
          "name": "pubkeyIndexes",
          "type": "uint256[]"
        },
        {
          "internalType": "address payable[]",
          "name": "receivers",
          "type": "address[]"
        }
      ],
      "name": "withdrawBatch",
      "outputs": [],
      "stateMutability": "nonpayable",
      "type": "function"
    }
  ],
  "transactionHash": "0xa63496b4b0f9a7d9782e437968b884259510211d8382da4aaae4eca8b49c9963",
  "args": [
    1000000000000000,
    20,
    "0x5FbDB2315678afecb367f032d93F642f64180aa3",
    "0xCf7Ed3AccA5a467e9e704C703E8D87F634fB0Fc9"
  ],
  "numDeployments": 1,
  "solcInputHash": "340bcf47b11a05607e785a46710a077f",
  "bytecode": "0x60e0604052600080553480156200001557600080fd5b5060405162001e9738038062001e9783398181016040528101906200003b91906200025c565b83608081815250508260a08181525050826001901b60c0818152505081600260006101000a81548173ffffffffffffffffffffffffffffffffffffffff021916908373ffffffffffffffffffffffffffffffffffffffff16021790555080600360006101000a81548173ffffffffffffffffffffffffffffffffffffffff021916908373ffffffffffffffffffffffffffffffffffffffff160217905550600360009054906101000a900473ffffffffffffffffffffffffffffffffffffffff1673ffffffffffffffffffffffffffffffffffffffff16635d0a8dc26040518163ffffffff1660e01b8152600401602060405180830381865afa15801562000147573d6000803e3d6000fd5b505050506040513d601f19601f820116820180604052508101906200016d9190620002ce565b600460006101000a81548173ffffffffffffffffffffffffffffffffffffffff021916908373ffffffffffffffffffffffffffffffffffffffff1602179055505050505062000300565b600080fd5b6000819050919050565b620001d181620001bc565b8114620001dd57600080fd5b50565b600081519050620001f181620001c6565b92915050565b600073ffffffffffffffffffffffffffffffffffffffff82169050919050565b60006200022482620001f7565b9050919050565b620002368162000217565b81146200024257600080fd5b50565b60008151905062000256816200022b565b92915050565b60008060008060808587031215620002795762000278620001b7565b5b60006200028987828801620001e0565b94505060206200029c87828801620001e0565b9350506040620002af8782880162000245565b9250506060620002c28782880162000245565b91505092959194509250565b600060208284031215620002e757620002e6620001b7565b5b6000620002f78482850162000245565b91505092915050565b60805160a05160c051611b3662000361600039600081816103d1015281816104b901528181610787015281816107ab01526108a1015260006105dc01526000818161052a0152818161080f0152818161087d0152610a5d0152611b366000f3fe6080604052600436106100c25760003560e01c806369e4863f1161007f578063a9d85eba11610059578063a9d85eba14610249578063d0383d6814610272578063f207564e1461029d578063f220b9ec146102b9576100c2565b806369e4863f146101d757806398366e35146101f3578063a19aaee81461021e576100c2565b80630ad58d2f146100c75780630e238aed146100f0578063331b6ab3146101195780635d0a8dc2146101445780635daf08ca1461016f57806361579a93146101ac575b600080fd5b3480156100d357600080fd5b506100ee60048036038101906100e99190610d03565b6102e4565b005b3480156100fc57600080fd5b5061011760048036038101906101129190610ddd565b6102f4565b005b34801561012557600080fd5b5061012e610445565b60405161013b9190610eed565b60405180910390f35b34801561015057600080fd5b5061015961046b565b6040516101669190610f29565b60405180910390f35b34801561017b57600080fd5b5061019660048036038101906101919190610f44565b610491565b6040516101a39190610f80565b60405180910390f35b3480156101b857600080fd5b506101c16104a9565b6040516101ce9190610f80565b60405180910390f35b6101f160048036038101906101ec9190610ff1565b6104af565b005b3480156101ff57600080fd5b506102086105da565b6040516102159190610f80565b60405180910390f35b34801561022a57600080fd5b506102336105fe565b604051610240919061105f565b60405180910390f35b34801561025557600080fd5b50610270600480360381019061026b91906110d0565b610624565b005b34801561027e57600080fd5b50610287610785565b6040516102949190610f80565b60405180910390f35b6102b760048036038101906102b29190610f44565b6107a9565b005b3480156102c557600080fd5b506102ce61087b565b6040516102db9190610f80565b60405180910390f35b6102ef83838361089f565b505050565b600360009054906101000a900473ffffffffffffffffffffffffffffffffffffffff1673ffffffffffffffffffffffffffffffffffffffff1663b655ee34886040518263ffffffff1660e01b815260040161034f9190610f80565b602060405180830381865afa15801561036c573d6000803e3d6000fd5b505050506040513d601f19601f8201168201806040525081019061039091906111bc565b6103cf576040517f08c379a00000000000000000000000000000000000000000000000000000000081526004016103c69061126c565b60405180910390fd5b7f000000000000000000000000000000000000000000000000000000000000000060005410610433576040517f08c379a000000000000000000000000000000000000000000000000000000000815260040161042a906112d8565b60405180910390fd5b61043c81610b50565b50505050505050565b600260009054906101000a900473ffffffffffffffffffffffffffffffffffffffff1681565b600460009054906101000a900473ffffffffffffffffffffffffffffffffffffffff1681565b60016020528060005260406000206000915090505481565b60005481565b60008282905090507f0000000000000000000000000000000000000000000000000000000000000000816000546104e69190611327565b1115610527576040517f08c379a000000000000000000000000000000000000000000000000000000000815260040161051e906113c9565b60405180910390fd5b807f000000000000000000000000000000000000000000000000000000000000000061055391906113e9565b3414610594576040517f08c379a000000000000000000000000000000000000000000000000000000000815260040161058b906114b5565b60405180910390fd5b60005b818110156105d4576105c18484838181106105b5576105b46114d5565b5b90506020020135610b50565b80806105cc90611504565b915050610597565b50505050565b7f000000000000000000000000000000000000000000000000000000000000000081565b600360009054906101000a900473ffffffffffffffffffffffffffffffffffffffff1681565b60008686905090506000810361066f576040517f08c379a0000000000000000000000000000000000000000000000000000000008152600401610666906115be565b60405180910390fd5b8484905081146106b4576040517f08c379a00000000000000000000000000000000000000000000000000000000081526004016106ab90611650565b60405180910390fd5b8282905081146106f9576040517f08c379a00000000000000000000000000000000000000000000000000000000081526004016106f0906116e2565b60405180910390fd5b60005b8181101561077b5761076888888381811061071a576107196114d5565b5b90506020020135878784818110610734576107336114d5565b5b9050602002013586868581811061074e5761074d6114d5565b5b90506020020160208101906107639190611702565b61089f565b808061077390611504565b9150506106fc565b5050505050505050565b7f000000000000000000000000000000000000000000000000000000000000000081565b7f00000000000000000000000000000000000000000000000000000000000000006000541061080d576040517f08c379a0000000000000000000000000000000000000000000000000000000008152600401610804906112d8565b60405180910390fd5b7f0000000000000000000000000000000000000000000000000000000000000000341461086f576040517f08c379a0000000000000000000000000000000000000000000000000000000008152600401610866906117a1565b60405180910390fd5b61087881610b50565b50565b7f000000000000000000000000000000000000000000000000000000000000000081565b7f00000000000000000000000000000000000000000000000000000000000000008210610901576040517f08c379a00000000000000000000000000000000000000000000000000000000081526004016108f890611833565b60405180910390fd5b6000600160008481526020019081526020016000205403610957576040517f08c379a000000000000000000000000000000000000000000000000000000000815260040161094e906118c5565b60405180910390fd5b600073ffffffffffffffffffffffffffffffffffffffff168173ffffffffffffffffffffffffffffffffffffffff16036109c6576040517f08c379a00000000000000000000000000000000000000000000000000000000081526004016109bd90611957565b60405180910390fd5b60006109d184610bc0565b905080600160008581526020019081526020016000205414610a28576040517f08c379a0000000000000000000000000000000000000000000000000000000008152600401610a1f906119c3565b60405180910390fd5b600060016000858152602001908152602001600020819055506000808373ffffffffffffffffffffffffffffffffffffffff167f0000000000000000000000000000000000000000000000000000000000000000604051610a8890611a14565b60006040518083038185875af1925050503d8060008114610ac5576040519150601f19603f3d011682016040523d82523d6000602084013e610aca565b606091505b509150915081610b0f576040517f08c379a0000000000000000000000000000000000000000000000000000000008152600401610b0690611a75565b60405180910390fd5b7f62ec3a516d22a993ce5cb4e7593e878c74f4d799dde522a88dc27a994fd5a9438386604051610b40929190611a95565b60405180910390a1505050505050565b806001600080548152602001908152602001600020819055507f5a92c2530f207992057b9c3e544108ffce3beda4a63719f316967c49bf6159d281600054604051610b9c929190611a95565b60405180910390a16001600080828254610bb69190611327565b9250508190555050565b6000600260009054906101000a900473ffffffffffffffffffffffffffffffffffffffff1673ffffffffffffffffffffffffffffffffffffffff1663b189fd4c836040518263ffffffff1660e01b8152600401610c1d9190610f80565b602060405180830381865afa158015610c3a573d6000803e3d6000fd5b505050506040513d601f19601f82011682018060405250810190610c5e9190611ad3565b9050919050565b600080fd5b600080fd5b6000819050919050565b610c8281610c6f565b8114610c8d57600080fd5b50565b600081359050610c9f81610c79565b92915050565b600073ffffffffffffffffffffffffffffffffffffffff82169050919050565b6000610cd082610ca5565b9050919050565b610ce081610cc5565b8114610ceb57600080fd5b50565b600081359050610cfd81610cd7565b92915050565b600080600060608486031215610d1c57610d1b610c65565b5b6000610d2a86828701610c90565b9350506020610d3b86828701610c90565b9250506040610d4c86828701610cee565b9150509250925092565b600080fd5b600080fd5b600080fd5b60008083601f840112610d7b57610d7a610d56565b5b8235905067ffffffffffffffff811115610d9857610d97610d5b565b5b602083019150836001820283011115610db457610db3610d60565b5b9250929050565b600081905082602060080282011115610dd757610dd6610d60565b5b92915050565b60008060008060008060006101a0888a031215610dfd57610dfc610c65565b5b6000610e0b8a828b01610c90565b975050602088013567ffffffffffffffff811115610e2c57610e2b610c6a565b5b610e388a828b01610d65565b96509650506040610e4b8a828b01610c90565b9450506060610e5c8a828b01610c90565b9350506080610e6d8a828b01610dbb565b925050610180610e7f8a828b01610c90565b91505092959891949750929550565b6000819050919050565b6000610eb3610eae610ea984610ca5565b610e8e565b610ca5565b9050919050565b6000610ec582610e98565b9050919050565b6000610ed782610eba565b9050919050565b610ee781610ecc565b82525050565b6000602082019050610f026000830184610ede565b92915050565b6000610f1382610eba565b9050919050565b610f2381610f08565b82525050565b6000602082019050610f3e6000830184610f1a565b92915050565b600060208284031215610f5a57610f59610c65565b5b6000610f6884828501610c90565b91505092915050565b610f7a81610c6f565b82525050565b6000602082019050610f956000830184610f71565b92915050565b60008083601f840112610fb157610fb0610d56565b5b8235905067ffffffffffffffff811115610fce57610fcd610d5b565b5b602083019150836020820283011115610fea57610fe9610d60565b5b9250929050565b6000806020838503121561100857611007610c65565b5b600083013567ffffffffffffffff81111561102657611025610c6a565b5b61103285828601610f9b565b92509250509250929050565b600061104982610eba565b9050919050565b6110598161103e565b82525050565b60006020820190506110746000830184611050565b92915050565b60008083601f8401126110905761108f610d56565b5b8235905067ffffffffffffffff8111156110ad576110ac610d5b565b5b6020830191508360208202830111156110c9576110c8610d60565b5b9250929050565b600080600080600080606087890312156110ed576110ec610c65565b5b600087013567ffffffffffffffff81111561110b5761110a610c6a565b5b61111789828a01610f9b565b9650965050602087013567ffffffffffffffff81111561113a57611139610c6a565b5b61114689828a01610f9b565b9450945050604087013567ffffffffffffffff81111561116957611168610c6a565b5b61117589828a0161107a565b92509250509295509295509295565b60008115159050919050565b61119981611184565b81146111a457600080fd5b50565b6000815190506111b681611190565b92915050565b6000602082840312156111d2576111d1610c65565b5b60006111e0848285016111a7565b91505092915050565b600082825260208201905092915050565b7f524c4e2c2072656769737465723a20696e76616c696420696e7465726570206760008201527f726f757000000000000000000000000000000000000000000000000000000000602082015250565b60006112566024836111e9565b9150611261826111fa565b604082019050919050565b6000602082019050818103600083015261128581611249565b9050919050565b7f524c4e2c2072656769737465723a207365742069732066756c6c000000000000600082015250565b60006112c2601a836111e9565b91506112cd8261128c565b602082019050919050565b600060208201905081810360008301526112f1816112b5565b9050919050565b7f4e487b7100000000000000000000000000000000000000000000000000000000600052601160045260246000fd5b600061133282610c6f565b915061133d83610c6f565b9250827fffffffffffffffffffffffffffffffffffffffffffffffffffffffffffffffff03821115611372576113716112f8565b5b828201905092915050565b7f524c4e2c20726567697374657242617463683a207365742069732066756c6c00600082015250565b60006113b3601f836111e9565b91506113be8261137d565b602082019050919050565b600060208201905081810360008301526113e2816113a6565b9050919050565b60006113f482610c6f565b91506113ff83610c6f565b9250817fffffffffffffffffffffffffffffffffffffffffffffffffffffffffffffffff0483118215151615611438576114376112f8565b5b828202905092915050565b7f524c4e2c20726567697374657242617463683a206d656d62657273686970206460008201527f65706f736974206973206e6f7420736174697366696564000000000000000000602082015250565b600061149f6037836111e9565b91506114aa82611443565b604082019050919050565b600060208201905081810360008301526114ce81611492565b9050919050565b7f4e487b7100000000000000000000000000000000000000000000000000000000600052603260045260246000fd5b600061150f82610c6f565b91507fffffffffffffffffffffffffffffffffffffffffffffffffffffffffffffffff8203611541576115406112f8565b5b600182019050919050565b7f524c4e2c20776974686472617742617463683a2062617463682073697a65207a60008201527f65726f0000000000000000000000000000000000000000000000000000000000602082015250565b60006115a86023836111e9565b91506115b38261154c565b604082019050919050565b600060208201905081810360008301526115d78161159b565b9050919050565b7f524c4e2c20776974686472617742617463683a2062617463682073697a65206d60008201527f69736d61746368207075626b657920696e646578657300000000000000000000602082015250565b600061163a6036836111e9565b9150611645826115de565b604082019050919050565b600060208201905081810360008301526116698161162d565b9050919050565b7f524c4e2c20776974686472617742617463683a2062617463682073697a65206d60008201527f69736d6174636820726563656976657273000000000000000000000000000000602082015250565b60006116cc6031836111e9565b91506116d782611670565b604082019050919050565b600060208201905081810360008301526116fb816116bf565b9050919050565b60006020828403121561171857611717610c65565b5b600061172684828501610cee565b91505092915050565b7f524c4e2c2072656769737465723a206d656d62657273686970206465706f736960008201527f74206973206e6f74207361746973666965640000000000000000000000000000602082015250565b600061178b6032836111e9565b91506117968261172f565b604082019050919050565b600060208201905081810360008301526117ba8161177e565b9050919050565b7f524c4e2c205f77697468647261773a20696e76616c6964207075626b6579206960008201527f6e64657800000000000000000000000000000000000000000000000000000000602082015250565b600061181d6024836111e9565b9150611828826117c1565b604082019050919050565b6000602082019050818103600083015261184c81611810565b9050919050565b7f524c4e2c205f77697468647261773a206d656d62657220646f65736e2774206560008201527f7869737400000000000000000000000000000000000000000000000000000000602082015250565b60006118af6024836111e9565b91506118ba82611853565b604082019050919050565b600060208201905081810360008301526118de816118a2565b9050919050565b7f524c4e2c205f77697468647261773a20656d707479207265636569766572206160008201527f6464726573730000000000000000000000000000000000000000000000000000602082015250565b60006119416026836111e9565b915061194c826118e5565b604082019050919050565b6000602082019050818103600083015261197081611934565b9050919050565b7f524c4e2c205f77697468647261773a206e6f7420766572696669656400000000600082015250565b60006119ad601c836111e9565b91506119b882611977565b602082019050919050565b600060208201905081810360008301526119dc816119a0565b9050919050565b600081905092915050565b50565b60006119fe6000836119e3565b9150611a09826119ee565b600082019050919050565b6000611a1f826119f1565b9150819050919050565b7f7472616e73666572206661696c65640000000000000000000000000000000000600082015250565b6000611a5f600f836111e9565b9150611a6a82611a29565b602082019050919050565b60006020820190508181036000830152611a8e81611a52565b9050919050565b6000604082019050611aaa6000830185610f71565b611ab76020830184610f71565b9392505050565b600081519050611acd81610c79565b92915050565b600060208284031215611ae957611ae8610c65565b5b6000611af784828501611abe565b9150509291505056fea264697066735822122042b44661674efbced5851d54b4a426ca4bd38312508367dc346fa7730b1ca46464736f6c634300080f0033",
  "devdoc": {
    "kind": "dev",
    "methods": {},
    "version": 1
  },
  "userdoc": {
    "kind": "user",
    "methods": {},
    "version": 1
  },
  "storageLayout": {
    "storage": [
      {
        "astId": 1107,
        "contract": "contracts/Rln.sol:RLN",
        "label": "pubkeyIndex",
        "offset": 0,
        "slot": "0",
        "type": "t_uint256"
      },
      {
        "astId": 1111,
        "contract": "contracts/Rln.sol:RLN",
        "label": "members",
        "offset": 0,
        "slot": "1",
        "type": "t_mapping(t_uint256,t_uint256)"
      },
      {
        "astId": 1114,
        "contract": "contracts/Rln.sol:RLN",
        "label": "poseidonHasher",
        "offset": 0,
        "slot": "2",
        "type": "t_contract(IPoseidonHasher)648"
      },
      {
        "astId": 1117,
        "contract": "contracts/Rln.sol:RLN",
        "label": "validGroupStorage",
        "offset": 0,
        "slot": "3",
        "type": "t_contract(IValidGroupStorage)1499"
      },
      {
        "astId": 1120,
        "contract": "contracts/Rln.sol:RLN",
        "label": "interep",
        "offset": 0,
        "slot": "4",
        "type": "t_contract(IInterep)236"
      }
    ],
    "types": {
      "t_contract(IInterep)236": {
        "encoding": "inplace",
        "label": "contract IInterep",
        "numberOfBytes": "20"
      },
      "t_contract(IPoseidonHasher)648": {
        "encoding": "inplace",
        "label": "contract IPoseidonHasher",
        "numberOfBytes": "20"
      },
      "t_contract(IValidGroupStorage)1499": {
        "encoding": "inplace",
        "label": "contract IValidGroupStorage",
        "numberOfBytes": "20"
      },
      "t_mapping(t_uint256,t_uint256)": {
        "encoding": "mapping",
        "key": "t_uint256",
        "label": "mapping(uint256 => uint256)",
        "numberOfBytes": "32",
        "value": "t_uint256"
      },
      "t_uint256": {
        "encoding": "inplace",
        "label": "uint256",
        "numberOfBytes": "32"
      }
    }
  }
}