{
  "address": "0xDc64a140Aa3E981100a9becA4E685f962f0cF6C9",
  "abi": [
    {
      "inputs": [
        {
          "internalType": "uint256",
          "name": "membershipDeposit",
          "type": "uint256"
        },
        {
          "internalType": "uint256",
          "name": "depth",
          "type": "uint256"
        },
        {
          "internalType": "address",
          "name": "_poseidonHasher",
          "type": "address"
        },
        {
          "internalType": "address",
          "name": "_validGroupStorage",
          "type": "address"
        }
      ],
      "stateMutability": "nonpayable",
      "type": "constructor"
    },
    {
      "anonymous": false,
      "inputs": [
        {
          "indexed": false,
          "internalType": "uint256",
          "name": "pubkey",
          "type": "uint256"
        },
        {
          "indexed": false,
          "internalType": "uint256",
          "name": "index",
          "type": "uint256"
        }
      ],
      "name": "MemberRegistered",
      "type": "event"
    },
    {
      "anonymous": false,
      "inputs": [
        {
          "indexed": false,
          "internalType": "uint256",
          "name": "pubkey",
          "type": "uint256"
        },
        {
          "indexed": false,
          "internalType": "uint256",
          "name": "index",
          "type": "uint256"
        }
      ],
      "name": "MemberWithdrawn",
      "type": "event"
    },
    {
      "inputs": [],
      "name": "DEPTH",
      "outputs": [
        {
          "internalType": "uint256",
          "name": "",
          "type": "uint256"
        }
      ],
      "stateMutability": "view",
      "type": "function"
    },
    {
      "inputs": [],
      "name": "MEMBERSHIP_DEPOSIT",
      "outputs": [
        {
          "internalType": "uint256",
          "name": "",
          "type": "uint256"
        }
      ],
      "stateMutability": "view",
      "type": "function"
    },
    {
      "inputs": [],
      "name": "SET_SIZE",
      "outputs": [
        {
          "internalType": "uint256",
          "name": "",
          "type": "uint256"
        }
      ],
      "stateMutability": "view",
      "type": "function"
    },
    {
      "inputs": [],
      "name": "interep",
      "outputs": [
        {
          "internalType": "contract IInterep",
          "name": "",
          "type": "address"
        }
      ],
      "stateMutability": "view",
      "type": "function"
    },
    {
      "inputs": [
        {
          "internalType": "uint256",
          "name": "",
          "type": "uint256"
        }
      ],
      "name": "members",
      "outputs": [
        {
          "internalType": "uint256",
          "name": "",
          "type": "uint256"
        }
      ],
      "stateMutability": "view",
      "type": "function"
    },
    {
      "inputs": [],
      "name": "poseidonHasher",
      "outputs": [
        {
          "internalType": "contract IPoseidonHasher",
          "name": "",
          "type": "address"
        }
      ],
      "stateMutability": "view",
      "type": "function"
    },
    {
      "inputs": [],
      "name": "pubkeyIndex",
      "outputs": [
        {
          "internalType": "uint256",
          "name": "",
          "type": "uint256"
        }
      ],
      "stateMutability": "view",
      "type": "function"
    },
    {
      "inputs": [
        {
          "internalType": "uint256",
          "name": "groupId",
          "type": "uint256"
        },
        {
          "internalType": "bytes32",
          "name": "signal",
          "type": "bytes32"
        },
        {
          "internalType": "uint256",
          "name": "nullifierHash",
          "type": "uint256"
        },
        {
          "internalType": "uint256",
          "name": "externalNullifier",
          "type": "uint256"
        },
        {
          "internalType": "uint256[8]",
          "name": "proof",
          "type": "uint256[8]"
        },
        {
          "internalType": "uint256",
          "name": "pubkey",
          "type": "uint256"
        }
      ],
      "name": "register",
      "outputs": [],
      "stateMutability": "nonpayable",
      "type": "function"
    },
    {
      "inputs": [
        {
          "internalType": "uint256",
          "name": "pubkey",
          "type": "uint256"
        }
      ],
      "name": "register",
      "outputs": [],
      "stateMutability": "payable",
      "type": "function"
    },
    {
      "inputs": [
        {
          "internalType": "uint256[]",
          "name": "pubkeys",
          "type": "uint256[]"
        }
      ],
      "name": "registerBatch",
      "outputs": [],
      "stateMutability": "payable",
      "type": "function"
    },
    {
      "inputs": [],
      "name": "validGroupStorage",
      "outputs": [
        {
          "internalType": "contract IValidGroupStorage",
          "name": "",
          "type": "address"
        }
      ],
      "stateMutability": "view",
      "type": "function"
    },
    {
      "inputs": [
        {
          "internalType": "uint256",
          "name": "secret",
          "type": "uint256"
        },
        {
          "internalType": "uint256",
          "name": "_pubkeyIndex",
          "type": "uint256"
        },
        {
          "internalType": "address payable",
          "name": "receiver",
          "type": "address"
        }
      ],
      "name": "withdraw",
      "outputs": [],
      "stateMutability": "nonpayable",
      "type": "function"
    },
    {
      "inputs": [
        {
          "internalType": "uint256[]",
          "name": "secrets",
          "type": "uint256[]"
        },
        {
          "internalType": "uint256[]",
          "name": "pubkeyIndexes",
          "type": "uint256[]"
        },
        {
          "internalType": "address payable[]",
          "name": "receivers",
          "type": "address[]"
        }
      ],
      "name": "withdrawBatch",
      "outputs": [],
      "stateMutability": "nonpayable",
      "type": "function"
    }
  ],
  "transactionHash": "0xe33c88ccdf92f52f876387a36331e7dba7d59a669bd7348a1078211292661883",
  "args": [
    1000000000000000,
    20,
    "0x5FbDB2315678afecb367f032d93F642f64180aa3",
    "0xCf7Ed3AccA5a467e9e704C703E8D87F634fB0Fc9"
  ],
  "numDeployments": 1,
  "solcInputHash": "772faab6f90f985c3c5f77daa2db6940",
  "bytecode": "0x60e0604052600080553480156200001557600080fd5b5060405162001f6c38038062001f6c83398181016040528101906200003b91906200025c565b83608081815250508260a08181525050826001901b60c0818152505081600260006101000a81548173ffffffffffffffffffffffffffffffffffffffff021916908373ffffffffffffffffffffffffffffffffffffffff16021790555080600360006101000a81548173ffffffffffffffffffffffffffffffffffffffff021916908373ffffffffffffffffffffffffffffffffffffffff160217905550600360009054906101000a900473ffffffffffffffffffffffffffffffffffffffff1673ffffffffffffffffffffffffffffffffffffffff16635d0a8dc26040518163ffffffff1660e01b8152600401602060405180830381865afa15801562000147573d6000803e3d6000fd5b505050506040513d601f19601f820116820180604052508101906200016d9190620002ce565b600460006101000a81548173ffffffffffffffffffffffffffffffffffffffff021916908373ffffffffffffffffffffffffffffffffffffffff1602179055505050505062000300565b600080fd5b6000819050919050565b620001d181620001bc565b8114620001dd57600080fd5b50565b600081519050620001f181620001c6565b92915050565b600073ffffffffffffffffffffffffffffffffffffffff82169050919050565b60006200022482620001f7565b9050919050565b620002368162000217565b81146200024257600080fd5b50565b60008151905062000256816200022b565b92915050565b60008060008060808587031215620002795762000278620001b7565b5b60006200028987828801620001e0565b94505060206200029c87828801620001e0565b9350506040620002af8782880162000245565b9250506060620002c28782880162000245565b91505092959194509250565b600060208284031215620002e757620002e6620001b7565b5b6000620002f78482850162000245565b91505092915050565b60805160a05160c051611c0b6200036160003960008181610368015281816107110152818161081b0152818161083f01526109350152600061048b0152600081816103d9015281816108a3015281816109110152610af10152611c0b6000f3fe6080604052600436106100c25760003560e01c806398366e351161007f578063baa8d18911610059578063baa8d18914610249578063d0383d6814610272578063f207564e1461029d578063f220b9ec146102b9576100c2565b806398366e35146101ca578063a19aaee8146101f5578063a9d85eba14610220576100c2565b80630ad58d2f146100c7578063331b6ab3146100f05780635d0a8dc21461011b5780635daf08ca1461014657806361579a931461018357806369e4863f146101ae575b600080fd5b3480156100d357600080fd5b506100ee60048036038101906100e99190610d97565b6102e4565b005b3480156100fc57600080fd5b506101056102f4565b6040516101129190610e49565b60405180910390f35b34801561012757600080fd5b5061013061031a565b60405161013d9190610e85565b60405180910390f35b34801561015257600080fd5b5061016d60048036038101906101689190610ea0565b610340565b60405161017a9190610edc565b60405180910390f35b34801561018f57600080fd5b50610198610358565b6040516101a59190610edc565b60405180910390f35b6101c860048036038101906101c39190610f5c565b61035e565b005b3480156101d657600080fd5b506101df610489565b6040516101ec9190610edc565b60405180910390f35b34801561020157600080fd5b5061020a6104ad565b6040516102179190610fca565b60405180910390f35b34801561022c57600080fd5b506102476004803603810190610242919061103b565b6104d3565b005b34801561025557600080fd5b50610270600480360381019061026b9190611147565b610634565b005b34801561027e57600080fd5b50610287610819565b6040516102949190610edc565b60405180910390f35b6102b760048036038101906102b29190610ea0565b61083d565b005b3480156102c557600080fd5b506102ce61090f565b6040516102db9190610edc565b60405180910390f35b6102ef838383610933565b505050565b600260009054906101000a900473ffffffffffffffffffffffffffffffffffffffff1681565b600460009054906101000a900473ffffffffffffffffffffffffffffffffffffffff1681565b60016020528060005260406000206000915090505481565b60005481565b60008282905090507f0000000000000000000000000000000000000000000000000000000000000000816000546103959190611205565b11156103d6576040517f08c379a00000000000000000000000000000000000000000000000000000000081526004016103cd906112b8565b60405180910390fd5b807f000000000000000000000000000000000000000000000000000000000000000061040291906112d8565b3414610443576040517f08c379a000000000000000000000000000000000000000000000000000000000815260040161043a906113a4565b60405180910390fd5b60005b8181101561048357610470848483818110610464576104636113c4565b5b90506020020135610be4565b808061047b906113f3565b915050610446565b50505050565b7f000000000000000000000000000000000000000000000000000000000000000081565b600360009054906101000a900473ffffffffffffffffffffffffffffffffffffffff1681565b60008686905090506000810361051e576040517f08c379a0000000000000000000000000000000000000000000000000000000008152600401610515906114ad565b60405180910390fd5b848490508114610563576040517f08c379a000000000000000000000000000000000000000000000000000000000815260040161055a9061153f565b60405180910390fd5b8282905081146105a8576040517f08c379a000000000000000000000000000000000000000000000000000000000815260040161059f906115d1565b60405180910390fd5b60005b8181101561062a576106178888838181106105c9576105c86113c4565b5b905060200201358787848181106105e3576105e26113c4565b5b905060200201358686858181106105fd576105fc6113c4565b5b905060200201602081019061061291906115f1565b610933565b8080610622906113f3565b9150506105ab565b5050505050505050565b600360009054906101000a900473ffffffffffffffffffffffffffffffffffffffff1673ffffffffffffffffffffffffffffffffffffffff1663b655ee34876040518263ffffffff1660e01b815260040161068f9190610edc565b602060405180830381865afa1580156106ac573d6000803e3d6000fd5b505050506040513d601f19601f820116820180604052508101906106d09190611656565b61070f576040517f08c379a0000000000000000000000000000000000000000000000000000000008152600401610706906116f5565b60405180910390fd5b7f000000000000000000000000000000000000000000000000000000000000000060005410610773576040517f08c379a000000000000000000000000000000000000000000000000000000000815260040161076a90611761565b60405180910390fd5b600460009054906101000a900473ffffffffffffffffffffffffffffffffffffffff1673ffffffffffffffffffffffffffffffffffffffff16636673e84987878787876040518663ffffffff1660e01b81526004016107d69594939291906117b0565b600060405180830381600087803b1580156107f057600080fd5b505af1158015610804573d6000803e3d6000fd5b5050505061081181610be4565b505050505050565b7f000000000000000000000000000000000000000000000000000000000000000081565b7f0000000000000000000000000000000000000000000000000000000000000000600054106108a1576040517f08c379a000000000000000000000000000000000000000000000000000000000815260040161089890611761565b60405180910390fd5b7f00000000000000000000000000000000000000000000000000000000000000003414610903576040517f08c379a00000000000000000000000000000000000000000000000000000000081526004016108fa90611876565b60405180910390fd5b61090c81610be4565b50565b7f000000000000000000000000000000000000000000000000000000000000000081565b7f00000000000000000000000000000000000000000000000000000000000000008210610995576040517f08c379a000000000000000000000000000000000000000000000000000000000815260040161098c90611908565b60405180910390fd5b60006001600084815260200190815260200160002054036109eb576040517f08c379a00000000000000000000000000000000000000000000000000000000081526004016109e29061199a565b60405180910390fd5b600073ffffffffffffffffffffffffffffffffffffffff168173ffffffffffffffffffffffffffffffffffffffff1603610a5a576040517f08c379a0000000000000000000000000000000000000000000000000000000008152600401610a5190611a2c565b60405180910390fd5b6000610a6584610c54565b905080600160008581526020019081526020016000205414610abc576040517f08c379a0000000000000000000000000000000000000000000000000000000008152600401610ab390611a98565b60405180910390fd5b600060016000858152602001908152602001600020819055506000808373ffffffffffffffffffffffffffffffffffffffff167f0000000000000000000000000000000000000000000000000000000000000000604051610b1c90611ae9565b60006040518083038185875af1925050503d8060008114610b59576040519150601f19603f3d011682016040523d82523d6000602084013e610b5e565b606091505b509150915081610ba3576040517f08c379a0000000000000000000000000000000000000000000000000000000008152600401610b9a90611b4a565b60405180910390fd5b7f62ec3a516d22a993ce5cb4e7593e878c74f4d799dde522a88dc27a994fd5a9438386604051610bd4929190611b6a565b60405180910390a1505050505050565b806001600080548152602001908152602001600020819055507f5a92c2530f207992057b9c3e544108ffce3beda4a63719f316967c49bf6159d281600054604051610c30929190611b6a565b60405180910390a16001600080828254610c4a9190611205565b9250508190555050565b6000600260009054906101000a900473ffffffffffffffffffffffffffffffffffffffff1673ffffffffffffffffffffffffffffffffffffffff1663b189fd4c836040518263ffffffff1660e01b8152600401610cb19190610edc565b602060405180830381865afa158015610cce573d6000803e3d6000fd5b505050506040513d601f19601f82011682018060405250810190610cf29190611ba8565b9050919050565b600080fd5b600080fd5b6000819050919050565b610d1681610d03565b8114610d2157600080fd5b50565b600081359050610d3381610d0d565b92915050565b600073ffffffffffffffffffffffffffffffffffffffff82169050919050565b6000610d6482610d39565b9050919050565b610d7481610d59565b8114610d7f57600080fd5b50565b600081359050610d9181610d6b565b92915050565b600080600060608486031215610db057610daf610cf9565b5b6000610dbe86828701610d24565b9350506020610dcf86828701610d24565b9250506040610de086828701610d82565b9150509250925092565b6000819050919050565b6000610e0f610e0a610e0584610d39565b610dea565b610d39565b9050919050565b6000610e2182610df4565b9050919050565b6000610e3382610e16565b9050919050565b610e4381610e28565b82525050565b6000602082019050610e5e6000830184610e3a565b92915050565b6000610e6f82610e16565b9050919050565b610e7f81610e64565b82525050565b6000602082019050610e9a6000830184610e76565b92915050565b600060208284031215610eb657610eb5610cf9565b5b6000610ec484828501610d24565b91505092915050565b610ed681610d03565b82525050565b6000602082019050610ef16000830184610ecd565b92915050565b600080fd5b600080fd5b600080fd5b60008083601f840112610f1c57610f1b610ef7565b5b8235905067ffffffffffffffff811115610f3957610f38610efc565b5b602083019150836020820283011115610f5557610f54610f01565b5b9250929050565b60008060208385031215610f7357610f72610cf9565b5b600083013567ffffffffffffffff811115610f9157610f90610cfe565b5b610f9d85828601610f06565b92509250509250929050565b6000610fb482610e16565b9050919050565b610fc481610fa9565b82525050565b6000602082019050610fdf6000830184610fbb565b92915050565b60008083601f840112610ffb57610ffa610ef7565b5b8235905067ffffffffffffffff81111561101857611017610efc565b5b60208301915083602082028301111561103457611033610f01565b5b9250929050565b6000806000806000806060878903121561105857611057610cf9565b5b600087013567ffffffffffffffff81111561107657611075610cfe565b5b61108289828a01610f06565b9650965050602087013567ffffffffffffffff8111156110a5576110a4610cfe565b5b6110b189828a01610f06565b9450945050604087013567ffffffffffffffff8111156110d4576110d3610cfe565b5b6110e089828a01610fe5565b92509250509295509295509295565b6000819050919050565b611102816110ef565b811461110d57600080fd5b50565b60008135905061111f816110f9565b92915050565b60008190508260206008028201111561114157611140610f01565b5b92915050565b6000806000806000806101a0878903121561116557611164610cf9565b5b600061117389828a01610d24565b965050602061118489828a01611110565b955050604061119589828a01610d24565b94505060606111a689828a01610d24565b93505060806111b789828a01611125565b9250506101806111c989828a01610d24565b9150509295509295509295565b7f4e487b7100000000000000000000000000000000000000000000000000000000600052601160045260246000fd5b600061121082610d03565b915061121b83610d03565b9250827fffffffffffffffffffffffffffffffffffffffffffffffffffffffffffffffff038211156112505761124f6111d6565b5b828201905092915050565b600082825260208201905092915050565b7f524c4e2c20726567697374657242617463683a207365742069732066756c6c00600082015250565b60006112a2601f8361125b565b91506112ad8261126c565b602082019050919050565b600060208201905081810360008301526112d181611295565b9050919050565b60006112e382610d03565b91506112ee83610d03565b9250817fffffffffffffffffffffffffffffffffffffffffffffffffffffffffffffffff0483118215151615611327576113266111d6565b5b828202905092915050565b7f524c4e2c20726567697374657242617463683a206d656d62657273686970206460008201527f65706f736974206973206e6f7420736174697366696564000000000000000000602082015250565b600061138e60378361125b565b915061139982611332565b604082019050919050565b600060208201905081810360008301526113bd81611381565b9050919050565b7f4e487b7100000000000000000000000000000000000000000000000000000000600052603260045260246000fd5b60006113fe82610d03565b91507fffffffffffffffffffffffffffffffffffffffffffffffffffffffffffffffff82036114305761142f6111d6565b5b600182019050919050565b7f524c4e2c20776974686472617742617463683a2062617463682073697a65207a60008201527f65726f0000000000000000000000000000000000000000000000000000000000602082015250565b600061149760238361125b565b91506114a28261143b565b604082019050919050565b600060208201905081810360008301526114c68161148a565b9050919050565b7f524c4e2c20776974686472617742617463683a2062617463682073697a65206d60008201527f69736d61746368207075626b657920696e646578657300000000000000000000602082015250565b600061152960368361125b565b9150611534826114cd565b604082019050919050565b600060208201905081810360008301526115588161151c565b9050919050565b7f524c4e2c20776974686472617742617463683a2062617463682073697a65206d60008201527f69736d6174636820726563656976657273000000000000000000000000000000602082015250565b60006115bb60318361125b565b91506115c68261155f565b604082019050919050565b600060208201905081810360008301526115ea816115ae565b9050919050565b60006020828403121561160757611606610cf9565b5b600061161584828501610d82565b91505092915050565b60008115159050919050565b6116338161161e565b811461163e57600080fd5b50565b6000815190506116508161162a565b92915050565b60006020828403121561166c5761166b610cf9565b5b600061167a84828501611641565b91505092915050565b7f524c4e2c2072656769737465723a20696e76616c696420696e7465726570206760008201527f726f757000000000000000000000000000000000000000000000000000000000602082015250565b60006116df60248361125b565b91506116ea82611683565b604082019050919050565b6000602082019050818103600083015261170e816116d2565b9050919050565b7f524c4e2c2072656769737465723a207365742069732066756c6c000000000000600082015250565b600061174b601a8361125b565b915061175682611715565b602082019050919050565b6000602082019050818103600083015261177a8161173e565b9050919050565b61178a816110ef565b82525050565b82818337600083830152505050565b6117ac6101008383611790565b5050565b6000610180820190506117c66000830188610ecd565b6117d36020830187611781565b6117e06040830186610ecd565b6117ed6060830185610ecd565b6117fa608083018461179f565b9695505050505050565b7f524c4e2c2072656769737465723a206d656d62657273686970206465706f736960008201527f74206973206e6f74207361746973666965640000000000000000000000000000602082015250565b600061186060328361125b565b915061186b82611804565b604082019050919050565b6000602082019050818103600083015261188f81611853565b9050919050565b7f524c4e2c205f77697468647261773a20696e76616c6964207075626b6579206960008201527f6e64657800000000000000000000000000000000000000000000000000000000602082015250565b60006118f260248361125b565b91506118fd82611896565b604082019050919050565b60006020820190508181036000830152611921816118e5565b9050919050565b7f524c4e2c205f77697468647261773a206d656d62657220646f65736e2774206560008201527f7869737400000000000000000000000000000000000000000000000000000000602082015250565b600061198460248361125b565b915061198f82611928565b604082019050919050565b600060208201905081810360008301526119b381611977565b9050919050565b7f524c4e2c205f77697468647261773a20656d707479207265636569766572206160008201527f6464726573730000000000000000000000000000000000000000000000000000602082015250565b6000611a1660268361125b565b9150611a21826119ba565b604082019050919050565b60006020820190508181036000830152611a4581611a09565b9050919050565b7f524c4e2c205f77697468647261773a206e6f7420766572696669656400000000600082015250565b6000611a82601c8361125b565b9150611a8d82611a4c565b602082019050919050565b60006020820190508181036000830152611ab181611a75565b9050919050565b600081905092915050565b50565b6000611ad3600083611ab8565b9150611ade82611ac3565b600082019050919050565b6000611af482611ac6565b9150819050919050565b7f7472616e73666572206661696c65640000000000000000000000000000000000600082015250565b6000611b34600f8361125b565b9150611b3f82611afe565b602082019050919050565b60006020820190508181036000830152611b6381611b27565b9050919050565b6000604082019050611b7f6000830185610ecd565b611b8c6020830184610ecd565b9392505050565b600081519050611ba281610d0d565b92915050565b600060208284031215611bbe57611bbd610cf9565b5b6000611bcc84828501611b93565b9150509291505056fea2646970667358221220467b74ba781ee3a9ee18af2d7118be94004b30b136ae96cb759ff60c2553d88c64736f6c634300080f0033",
  "devdoc": {
    "kind": "dev",
    "methods": {
      "register(uint256,bytes32,uint256,uint256,uint256[8],uint256)": {
        "details": "Registers a member via a valid Interep Semaphore group.",
        "params": {
          "externalNullifier": ": External nullifier.",
          "groupId": ": Id of the group.",
          "nullifierHash": ": Nullifier hash.",
          "proof": ": Zero-knowledge proof.",
          "pubkey": ": Public key of the member.",
          "signal": ": Semaphore signal."
        }
      }
    },
    "version": 1
  },
  "userdoc": {
    "kind": "user",
    "methods": {},
    "version": 1
  },
  "storageLayout": {
    "storage": [
      {
        "astId": 1107,
        "contract": "contracts/Rln.sol:RLN",
        "label": "pubkeyIndex",
        "offset": 0,
        "slot": "0",
        "type": "t_uint256"
      },
      {
        "astId": 1111,
        "contract": "contracts/Rln.sol:RLN",
        "label": "members",
        "offset": 0,
        "slot": "1",
        "type": "t_mapping(t_uint256,t_uint256)"
      },
      {
        "astId": 1114,
        "contract": "contracts/Rln.sol:RLN",
        "label": "poseidonHasher",
        "offset": 0,
        "slot": "2",
        "type": "t_contract(IPoseidonHasher)648"
      },
      {
        "astId": 1117,
        "contract": "contracts/Rln.sol:RLN",
        "label": "validGroupStorage",
        "offset": 0,
        "slot": "3",
        "type": "t_contract(IValidGroupStorage)1510"
      },
      {
        "astId": 1120,
        "contract": "contracts/Rln.sol:RLN",
        "label": "interep",
        "offset": 0,
        "slot": "4",
        "type": "t_contract(IInterep)236"
      }
    ],
    "types": {
      "t_contract(IInterep)236": {
        "encoding": "inplace",
        "label": "contract IInterep",
        "numberOfBytes": "20"
      },
      "t_contract(IPoseidonHasher)648": {
        "encoding": "inplace",
        "label": "contract IPoseidonHasher",
        "numberOfBytes": "20"
      },
      "t_contract(IValidGroupStorage)1510": {
        "encoding": "inplace",
        "label": "contract IValidGroupStorage",
        "numberOfBytes": "20"
      },
      "t_mapping(t_uint256,t_uint256)": {
        "encoding": "mapping",
        "key": "t_uint256",
        "label": "mapping(uint256 => uint256)",
        "numberOfBytes": "32",
        "value": "t_uint256"
      },
      "t_uint256": {
        "encoding": "inplace",
        "label": "uint256",
        "numberOfBytes": "32"
      }
    }
  }
}