{
  "address": "0x42c72a240C77CB15051daC2859f3203282c1eE2C",
  "abi": [
    {
      "inputs": [
        {
          "internalType": "address",
          "name": "_interep",
          "type": "address"
        },
        {
          "components": [
            {
              "internalType": "bytes32",
              "name": "provider",
              "type": "bytes32"
            },
            {
              "internalType": "bytes32",
              "name": "name",
              "type": "bytes32"
            }
          ],
          "internalType": "struct ValidGroupStorage.Group[]",
          "name": "_groups",
          "type": "tuple[]"
        }
      ],
      "stateMutability": "nonpayable",
      "type": "constructor"
    },
    {
      "inputs": [],
      "name": "interep",
      "outputs": [
        {
          "internalType": "contract Interep",
          "name": "",
          "type": "address"
        }
      ],
      "stateMutability": "view",
      "type": "function"
    },
    {
      "inputs": [
        {
          "internalType": "uint256",
          "name": "_groupId",
          "type": "uint256"
        }
      ],
      "name": "isValidGroup",
      "outputs": [
        {
          "internalType": "bool",
          "name": "",
          "type": "bool"
        }
      ],
      "stateMutability": "view",
      "type": "function"
    },
    {
      "inputs": [
        {
          "internalType": "uint256",
          "name": "",
          "type": "uint256"
        }
      ],
      "name": "validGroups",
      "outputs": [
        {
          "internalType": "bool",
          "name": "",
          "type": "bool"
        }
      ],
      "stateMutability": "view",
      "type": "function"
    }
  ],
  "transactionHash": "0xe62d93881ba4a1845430533fe64689adf6170a3f06c2dc34556853cf42fb1c90",
  "args": [
    "0x165D143C138923a6dc8Ee0dDf5D2DfBE1Cf3B09D",
    [
      {
        "provider": "0x6769746875620000000000000000000000000000000000000000000000000000",
        "name": "0x676f6c6400000000000000000000000000000000000000000000000000000000",
        "root": 1,
        "depth": 20
      },
      {
        "provider": "0x6769746875620000000000000000000000000000000000000000000000000000",
        "name": "0x62726f6e7a650000000000000000000000000000000000000000000000000000",
        "root": 1,
        "depth": 20
      },
      {
        "provider": "0x6769746875620000000000000000000000000000000000000000000000000000",
        "name": "0x756e726174656400000000000000000000000000000000000000000000000000",
        "root": 1,
        "depth": 20
      },
      {
        "provider": "0x7265646469740000000000000000000000000000000000000000000000000000",
        "name": "0x756e726174656400000000000000000000000000000000000000000000000000",
        "root": 1,
        "depth": 20
      }
    ]
  ],
  "numDeployments": 1,
  "solcInputHash": "b8e33ba299e95051cdf4858cd81bbca9",
  "bytecode": "0x60806040523480156200001157600080fd5b5060405162000b6e38038062000b6e83398181016040528101906200003791906200054d565b81600160006101000a81548173ffffffffffffffffffffffffffffffffffffffff021916908373ffffffffffffffffffffffffffffffffffffffff16021790555060005b81518160ff161015620002bd5760007f30644e72e131a029b85045b68181585d2833e84879b9709143e1f593f0000001838360ff1681518110620000c457620000c3620005b3565b5b602002602001015160000151848460ff1681518110620000e957620000e8620005b3565b5b6020026020010151602001516040516020016200010892919062000607565b6040516020818303038152906040528051906020012060001c6200012d919062000670565b9050600080600160009054906101000a900473ffffffffffffffffffffffffffffffffffffffff1673ffffffffffffffffffffffffffffffffffffffff166396324bd4846040518263ffffffff1660e01b81526004016200018f9190620006b9565b608060405180830381865afa158015620001ad573d6000803e3d6000fd5b505050506040513d601f19601f82011682018060405250810190620001d3919062000745565b505091509150848460ff1681518110620001f257620001f1620005b3565b5b60200260200101516000015182148015620002305750848460ff1681518110620002215762000220620005b3565b5b60200260200101516020015181145b156200026757600160008085815260200190815260200160002060006101000a81548160ff021916908315150217905550620002a4565b6040517f08c379a00000000000000000000000000000000000000000000000000000000081526004016200029b906200083e565b60405180910390fd5b5050508080620002b4906200088f565b9150506200007b565b505050620008bd565b6000604051905090565b600080fd5b600080fd5b600073ffffffffffffffffffffffffffffffffffffffff82169050919050565b60006200030782620002da565b9050919050565b6200031981620002fa565b81146200032557600080fd5b50565b60008151905062000339816200030e565b92915050565b600080fd5b6000601f19601f8301169050919050565b7f4e487b7100000000000000000000000000000000000000000000000000000000600052604160045260246000fd5b6200038f8262000344565b810181811067ffffffffffffffff82111715620003b157620003b062000355565b5b80604052505050565b6000620003c6620002c6565b9050620003d4828262000384565b919050565b600067ffffffffffffffff821115620003f757620003f662000355565b5b602082029050602081019050919050565b600080fd5b600080fd5b6000819050919050565b620004278162000412565b81146200043357600080fd5b50565b60008151905062000447816200041c565b92915050565b6000604082840312156200046657620004656200040d565b5b620004726040620003ba565b90506000620004848482850162000436565b60008301525060206200049a8482850162000436565b60208301525092915050565b6000620004bd620004b784620003d9565b620003ba565b90508083825260208201905060408402830185811115620004e357620004e262000408565b5b835b81811015620005105780620004fb88826200044d565b845260208401935050604081019050620004e5565b5050509392505050565b600082601f8301126200053257620005316200033f565b5b815162000544848260208601620004a6565b91505092915050565b60008060408385031215620005675762000566620002d0565b5b6000620005778582860162000328565b925050602083015167ffffffffffffffff8111156200059b576200059a620002d5565b5b620005a9858286016200051a565b9150509250929050565b7f4e487b7100000000000000000000000000000000000000000000000000000000600052603260045260246000fd5b6000819050919050565b62000601620005fb8262000412565b620005e2565b82525050565b6000620006158285620005ec565b602082019150620006278284620005ec565b6020820191508190509392505050565b6000819050919050565b7f4e487b7100000000000000000000000000000000000000000000000000000000600052601260045260246000fd5b60006200067d8262000637565b91506200068a8362000637565b9250826200069d576200069c62000641565b5b828206905092915050565b620006b38162000637565b82525050565b6000602082019050620006d06000830184620006a8565b92915050565b620006e18162000637565b8114620006ed57600080fd5b50565b6000815190506200070181620006d6565b92915050565b600060ff82169050919050565b6200071f8162000707565b81146200072b57600080fd5b50565b6000815190506200073f8162000714565b92915050565b60008060008060808587031215620007625762000761620002d0565b5b6000620007728782880162000436565b9450506020620007858782880162000436565b93505060406200079887828801620006f0565b9250506060620007ab878288016200072e565b91505092959194509250565b600082825260208201905092915050565b7f5b56616c696447726f757053746f726167655d20496e76616c69642067726f7560008201527f7000000000000000000000000000000000000000000000000000000000000000602082015250565b600062000826602183620007b7565b91506200083382620007c8565b604082019050919050565b60006020820190508181036000830152620008598162000817565b9050919050565b7f4e487b7100000000000000000000000000000000000000000000000000000000600052601160045260246000fd5b60006200089c8262000707565b915060ff8203620008b257620008b162000860565b5b600182019050919050565b6102a180620008cd6000396000f3fe608060405234801561001057600080fd5b50600436106100415760003560e01c80635d0a8dc214610046578063b655ee3414610064578063c166109a14610094575b600080fd5b61004e6100c4565b60405161005b91906101b2565b60405180910390f35b61007e60048036038101906100799190610208565b6100ea565b60405161008b9190610250565b60405180910390f35b6100ae60048036038101906100a99190610208565b610113565b6040516100bb9190610250565b60405180910390f35b600160009054906101000a900473ffffffffffffffffffffffffffffffffffffffff1681565b600080600083815260200190815260200160002060009054906101000a900460ff169050919050565b60006020528060005260406000206000915054906101000a900460ff1681565b600073ffffffffffffffffffffffffffffffffffffffff82169050919050565b6000819050919050565b600061017861017361016e84610133565b610153565b610133565b9050919050565b600061018a8261015d565b9050919050565b600061019c8261017f565b9050919050565b6101ac81610191565b82525050565b60006020820190506101c760008301846101a3565b92915050565b600080fd5b6000819050919050565b6101e5816101d2565b81146101f057600080fd5b50565b600081359050610202816101dc565b92915050565b60006020828403121561021e5761021d6101cd565b5b600061022c848285016101f3565b91505092915050565b60008115159050919050565b61024a81610235565b82525050565b60006020820190506102656000830184610241565b9291505056fea264697066735822122078e0998aea3f01f62577d57895d91f9c48a837a5dfc5deb31ac4c89159abc25464736f6c634300080f0033",
  "devdoc": {
    "kind": "dev",
    "methods": {},
    "version": 1
  },
  "userdoc": {
    "kind": "user",
    "methods": {},
    "version": 1
  },
  "storageLayout": {
    "storage": [
      {
        "astId": 2810,
        "contract": "contracts/ValidGroupStorage.sol:ValidGroupStorage",
        "label": "validGroups",
        "offset": 0,
        "slot": "0",
        "type": "t_mapping(t_uint256,t_bool)"
      },
      {
        "astId": 2813,
        "contract": "contracts/ValidGroupStorage.sol:ValidGroupStorage",
        "label": "interep",
        "offset": 0,
        "slot": "1",
        "type": "t_contract(Interep)498"
      }
    ],
    "types": {
      "t_bool": {
        "encoding": "inplace",
        "label": "bool",
        "numberOfBytes": "1"
      },
      "t_contract(Interep)498": {
        "encoding": "inplace",
        "label": "contract Interep",
        "numberOfBytes": "20"
      },
      "t_mapping(t_uint256,t_bool)": {
        "encoding": "mapping",
        "key": "t_uint256",
        "label": "mapping(uint256 => bool)",
        "numberOfBytes": "32",
        "value": "t_bool"
      },
      "t_uint256": {
        "encoding": "inplace",
        "label": "uint256",
        "numberOfBytes": "32"
      }
    }
  }
}