{
  "address": "0x6b81Eaf30b0C16A9842458A3131fBa78745907A8",
  "abi": [
    {
      "inputs": [],
      "name": "Q",
      "outputs": [
        {
          "internalType": "uint256",
          "name": "",
          "type": "uint256"
        }
      ],
      "stateMutability": "view",
      "type": "function"
    },
    {
      "inputs": [
        {
          "internalType": "uint256",
          "name": "input",
          "type": "uint256"
        }
      ],
      "name": "hash",
      "outputs": [
        {
          "internalType": "uint256",
          "name": "result",
          "type": "uint256"
        }
      ],
      "stateMutability": "pure",
      "type": "function"
    }
  ],
  "transactionHash": "0x9dfb397aa0c9540efd0d9d7d06ef920dec8e56ecf2bbdb40f124657b330e37f9",
  "args": [],
  "numDeployments": 1,
  "solcInputHash": "bf11e211dd7ba18a896878fe0745e254",
  "bytecode": "0x608060405234801561001057600080fd5b50613e58806100206000396000f3fe608060405234801561001057600080fd5b50600436106100365760003560e01c8063b189fd4c1461003b578063e493ef8c1461006b575b600080fd5b61005560048036038101906100509190613dcb565b610089565b6040516100629190613e07565b60405180910390f35b61007361009b565b6040516100809190613e07565b60405180910390f35b6000610094826100bf565b9050919050565b7f30644e72e131a029b85045b68181585d2833e84879b9709143e1f593f000000181565b60007f30644e72e131a029b85045b68181585d2833e84879b9709143e1f593f00000017f09c46e9ec68e9bd4fe1faaba294cba38a71aa177534cdd1b6c7dc0dbd0abd7a77f0c0356530896eec42a97ed937f3135cfc5142b3ae405b8343c1d83ffa604cb81840182828309838385838409099250838283099050838285838409099150837f2b9d4b4110c9ae997782e1509b1d0fdb20a7c02bbd8bea7305462b9f8125b1e88309847f066f6f85d6f68a85ec10345351a23a3aaf07f38af8c952a7bceca70bd2af7ad58509019050837f1274e649a32ed355a31a6ed69724e1adade857e86eb5c3a121bcd147943203c88309847f0cc57cdbb08507d62bf67a4493cc262fb6c09d557013fff1f573f431221f8ff985090191508092507f1e28a1d935698ad1142e51182bb54cf4a00ea5aabd6268bd317ea977cc154a30830192507f27af2d831a9d2748080965db30e298e40e5757c3e008db964cf9e2b12b91251f82019150838384099050838385838409099250838283099050838285838409099150837f2b9d4b4110c9ae997782e1509b1d0fdb20a7c02bbd8bea7305462b9f8125b1e88309847f066f6f85d6f68a85ec10345351a23a3aaf07f38af8c952a7bceca70bd2af7ad58509019050837f1274e649a32ed355a31a6ed69724e1adade857e86eb5c3a121bcd147943203c88309847f0cc57cdbb08507d62bf67a4493cc262fb6c09d557013fff1f573f431221f8ff985090191508092507f1e6f11ce60fc8f513a6a3cfe16ae175a41291462f214cd0879aaf43545b74e03830192507f2a67384d3bbd5e438541819cb681f0be04462ed14c3613d8f719206268d142d382019150838384099050838385838409099250838283099050838285838409099150837f2b9d4b4110c9ae997782e1509b1d0fdb20a7c02bbd8bea7305462b9f8125b1e88309847f066f6f85d6f68a85ec10345351a23a3aaf07f38af8c952a7bceca70bd2af7ad58509019050837f1274e649a32ed355a31a6ed69724e1adade857e86eb5c3a121bcd147943203c88309847f0cc57cdbb08507d62bf67a4493cc262fb6c09d557013fff1f573f431221f8ff985090191508092507f0b66fdf356093a611609f8e12fbfecf0b985e381f025188936408f5d5c9f45d0830192507f012ee3ec1e78d470830c61093c2ade370b26c83cc5cebeeddaa6852dbdb09e2182019150838384099050838385838409099250838283099050838285838409099150837f2b9d4b4110c9ae997782e1509b1d0fdb20a7c02bbd8bea7305462b9f8125b1e88309847f066f6f85d6f68a85ec10345351a23a3aaf07f38af8c952a7bceca70bd2af7ad58509019050837f1274e649a32ed355a31a6ed69724e1adade857e86eb5c3a121bcd147943203c88309847f0cc57cdbb08507d62bf67a4493cc262fb6c09d557013fff1f573f431221f8ff985090191508092507f0252ba5f6760bfbdfd88f67f8175e3fd6cd1c431b099b6bb2d108e7b445bb1b9830192507f179474cceca5ff676c6bec3cef54296354391a8935ff71d6ef5aeaad7ca932f182019150838384099050838385838409099250837f2b9d4b4110c9ae997782e1509b1d0fdb20a7c02bbd8bea7305462b9f8125b1e88309847f066f6f85d6f68a85ec10345351a23a3aaf07f38af8c952a7bceca70bd2af7ad58509019050837f1274e649a32ed355a31a6ed69724e1adade857e86eb5c3a121bcd147943203c88309847f0cc57cdbb08507d62bf67a4493cc262fb6c09d557013fff1f573f431221f8ff985090191508092507f2c24261379a51bfa9228ff4a503fd4ed9c1f974a264969b37e1a2589bbed2b91830192507f1cc1d7b62692e63eac2f288bd0695b43c2f63f5001fc0fc553e66c0551801b0582019150838384099050838385838409099250837f2b9d4b4110c9ae997782e1509b1d0fdb20a7c02bbd8bea7305462b9f8125b1e88309847f066f6f85d6f68a85ec10345351a23a3aaf07f38af8c952a7bceca70bd2af7ad58509019050837f1274e649a32ed355a31a6ed69724e1adade857e86eb5c3a121bcd147943203c88309847f0cc57cdbb08507d62bf67a4493cc262fb6c09d557013fff1f573f431221f8ff985090191508092507f255059301aada98bb2ed55f852979e9600784dbf17fbacd05d9eff5fd9c91b56830192507f28437be3ac1cb2e479e1f5c0eccd32b3aea24234970a8193b11c29ce7e59efd982019150838384099050838385838409099250837f2b9d4b4110c9ae997782e1509b1d0fdb20a7c02bbd8bea7305462b9f8125b1e88309847f066f6f85d6f68a85ec10345351a23a3aaf07f38af8c952a7bceca70bd2af7ad58509019050837f1274e649a32ed355a31a6ed69724e1adade857e86eb5c3a121bcd147943203c88309847f0cc57cdbb08507d62bf67a4493cc262fb6c09d557013fff1f573f431221f8ff985090191508092507f28216a442f2e1f711ca4fa6b53766eb118548da8fb4f78d4338762c37f5f2043830192507f2c1f47cd17fa5adf1f39f4e7056dd03feee1efce03094581131f2377323482c982019150838384099050838385838409099250837f2b9d4b4110c9ae997782e1509b1d0fdb20a7c02bbd8bea7305462b9f8125b1e88309847f066f6f85d6f68a85ec10345351a23a3aaf07f38af8c952a7bceca70bd2af7ad58509019050837f1274e649a32ed355a31a6ed69724e1adade857e86eb5c3a121bcd147943203c88309847f0cc57cdbb08507d62bf67a4493cc262fb6c09d557013fff1f573f431221f8ff985090191508092507f07abad02b7a5ebc48632bcc9356ceb7dd9dafca276638a63646b8566a621afc9830192507f0230264601ffdf29275b33ffaab51dfe9429f90880a69cd137da0c4d15f96c3c82019150838384099050838385838409099250837f2b9d4b4110c9ae997782e1509b1d0fdb20a7c02bbd8bea7305462b9f8125b1e88309847f066f6f85d6f68a85ec10345351a23a3aaf07f38af8c952a7bceca70bd2af7ad58509019050837f1274e649a32ed355a31a6ed69724e1adade857e86eb5c3a121bcd147943203c88309847f0cc57cdbb08507d62bf67a4493cc262fb6c09d557013fff1f573f431221f8ff985090191508092507f1bc973054e51d905a0f168656497ca40a864414557ee289e717e5d66899aa0a9830192507f2e1c22f964435008206c3157e86341edd249aff5c2d8421f2a6b22288f0a67fc82019150838384099050838385838409099250837f2b9d4b4110c9ae997782e1509b1d0fdb20a7c02bbd8bea7305462b9f8125b1e88309847f066f6f85d6f68a85ec10345351a23a3aaf07f38af8c952a7bceca70bd2af7ad58509019050837f1274e649a32ed355a31a6ed69724e1adade857e86eb5c3a121bcd147943203c88309847f0cc57cdbb08507d62bf67a4493cc262fb6c09d557013fff1f573f431221f8ff985090191508092507f1224f38df67c5378121c1d5f461bbc509e8ea1598e46c9f7a70452bc2bba86b8830192507f02e4e69d8ba59e519280b4bd9ed0068fd7bfe8cd9dfeda1969d2989186cde20e82019150838384099050838385838409099250837f2b9d4b4110c9ae997782e1509b1d0fdb20a7c02bbd8bea7305462b9f8125b1e88309847f066f6f85d6f68a85ec10345351a23a3aaf07f38af8c952a7bceca70bd2af7ad58509019050837f1274e649a32ed355a31a6ed69724e1adade857e86eb5c3a121bcd147943203c88309847f0cc57cdbb08507d62bf67a4493cc262fb6c09d557013fff1f573f431221f8ff985090191508092507f1f1eccc34aaba0137f5df81fc04ff3ee4f19ee364e653f076d47e9735d98018e830192507f1672ad3d709a353974266c3039a9a7311424448032cd1819eacb8a4d4284f58282019150838384099050838385838409099250837f2b9d4b4110c9ae997782e1509b1d0fdb20a7c02bbd8bea7305462b9f8125b1e88309847f066f6f85d6f68a85ec10345351a23a3aaf07f38af8c952a7bceca70bd2af7ad58509019050837f1274e649a32ed355a31a6ed69724e1adade857e86eb5c3a121bcd147943203c88309847f0cc57cdbb08507d62bf67a4493cc262fb6c09d557013fff1f573f431221f8ff985090191508092507f283e3fdc2c6e420c56f44af5192b4ae9cda6961f284d24991d2ed602df8c8fc7830192507f1c2a3d120c550ecfd0db0957170fa013683751f8fdff59d6614fbd69ff394bcc82019150838384099050838385838409099250837f2b9d4b4110c9ae997782e1509b1d0fdb20a7c02bbd8bea7305462b9f8125b1e88309847f066f6f85d6f68a85ec10345351a23a3aaf07f38af8c952a7bceca70bd2af7ad58509019050837f1274e649a32ed355a31a6ed69724e1adade857e86eb5c3a121bcd147943203c88309847f0cc57cdbb08507d62bf67a4493cc262fb6c09d557013fff1f573f431221f8ff985090191508092507f216f84877aac6172f7897a7323456efe143a9a43773ea6f296cb6b8177653fbd830192507f2c0d272becf2a75764ba7e8e3e28d12bceaa47ea61ca59a411a1f51552f9478882019150838384099050838385838409099250837f2b9d4b4110c9ae997782e1509b1d0fdb20a7c02bbd8bea7305462b9f8125b1e88309847f066f6f85d6f68a85ec10345351a23a3aaf07f38af8c952a7bceca70bd2af7ad58509019050837f1274e649a32ed355a31a6ed69724e1adade857e86eb5c3a121bcd147943203c88309847f0cc57cdbb08507d62bf67a4493cc262fb6c09d557013fff1f573f431221f8ff985090191508092507f16e34299865c0e28484ee7a74c454e9f170a5480abe0508fcb4a6c3d89546f43830192507f175ceba599e96f5b375a232a6fb9cc71772047765802290f48cd939755488fc582019150838384099050838385838409099250837f2b9d4b4110c9ae997782e1509b1d0fdb20a7c02bbd8bea7305462b9f8125b1e88309847f066f6f85d6f68a85ec10345351a23a3aaf07f38af8c952a7bceca70bd2af7ad58509019050837f1274e649a32ed355a31a6ed69724e1adade857e86eb5c3a121bcd147943203c88309847f0cc57cdbb08507d62bf67a4493cc262fb6c09d557013fff1f573f431221f8ff985090191508092507f0c7594440dc48c16fead9e1758b028066aa410bfbc354f54d8c5ffbb44a1ee32830192507f1a3c29bc39f21bb5c466db7d7eb6fd8f760e20013ccf912c92479882d919fd8d82019150838384099050838385838409099250837f2b9d4b4110c9ae997782e1509b1d0fdb20a7c02bbd8bea7305462b9f8125b1e88309847f066f6f85d6f68a85ec10345351a23a3aaf07f38af8c952a7bceca70bd2af7ad58509019050837f1274e649a32ed355a31a6ed69724e1adade857e86eb5c3a121bcd147943203c88309847f0cc57cdbb08507d62bf67a4493cc262fb6c09d557013fff1f573f431221f8ff985090191508092507f0ccfdd906f3426e5c0986ea049b253400855d349074f5a6695c8eeabcd22e68f830192507f14f6bc81d9f186f62bdb475ce6c9411866a7a8a3fd065b3ce0e699b67dd9e79682019150838384099050838385838409099250837f2b9d4b4110c9ae997782e1509b1d0fdb20a7c02bbd8bea7305462b9f8125b1e88309847f066f6f85d6f68a85ec10345351a23a3aaf07f38af8c952a7bceca70bd2af7ad58509019050837f1274e649a32ed355a31a6ed69724e1adade857e86eb5c3a121bcd147943203c88309847f0cc57cdbb08507d62bf67a4493cc262fb6c09d557013fff1f573f431221f8ff985090191508092507f0962b82789fb3d129702ca70b2f6c5aacc099810c9c495c888edeb7386b97052830192507f1a880af7074d18b3bf20c79de25127bc13284ab01ef02575afef0c8f6a31a86d82019150838384099050838385838409099250837f2b9d4b4110c9ae997782e1509b1d0fdb20a7c02bbd8bea7305462b9f8125b1e88309847f066f6f85d6f68a85ec10345351a23a3aaf07f38af8c952a7bceca70bd2af7ad58509019050837f1274e649a32ed355a31a6ed69724e1adade857e86eb5c3a121bcd147943203c88309847f0cc57cdbb08507d62bf67a4493cc262fb6c09d557013fff1f573f431221f8ff985090191508092507f10cba18419a6a332cd5e77f0211c154b20af2924fc20ff3f4c3012bb7ae9311b830192507f057e62a9a8f89b3ebdc76ba63a9eaca8fa27b7319cae3406756a2849f302f10d82019150838384099050838385838409099250837f2b9d4b4110c9ae997782e1509b1d0fdb20a7c02bbd8bea7305462b9f8125b1e88309847f066f6f85d6f68a85ec10345351a23a3aaf07f38af8c952a7bceca70bd2af7ad58509019050837f1274e649a32ed355a31a6ed69724e1adade857e86eb5c3a121bcd147943203c88309847f0cc57cdbb08507d62bf67a4493cc262fb6c09d557013fff1f573f431221f8ff985090191508092507f287c971de91dc0abd44adf5384b4988cb961303bbf65cff5afa0413b44280cee830192507f21df3388af1687bbb3bca9da0cca908f1e562bc46d4aba4e6f7f7960e306891d82019150838384099050838385838409099250837f2b9d4b4110c9ae997782e1509b1d0fdb20a7c02bbd8bea7305462b9f8125b1e88309847f066f6f85d6f68a85ec10345351a23a3aaf07f38af8c952a7bceca70bd2af7ad58509019050837f1274e649a32ed355a31a6ed69724e1adade857e86eb5c3a121bcd147943203c88309847f0cc57cdbb08507d62bf67a4493cc262fb6c09d557013fff1f573f431221f8ff985090191508092507f1be5c887d25bce703e25cc974d0934cd789df8f70b498fd83eff8b560e1682b3830192507f268da36f76e568fb68117175cea2cd0dd2cb5d42fda5acea48d59c2706a0d5c182019150838384099050838385838409099250837f2b9d4b4110c9ae997782e1509b1d0fdb20a7c02bbd8bea7305462b9f8125b1e88309847f066f6f85d6f68a85ec10345351a23a3aaf07f38af8c952a7bceca70bd2af7ad58509019050837f1274e649a32ed355a31a6ed69724e1adade857e86eb5c3a121bcd147943203c88309847f0cc57cdbb08507d62bf67a4493cc262fb6c09d557013fff1f573f431221f8ff985090191508092507f0e17ab091f6eae50c609beaf5510ececc5d8bb74135ebd05bd06460cc26a5ed6830192507f04d727e728ffa0a67aee535ab074a43091ef62d8cf83d270040f5caa1f62af4082019150838384099050838385838409099250837f2b9d4b4110c9ae997782e1509b1d0fdb20a7c02bbd8bea7305462b9f8125b1e88309847f066f6f85d6f68a85ec10345351a23a3aaf07f38af8c952a7bceca70bd2af7ad58509019050837f1274e649a32ed355a31a6ed69724e1adade857e86eb5c3a121bcd147943203c88309847f0cc57cdbb08507d62bf67a4493cc262fb6c09d557013fff1f573f431221f8ff985090191508092507f0ddbd7bf9c29341581b549762bc022ed33702ac10f1bfd862b15417d7e39ca6e830192507f2790eb3351621752768162e82989c6c234f5b0d1d3af9b588a29c49c8789654b82019150838384099050838385838409099250837f2b9d4b4110c9ae997782e1509b1d0fdb20a7c02bbd8bea7305462b9f8125b1e88309847f066f6f85d6f68a85ec10345351a23a3aaf07f38af8c952a7bceca70bd2af7ad58509019050837f1274e649a32ed355a31a6ed69724e1adade857e86eb5c3a121bcd147943203c88309847f0cc57cdbb08507d62bf67a4493cc262fb6c09d557013fff1f573f431221f8ff985090191508092507f1e457c601a63b73e4471950193d8a570395f3d9ab8b2fd0984b764206142f9e9830192507f21ae64301dca9625638d6ab2bbe7135ffa90ecd0c43ff91fc4c686fc46e091b082019150838384099050838385838409099250837f2b9d4b4110c9ae997782e1509b1d0fdb20a7c02bbd8bea7305462b9f8125b1e88309847f066f6f85d6f68a85ec10345351a23a3aaf07f38af8c952a7bceca70bd2af7ad58509019050837f1274e649a32ed355a31a6ed69724e1adade857e86eb5c3a121bcd147943203c88309847f0cc57cdbb08507d62bf67a4493cc262fb6c09d557013fff1f573f431221f8ff985090191508092507f0379f63c8ce3468d4da293166f494928854be9e3432e09555858534eed8d350b830192507e2d56420359d0266a744a080809e054ca0e4921a46686ac8c9f58a324c3504982019150838384099050838385838409099250837f2b9d4b4110c9ae997782e1509b1d0fdb20a7c02bbd8bea7305462b9f8125b1e88309847f066f6f85d6f68a85ec10345351a23a3aaf07f38af8c952a7bceca70bd2af7ad58509019050837f1274e649a32ed355a31a6ed69724e1adade857e86eb5c3a121bcd147943203c88309847f0cc57cdbb08507d62bf67a4493cc262fb6c09d557013fff1f573f431221f8ff985090191508092507f123158e5965b5d9b1d68b3cd32e10bbeda8d62459e21f4090fc2c5af963515a6830192507f0be29fc40847a941661d14bbf6cbe0420fbb2b6f52836d4e60c80eb49cad9ec182019150838384099050838385838409099250837f2b9d4b4110c9ae997782e1509b1d0fdb20a7c02bbd8bea7305462b9f8125b1e88309847f066f6f85d6f68a85ec10345351a23a3aaf07f38af8c952a7bceca70bd2af7ad58509019050837f1274e649a32ed355a31a6ed69724e1adade857e86eb5c3a121bcd147943203c88309847f0cc57cdbb08507d62bf67a4493cc262fb6c09d557013fff1f573f431221f8ff985090191508092507f1ac96991dec2bb0557716142015a453c36db9d859cad5f9a233802f24fdf4c1a830192507f1596443f763dbcc25f4964fc61d23b3e5e12c9fa97f18a9251ca3355bcb0627e82019150838384099050838385838409099250837f2b9d4b4110c9ae997782e1509b1d0fdb20a7c02bbd8bea7305462b9f8125b1e88309847f066f6f85d6f68a85ec10345351a23a3aaf07f38af8c952a7bceca70bd2af7ad58509019050837f1274e649a32ed355a31a6ed69724e1adade857e86eb5c3a121bcd147943203c88309847f0cc57cdbb08507d62bf67a4493cc262fb6c09d557013fff1f573f431221f8ff985090191508092507f12e0bcd3654bdfa76b2861d4ec3aeae0f1857d9f17e715aed6d049eae3ba3212830192507f0fc92b4f1bbea82b9ea73d4af9af2a50ceabac7f37154b1904e6c76c7cf964ba82019150838384099050838385838409099250837f2b9d4b4110c9ae997782e1509b1d0fdb20a7c02bbd8bea7305462b9f8125b1e88309847f066f6f85d6f68a85ec10345351a23a3aaf07f38af8c952a7bceca70bd2af7ad58509019050837f1274e649a32ed355a31a6ed69724e1adade857e86eb5c3a121bcd147943203c88309847f0cc57cdbb08507d62bf67a4493cc262fb6c09d557013fff1f573f431221f8ff985090191508092507f1f9c0b1610446442d6f2e592a8013f40b14f7c7722236f4f9c7e965233872762830192507f0ebd74244ae72675f8cde06157a782f4050d914da38b4c058d159f643dbbf4d382019150838384099050838385838409099250837f2b9d4b4110c9ae997782e1509b1d0fdb20a7c02bbd8bea7305462b9f8125b1e88309847f066f6f85d6f68a85ec10345351a23a3aaf07f38af8c952a7bceca70bd2af7ad58509019050837f1274e649a32ed355a31a6ed69724e1adade857e86eb5c3a121bcd147943203c88309847f0cc57cdbb08507d62bf67a4493cc262fb6c09d557013fff1f573f431221f8ff985090191508092507f2cb7f0ed39e16e9f69a9fafd4ab951c03b0671e97346ee397a839839dccfc6d1830192507f1a9d6e2ecff022cc5605443ee41bab20ce761d0514ce526690c72bca7352d9bf82019150838384099050838385838409099250837f2b9d4b4110c9ae997782e1509b1d0fdb20a7c02bbd8bea7305462b9f8125b1e88309847f066f6f85d6f68a85ec10345351a23a3aaf07f38af8c952a7bceca70bd2af7ad58509019050837f1274e649a32ed355a31a6ed69724e1adade857e86eb5c3a121bcd147943203c88309847f0cc57cdbb08507d62bf67a4493cc262fb6c09d557013fff1f573f431221f8ff985090191508092507f2a115439607f335a5ea83c3bc44a9331d0c13326a9a7ba3087da182d648ec72f830192507f23f9b6529b5d040d15b8fa7aee3e3410e738b56305cd44f29535c115c5a4c06082019150838384099050838385838409099250837f2b9d4b4110c9ae997782e1509b1d0fdb20a7c02bbd8bea7305462b9f8125b1e88309847f066f6f85d6f68a85ec10345351a23a3aaf07f38af8c952a7bceca70bd2af7ad58509019050837f1274e649a32ed355a31a6ed69724e1adade857e86eb5c3a121bcd147943203c88309847f0cc57cdbb08507d62bf67a4493cc262fb6c09d557013fff1f573f431221f8ff985090191508092507f05872c16db0f72a2249ac6ba484bb9c3a3ce97c16d58b68b260eb939f0e6e8a7830192507f1300bdee08bb7824ca20fb80118075f40219b6151d55b5c52b624a7cdeddf6a782019150838384099050838385838409099250837f2b9d4b4110c9ae997782e1509b1d0fdb20a7c02bbd8bea7305462b9f8125b1e88309847f066f6f85d6f68a85ec10345351a23a3aaf07f38af8c952a7bceca70bd2af7ad58509019050837f1274e649a32ed355a31a6ed69724e1adade857e86eb5c3a121bcd147943203c88309847f0cc57cdbb08507d62bf67a4493cc262fb6c09d557013fff1f573f431221f8ff985090191508092507f19b9b63d2f108e17e63817863a8f6c288d7ad29916d98cb1072e4e7b7d52b376830192507f015bee1357e3c015b5bda237668522f613d1c88726b5ec4224a20128481b4f7f82019150838384099050838385838409099250837f2b9d4b4110c9ae997782e1509b1d0fdb20a7c02bbd8bea7305462b9f8125b1e88309847f066f6f85d6f68a85ec10345351a23a3aaf07f38af8c952a7bceca70bd2af7ad58509019050837f1274e649a32ed355a31a6ed69724e1adade857e86eb5c3a121bcd147943203c88309847f0cc57cdbb08507d62bf67a4493cc262fb6c09d557013fff1f573f431221f8ff985090191508092507f2953736e94bb6b9f1b9707a4f1615e4efe1e1ce4bab218cbea92c785b128ffd1830192507f0b069353ba091618862f806180c0385f851b98d372b45f544ce7266ed6608dfc82019150838384099050838385838409099250837f2b9d4b4110c9ae997782e1509b1d0fdb20a7c02bbd8bea7305462b9f8125b1e88309847f066f6f85d6f68a85ec10345351a23a3aaf07f38af8c952a7bceca70bd2af7ad58509019050837f1274e649a32ed355a31a6ed69724e1adade857e86eb5c3a121bcd147943203c88309847f0cc57cdbb08507d62bf67a4493cc262fb6c09d557013fff1f573f431221f8ff985090191508092507f304f74d461ccc13115e4e0bcfb93817e55aeb7eb9306b64e4f588ac97d81f429830192507f15bbf146ce9bca09e8a33f5e77dfe4f5aad2a164a4617a4cb8ee5415cde913fc82019150838384099050838385838409099250837f2b9d4b4110c9ae997782e1509b1d0fdb20a7c02bbd8bea7305462b9f8125b1e88309847f066f6f85d6f68a85ec10345351a23a3aaf07f38af8c952a7bceca70bd2af7ad58509019050837f1274e649a32ed355a31a6ed69724e1adade857e86eb5c3a121bcd147943203c88309847f0cc57cdbb08507d62bf67a4493cc262fb6c09d557013fff1f573f431221f8ff985090191508092507f0ab4dfe0c2742cde44901031487964ed9b8f4b850405c10ca9ff23859572c8c6830192507f0e32db320a044e3197f45f7649a19675ef5eedfea546dea9251de39f9639779a82019150838384099050838385838409099250837f2b9d4b4110c9ae997782e1509b1d0fdb20a7c02bbd8bea7305462b9f8125b1e88309847f066f6f85d6f68a85ec10345351a23a3aaf07f38af8c952a7bceca70bd2af7ad58509019050837f1274e649a32ed355a31a6ed69724e1adade857e86eb5c3a121bcd147943203c88309847f0cc57cdbb08507d62bf67a4493cc262fb6c09d557013fff1f573f431221f8ff985090191508092507f0a1756aa1f378ca4b27635a78b6888e66797733a82774896a3078efa516da016830192507f044c4a33b10f693447fd17177f952ef895e61d328f85efa94254d6a2a25d93ef82019150838384099050838385838409099250837f2b9d4b4110c9ae997782e1509b1d0fdb20a7c02bbd8bea7305462b9f8125b1e88309847f066f6f85d6f68a85ec10345351a23a3aaf07f38af8c952a7bceca70bd2af7ad58509019050837f1274e649a32ed355a31a6ed69724e1adade857e86eb5c3a121bcd147943203c88309847f0cc57cdbb08507d62bf67a4493cc262fb6c09d557013fff1f573f431221f8ff985090191508092507f2ed3611b725b8a70be655b537f66f700fe0879d79a496891d37b07b5466c4b8b830192507f1f9ba4e8bab7ce42c8ecc3d722aa2e0eadfdeb9cfdd347b5d8339ea7120858aa82019150838384099050838385838409099250837f2b9d4b4110c9ae997782e1509b1d0fdb20a7c02bbd8bea7305462b9f8125b1e88309847f066f6f85d6f68a85ec10345351a23a3aaf07f38af8c952a7bceca70bd2af7ad58509019050837f1274e649a32ed355a31a6ed69724e1adade857e86eb5c3a121bcd147943203c88309847f0cc57cdbb08507d62bf67a4493cc262fb6c09d557013fff1f573f431221f8ff985090191508092507f1b233043052e8c288f7ee907a84e518aa38e82ac4502066db74056f865c5d3da830192507f2431e1cc164bb8d074031ab72bd55b4c902053bfc0f14db0ca2f97b02087595482019150838384099050838385838409099250837f2b9d4b4110c9ae997782e1509b1d0fdb20a7c02bbd8bea7305462b9f8125b1e88309847f066f6f85d6f68a85ec10345351a23a3aaf07f38af8c952a7bceca70bd2af7ad58509019050837f1274e649a32ed355a31a6ed69724e1adade857e86eb5c3a121bcd147943203c88309847f0cc57cdbb08507d62bf67a4493cc262fb6c09d557013fff1f573f431221f8ff985090191508092507f082f934c91f5aac330cd6953a0a7db45a13e322097583319a791f273965801fd830192507f2b9a0a223e7538b0a34be074315542a3c77245e2ae7cbe999ad6bb930c48997c82019150838384099050838385838409099250837f2b9d4b4110c9ae997782e1509b1d0fdb20a7c02bbd8bea7305462b9f8125b1e88309847f066f6f85d6f68a85ec10345351a23a3aaf07f38af8c952a7bceca70bd2af7ad58509019050837f1274e649a32ed355a31a6ed69724e1adade857e86eb5c3a121bcd147943203c88309847f0cc57cdbb08507d62bf67a4493cc262fb6c09d557013fff1f573f431221f8ff985090191508092507f0e1cd91edd2cfa2cceb85483b887a9be8164163e75a8a00eb0b589cc70214e7d830192507f2e1eac0f2bfdfd63c951f61477e3698999774f19854d00f588d324601cebe2f982019150838384099050838385838409099250837f2b9d4b4110c9ae997782e1509b1d0fdb20a7c02bbd8bea7305462b9f8125b1e88309847f066f6f85d6f68a85ec10345351a23a3aaf07f38af8c952a7bceca70bd2af7ad58509019050837f1274e649a32ed355a31a6ed69724e1adade857e86eb5c3a121bcd147943203c88309847f0cc57cdbb08507d62bf67a4493cc262fb6c09d557013fff1f573f431221f8ff985090191508092507f0cbfa95f37fb74060c76158e769d6d157345784d8efdb33c23d748115b500b83830192507f08f05b3be923ed44d65ad49d8a61e9a676d991e3a77513d9980c232dfa4a4f8482019150838384099050838385838409099250837f2b9d4b4110c9ae997782e1509b1d0fdb20a7c02bbd8bea7305462b9f8125b1e88309847f066f6f85d6f68a85ec10345351a23a3aaf07f38af8c952a7bceca70bd2af7ad58509019050837f1274e649a32ed355a31a6ed69724e1adade857e86eb5c3a121bcd147943203c88309847f0cc57cdbb08507d62bf67a4493cc262fb6c09d557013fff1f573f431221f8ff985090191508092507f22719e2a070bcd0852bf8e21984d0443e7284925dc0758a325a2dd510c047ef6830192507f041f596a9ee1cb2bc060f7fcc3a1ab4c7bdbf036119982c0f41f62b2f26830c082019150838384099050838385838409099250837f2b9d4b4110c9ae997782e1509b1d0fdb20a7c02bbd8bea7305462b9f8125b1e88309847f066f6f85d6f68a85ec10345351a23a3aaf07f38af8c952a7bceca70bd2af7ad58509019050837f1274e649a32ed355a31a6ed69724e1adade857e86eb5c3a121bcd147943203c88309847f0cc57cdbb08507d62bf67a4493cc262fb6c09d557013fff1f573f431221f8ff985090191508092507f233fd35de1be520a87628eb06f6b1d4c021be1c2d0dc464a19fcdd0986b10f89830192507f0524b46d1aa87a5e4325e0a423ebc810d31e078aa1b4707eefcb453c61c9c26782019150838384099050838385838409099250837f2b9d4b4110c9ae997782e1509b1d0fdb20a7c02bbd8bea7305462b9f8125b1e88309847f066f6f85d6f68a85ec10345351a23a3aaf07f38af8c952a7bceca70bd2af7ad58509019050837f1274e649a32ed355a31a6ed69724e1adade857e86eb5c3a121bcd147943203c88309847f0cc57cdbb08507d62bf67a4493cc262fb6c09d557013fff1f573f431221f8ff985090191508092507f2c34f424c81e5716ce47fcac894b85824227bb954b0f3199cc4486237c515211830192507f0b5f2a4b63387819207effc2b5541fb72dd2025b5457cc97f33010327de4915e82019150838384099050838385838409099250837f2b9d4b4110c9ae997782e1509b1d0fdb20a7c02bbd8bea7305462b9f8125b1e88309847f066f6f85d6f68a85ec10345351a23a3aaf07f38af8c952a7bceca70bd2af7ad58509019050837f1274e649a32ed355a31a6ed69724e1adade857e86eb5c3a121bcd147943203c88309847f0cc57cdbb08507d62bf67a4493cc262fb6c09d557013fff1f573f431221f8ff985090191508092507f22207856082ccc54c5b72fe439d2cfd6c17435d2f57af6ceaefac41fe05c659f830192507f24d57a8bf5da63fe4e24159b7f8950b5cdfb210194caf79f27854048ce2c817182019150838384099050838385838409099250837f2b9d4b4110c9ae997782e1509b1d0fdb20a7c02bbd8bea7305462b9f8125b1e88309847f066f6f85d6f68a85ec10345351a23a3aaf07f38af8c952a7bceca70bd2af7ad58509019050837f1274e649a32ed355a31a6ed69724e1adade857e86eb5c3a121bcd147943203c88309847f0cc57cdbb08507d62bf67a4493cc262fb6c09d557013fff1f573f431221f8ff985090191508092507f0afab181fdd5e0583b371d75bd693f98374ad7097bb01a8573919bb23b79396e830192507f2dba9b108f208772998a52efac7cbd5676c0057194c16c0bf16290d62b1128ee82019150838384099050838385838409099250837f2b9d4b4110c9ae997782e1509b1d0fdb20a7c02bbd8bea7305462b9f8125b1e88309847f066f6f85d6f68a85ec10345351a23a3aaf07f38af8c952a7bceca70bd2af7ad58509019050837f1274e649a32ed355a31a6ed69724e1adade857e86eb5c3a121bcd147943203c88309847f0cc57cdbb08507d62bf67a4493cc262fb6c09d557013fff1f573f431221f8ff985090191508092507f26349b66edb8b16f56f881c788f53f83cbb83de0bd592b255aff13e6bce420b3830192507f25af7ce0e5e10357685e95f92339753ad81a56d28ecc193b235288a3e6f137db82019150838384099050838385838409099250837f2b9d4b4110c9ae997782e1509b1d0fdb20a7c02bbd8bea7305462b9f8125b1e88309847f066f6f85d6f68a85ec10345351a23a3aaf07f38af8c952a7bceca70bd2af7ad58509019050837f1274e649a32ed355a31a6ed69724e1adade857e86eb5c3a121bcd147943203c88309847f0cc57cdbb08507d62bf67a4493cc262fb6c09d557013fff1f573f431221f8ff985090191508092507f25b4ce7bd2294390c094d6a55edd68b970eed7aae88b2bff1f7c0187fe35011f830192507f22c543f10f6c89ec387e53f1908a88e5de9cef28ebdf30b18cb9d54c1e02b63182019150838384099050838385838409099250837f2b9d4b4110c9ae997782e1509b1d0fdb20a7c02bbd8bea7305462b9f8125b1e88309847f066f6f85d6f68a85ec10345351a23a3aaf07f38af8c952a7bceca70bd2af7ad58509019050837f1274e649a32ed355a31a6ed69724e1adade857e86eb5c3a121bcd147943203c88309847f0cc57cdbb08507d62bf67a4493cc262fb6c09d557013fff1f573f431221f8ff985090191508092507f0236f93e7789c4724fc7908a9f191e1e425e906a919d7a34df668e74882f87a9830192507f29350b401166ca010e7d27e37d05da99652bdae114eb01659cb497af980c4b5282019150838384099050838385838409099250837f2b9d4b4110c9ae997782e1509b1d0fdb20a7c02bbd8bea7305462b9f8125b1e88309847f066f6f85d6f68a85ec10345351a23a3aaf07f38af8c952a7bceca70bd2af7ad58509019050837f1274e649a32ed355a31a6ed69724e1adade857e86eb5c3a121bcd147943203c88309847f0cc57cdbb08507d62bf67a4493cc262fb6c09d557013fff1f573f431221f8ff985090191508092507f0eed787d65820d3f6bd31bbab547f75a65edb75d844ebb89ee1260916652363f830192507f07cc1170f13b46f2036a753f520b3291fdcd0e99bd94297d1906f656f4de6fad82019150838384099050838385838409099250837f2b9d4b4110c9ae997782e1509b1d0fdb20a7c02bbd8bea7305462b9f8125b1e88309847f066f6f85d6f68a85ec10345351a23a3aaf07f38af8c952a7bceca70bd2af7ad58509019050837f1274e649a32ed355a31a6ed69724e1adade857e86eb5c3a121bcd147943203c88309847f0cc57cdbb08507d62bf67a4493cc262fb6c09d557013fff1f573f431221f8ff985090191508092507f22b939233b1d7205f49bcf613a3d30b1908786d7f9f5d10c2059435689e8acea830192507f01451762a0aab81c8aad1dc8bc33e870740f083a5aa85438add650ace60ae5a682019150838384099050838385838409099250837f2b9d4b4110c9ae997782e1509b1d0fdb20a7c02bbd8bea7305462b9f8125b1e88309847f066f6f85d6f68a85ec10345351a23a3aaf07f38af8c952a7bceca70bd2af7ad58509019050837f1274e649a32ed355a31a6ed69724e1adade857e86eb5c3a121bcd147943203c88309847f0cc57cdbb08507d62bf67a4493cc262fb6c09d557013fff1f573f431221f8ff985090191508092507f23506bb5d8727d4461fabf1025d46d1fe32eaa61dec7da57e704fec0892fce89830192507f2e484c44e838aea0bac06ae3f71bdd092a3709531e1efea97f8bd6890735552282019150838384099050838385838409099250837f2b9d4b4110c9ae997782e1509b1d0fdb20a7c02bbd8bea7305462b9f8125b1e88309847f066f6f85d6f68a85ec10345351a23a3aaf07f38af8c952a7bceca70bd2af7ad58509019050837f1274e649a32ed355a31a6ed69724e1adade857e86eb5c3a121bcd147943203c88309847f0cc57cdbb08507d62bf67a4493cc262fb6c09d557013fff1f573f431221f8ff985090191508092507f0f4bc7d07ebafd64379e78c50bd2e42baf4a594545cedc2545418da26835b54c830192507f1f4d3c8f6583e9e5fa76637862faaee851582388725df460e620996d50d8e74e82019150838384099050838385838409099250837f2b9d4b4110c9ae997782e1509b1d0fdb20a7c02bbd8bea7305462b9f8125b1e88309847f066f6f85d6f68a85ec10345351a23a3aaf07f38af8c952a7bceca70bd2af7ad58509019050837f1274e649a32ed355a31a6ed69724e1adade857e86eb5c3a121bcd147943203c88309847f0cc57cdbb08507d62bf67a4493cc262fb6c09d557013fff1f573f431221f8ff985090191508092507f093514e0c70711f82660d07be0e4a988fae02abc7b681d9153eb9bcb48fe7389830192507f1adab0c8e2b3bad346699a2b5f3bc03643ee83ece47228f24a58e0a347e153d882019150838384099050838385838409099250837f2b9d4b4110c9ae997782e1509b1d0fdb20a7c02bbd8bea7305462b9f8125b1e88309847f066f6f85d6f68a85ec10345351a23a3aaf07f38af8c952a7bceca70bd2af7ad58509019050837f1274e649a32ed355a31a6ed69724e1adade857e86eb5c3a121bcd147943203c88309847f0cc57cdbb08507d62bf67a4493cc262fb6c09d557013fff1f573f431221f8ff985090191508092507f1672b1726057d99dd14709ebb474641a378c1b94b8072bac1a22dbef9e80dad2830192507f1dfd53d4576af2e38f44f53fdcab468cc5d8e2fae0acc4ee30d47b239b479c1482019150838384099050838385838409099250837f2b9d4b4110c9ae997782e1509b1d0fdb20a7c02bbd8bea7305462b9f8125b1e88309847f066f6f85d6f68a85ec10345351a23a3aaf07f38af8c952a7bceca70bd2af7ad58509019050837f1274e649a32ed355a31a6ed69724e1adade857e86eb5c3a121bcd147943203c88309847f0cc57cdbb08507d62bf67a4493cc262fb6c09d557013fff1f573f431221f8ff985090191508092507f0c6888a10b75b0f3a70a36263a37e17fe6d77d640f6fc3debc7f207753205c60830192507f1addb933a65be77092b34a7e77d12fe8611a61e00ee6848b85091ecca9d1e50882019150838384099050838385838409099250837f2b9d4b4110c9ae997782e1509b1d0fdb20a7c02bbd8bea7305462b9f8125b1e88309847f066f6f85d6f68a85ec10345351a23a3aaf07f38af8c952a7bceca70bd2af7ad58509019050837f1274e649a32ed355a31a6ed69724e1adade857e86eb5c3a121bcd147943203c88309847f0cc57cdbb08507d62bf67a4493cc262fb6c09d557013fff1f573f431221f8ff985090191508092507ed7540dcd268a845c10ae18d1de933cf638ff5425f0afff7935628e299d1791830192507f140c0e42687e9ead01b2827a5664ca9c26fedde4acd99db1d316939d20b82c0e82019150838384099050838385838409099250837f2b9d4b4110c9ae997782e1509b1d0fdb20a7c02bbd8bea7305462b9f8125b1e88309847f066f6f85d6f68a85ec10345351a23a3aaf07f38af8c952a7bceca70bd2af7ad58509019050837f1274e649a32ed355a31a6ed69724e1adade857e86eb5c3a121bcd147943203c88309847f0cc57cdbb08507d62bf67a4493cc262fb6c09d557013fff1f573f431221f8ff985090191508092507f2f0c3a115d4317d191ba89b8d13d1806c20a0f9b24f8c5edc091e2ae56565984830192507f0c4ee778ff7c14553006ed220cf9c81008a0cff670b22b82d8c538a1dc958c6182019150838384099050838385838409099250837f2b9d4b4110c9ae997782e1509b1d0fdb20a7c02bbd8bea7305462b9f8125b1e88309847f066f6f85d6f68a85ec10345351a23a3aaf07f38af8c952a7bceca70bd2af7ad58509019050837f1274e649a32ed355a31a6ed69724e1adade857e86eb5c3a121bcd147943203c88309847f0cc57cdbb08507d62bf67a4493cc262fb6c09d557013fff1f573f431221f8ff985090191508092507f1704f2766d46f82c3693f00440ccc3609424ed26c0acc66227c3d7485de74c69830192507f2f2d19cc3ea5d78ea7a02c1b51d244abf0769c9f8544e40239b66fe9009c3cfa82019150838384099050838385838409099250837f2b9d4b4110c9ae997782e1509b1d0fdb20a7c02bbd8bea7305462b9f8125b1e88309847f066f6f85d6f68a85ec10345351a23a3aaf07f38af8c952a7bceca70bd2af7ad58509019050837f1274e649a32ed355a31a6ed69724e1adade857e86eb5c3a121bcd147943203c88309847f0cc57cdbb08507d62bf67a4493cc262fb6c09d557013fff1f573f431221f8ff985090191508092507f1ae03853b75fcaba5053f112e2a8e8dcdd7ee6cb9cfed9c7d6c766a806fc6629830192507f0971aabf795241df51d131d0fa61aa5f3556921b2d6f014e4e41a86ddaf056d582019150838384099050838385838409099250838283099050838285838409099150837f2b9d4b4110c9ae997782e1509b1d0fdb20a7c02bbd8bea7305462b9f8125b1e88309847f066f6f85d6f68a85ec10345351a23a3aaf07f38af8c952a7bceca70bd2af7ad58509019050837f1274e649a32ed355a31a6ed69724e1adade857e86eb5c3a121bcd147943203c88309847f0cc57cdbb08507d62bf67a4493cc262fb6c09d557013fff1f573f431221f8ff985090191508092507f1408c316e6014e1a91d4cf6b6e0de73eda624f8380df1c875f5c29f7bfe2f646830192507f1667f3fe2edbe850248abe42b543093b6c89f1f773ef285341691f39822ef5bd82019150838384099050838385838409099250838283099050838285838409099150837f2b9d4b4110c9ae997782e1509b1d0fdb20a7c02bbd8bea7305462b9f8125b1e88309847f066f6f85d6f68a85ec10345351a23a3aaf07f38af8c952a7bceca70bd2af7ad58509019050837f1274e649a32ed355a31a6ed69724e1adade857e86eb5c3a121bcd147943203c88309847f0cc57cdbb08507d62bf67a4493cc262fb6c09d557013fff1f573f431221f8ff985090191508092507f13bf7c5d0d2c4376a48b0a03557cdf915b81718409e5c133424c69576500fe37830192507f07620a6dfb0b6cec3016adf3d3533c24024b95347856b79719bc0ba743a62c2c82019150838384099050838385838409099250838283099050838285838409099150837f2b9d4b4110c9ae997782e1509b1d0fdb20a7c02bbd8bea7305462b9f8125b1e88309847f066f6f85d6f68a85ec10345351a23a3aaf07f38af8c952a7bceca70bd2af7ad58509019050837f1274e649a32ed355a31a6ed69724e1adade857e86eb5c3a121bcd147943203c88309847f0cc57cdbb08507d62bf67a4493cc262fb6c09d557013fff1f573f431221f8ff985090191508092507f1574c7ef0c43545f36a8ca08bdbdd8b075d2959e2f322b731675de3e1982b4d0830192507f269e4b5b7a2eb21afd567970a717ceec5bd4184571c254fdc06e03a7ff8378f08201915083838409905083838583840909925083828309905083828583840909915083847f2b9d4b4110c9ae997782e1509b1d0fdb20a7c02bbd8bea7305462b9f8125b1e88409857f066f6f85d6f68a85ec10345351a23a3aaf07f38af8c952a7bceca70bd2af7ad586090106925082945050505050919050565b600080fd5b6000819050919050565b613da881613d95565b8114613db357600080fd5b50565b600081359050613dc581613d9f565b92915050565b600060208284031215613de157613de0613d90565b5b6000613def84828501613db6565b91505092915050565b613e0181613d95565b82525050565b6000602082019050613e1c6000830184613df8565b9291505056fea26469706673582212208dd409830d5a2314149819a0454f3f0588edc0ce115930558be2f180783a713e64736f6c634300080f0033",
  "devdoc": {
    "kind": "dev",
    "methods": {
      "hash(uint256)": {
        "params": {
          "input": "The input to hash"
        }
      }
    },
    "version": 1
  },
  "userdoc": {
    "kind": "user",
    "methods": {
      "hash(uint256)": {
        "notice": "Hashes the input using the Poseidon hash function, n = 2, second input is the constant 0"
      }
    },
    "version": 1
  },
  "storageLayout": {
    "storage": [],
    "types": null
  }
}