{
  "address": "0x4B11778822690DefA80934B3203C170ed6B5d317",
  "abi": [
    {
      "inputs": [
        {
          "internalType": "uint256",
          "name": "membershipDeposit",
          "type": "uint256"
        },
        {
          "internalType": "uint256",
          "name": "depth",
          "type": "uint256"
        },
        {
          "internalType": "address",
          "name": "_poseidonHasher",
          "type": "address"
        }
      ],
      "stateMutability": "nonpayable",
      "type": "constructor"
    },
    {
      "anonymous": false,
      "inputs": [
        {
          "indexed": false,
          "internalType": "uint256",
          "name": "idCommitment",
          "type": "uint256"
        },
        {
          "indexed": false,
          "internalType": "uint256",
          "name": "index",
          "type": "uint256"
        }
      ],
      "name": "MemberRegistered",
      "type": "event"
    },
    {
      "anonymous": false,
      "inputs": [
        {
          "indexed": false,
          "internalType": "uint256",
          "name": "idCommitment",
          "type": "uint256"
        }
      ],
      "name": "MemberWithdrawn",
      "type": "event"
    },
    {
      "inputs": [],
      "name": "DEPTH",
      "outputs": [
        {
          "internalType": "uint256",
          "name": "",
          "type": "uint256"
        }
      ],
      "stateMutability": "view",
      "type": "function"
    },
    {
      "inputs": [],
      "name": "MEMBERSHIP_DEPOSIT",
      "outputs": [
        {
          "internalType": "uint256",
          "name": "",
          "type": "uint256"
        }
      ],
      "stateMutability": "view",
      "type": "function"
    },
    {
      "inputs": [],
      "name": "SET_SIZE",
      "outputs": [
        {
          "internalType": "uint256",
          "name": "",
          "type": "uint256"
        }
      ],
      "stateMutability": "view",
      "type": "function"
    },
    {
      "inputs": [],
      "name": "idCommitmentIndex",
      "outputs": [
        {
          "internalType": "uint256",
          "name": "",
          "type": "uint256"
        }
      ],
      "stateMutability": "view",
      "type": "function"
    },
    {
      "inputs": [
        {
          "internalType": "uint256",
          "name": "",
          "type": "uint256"
        }
      ],
      "name": "members",
      "outputs": [
        {
          "internalType": "bool",
          "name": "",
          "type": "bool"
        }
      ],
      "stateMutability": "view",
      "type": "function"
    },
    {
      "inputs": [],
      "name": "poseidonHasher",
      "outputs": [
        {
          "internalType": "contract IPoseidonHasher",
          "name": "",
          "type": "address"
        }
      ],
      "stateMutability": "view",
      "type": "function"
    },
    {
      "inputs": [
        {
          "internalType": "uint256",
          "name": "idCommitment",
          "type": "uint256"
        }
      ],
      "name": "register",
      "outputs": [],
      "stateMutability": "payable",
      "type": "function"
    },
    {
      "inputs": [
        {
          "internalType": "uint256[]",
          "name": "idCommitments",
          "type": "uint256[]"
        }
      ],
      "name": "registerBatch",
      "outputs": [],
      "stateMutability": "payable",
      "type": "function"
    },
    {
      "inputs": [
        {
          "internalType": "uint256",
          "name": "",
          "type": "uint256"
        }
      ],
      "name": "stakedAmounts",
      "outputs": [
        {
          "internalType": "uint256",
          "name": "",
          "type": "uint256"
        }
      ],
      "stateMutability": "view",
      "type": "function"
    },
    {
      "inputs": [
        {
          "internalType": "uint256",
          "name": "secret",
          "type": "uint256"
        },
        {
          "internalType": "address payable",
          "name": "receiver",
          "type": "address"
        }
      ],
      "name": "withdraw",
      "outputs": [],
      "stateMutability": "nonpayable",
      "type": "function"
    },
    {
      "inputs": [
        {
          "internalType": "uint256",
          "name": "secret",
          "type": "uint256"
        }
      ],
      "name": "withdraw",
      "outputs": [],
      "stateMutability": "nonpayable",
      "type": "function"
    },
    {
      "inputs": [
        {
          "internalType": "uint256[]",
          "name": "secrets",
          "type": "uint256[]"
        },
        {
          "internalType": "address payable[]",
          "name": "receivers",
          "type": "address[]"
        }
      ],
      "name": "withdrawBatch",
      "outputs": [],
      "stateMutability": "nonpayable",
      "type": "function"
    }
  ],
  "transactionHash": "0x31c6392afa03be64d9319382a578fdf891d1c158b4a1fc6691577ea18499395d",
  "args": [
    1000000000000000,
    20,
    "0xfa72Ce89D60d085B8FdB445fF6edC47475D58d1E"
  ],
  "numDeployments": 1,
  "solcInputHash": "3d22925ef26b2c95bb2dc86b2f9e06ed",
  "bytecode": "0x60e06040523480156200001157600080fd5b5060405162001b7f38038062001b7f833981810160405281019062000037919062000142565b82608081815250508160a08181525050816001901b60c0818152505080600360006101000a81548173ffffffffffffffffffffffffffffffffffffffff021916908373ffffffffffffffffffffffffffffffffffffffff1602179055505050506200019e565b600080fd5b6000819050919050565b620000b781620000a2565b8114620000c357600080fd5b50565b600081519050620000d781620000ac565b92915050565b600073ffffffffffffffffffffffffffffffffffffffff82169050919050565b60006200010a82620000dd565b9050919050565b6200011c81620000fd565b81146200012857600080fd5b50565b6000815190506200013c8162000111565b92915050565b6000806000606084860312156200015e576200015d6200009d565b5b60006200016e86828701620000c6565b93505060206200018186828701620000c6565b925050604062000194868287016200012b565b9150509250925092565b60805160a05160c051611995620001ea6000396000818161045e015281816105cf0152610a840152600061058d0152600081816104cf015281816105f3015261066201526119956000f3fe6080604052600436106100a65760003560e01c806398366e351161006457806398366e35146101aa578063ae74552a146101d5578063bc49912814610200578063d0383d681461023d578063f207564e14610268578063f220b9ec14610284576100a6565b8062f714ce146100ab5780632e1a7d4d146100d4578063331b6ab3146100fd57806340070712146101285780635daf08ca1461015157806369e4863f1461018e575b600080fd5b3480156100b757600080fd5b506100d260048036038101906100cd9190610d18565b6102af565b005b3480156100e057600080fd5b506100fb60048036038101906100f69190610d58565b6102bd565b005b34801561010957600080fd5b506101126102c9565b60405161011f9190610de4565b60405180910390f35b34801561013457600080fd5b5061014f600480360381019061014a9190610eba565b6102ef565b005b34801561015d57600080fd5b5061017860048036038101906101739190610d58565b610434565b6040516101859190610f56565b60405180910390f35b6101a860048036038101906101a39190610f71565b610454565b005b3480156101b657600080fd5b506101bf61058b565b6040516101cc9190610fcd565b60405180910390f35b3480156101e157600080fd5b506101ea6105af565b6040516101f79190610fcd565b60405180910390f35b34801561020c57600080fd5b5061022760048036038101906102229190610d58565b6105b5565b6040516102349190610fcd565b60405180910390f35b34801561024957600080fd5b506102526105cd565b60405161025f9190610fcd565b60405180910390f35b610282600480360381019061027d9190610d58565b6105f1565b005b34801561029057600080fd5b50610299610660565b6040516102a69190610fcd565b60405180910390f35b6102b98282610684565b5050565b6102c6816108f7565b50565b600360009054906101000a900473ffffffffffffffffffffffffffffffffffffffff1681565b60008484905090506000810361033a576040517f08c379a00000000000000000000000000000000000000000000000000000000081526004016103319061106b565b60405180910390fd5b84849050811461037f576040517f08c379a0000000000000000000000000000000000000000000000000000000008152600401610376906110fd565b60405180910390fd5b8282905081146103c4576040517f08c379a00000000000000000000000000000000000000000000000000000000081526004016103bb9061118f565b60405180910390fd5b60005b8181101561042c576104198686838181106103e5576103e46111af565b5b905060200201358585848181106103ff576103fe6111af565b5b905060200201602081019061041491906111de565b610684565b80806104249061123a565b9150506103c7565b505050505050565b60026020528060005260406000206000915054906101000a900460ff1681565b60008282905090507f00000000000000000000000000000000000000000000000000000000000000008160005461048b9190611282565b11156104cc576040517f08c379a00000000000000000000000000000000000000000000000000000000081526004016104c390611324565b60405180910390fd5b807f00000000000000000000000000000000000000000000000000000000000000006104f89190611344565b3414610539576040517f08c379a000000000000000000000000000000000000000000000000000000000815260040161053090611410565b60405180910390fd5b60005b818110156105855761057284848381811061055a576105596111af565b5b90506020020135833461056d919061145f565b610a21565b808061057d9061123a565b91505061053c565b50505050565b7f000000000000000000000000000000000000000000000000000000000000000081565b60005481565b60016020528060005260406000206000915090505481565b7f000000000000000000000000000000000000000000000000000000000000000081565b7f00000000000000000000000000000000000000000000000000000000000000003414610653576040517f08c379a000000000000000000000000000000000000000000000000000000000815260040161064a90611502565b60405180910390fd5b61065d8134610a21565b50565b7f000000000000000000000000000000000000000000000000000000000000000081565b600061068f83610bd5565b90506002600082815260200190815260200160002060009054906101000a900460ff166106f1576040517f08c379a00000000000000000000000000000000000000000000000000000000081526004016106e890611594565b60405180910390fd5b6000600160008381526020019081526020016000205403610747576040517f08c379a000000000000000000000000000000000000000000000000000000000815260040161073e90611626565b60405180910390fd5b600073ffffffffffffffffffffffffffffffffffffffff168273ffffffffffffffffffffffffffffffffffffffff16036107b6576040517f08c379a00000000000000000000000000000000000000000000000000000000081526004016107ad906116b8565b60405180910390fd5b60006002600083815260200190815260200160002060006101000a81548160ff0219169083151502179055506000600160008381526020019081526020016000208190555060008273ffffffffffffffffffffffffffffffffffffffff16600160008481526020019081526020016000205460405161083490611709565b60006040518083038185875af1925050503d8060008114610871576040519150601f19603f3d011682016040523d82523d6000602084013e610876565b606091505b50509050806108ba576040517f08c379a00000000000000000000000000000000000000000000000000000000081526004016108b19061176a565b60405180910390fd5b7fad2d771c5ad1c1e6f50cc769e53ec1e194002c29f28c3dd2af5639b60d8072a6826040516108e99190610fcd565b60405180910390a150505050565b600061090282610bd5565b90506002600082815260200190815260200160002060009054906101000a900460ff16610964576040517f08c379a000000000000000000000000000000000000000000000000000000000815260040161095b90611594565b60405180910390fd5b60006001600083815260200190815260200160002054146109ba576040517f08c379a00000000000000000000000000000000000000000000000000000000081526004016109b1906117d6565b60405180910390fd5b60006002600083815260200190815260200160002060006101000a81548160ff0219169083151502179055507fad2d771c5ad1c1e6f50cc769e53ec1e194002c29f28c3dd2af5639b60d8072a681604051610a159190610fcd565b60405180910390a15050565b6002600083815260200190815260200160002060009054906101000a900460ff1615610a82576040517f08c379a0000000000000000000000000000000000000000000000000000000008152600401610a7990611868565b60405180910390fd5b7f000000000000000000000000000000000000000000000000000000000000000060005410610ae6576040517f08c379a0000000000000000000000000000000000000000000000000000000008152600401610add906118d4565b60405180910390fd5b60008114610b375760016002600084815260200190815260200160002060006101000a81548160ff021916908315150217905550806001600084815260200190815260200160002081905550610b7d565b60016002600084815260200190815260200160002060006101000a81548160ff021916908315150217905550600060016000848152602001908152602001600020819055505b7f5a92c2530f207992057b9c3e544108ffce3beda4a63719f316967c49bf6159d282600054604051610bb09291906118f4565b60405180910390a16001600080828254610bca9190611282565b925050819055505050565b6000600360009054906101000a900473ffffffffffffffffffffffffffffffffffffffff1673ffffffffffffffffffffffffffffffffffffffff1663b189fd4c836040518263ffffffff1660e01b8152600401610c329190610fcd565b602060405180830381865afa158015610c4f573d6000803e3d6000fd5b505050506040513d601f19601f82011682018060405250810190610c739190611932565b9050919050565b600080fd5b600080fd5b6000819050919050565b610c9781610c84565b8114610ca257600080fd5b50565b600081359050610cb481610c8e565b92915050565b600073ffffffffffffffffffffffffffffffffffffffff82169050919050565b6000610ce582610cba565b9050919050565b610cf581610cda565b8114610d0057600080fd5b50565b600081359050610d1281610cec565b92915050565b60008060408385031215610d2f57610d2e610c7a565b5b6000610d3d85828601610ca5565b9250506020610d4e85828601610d03565b9150509250929050565b600060208284031215610d6e57610d6d610c7a565b5b6000610d7c84828501610ca5565b91505092915050565b6000819050919050565b6000610daa610da5610da084610cba565b610d85565b610cba565b9050919050565b6000610dbc82610d8f565b9050919050565b6000610dce82610db1565b9050919050565b610dde81610dc3565b82525050565b6000602082019050610df96000830184610dd5565b92915050565b600080fd5b600080fd5b600080fd5b60008083601f840112610e2457610e23610dff565b5b8235905067ffffffffffffffff811115610e4157610e40610e04565b5b602083019150836020820283011115610e5d57610e5c610e09565b5b9250929050565b60008083601f840112610e7a57610e79610dff565b5b8235905067ffffffffffffffff811115610e9757610e96610e04565b5b602083019150836020820283011115610eb357610eb2610e09565b5b9250929050565b60008060008060408587031215610ed457610ed3610c7a565b5b600085013567ffffffffffffffff811115610ef257610ef1610c7f565b5b610efe87828801610e0e565b9450945050602085013567ffffffffffffffff811115610f2157610f20610c7f565b5b610f2d87828801610e64565b925092505092959194509250565b60008115159050919050565b610f5081610f3b565b82525050565b6000602082019050610f6b6000830184610f47565b92915050565b60008060208385031215610f8857610f87610c7a565b5b600083013567ffffffffffffffff811115610fa657610fa5610c7f565b5b610fb285828601610e0e565b92509250509250929050565b610fc781610c84565b82525050565b6000602082019050610fe26000830184610fbe565b92915050565b600082825260208201905092915050565b7f524c4e2c20776974686472617742617463683a2062617463682073697a65207a60008201527f65726f0000000000000000000000000000000000000000000000000000000000602082015250565b6000611055602383610fe8565b915061106082610ff9565b604082019050919050565b6000602082019050818103600083015261108481611048565b9050919050565b7f524c4e2c20776974686472617742617463683a2062617463682073697a65206d60008201527f69736d6174636820736563726574730000000000000000000000000000000000602082015250565b60006110e7602f83610fe8565b91506110f28261108b565b604082019050919050565b60006020820190508181036000830152611116816110da565b9050919050565b7f524c4e2c20776974686472617742617463683a2062617463682073697a65206d60008201527f69736d6174636820726563656976657273000000000000000000000000000000602082015250565b6000611179603183610fe8565b91506111848261111d565b604082019050919050565b600060208201905081810360008301526111a88161116c565b9050919050565b7f4e487b7100000000000000000000000000000000000000000000000000000000600052603260045260246000fd5b6000602082840312156111f4576111f3610c7a565b5b600061120284828501610d03565b91505092915050565b7f4e487b7100000000000000000000000000000000000000000000000000000000600052601160045260246000fd5b600061124582610c84565b91507fffffffffffffffffffffffffffffffffffffffffffffffffffffffffffffffff82036112775761127661120b565b5b600182019050919050565b600061128d82610c84565b915061129883610c84565b9250827fffffffffffffffffffffffffffffffffffffffffffffffffffffffffffffffff038211156112cd576112cc61120b565b5b828201905092915050565b7f524c4e2c20726567697374657242617463683a207365742069732066756c6c00600082015250565b600061130e601f83610fe8565b9150611319826112d8565b602082019050919050565b6000602082019050818103600083015261133d81611301565b9050919050565b600061134f82610c84565b915061135a83610c84565b9250817fffffffffffffffffffffffffffffffffffffffffffffffffffffffffffffffff04831182151516156113935761139261120b565b5b828202905092915050565b7f524c4e2c20726567697374657242617463683a206d656d62657273686970206460008201527f65706f736974206973206e6f7420736174697366696564000000000000000000602082015250565b60006113fa603783610fe8565b91506114058261139e565b604082019050919050565b60006020820190508181036000830152611429816113ed565b9050919050565b7f4e487b7100000000000000000000000000000000000000000000000000000000600052601260045260246000fd5b600061146a82610c84565b915061147583610c84565b92508261148557611484611430565b5b828204905092915050565b7f524c4e2c2072656769737465723a206d656d62657273686970206465706f736960008201527f74206973206e6f74207361746973666965640000000000000000000000000000602082015250565b60006114ec603283610fe8565b91506114f782611490565b604082019050919050565b6000602082019050818103600083015261151b816114df565b9050919050565b7f524c4e2c205f77697468647261773a206d656d626572206e6f7420726567697360008201527f7465726564000000000000000000000000000000000000000000000000000000602082015250565b600061157e602583610fe8565b915061158982611522565b604082019050919050565b600060208201905081810360008301526115ad81611571565b9050919050565b7f524c4e2c205f77697468647261773a206d656d62657220686173206e6f20737460008201527f616b650000000000000000000000000000000000000000000000000000000000602082015250565b6000611610602383610fe8565b915061161b826115b4565b604082019050919050565b6000602082019050818103600083015261163f81611603565b9050919050565b7f524c4e2c205f77697468647261773a20656d707479207265636569766572206160008201527f6464726573730000000000000000000000000000000000000000000000000000602082015250565b60006116a2602683610fe8565b91506116ad82611646565b604082019050919050565b600060208201905081810360008301526116d181611695565b9050919050565b600081905092915050565b50565b60006116f36000836116d8565b91506116fe826116e3565b600082019050919050565b6000611714826116e6565b9150819050919050565b7f7472616e73666572206661696c65640000000000000000000000000000000000600082015250565b6000611754600f83610fe8565b915061175f8261171e565b602082019050919050565b6000602082019050818103600083015261178381611747565b9050919050565b7f524c4e2c205f77697468647261773a207374616b656400000000000000000000600082015250565b60006117c0601683610fe8565b91506117cb8261178a565b602082019050919050565b600060208201905081810360008301526117ef816117b3565b9050919050565b7f524c4e2c205f72656769737465723a206d656d62657220616c7265616479207260008201527f6567697374657265640000000000000000000000000000000000000000000000602082015250565b6000611852602983610fe8565b915061185d826117f6565b604082019050919050565b6000602082019050818103600083015261188181611845565b9050919050565b7f524c4e2c2072656769737465723a207365742069732066756c6c000000000000600082015250565b60006118be601a83610fe8565b91506118c982611888565b602082019050919050565b600060208201905081810360008301526118ed816118b1565b9050919050565b60006040820190506119096000830185610fbe565b6119166020830184610fbe565b9392505050565b60008151905061192c81610c8e565b92915050565b60006020828403121561194857611947610c7a565b5b60006119568482850161191d565b9150509291505056fea26469706673582212205902aaff360bf5b9d1c6c604770a56f7c89336c0f79d234253a73b2557b3621564736f6c634300080f0033",
  "devdoc": {
    "kind": "dev",
    "methods": {},
    "version": 1
  },
  "userdoc": {
    "kind": "user",
    "methods": {},
    "version": 1
  },
  "storageLayout": {
    "storage": [
      {
        "astId": 468,
        "contract": "contracts/Rln.sol:RLN",
        "label": "idCommitmentIndex",
        "offset": 0,
        "slot": "0",
        "type": "t_uint256"
      },
      {
        "astId": 472,
        "contract": "contracts/Rln.sol:RLN",
        "label": "stakedAmounts",
        "offset": 0,
        "slot": "1",
        "type": "t_mapping(t_uint256,t_uint256)"
      },
      {
        "astId": 476,
        "contract": "contracts/Rln.sol:RLN",
        "label": "members",
        "offset": 0,
        "slot": "2",
        "type": "t_mapping(t_uint256,t_bool)"
      },
      {
        "astId": 479,
        "contract": "contracts/Rln.sol:RLN",
        "label": "poseidonHasher",
        "offset": 0,
        "slot": "3",
        "type": "t_contract(IPoseidonHasher)14"
      }
    ],
    "types": {
      "t_bool": {
        "encoding": "inplace",
        "label": "bool",
        "numberOfBytes": "1"
      },
      "t_contract(IPoseidonHasher)14": {
        "encoding": "inplace",
        "label": "contract IPoseidonHasher",
        "numberOfBytes": "20"
      },
      "t_mapping(t_uint256,t_bool)": {
        "encoding": "mapping",
        "key": "t_uint256",
        "label": "mapping(uint256 => bool)",
        "numberOfBytes": "32",
        "value": "t_bool"
      },
      "t_mapping(t_uint256,t_uint256)": {
        "encoding": "mapping",
        "key": "t_uint256",
        "label": "mapping(uint256 => uint256)",
        "numberOfBytes": "32",
        "value": "t_uint256"
      },
      "t_uint256": {
        "encoding": "inplace",
        "label": "uint256",
        "numberOfBytes": "32"
      }
    }
  }
}