{
  "address": "0x2992c7bFD42729991b614e95F4C2C78619f49c50",
  "abi": [
    {
      "inputs": [
        {
          "internalType": "uint256",
          "name": "membershipDeposit",
          "type": "uint256"
        },
        {
          "internalType": "uint256",
          "name": "depth",
          "type": "uint256"
        },
        {
          "internalType": "address",
          "name": "_poseidonHasher",
          "type": "address"
        },
        {
          "internalType": "address",
          "name": "_verifier",
          "type": "address"
        }
      ],
      "stateMutability": "nonpayable",
      "type": "constructor"
    },
    {
      "inputs": [],
      "name": "DuplicateIdCommitment",
      "type": "error"
    },
    {
      "inputs": [],
      "name": "FullTree",
      "type": "error"
    },
    {
      "inputs": [],
      "name": "InsufficientContractBalance",
      "type": "error"
    },
    {
      "inputs": [
        {
          "internalType": "uint256",
          "name": "required",
          "type": "uint256"
        },
        {
          "internalType": "uint256",
          "name": "provided",
          "type": "uint256"
        }
      ],
      "name": "InsufficientDeposit",
      "type": "error"
    },
    {
      "inputs": [],
      "name": "InsufficientWithdrawalBalance",
      "type": "error"
    },
    {
      "inputs": [],
      "name": "InvalidProof",
      "type": "error"
    },
    {
      "inputs": [
        {
          "internalType": "address",
          "name": "to",
          "type": "address"
        }
      ],
      "name": "InvalidReceiverAddress",
      "type": "error"
    },
    {
      "inputs": [
        {
          "internalType": "uint256",
          "name": "idCommitment",
          "type": "uint256"
        }
      ],
      "name": "MemberHasNoStake",
      "type": "error"
    },
    {
      "inputs": [
        {
          "internalType": "uint256",
          "name": "idCommitment",
          "type": "uint256"
        }
      ],
      "name": "MemberNotRegistered",
      "type": "error"
    },
    {
      "anonymous": false,
      "inputs": [
        {
          "indexed": false,
          "internalType": "uint256",
          "name": "idCommitment",
          "type": "uint256"
        },
        {
          "indexed": false,
          "internalType": "uint256",
          "name": "index",
          "type": "uint256"
        }
      ],
      "name": "MemberRegistered",
      "type": "event"
    },
    {
      "anonymous": false,
      "inputs": [
        {
          "indexed": false,
          "internalType": "uint256",
          "name": "idCommitment",
          "type": "uint256"
        },
        {
          "indexed": false,
          "internalType": "uint256",
          "name": "index",
          "type": "uint256"
        }
      ],
      "name": "MemberWithdrawn",
      "type": "event"
    },
    {
      "inputs": [],
      "name": "DEPTH",
      "outputs": [
        {
          "internalType": "uint256",
          "name": "",
          "type": "uint256"
        }
      ],
      "stateMutability": "view",
      "type": "function"
    },
    {
      "inputs": [],
      "name": "MEMBERSHIP_DEPOSIT",
      "outputs": [
        {
          "internalType": "uint256",
          "name": "",
          "type": "uint256"
        }
      ],
      "stateMutability": "view",
      "type": "function"
    },
    {
      "inputs": [],
      "name": "SET_SIZE",
      "outputs": [
        {
          "internalType": "uint256",
          "name": "",
          "type": "uint256"
        }
      ],
      "stateMutability": "view",
      "type": "function"
    },
    {
      "inputs": [],
      "name": "idCommitmentIndex",
      "outputs": [
        {
          "internalType": "uint256",
          "name": "",
          "type": "uint256"
        }
      ],
      "stateMutability": "view",
      "type": "function"
    },
    {
      "inputs": [
        {
          "internalType": "uint256",
          "name": "",
          "type": "uint256"
        }
      ],
      "name": "members",
      "outputs": [
        {
          "internalType": "uint256",
          "name": "",
          "type": "uint256"
        }
      ],
      "stateMutability": "view",
      "type": "function"
    },
    {
      "inputs": [],
      "name": "poseidonHasher",
      "outputs": [
        {
          "internalType": "contract IPoseidonHasher",
          "name": "",
          "type": "address"
        }
      ],
      "stateMutability": "view",
      "type": "function"
    },
    {
      "inputs": [
        {
          "internalType": "uint256",
          "name": "idCommitment",
          "type": "uint256"
        }
      ],
      "name": "register",
      "outputs": [],
      "stateMutability": "payable",
      "type": "function"
    },
    {
      "inputs": [
        {
          "internalType": "uint256",
          "name": "idCommitment",
          "type": "uint256"
        },
        {
          "internalType": "address payable",
          "name": "receiver",
          "type": "address"
        },
        {
          "internalType": "uint256[8]",
          "name": "proof",
          "type": "uint256[8]"
        }
      ],
      "name": "slash",
      "outputs": [],
      "stateMutability": "nonpayable",
      "type": "function"
    },
    {
      "inputs": [
        {
          "internalType": "uint256",
          "name": "",
          "type": "uint256"
        }
      ],
      "name": "stakedAmounts",
      "outputs": [
        {
          "internalType": "uint256",
          "name": "",
          "type": "uint256"
        }
      ],
      "stateMutability": "view",
      "type": "function"
    },
    {
      "inputs": [],
      "name": "verifier",
      "outputs": [
        {
          "internalType": "contract IVerifier",
          "name": "",
          "type": "address"
        }
      ],
      "stateMutability": "view",
      "type": "function"
    },
    {
      "inputs": [],
      "name": "withdraw",
      "outputs": [],
      "stateMutability": "nonpayable",
      "type": "function"
    },
    {
      "inputs": [
        {
          "internalType": "address",
          "name": "",
          "type": "address"
        }
      ],
      "name": "withdrawalBalance",
      "outputs": [
        {
          "internalType": "uint256",
          "name": "",
          "type": "uint256"
        }
      ],
      "stateMutability": "view",
      "type": "function"
    }
  ],
  "transactionHash": "0xd43925d8af90a6e3ea9e586f7de59545d34650ddaa1147b0f928339efd45bd83",
  "args": [
    0,
    20,
    "0xCEa589C69338F02e857C2Bf201e897EF59D4CB69",
    "0xa6Da88FA985557936594CD1a04d9F7B9593806E9"
  ],
  "numDeployments": 2,
  "solcInputHash": "0e0cac683e804dc76f2f24c8a5b4012c",
  "bytecode": "0x61012060405260016000553480156200001757600080fd5b50604051620013dc380380620013dc83398181016040528101906200003d919062000171565b83608081815250508260a08181525050826001901b60c081815250508173ffffffffffffffffffffffffffffffffffffffff1660e08173ffffffffffffffffffffffffffffffffffffffff16815250508073ffffffffffffffffffffffffffffffffffffffff166101008173ffffffffffffffffffffffffffffffffffffffff168152505050505050620001e3565b600080fd5b6000819050919050565b620000e681620000d1565b8114620000f257600080fd5b50565b6000815190506200010681620000db565b92915050565b600073ffffffffffffffffffffffffffffffffffffffff82169050919050565b600062000139826200010c565b9050919050565b6200014b816200012c565b81146200015757600080fd5b50565b6000815190506200016b8162000140565b92915050565b600080600080608085870312156200018e576200018d620000cc565b5b60006200019e87828801620000f5565b9450506020620001b187828801620000f5565b9350506040620001c4878288016200015a565b9250506060620001d7878288016200015a565b91505092959194509250565b60805160a05160c05160e0516101005161119862000244600039600081816102c30152610973015260006102e70152600081816104d4015261088c0152600061047a0152600081816104f80152818161051f015261058b01526111986000f3fe6080604052600436106100a75760003560e01c8063ae74552a11610064578063ae74552a146101aa578063bc499128146101d5578063c5b208ff14610212578063d0383d681461024f578063f207564e1461027a578063f220b9ec14610296576100a7565b80632b7ac3f3146100ac578063331b6ab3146100d75780633ccfd60b146101025780635daf08ca146101195780638be9b1191461015657806398366e351461017f575b600080fd5b3480156100b857600080fd5b506100c16102c1565b6040516100ce9190610be7565b60405180910390f35b3480156100e357600080fd5b506100ec6102e5565b6040516100f99190610c23565b60405180910390f35b34801561010e57600080fd5b50610117610309565b005b34801561012557600080fd5b50610140600480360381019061013b9190610c79565b610450565b60405161014d9190610cb5565b60405180910390f35b34801561016257600080fd5b5061017d60048036038101906101789190610d35565b610468565b005b34801561018b57600080fd5b50610194610478565b6040516101a19190610cb5565b60405180910390f35b3480156101b657600080fd5b506101bf61049c565b6040516101cc9190610cb5565b60405180910390f35b3480156101e157600080fd5b506101fc60048036038101906101f79190610c79565b6104a2565b6040516102099190610cb5565b60405180910390f35b34801561021e57600080fd5b5061023960048036038101906102349190610dc7565b6104ba565b6040516102469190610cb5565b60405180910390f35b34801561025b57600080fd5b506102646104d2565b6040516102719190610cb5565b60405180910390f35b610294600480360381019061028f9190610c79565b6104f6565b005b3480156102a257600080fd5b506102ab610589565b6040516102b89190610cb5565b60405180910390f35b7f000000000000000000000000000000000000000000000000000000000000000081565b7f000000000000000000000000000000000000000000000000000000000000000081565b6000600360003373ffffffffffffffffffffffffffffffffffffffff1673ffffffffffffffffffffffffffffffffffffffff16815260200190815260200160002054905060008103610387576040517f6f50367a00000000000000000000000000000000000000000000000000000000815260040160405180910390fd5b478111156103c1576040517f786e0a9900000000000000000000000000000000000000000000000000000000815260040160405180910390fd5b6000600360003373ffffffffffffffffffffffffffffffffffffffff1673ffffffffffffffffffffffffffffffffffffffff168152602001908152602001600020819055503373ffffffffffffffffffffffffffffffffffffffff166108fc829081150290604051600060405180830381858888f1935050505015801561044c573d6000803e3d6000fd5b5050565b60026020528060005260406000206000915090505481565b6104738383836105ad565b505050565b7f000000000000000000000000000000000000000000000000000000000000000081565b60005481565b60016020528060005260406000206000915090505481565b60036020528060005260406000206000915090505481565b7f000000000000000000000000000000000000000000000000000000000000000081565b7f0000000000000000000000000000000000000000000000000000000000000000341461057c577f0000000000000000000000000000000000000000000000000000000000000000346040517f25c3f46e000000000000000000000000000000000000000000000000000000008152600401610573929190610df4565b60405180910390fd5b610586813461083e565b50565b7f000000000000000000000000000000000000000000000000000000000000000081565b3073ffffffffffffffffffffffffffffffffffffffff168273ffffffffffffffffffffffffffffffffffffffff1614806106135750600073ffffffffffffffffffffffffffffffffffffffff168273ffffffffffffffffffffffffffffffffffffffff16145b1561065557816040517f4a149d0800000000000000000000000000000000000000000000000000000000815260040161064c9190610e3e565b60405180910390fd5b60006002600085815260200190815260200160002054036106ad57826040517f5a971ebb0000000000000000000000000000000000000000000000000000000081526004016106a49190610cb5565b60405180910390fd5b600060016000858152602001908152602001600020540361070557826040517faabeeba50000000000000000000000000000000000000000000000000000000081526004016106fc9190610cb5565b60405180910390fd5b61071083838361096f565b610746576040517f09bde33900000000000000000000000000000000000000000000000000000000815260040160405180910390fd5b600060016000858152602001908152602001600020549050600060026000868152602001908152602001600020549050600060026000878152602001908152602001600020819055506000600160008781526020019081526020016000208190555081600360008673ffffffffffffffffffffffffffffffffffffffff1673ffffffffffffffffffffffffffffffffffffffff16815260200190815260200160002060008282546107f79190610e88565b925050819055507f62ec3a516d22a993ce5cb4e7593e878c74f4d799dde522a88dc27a994fd5a943858260405161082f929190610df4565b60405180910390a15050505050565b600060026000848152602001908152602001600020541461088a576040517e0a60f700000000000000000000000000000000000000000000000000000000815260040160405180910390fd5b7f0000000000000000000000000000000000000000000000000000000000000000600054106108e5576040517f57f6953100000000000000000000000000000000000000000000000000000000815260040160405180910390fd5b60005460026000848152602001908152602001600020819055508060016000848152602001908152602001600020819055507f5a92c2530f207992057b9c3e544108ffce3beda4a63719f316967c49bf6159d28260005460405161094a929190610df4565b60405180910390a160016000808282546109649190610e88565b925050819055505050565b60007f000000000000000000000000000000000000000000000000000000000000000073ffffffffffffffffffffffffffffffffffffffff1663f5c9d69e6040518060400160405280856000600881106109cc576109cb610ede565b5b60200201358152602001856001600881106109ea576109e9610ede565b5b60200201358152506040518060400160405280604051806040016040528088600260088110610a1c57610a1b610ede565b5b6020020135815260200188600360088110610a3a57610a39610ede565b5b60200201358152508152602001604051806040016040528088600460088110610a6657610a65610ede565b5b6020020135815260200188600560088110610a8457610a83610ede565b5b6020020135815250815250604051806040016040528087600660088110610aae57610aad610ede565b5b6020020135815260200187600760088110610acc57610acb610ede565b5b602002013581525060405180604001604052808a81526020018973ffffffffffffffffffffffffffffffffffffffff168152506040518563ffffffff1660e01b8152600401610b1e94939291906110b6565b602060405180830381865afa158015610b3b573d6000803e3d6000fd5b505050506040513d601f19601f82011682018060405250810190610b5f9190611135565b90509392505050565b600073ffffffffffffffffffffffffffffffffffffffff82169050919050565b6000819050919050565b6000610bad610ba8610ba384610b68565b610b88565b610b68565b9050919050565b6000610bbf82610b92565b9050919050565b6000610bd182610bb4565b9050919050565b610be181610bc6565b82525050565b6000602082019050610bfc6000830184610bd8565b92915050565b6000610c0d82610bb4565b9050919050565b610c1d81610c02565b82525050565b6000602082019050610c386000830184610c14565b92915050565b600080fd5b6000819050919050565b610c5681610c43565b8114610c6157600080fd5b50565b600081359050610c7381610c4d565b92915050565b600060208284031215610c8f57610c8e610c3e565b5b6000610c9d84828501610c64565b91505092915050565b610caf81610c43565b82525050565b6000602082019050610cca6000830184610ca6565b92915050565b6000610cdb82610b68565b9050919050565b610ceb81610cd0565b8114610cf657600080fd5b50565b600081359050610d0881610ce2565b92915050565b600080fd5b600081905082602060080282011115610d2f57610d2e610d0e565b5b92915050565b60008060006101408486031215610d4f57610d4e610c3e565b5b6000610d5d86828701610c64565b9350506020610d6e86828701610cf9565b9250506040610d7f86828701610d13565b9150509250925092565b6000610d9482610b68565b9050919050565b610da481610d89565b8114610daf57600080fd5b50565b600081359050610dc181610d9b565b92915050565b600060208284031215610ddd57610ddc610c3e565b5b6000610deb84828501610db2565b91505092915050565b6000604082019050610e096000830185610ca6565b610e166020830184610ca6565b9392505050565b6000610e2882610bb4565b9050919050565b610e3881610e1d565b82525050565b6000602082019050610e536000830184610e2f565b92915050565b7f4e487b7100000000000000000000000000000000000000000000000000000000600052601160045260246000fd5b6000610e9382610c43565b9150610e9e83610c43565b9250827fffffffffffffffffffffffffffffffffffffffffffffffffffffffffffffffff03821115610ed357610ed2610e59565b5b828201905092915050565b7f4e487b7100000000000000000000000000000000000000000000000000000000600052603260045260246000fd5b600060029050919050565b600081905092915050565b6000819050919050565b610f3681610c43565b82525050565b6000610f488383610f2d565b60208301905092915050565b6000602082019050919050565b610f6a81610f0d565b610f748184610f18565b9250610f7f82610f23565b8060005b83811015610fb0578151610f978782610f3c565b9650610fa283610f54565b925050600181019050610f83565b505050505050565b600060029050919050565b600081905092915050565b6000819050919050565b600081905092915050565b610fec81610f0d565b610ff68184610fd8565b925061100182610f23565b8060005b838110156110325781516110198782610f3c565b965061102483610f54565b925050600181019050611005565b505050505050565b60006110468383610fe3565b60408301905092915050565b6000602082019050919050565b61106881610fb8565b6110728184610fc3565b925061107d82610fce565b8060005b838110156110ae578151611095878261103a565b96506110a083611052565b925050600181019050611081565b505050505050565b6000610140820190506110cc6000830187610f61565b6110d9604083018661105f565b6110e660c0830185610f61565b6110f4610100830184610f61565b95945050505050565b60008115159050919050565b611112816110fd565b811461111d57600080fd5b50565b60008151905061112f81611109565b92915050565b60006020828403121561114b5761114a610c3e565b5b600061115984828501611120565b9150509291505056fea26469706673582212208074065fef168f5f0c27b80d2553070a161db1c01092b76699947b2e28c96b5064736f6c634300080f0033",
  "devdoc": {
    "errors": {
      "InsufficientDeposit(uint256,uint256)": [
        {
          "params": {
            "provided": "The provided deposit amount",
            "required": "The required deposit amount"
          }
        }
      ]
    },
    "events": {
      "MemberRegistered(uint256,uint256)": {
        "params": {
          "idCommitment": "The idCommitment of the member",
          "index": "The index of the member in the set"
        }
      },
      "MemberWithdrawn(uint256,uint256)": {
        "params": {
          "idCommitment": "The idCommitment of the member",
          "index": "The index of the member in the set"
        }
      }
    },
    "kind": "dev",
    "methods": {
      "register(uint256)": {
        "params": {
          "idCommitment": "The idCommitment of the member"
        }
      },
      "slash(uint256,address,uint256[8])": {
        "details": "Allows a user to slash a member",
        "params": {
          "idCommitment": "The idCommitment of the member"
        }
      }
    },
    "version": 1
  },
  "userdoc": {
    "errors": {
      "DuplicateIdCommitment()": [
        {
          "notice": "Member is already registered"
        }
      ],
      "FullTree()": [
        {
          "notice": "The tree is full"
        }
      ],
      "InsufficientContractBalance()": [
        {
          "notice": "Contract has insufficient balance to return"
        }
      ],
      "InsufficientDeposit(uint256,uint256)": [
        {
          "notice": "Invalid deposit amount"
        }
      ],
      "InsufficientWithdrawalBalance()": [
        {
          "notice": "User has insufficient balance to withdraw"
        }
      ],
      "InvalidProof()": [
        {
          "notice": "Invalid proof"
        }
      ],
      "InvalidReceiverAddress(address)": [
        {
          "notice": "Invalid receiver address, when the receiver is the contract itself or 0x0"
        }
      ],
      "MemberHasNoStake(uint256)": [
        {
          "notice": "Member has no stake"
        }
      ],
      "MemberNotRegistered(uint256)": [
        {
          "notice": "Member is not registered"
        }
      ]
    },
    "events": {
      "MemberRegistered(uint256,uint256)": {
        "notice": "Emitted when a new member is added to the set"
      },
      "MemberWithdrawn(uint256,uint256)": {
        "notice": "Emitted when a member is removed from the set"
      }
    },
    "kind": "user",
    "methods": {
      "DEPTH()": {
        "notice": "The depth of the merkle tree"
      },
      "MEMBERSHIP_DEPOSIT()": {
        "notice": "The deposit amount required to register as a member"
      },
      "SET_SIZE()": {
        "notice": "The size of the merkle tree, i.e 2^depth"
      },
      "idCommitmentIndex()": {
        "notice": "The index of the next member to be registered"
      },
      "members(uint256)": {
        "notice": "The membership status of each member maps from idCommitment to their index in the set"
      },
      "poseidonHasher()": {
        "notice": "The Poseidon hasher contract"
      },
      "register(uint256)": {
        "notice": "Allows a user to register as a member"
      },
      "stakedAmounts(uint256)": {
        "notice": "The amount of eth staked by each member maps from idCommitment to the amount staked"
      },
      "verifier()": {
        "notice": "The groth16 verifier contract"
      },
      "withdraw()": {
        "notice": "Allows a user to withdraw funds allocated to them upon slashing a member"
      },
      "withdrawalBalance(address)": {
        "notice": "The balance of each user that can be withdrawn"
      }
    },
    "version": 1
  },
  "storageLayout": {
    "storage": [
      {
        "astId": 516,
        "contract": "contracts/Rln.sol:RLN",
        "label": "idCommitmentIndex",
        "offset": 0,
        "slot": "0",
        "type": "t_uint256"
      },
      {
        "astId": 521,
        "contract": "contracts/Rln.sol:RLN",
        "label": "stakedAmounts",
        "offset": 0,
        "slot": "1",
        "type": "t_mapping(t_uint256,t_uint256)"
      },
      {
        "astId": 526,
        "contract": "contracts/Rln.sol:RLN",
        "label": "members",
        "offset": 0,
        "slot": "2",
        "type": "t_mapping(t_uint256,t_uint256)"
      },
      {
        "astId": 531,
        "contract": "contracts/Rln.sol:RLN",
        "label": "withdrawalBalance",
        "offset": 0,
        "slot": "3",
        "type": "t_mapping(t_address,t_uint256)"
      }
    ],
    "types": {
      "t_address": {
        "encoding": "inplace",
        "label": "address",
        "numberOfBytes": "20"
      },
      "t_mapping(t_address,t_uint256)": {
        "encoding": "mapping",
        "key": "t_address",
        "label": "mapping(address => uint256)",
        "numberOfBytes": "32",
        "value": "t_uint256"
      },
      "t_mapping(t_uint256,t_uint256)": {
        "encoding": "mapping",
        "key": "t_uint256",
        "label": "mapping(uint256 => uint256)",
        "numberOfBytes": "32",
        "value": "t_uint256"
      },
      "t_uint256": {
        "encoding": "inplace",
        "label": "uint256",
        "numberOfBytes": "32"
      }
    }
  }
}