{
  "address": "0x58322513A35a8f747AF5A385bA14C2AbE602AA59",
  "abi": [
    {
      "inputs": [
        {
          "internalType": "address",
          "name": "_poseidonHasher",
          "type": "address"
        },
        {
          "internalType": "uint16",
          "name": "_contractIndex",
          "type": "uint16"
        }
      ],
      "stateMutability": "nonpayable",
      "type": "constructor"
    },
    {
      "inputs": [],
      "name": "DuplicateIdCommitment",
      "type": "error"
    },
    {
      "inputs": [],
      "name": "FullTree",
      "type": "error"
    },
    {
      "inputs": [
        {
          "internalType": "uint256",
          "name": "idCommitment",
          "type": "uint256"
        }
      ],
      "name": "InvalidIdCommitment",
      "type": "error"
    },
    {
      "inputs": [],
      "name": "NotImplemented",
      "type": "error"
    },
    {
      "anonymous": false,
      "inputs": [
        {
          "indexed": false,
          "internalType": "uint256",
          "name": "idCommitment",
          "type": "uint256"
        },
        {
          "indexed": false,
          "internalType": "uint256",
          "name": "index",
          "type": "uint256"
        }
      ],
      "name": "MemberRegistered",
      "type": "event"
    },
    {
      "anonymous": false,
      "inputs": [
        {
          "indexed": false,
          "internalType": "uint256",
          "name": "idCommitment",
          "type": "uint256"
        },
        {
          "indexed": false,
          "internalType": "uint256",
          "name": "index",
          "type": "uint256"
        }
      ],
      "name": "MemberWithdrawn",
      "type": "event"
    },
    {
      "anonymous": false,
      "inputs": [
        {
          "indexed": true,
          "internalType": "address",
          "name": "previousOwner",
          "type": "address"
        },
        {
          "indexed": true,
          "internalType": "address",
          "name": "newOwner",
          "type": "address"
        }
      ],
      "name": "OwnershipTransferred",
      "type": "event"
    },
    {
      "inputs": [],
      "name": "DEPTH",
      "outputs": [
        {
          "internalType": "uint256",
          "name": "",
          "type": "uint256"
        }
      ],
      "stateMutability": "view",
      "type": "function"
    },
    {
      "inputs": [],
      "name": "MEMBERSHIP_DEPOSIT",
      "outputs": [
        {
          "internalType": "uint256",
          "name": "",
          "type": "uint256"
        }
      ],
      "stateMutability": "view",
      "type": "function"
    },
    {
      "inputs": [],
      "name": "SET_SIZE",
      "outputs": [
        {
          "internalType": "uint256",
          "name": "",
          "type": "uint256"
        }
      ],
      "stateMutability": "view",
      "type": "function"
    },
    {
      "inputs": [],
      "name": "contractIndex",
      "outputs": [
        {
          "internalType": "uint16",
          "name": "",
          "type": "uint16"
        }
      ],
      "stateMutability": "view",
      "type": "function"
    },
    {
      "inputs": [],
      "name": "deployedBlockNumber",
      "outputs": [
        {
          "internalType": "uint32",
          "name": "",
          "type": "uint32"
        }
      ],
      "stateMutability": "view",
      "type": "function"
    },
    {
      "inputs": [],
      "name": "idCommitmentIndex",
      "outputs": [
        {
          "internalType": "uint256",
          "name": "",
          "type": "uint256"
        }
      ],
      "stateMutability": "view",
      "type": "function"
    },
    {
      "inputs": [
        {
          "internalType": "uint256",
          "name": "idCommitment",
          "type": "uint256"
        }
      ],
      "name": "isValidCommitment",
      "outputs": [
        {
          "internalType": "bool",
          "name": "",
          "type": "bool"
        }
      ],
      "stateMutability": "view",
      "type": "function"
    },
    {
      "inputs": [
        {
          "internalType": "uint256",
          "name": "",
          "type": "uint256"
        }
      ],
      "name": "memberExists",
      "outputs": [
        {
          "internalType": "bool",
          "name": "",
          "type": "bool"
        }
      ],
      "stateMutability": "view",
      "type": "function"
    },
    {
      "inputs": [
        {
          "internalType": "uint256",
          "name": "",
          "type": "uint256"
        }
      ],
      "name": "members",
      "outputs": [
        {
          "internalType": "uint256",
          "name": "",
          "type": "uint256"
        }
      ],
      "stateMutability": "view",
      "type": "function"
    },
    {
      "inputs": [],
      "name": "owner",
      "outputs": [
        {
          "internalType": "address",
          "name": "",
          "type": "address"
        }
      ],
      "stateMutability": "view",
      "type": "function"
    },
    {
      "inputs": [],
      "name": "poseidonHasher",
      "outputs": [
        {
          "internalType": "contract PoseidonHasher",
          "name": "",
          "type": "address"
        }
      ],
      "stateMutability": "view",
      "type": "function"
    },
    {
      "inputs": [
        {
          "internalType": "uint256[]",
          "name": "idCommitments",
          "type": "uint256[]"
        }
      ],
      "name": "register",
      "outputs": [],
      "stateMutability": "nonpayable",
      "type": "function"
    },
    {
      "inputs": [
        {
          "internalType": "uint256",
          "name": "idCommitment",
          "type": "uint256"
        }
      ],
      "name": "register",
      "outputs": [],
      "stateMutability": "payable",
      "type": "function"
    },
    {
      "inputs": [],
      "name": "renounceOwnership",
      "outputs": [],
      "stateMutability": "nonpayable",
      "type": "function"
    },
    {
      "inputs": [
        {
          "internalType": "uint256",
          "name": "idCommitment",
          "type": "uint256"
        },
        {
          "internalType": "address payable",
          "name": "receiver",
          "type": "address"
        },
        {
          "internalType": "uint256[8]",
          "name": "proof",
          "type": "uint256[8]"
        }
      ],
      "name": "slash",
      "outputs": [],
      "stateMutability": "pure",
      "type": "function"
    },
    {
      "inputs": [
        {
          "internalType": "uint256",
          "name": "",
          "type": "uint256"
        }
      ],
      "name": "stakedAmounts",
      "outputs": [
        {
          "internalType": "uint256",
          "name": "",
          "type": "uint256"
        }
      ],
      "stateMutability": "view",
      "type": "function"
    },
    {
      "inputs": [
        {
          "internalType": "address",
          "name": "newOwner",
          "type": "address"
        }
      ],
      "name": "transferOwnership",
      "outputs": [],
      "stateMutability": "nonpayable",
      "type": "function"
    },
    {
      "inputs": [],
      "name": "verifier",
      "outputs": [
        {
          "internalType": "contract IVerifier",
          "name": "",
          "type": "address"
        }
      ],
      "stateMutability": "view",
      "type": "function"
    },
    {
      "inputs": [],
      "name": "withdraw",
      "outputs": [],
      "stateMutability": "pure",
      "type": "function"
    },
    {
      "inputs": [
        {
          "internalType": "address",
          "name": "",
          "type": "address"
        }
      ],
      "name": "withdrawalBalance",
      "outputs": [
        {
          "internalType": "uint256",
          "name": "",
          "type": "uint256"
        }
      ],
      "stateMutability": "view",
      "type": "function"
    }
  ],
  "transactionHash": "0x269ccfb3fcbcce27ad9a59f834007b27b73586fff66b3428cf83876e95b3e05b",
  "args": [
    "0x6b81Eaf30b0C16A9842458A3131fBa78745907A8",
    0
  ],
  "numDeployments": 1,
  "bytecode": "0x61016060405260006001553480156200001757600080fd5b50604051620014fa380380620014fa83398181016040528101906200003d919062000290565b6000601483600062000064620000586200011b60201b60201c565b6200012360201b60201c565b83608081815250508260a08181525050826001901b60c081815250508173ffffffffffffffffffffffffffffffffffffffff1660e08173ffffffffffffffffffffffffffffffffffffffff16815250508073ffffffffffffffffffffffffffffffffffffffff166101008173ffffffffffffffffffffffffffffffffffffffff16815250504363ffffffff166101208163ffffffff1681525050505050508061ffff166101408161ffff16815250505050620002d7565b600033905090565b60008060009054906101000a900473ffffffffffffffffffffffffffffffffffffffff169050816000806101000a81548173ffffffffffffffffffffffffffffffffffffffff021916908373ffffffffffffffffffffffffffffffffffffffff1602179055508173ffffffffffffffffffffffffffffffffffffffff168173ffffffffffffffffffffffffffffffffffffffff167f8be0079c531659141344cd1fd0a4f28419497f9722a3daafe3b4186f6b6457e060405160405180910390a35050565b600080fd5b600073ffffffffffffffffffffffffffffffffffffffff82169050919050565b60006200021982620001ec565b9050919050565b6200022b816200020c565b81146200023757600080fd5b50565b6000815190506200024b8162000220565b92915050565b600061ffff82169050919050565b6200026a8162000251565b81146200027657600080fd5b50565b6000815190506200028a816200025f565b92915050565b60008060408385031215620002aa57620002a9620001e7565b5b6000620002ba858286016200023a565b9250506020620002cd8582860162000279565b9150509250929050565b60805160a05160c05160e0516101005161012051610140516111ba620003406000396000610545015260006105e3015260006105690152600081816104ac015261058d0152600081816107560152610aea015260006106fc015260006107ac01526111ba6000f3fe60806040526004361061011f5760003560e01c80638be9b119116100a0578063c5b208ff11610064578063c5b208ff146103c5578063d0383d6814610402578063f207564e1461042d578063f220b9ec14610449578063f2fde38b146104745761011f565b80638be9b119146102de5780638da5cb5b1461030757806398366e3514610332578063ae74552a1461035d578063bc499128146103885761011f565b80634add651e116100e75780634add651e146101f95780635daf08ca146102245780636bdcc8ab14610261578063715018a61461029e5780637a34289d146102b55761011f565b806322d9730c1461012457806328b070e0146101615780632b7ac3f31461018c578063331b6ab3146101b75780633ccfd60b146101e2575b600080fd5b34801561013057600080fd5b5061014b60048036038101906101469190610b86565b61049d565b6040516101589190610bce565b60405180910390f35b34801561016d57600080fd5b50610176610543565b6040516101839190610c06565b60405180910390f35b34801561019857600080fd5b506101a1610567565b6040516101ae9190610ca0565b60405180910390f35b3480156101c357600080fd5b506101cc61058b565b6040516101d99190610cdc565b60405180910390f35b3480156101ee57600080fd5b506101f76105af565b005b34801561020557600080fd5b5061020e6105e1565b60405161021b9190610d16565b60405180910390f35b34801561023057600080fd5b5061024b60048036038101906102469190610b86565b610605565b6040516102589190610d40565b60405180910390f35b34801561026d57600080fd5b5061028860048036038101906102839190610b86565b61061d565b6040516102959190610bce565b60405180910390f35b3480156102aa57600080fd5b506102b361063d565b005b3480156102c157600080fd5b506102dc60048036038101906102d79190610dc0565b610651565b005b3480156102ea57600080fd5b5061030560048036038101906103009190610e6d565b61069f565b005b34801561031357600080fd5b5061031c6106d1565b6040516103299190610ee2565b60405180910390f35b34801561033e57600080fd5b506103476106fa565b6040516103549190610d40565b60405180910390f35b34801561036957600080fd5b5061037261071e565b60405161037f9190610d40565b60405180910390f35b34801561039457600080fd5b506103af60048036038101906103aa9190610b86565b610724565b6040516103bc9190610d40565b60405180910390f35b3480156103d157600080fd5b506103ec60048036038101906103e79190610f29565b61073c565b6040516103f99190610d40565b60405180910390f35b34801561040e57600080fd5b50610417610754565b6040516104249190610d40565b60405180910390f35b61044760048036038101906104429190610b86565b610778565b005b34801561045557600080fd5b5061045e6107aa565b60405161046b9190610d40565b60405180910390f35b34801561048057600080fd5b5061049b60048036038101906104969190610f29565b6107ce565b005b600080821415801561053c57507f000000000000000000000000000000000000000000000000000000000000000073ffffffffffffffffffffffffffffffffffffffff1663e493ef8c6040518163ffffffff1660e01b8152600401602060405180830381865afa158015610515573d6000803e3d6000fd5b505050506040513d601f19601f820116820180604052508101906105399190610f6b565b82105b9050919050565b7f000000000000000000000000000000000000000000000000000000000000000081565b7f000000000000000000000000000000000000000000000000000000000000000081565b7f000000000000000000000000000000000000000000000000000000000000000081565b6040517fd623472500000000000000000000000000000000000000000000000000000000815260040160405180910390fd5b7f000000000000000000000000000000000000000000000000000000000000000081565b60036020528060005260406000206000915090505481565b60046020528060005260406000206000915054906101000a900460ff1681565b610645610851565b61064f60006108cf565b565b610659610851565b600082829050905060005b818110156106995761068e84848381811061068257610681610f98565b5b90506020020135610993565b806001019050610664565b50505050565b6040517fd623472500000000000000000000000000000000000000000000000000000000815260040160405180910390fd5b60008060009054906101000a900473ffffffffffffffffffffffffffffffffffffffff16905090565b7f000000000000000000000000000000000000000000000000000000000000000081565b60015481565b60026020528060005260406000206000915090505481565b60056020528060005260406000206000915090505481565b7f000000000000000000000000000000000000000000000000000000000000000081565b6040517fd623472500000000000000000000000000000000000000000000000000000000815260040160405180910390fd5b7f000000000000000000000000000000000000000000000000000000000000000081565b6107d6610851565b600073ffffffffffffffffffffffffffffffffffffffff168173ffffffffffffffffffffffffffffffffffffffff1603610845576040517f08c379a000000000000000000000000000000000000000000000000000000000815260040161083c9061104a565b60405180910390fd5b61084e816108cf565b50565b610859610a39565b73ffffffffffffffffffffffffffffffffffffffff166108776106d1565b73ffffffffffffffffffffffffffffffffffffffff16146108cd576040517f08c379a00000000000000000000000000000000000000000000000000000000081526004016108c4906110b6565b60405180910390fd5b565b60008060009054906101000a900473ffffffffffffffffffffffffffffffffffffffff169050816000806101000a81548173ffffffffffffffffffffffffffffffffffffffff021916908373ffffffffffffffffffffffffffffffffffffffff1602179055508173ffffffffffffffffffffffffffffffffffffffff168173ffffffffffffffffffffffffffffffffffffffff167f8be0079c531659141344cd1fd0a4f28419497f9722a3daafe3b4186f6b6457e060405160405180910390a35050565b61099c81610a41565b600154600360008381526020019081526020016000208190555060016004600083815260200190815260200160002060006101000a81548160ff0219169083151502179055507f5a92c2530f207992057b9c3e544108ffce3beda4a63719f316967c49bf6159d281600154604051610a159291906110d6565b60405180910390a16001806000828254610a2f919061112e565b9250508190555050565b600033905090565b610a4a8161049d565b610a8b57806040517f7f3e75af000000000000000000000000000000000000000000000000000000008152600401610a829190610d40565b60405180910390fd5b600115156004600083815260200190815260200160002060009054906101000a900460ff16151503610ae8576040517e0a60f700000000000000000000000000000000000000000000000000000000815260040160405180910390fd5b7f000000000000000000000000000000000000000000000000000000000000000060015410610b43576040517f57f6953100000000000000000000000000000000000000000000000000000000815260040160405180910390fd5b50565b600080fd5b600080fd5b6000819050919050565b610b6381610b50565b8114610b6e57600080fd5b50565b600081359050610b8081610b5a565b92915050565b600060208284031215610b9c57610b9b610b46565b5b6000610baa84828501610b71565b91505092915050565b60008115159050919050565b610bc881610bb3565b82525050565b6000602082019050610be36000830184610bbf565b92915050565b600061ffff82169050919050565b610c0081610be9565b82525050565b6000602082019050610c1b6000830184610bf7565b92915050565b600073ffffffffffffffffffffffffffffffffffffffff82169050919050565b6000819050919050565b6000610c66610c61610c5c84610c21565b610c41565b610c21565b9050919050565b6000610c7882610c4b565b9050919050565b6000610c8a82610c6d565b9050919050565b610c9a81610c7f565b82525050565b6000602082019050610cb56000830184610c91565b92915050565b6000610cc682610c6d565b9050919050565b610cd681610cbb565b82525050565b6000602082019050610cf16000830184610ccd565b92915050565b600063ffffffff82169050919050565b610d1081610cf7565b82525050565b6000602082019050610d2b6000830184610d07565b92915050565b610d3a81610b50565b82525050565b6000602082019050610d556000830184610d31565b92915050565b600080fd5b600080fd5b600080fd5b60008083601f840112610d8057610d7f610d5b565b5b8235905067ffffffffffffffff811115610d9d57610d9c610d60565b5b602083019150836020820283011115610db957610db8610d65565b5b9250929050565b60008060208385031215610dd757610dd6610b46565b5b600083013567ffffffffffffffff811115610df557610df4610b4b565b5b610e0185828601610d6a565b92509250509250929050565b6000610e1882610c21565b9050919050565b610e2881610e0d565b8114610e3357600080fd5b50565b600081359050610e4581610e1f565b92915050565b600081905082602060080282011115610e6757610e66610d65565b5b92915050565b60008060006101408486031215610e8757610e86610b46565b5b6000610e9586828701610b71565b9350506020610ea686828701610e36565b9250506040610eb786828701610e4b565b9150509250925092565b6000610ecc82610c21565b9050919050565b610edc81610ec1565b82525050565b6000602082019050610ef76000830184610ed3565b92915050565b610f0681610ec1565b8114610f1157600080fd5b50565b600081359050610f2381610efd565b92915050565b600060208284031215610f3f57610f3e610b46565b5b6000610f4d84828501610f14565b91505092915050565b600081519050610f6581610b5a565b92915050565b600060208284031215610f8157610f80610b46565b5b6000610f8f84828501610f56565b91505092915050565b7f4e487b7100000000000000000000000000000000000000000000000000000000600052603260045260246000fd5b600082825260208201905092915050565b7f4f776e61626c653a206e6577206f776e657220697320746865207a65726f206160008201527f6464726573730000000000000000000000000000000000000000000000000000602082015250565b6000611034602683610fc7565b915061103f82610fd8565b604082019050919050565b6000602082019050818103600083015261106381611027565b9050919050565b7f4f776e61626c653a2063616c6c6572206973206e6f7420746865206f776e6572600082015250565b60006110a0602083610fc7565b91506110ab8261106a565b602082019050919050565b600060208201905081810360008301526110cf81611093565b9050919050565b60006040820190506110eb6000830185610d31565b6110f86020830184610d31565b9392505050565b7f4e487b7100000000000000000000000000000000000000000000000000000000600052601160045260246000fd5b600061113982610b50565b915061114483610b50565b9250827fffffffffffffffffffffffffffffffffffffffffffffffffffffffffffffffff03821115611179576111786110ff565b5b82820190509291505056fea264697066735822122080702afa180498dc14ee9cd29cf35aa3eed2f3db78ee1fdb9b4ebf005387d01b64736f6c634300080f0033",
  "devdoc": {
    "kind": "dev",
    "methods": {
      "owner()": {
        "details": "Returns the address of the current owner."
      },
      "register(uint256)": {
        "params": {
          "idCommitment": "The idCommitment of the member"
        }
      },
      "renounceOwnership()": {
        "details": "Leaves the contract without owner. It will not be possible to call `onlyOwner` functions. Can only be called by the current owner. NOTE: Renouncing ownership will leave the contract without an owner, thereby disabling any functionality that is only available to the owner."
      },
      "slash(uint256,address,uint256[8])": {
        "details": "Allows a user to slash a member",
        "params": {
          "idCommitment": "The idCommitment of the member"
        }
      },
      "transferOwnership(address)": {
        "details": "Transfers ownership of the contract to a new account (`newOwner`). Can only be called by the current owner."
      }
    },
    "version": 1
  }
}