{
  "address": "0x662Be55E75c829A03c52CDba4Ab7dAde4e1be8a9",
  "abi": [
    {
      "inputs": [
        {
          "internalType": "address",
          "name": "_poseidonHasher",
          "type": "address"
        },
        {
          "internalType": "uint16",
          "name": "_contractIndex",
          "type": "uint16"
        }
      ],
      "stateMutability": "nonpayable",
      "type": "constructor"
    },
    {
      "inputs": [],
      "name": "DuplicateIdCommitment",
      "type": "error"
    },
    {
      "inputs": [],
      "name": "NotImplemented",
      "type": "error"
    },
    {
      "anonymous": false,
      "inputs": [
        {
          "indexed": false,
          "internalType": "uint256",
          "name": "idCommitment",
          "type": "uint256"
        },
        {
          "indexed": false,
          "internalType": "uint256",
          "name": "index",
          "type": "uint256"
        }
      ],
      "name": "MemberRegistered",
      "type": "event"
    },
    {
      "anonymous": false,
      "inputs": [
        {
          "indexed": false,
          "internalType": "uint256",
          "name": "idCommitment",
          "type": "uint256"
        },
        {
          "indexed": false,
          "internalType": "uint256",
          "name": "index",
          "type": "uint256"
        }
      ],
      "name": "MemberWithdrawn",
      "type": "event"
    },
    {
      "anonymous": false,
      "inputs": [
        {
          "indexed": true,
          "internalType": "address",
          "name": "previousOwner",
          "type": "address"
        },
        {
          "indexed": true,
          "internalType": "address",
          "name": "newOwner",
          "type": "address"
        }
      ],
      "name": "OwnershipTransferred",
      "type": "event"
    },
    {
      "inputs": [],
      "name": "DEPTH",
      "outputs": [
        {
          "internalType": "uint256",
          "name": "",
          "type": "uint256"
        }
      ],
      "stateMutability": "view",
      "type": "function"
    },
    {
      "inputs": [],
      "name": "MEMBERSHIP_DEPOSIT",
      "outputs": [
        {
          "internalType": "uint256",
          "name": "",
          "type": "uint256"
        }
      ],
      "stateMutability": "view",
      "type": "function"
    },
    {
      "inputs": [],
      "name": "SET_SIZE",
      "outputs": [
        {
          "internalType": "uint256",
          "name": "",
          "type": "uint256"
        }
      ],
      "stateMutability": "view",
      "type": "function"
    },
    {
      "inputs": [],
      "name": "contractIndex",
      "outputs": [
        {
          "internalType": "uint16",
          "name": "",
          "type": "uint16"
        }
      ],
      "stateMutability": "view",
      "type": "function"
    },
    {
      "inputs": [],
      "name": "idCommitmentIndex",
      "outputs": [
        {
          "internalType": "uint256",
          "name": "",
          "type": "uint256"
        }
      ],
      "stateMutability": "view",
      "type": "function"
    },
    {
      "inputs": [
        {
          "internalType": "uint256",
          "name": "",
          "type": "uint256"
        }
      ],
      "name": "members",
      "outputs": [
        {
          "internalType": "uint256",
          "name": "",
          "type": "uint256"
        }
      ],
      "stateMutability": "view",
      "type": "function"
    },
    {
      "inputs": [],
      "name": "owner",
      "outputs": [
        {
          "internalType": "address",
          "name": "",
          "type": "address"
        }
      ],
      "stateMutability": "view",
      "type": "function"
    },
    {
      "inputs": [],
      "name": "poseidonHasher",
      "outputs": [
        {
          "internalType": "contract IPoseidonHasher",
          "name": "",
          "type": "address"
        }
      ],
      "stateMutability": "view",
      "type": "function"
    },
    {
      "inputs": [
        {
          "internalType": "uint256[]",
          "name": "idCommitments",
          "type": "uint256[]"
        }
      ],
      "name": "register",
      "outputs": [],
      "stateMutability": "nonpayable",
      "type": "function"
    },
    {
      "inputs": [
        {
          "internalType": "uint256",
          "name": "idCommitment",
          "type": "uint256"
        }
      ],
      "name": "register",
      "outputs": [],
      "stateMutability": "payable",
      "type": "function"
    },
    {
      "inputs": [],
      "name": "renounceOwnership",
      "outputs": [],
      "stateMutability": "nonpayable",
      "type": "function"
    },
    {
      "inputs": [
        {
          "internalType": "uint256",
          "name": "idCommitment",
          "type": "uint256"
        },
        {
          "internalType": "address payable",
          "name": "receiver",
          "type": "address"
        },
        {
          "internalType": "uint256[8]",
          "name": "proof",
          "type": "uint256[8]"
        }
      ],
      "name": "slash",
      "outputs": [],
      "stateMutability": "pure",
      "type": "function"
    },
    {
      "inputs": [
        {
          "internalType": "uint256",
          "name": "",
          "type": "uint256"
        }
      ],
      "name": "stakedAmounts",
      "outputs": [
        {
          "internalType": "uint256",
          "name": "",
          "type": "uint256"
        }
      ],
      "stateMutability": "view",
      "type": "function"
    },
    {
      "inputs": [
        {
          "internalType": "address",
          "name": "newOwner",
          "type": "address"
        }
      ],
      "name": "transferOwnership",
      "outputs": [],
      "stateMutability": "nonpayable",
      "type": "function"
    },
    {
      "inputs": [],
      "name": "verifier",
      "outputs": [
        {
          "internalType": "contract IVerifier",
          "name": "",
          "type": "address"
        }
      ],
      "stateMutability": "view",
      "type": "function"
    },
    {
      "inputs": [],
      "name": "withdraw",
      "outputs": [],
      "stateMutability": "pure",
      "type": "function"
    },
    {
      "inputs": [
        {
          "internalType": "address",
          "name": "",
          "type": "address"
        }
      ],
      "name": "withdrawalBalance",
      "outputs": [
        {
          "internalType": "uint256",
          "name": "",
          "type": "uint256"
        }
      ],
      "stateMutability": "view",
      "type": "function"
    }
  ],
  "transactionHash": "0xa45fa96233892df438b638ce9402b9028ab4670aed2a95260577749d40459c6c",
  "args": [
    "0xCF6ccD3691f67dfa0EdDeFED1B295139d0197609",
    1
  ],
  "numDeployments": 1,
  "bytecode": "0x610140604052600180553480156200001657600080fd5b506040516200127e3803806200127e83398181016040528101906200003c91906200027a565b6000601483600062000063620000576200010560201b60201c565b6200010d60201b60201c565b83608081815250508260a08181525050826001901b60c081815250508173ffffffffffffffffffffffffffffffffffffffff1660e08173ffffffffffffffffffffffffffffffffffffffff16815250508073ffffffffffffffffffffffffffffffffffffffff166101008173ffffffffffffffffffffffffffffffffffffffff1681525050505050508061ffff166101208161ffff16815250505050620002c1565b600033905090565b60008060009054906101000a900473ffffffffffffffffffffffffffffffffffffffff169050816000806101000a81548173ffffffffffffffffffffffffffffffffffffffff021916908373ffffffffffffffffffffffffffffffffffffffff1602179055508173ffffffffffffffffffffffffffffffffffffffff168173ffffffffffffffffffffffffffffffffffffffff167f8be0079c531659141344cd1fd0a4f28419497f9722a3daafe3b4186f6b6457e060405160405180910390a35050565b600080fd5b600073ffffffffffffffffffffffffffffffffffffffff82169050919050565b60006200020382620001d6565b9050919050565b6200021581620001f6565b81146200022157600080fd5b50565b60008151905062000235816200020a565b92915050565b600061ffff82169050919050565b62000254816200023b565b81146200026057600080fd5b50565b600081519050620002748162000249565b92915050565b60008060408385031215620002945762000293620001d1565b5b6000620002a48582860162000224565b9250506020620002b78582860162000263565b9150509250929050565b60805160a05160c05160e0516101005161012051610f6d6200031160003960006103d9015260006103fd01526000610421015260006105a40152600061054a015260006105fa0152610f6d6000f3fe6080604052600436106100fe5760003560e01c80638da5cb5b11610095578063c5b208ff11610064578063c5b208ff146102ff578063d0383d681461033c578063f207564e14610367578063f220b9ec14610383578063f2fde38b146103ae576100fe565b80638da5cb5b1461024157806398366e351461026c578063ae74552a14610297578063bc499128146102c2576100fe565b80635daf08ca116100d15780635daf08ca1461019b578063715018a6146101d85780637a34289d146101ef5780638be9b11914610218576100fe565b806328b070e0146101035780632b7ac3f31461012e578063331b6ab3146101595780633ccfd60b14610184575b600080fd5b34801561010f57600080fd5b506101186103d7565b60405161012591906108ce565b60405180910390f35b34801561013a57600080fd5b506101436103fb565b6040516101509190610968565b60405180910390f35b34801561016557600080fd5b5061016e61041f565b60405161017b91906109a4565b60405180910390f35b34801561019057600080fd5b50610199610443565b005b3480156101a757600080fd5b506101c260048036038101906101bd9190610a09565b610475565b6040516101cf9190610a45565b60405180910390f35b3480156101e457600080fd5b506101ed61048d565b005b3480156101fb57600080fd5b5061021660048036038101906102119190610bb9565b6104a1565b005b34801561022457600080fd5b5061023f600480360381019061023a9190610c62565b6104ed565b005b34801561024d57600080fd5b5061025661051f565b6040516102639190610cd7565b60405180910390f35b34801561027857600080fd5b50610281610548565b60405161028e9190610a45565b60405180910390f35b3480156102a357600080fd5b506102ac61056c565b6040516102b99190610a45565b60405180910390f35b3480156102ce57600080fd5b506102e960048036038101906102e49190610a09565b610572565b6040516102f69190610a45565b60405180910390f35b34801561030b57600080fd5b5061032660048036038101906103219190610d1e565b61058a565b6040516103339190610a45565b60405180910390f35b34801561034857600080fd5b506103516105a2565b60405161035e9190610a45565b60405180910390f35b610381600480360381019061037c9190610a09565b6105c6565b005b34801561038f57600080fd5b506103986105f8565b6040516103a59190610a45565b60405180910390f35b3480156103ba57600080fd5b506103d560048036038101906103d09190610d1e565b61061c565b005b7f000000000000000000000000000000000000000000000000000000000000000081565b7f000000000000000000000000000000000000000000000000000000000000000081565b7f000000000000000000000000000000000000000000000000000000000000000081565b6040517fd623472500000000000000000000000000000000000000000000000000000000815260040160405180910390fd5b60036020528060005260406000206000915090505481565b61049561069f565b61049f600061071d565b565b6104a961069f565b60008151905060005b818110156104e8576104dd8382815181106104d0576104cf610d4b565b5b60200260200101516107e1565b8060010190506104b2565b505050565b6040517fd623472500000000000000000000000000000000000000000000000000000000815260040160405180910390fd5b60008060009054906101000a900473ffffffffffffffffffffffffffffffffffffffff16905090565b7f000000000000000000000000000000000000000000000000000000000000000081565b60015481565b60026020528060005260406000206000915090505481565b60046020528060005260406000206000915090505481565b7f000000000000000000000000000000000000000000000000000000000000000081565b6040517fd623472500000000000000000000000000000000000000000000000000000000815260040160405180910390fd5b7f000000000000000000000000000000000000000000000000000000000000000081565b61062461069f565b600073ffffffffffffffffffffffffffffffffffffffff168173ffffffffffffffffffffffffffffffffffffffff1603610693576040517f08c379a000000000000000000000000000000000000000000000000000000000815260040161068a90610dfd565b60405180910390fd5b61069c8161071d565b50565b6106a761085a565b73ffffffffffffffffffffffffffffffffffffffff166106c561051f565b73ffffffffffffffffffffffffffffffffffffffff161461071b576040517f08c379a000000000000000000000000000000000000000000000000000000000815260040161071290610e69565b60405180910390fd5b565b60008060009054906101000a900473ffffffffffffffffffffffffffffffffffffffff169050816000806101000a81548173ffffffffffffffffffffffffffffffffffffffff021916908373ffffffffffffffffffffffffffffffffffffffff1602179055508173ffffffffffffffffffffffffffffffffffffffff168173ffffffffffffffffffffffffffffffffffffffff167f8be0079c531659141344cd1fd0a4f28419497f9722a3daafe3b4186f6b6457e060405160405180910390a35050565b6107ea81610862565b600160036000838152602001908152602001600020819055507f5a92c2530f207992057b9c3e544108ffce3beda4a63719f316967c49bf6159d281600154604051610836929190610e89565b60405180910390a160018060008282546108509190610ee1565b9250508190555050565b600033905090565b60006003600083815260200190815260200160002054146108ae576040517e0a60f700000000000000000000000000000000000000000000000000000000815260040160405180910390fd5b50565b600061ffff82169050919050565b6108c8816108b1565b82525050565b60006020820190506108e360008301846108bf565b92915050565b600073ffffffffffffffffffffffffffffffffffffffff82169050919050565b6000819050919050565b600061092e610929610924846108e9565b610909565b6108e9565b9050919050565b600061094082610913565b9050919050565b600061095282610935565b9050919050565b61096281610947565b82525050565b600060208201905061097d6000830184610959565b92915050565b600061098e82610935565b9050919050565b61099e81610983565b82525050565b60006020820190506109b96000830184610995565b92915050565b6000604051905090565b600080fd5b600080fd5b6000819050919050565b6109e6816109d3565b81146109f157600080fd5b50565b600081359050610a03816109dd565b92915050565b600060208284031215610a1f57610a1e6109c9565b5b6000610a2d848285016109f4565b91505092915050565b610a3f816109d3565b82525050565b6000602082019050610a5a6000830184610a36565b92915050565b600080fd5b6000601f19601f8301169050919050565b7f4e487b7100000000000000000000000000000000000000000000000000000000600052604160045260246000fd5b610aae82610a65565b810181811067ffffffffffffffff82111715610acd57610acc610a76565b5b80604052505050565b6000610ae06109bf565b9050610aec8282610aa5565b919050565b600067ffffffffffffffff821115610b0c57610b0b610a76565b5b602082029050602081019050919050565b600080fd5b6000610b35610b3084610af1565b610ad6565b90508083825260208201905060208402830185811115610b5857610b57610b1d565b5b835b81811015610b815780610b6d88826109f4565b845260208401935050602081019050610b5a565b5050509392505050565b600082601f830112610ba057610b9f610a60565b5b8135610bb0848260208601610b22565b91505092915050565b600060208284031215610bcf57610bce6109c9565b5b600082013567ffffffffffffffff811115610bed57610bec6109ce565b5b610bf984828501610b8b565b91505092915050565b6000610c0d826108e9565b9050919050565b610c1d81610c02565b8114610c2857600080fd5b50565b600081359050610c3a81610c14565b92915050565b600081905082602060080282011115610c5c57610c5b610b1d565b5b92915050565b60008060006101408486031215610c7c57610c7b6109c9565b5b6000610c8a868287016109f4565b9350506020610c9b86828701610c2b565b9250506040610cac86828701610c40565b9150509250925092565b6000610cc1826108e9565b9050919050565b610cd181610cb6565b82525050565b6000602082019050610cec6000830184610cc8565b92915050565b610cfb81610cb6565b8114610d0657600080fd5b50565b600081359050610d1881610cf2565b92915050565b600060208284031215610d3457610d336109c9565b5b6000610d4284828501610d09565b91505092915050565b7f4e487b7100000000000000000000000000000000000000000000000000000000600052603260045260246000fd5b600082825260208201905092915050565b7f4f776e61626c653a206e6577206f776e657220697320746865207a65726f206160008201527f6464726573730000000000000000000000000000000000000000000000000000602082015250565b6000610de7602683610d7a565b9150610df282610d8b565b604082019050919050565b60006020820190508181036000830152610e1681610dda565b9050919050565b7f4f776e61626c653a2063616c6c6572206973206e6f7420746865206f776e6572600082015250565b6000610e53602083610d7a565b9150610e5e82610e1d565b602082019050919050565b60006020820190508181036000830152610e8281610e46565b9050919050565b6000604082019050610e9e6000830185610a36565b610eab6020830184610a36565b9392505050565b7f4e487b7100000000000000000000000000000000000000000000000000000000600052601160045260246000fd5b6000610eec826109d3565b9150610ef7836109d3565b9250827fffffffffffffffffffffffffffffffffffffffffffffffffffffffffffffffff03821115610f2c57610f2b610eb2565b5b82820190509291505056fea2646970667358221220da67ff31fb04406d288565daf496c41920eb7b2fc65318a1f86281ac336152ab64736f6c634300080f0033",
  "devdoc": {
    "kind": "dev",
    "methods": {
      "owner()": {
        "details": "Returns the address of the current owner."
      },
      "register(uint256)": {
        "params": {
          "idCommitment": "The idCommitment of the member"
        }
      },
      "renounceOwnership()": {
        "details": "Leaves the contract without owner. It will not be possible to call `onlyOwner` functions. Can only be called by the current owner. NOTE: Renouncing ownership will leave the contract without an owner, thereby disabling any functionality that is only available to the owner."
      },
      "slash(uint256,address,uint256[8])": {
        "details": "Allows a user to slash a member",
        "params": {
          "idCommitment": "The idCommitment of the member"
        }
      },
      "transferOwnership(address)": {
        "details": "Transfers ownership of the contract to a new account (`newOwner`). Can only be called by the current owner."
      }
    },
    "version": 1
  }
}