{
  "address": "0xF1935b338321013f11068abCafC548A7B0db732C",
  "abi": [
    {
      "inputs": [],
      "name": "IncompatibleStorage",
      "type": "error"
    },
    {
      "inputs": [],
      "name": "IncompatibleStorageIndex",
      "type": "error"
    },
    {
      "inputs": [],
      "name": "NoStorageContractAvailable",
      "type": "error"
    },
    {
      "inputs": [
        {
          "internalType": "address",
          "name": "storageAddress",
          "type": "address"
        }
      ],
      "name": "StorageAlreadyExists",
      "type": "error"
    },
    {
      "anonymous": false,
      "inputs": [
        {
          "indexed": false,
          "internalType": "address",
          "name": "previousAdmin",
          "type": "address"
        },
        {
          "indexed": false,
          "internalType": "address",
          "name": "newAdmin",
          "type": "address"
        }
      ],
      "name": "AdminChanged",
      "type": "event"
    },
    {
      "anonymous": false,
      "inputs": [
        {
          "indexed": true,
          "internalType": "address",
          "name": "beacon",
          "type": "address"
        }
      ],
      "name": "BeaconUpgraded",
      "type": "event"
    },
    {
      "anonymous": false,
      "inputs": [
        {
          "indexed": false,
          "internalType": "uint8",
          "name": "version",
          "type": "uint8"
        }
      ],
      "name": "Initialized",
      "type": "event"
    },
    {
      "anonymous": false,
      "inputs": [
        {
          "indexed": false,
          "internalType": "uint16",
          "name": "index",
          "type": "uint16"
        },
        {
          "indexed": false,
          "internalType": "address",
          "name": "storageAddress",
          "type": "address"
        }
      ],
      "name": "NewStorageContract",
      "type": "event"
    },
    {
      "anonymous": false,
      "inputs": [
        {
          "indexed": true,
          "internalType": "address",
          "name": "previousOwner",
          "type": "address"
        },
        {
          "indexed": true,
          "internalType": "address",
          "name": "newOwner",
          "type": "address"
        }
      ],
      "name": "OwnershipTransferred",
      "type": "event"
    },
    {
      "anonymous": false,
      "inputs": [
        {
          "indexed": true,
          "internalType": "address",
          "name": "implementation",
          "type": "address"
        }
      ],
      "name": "Upgraded",
      "type": "event"
    },
    {
      "inputs": [],
      "name": "forceProgress",
      "outputs": [],
      "stateMutability": "nonpayable",
      "type": "function"
    },
    {
      "inputs": [
        {
          "internalType": "address",
          "name": "_poseidonHasher",
          "type": "address"
        }
      ],
      "name": "initialize",
      "outputs": [],
      "stateMutability": "nonpayable",
      "type": "function"
    },
    {
      "inputs": [],
      "name": "newStorage",
      "outputs": [],
      "stateMutability": "nonpayable",
      "type": "function"
    },
    {
      "inputs": [],
      "name": "nextStorageIndex",
      "outputs": [
        {
          "internalType": "uint16",
          "name": "",
          "type": "uint16"
        }
      ],
      "stateMutability": "view",
      "type": "function"
    },
    {
      "inputs": [],
      "name": "owner",
      "outputs": [
        {
          "internalType": "address",
          "name": "",
          "type": "address"
        }
      ],
      "stateMutability": "view",
      "type": "function"
    },
    {
      "inputs": [],
      "name": "poseidonHasher",
      "outputs": [
        {
          "internalType": "contract IPoseidonHasher",
          "name": "",
          "type": "address"
        }
      ],
      "stateMutability": "view",
      "type": "function"
    },
    {
      "inputs": [],
      "name": "proxiableUUID",
      "outputs": [
        {
          "internalType": "bytes32",
          "name": "",
          "type": "bytes32"
        }
      ],
      "stateMutability": "view",
      "type": "function"
    },
    {
      "inputs": [
        {
          "internalType": "uint16",
          "name": "storageIndex",
          "type": "uint16"
        },
        {
          "internalType": "uint256",
          "name": "commitment",
          "type": "uint256"
        }
      ],
      "name": "register",
      "outputs": [],
      "stateMutability": "nonpayable",
      "type": "function"
    },
    {
      "inputs": [
        {
          "internalType": "uint256[]",
          "name": "commitments",
          "type": "uint256[]"
        }
      ],
      "name": "register",
      "outputs": [],
      "stateMutability": "nonpayable",
      "type": "function"
    },
    {
      "inputs": [
        {
          "internalType": "uint16",
          "name": "storageIndex",
          "type": "uint16"
        },
        {
          "internalType": "uint256[]",
          "name": "commitments",
          "type": "uint256[]"
        }
      ],
      "name": "register",
      "outputs": [],
      "stateMutability": "nonpayable",
      "type": "function"
    },
    {
      "inputs": [
        {
          "internalType": "address",
          "name": "storageAddress",
          "type": "address"
        }
      ],
      "name": "registerStorage",
      "outputs": [],
      "stateMutability": "nonpayable",
      "type": "function"
    },
    {
      "inputs": [],
      "name": "renounceOwnership",
      "outputs": [],
      "stateMutability": "nonpayable",
      "type": "function"
    },
    {
      "inputs": [
        {
          "internalType": "uint16",
          "name": "",
          "type": "uint16"
        }
      ],
      "name": "storages",
      "outputs": [
        {
          "internalType": "address",
          "name": "",
          "type": "address"
        }
      ],
      "stateMutability": "view",
      "type": "function"
    },
    {
      "inputs": [
        {
          "internalType": "address",
          "name": "newOwner",
          "type": "address"
        }
      ],
      "name": "transferOwnership",
      "outputs": [],
      "stateMutability": "nonpayable",
      "type": "function"
    },
    {
      "inputs": [
        {
          "internalType": "address",
          "name": "newImplementation",
          "type": "address"
        }
      ],
      "name": "upgradeTo",
      "outputs": [],
      "stateMutability": "nonpayable",
      "type": "function"
    },
    {
      "inputs": [
        {
          "internalType": "address",
          "name": "newImplementation",
          "type": "address"
        },
        {
          "internalType": "bytes",
          "name": "data",
          "type": "bytes"
        }
      ],
      "name": "upgradeToAndCall",
      "outputs": [],
      "stateMutability": "payable",
      "type": "function"
    },
    {
      "inputs": [],
      "name": "usingStorageIndex",
      "outputs": [
        {
          "internalType": "uint16",
          "name": "",
          "type": "uint16"
        }
      ],
      "stateMutability": "view",
      "type": "function"
    }
  ],
  "transactionHash": "0x74bfb47c0285a26086c83fc9499b3b01699255fb8587fbc097392d3ed4cff4ad",
  "args": [],
  "numDeployments": 1,
  "solcInputHash": "af6ae18fee47307c5147e290ec4c7cfb",
  "bytecode": "0x60a06040523073ffffffffffffffffffffffffffffffffffffffff1660809073ffffffffffffffffffffffffffffffffffffffff168152506000606760006101000a81548161ffff021916908361ffff16021790555034801561006157600080fd5b506080516142c36100996000396000818161059e0152818161062f015281816107bf01528181610850015261090901526142c36000f3fe608060405260043610620001165760003560e01c80638da5cb5b11620000a3578063d44fda1f116200006d578063d44fda1f1462000315578063ef653d5e146200032f578063f184ef4c146200035d578063f2fde38b146200038d578063f554214714620003bb5762000116565b80638da5cb5b1462000259578063ab02492a1462000289578063c4d66de814620002b7578063cf61637414620002e55762000116565b80634f1ef28611620000e55780634f1ef28614620001c157806352d1902d14620001e1578063715018a614620002115780637a34289d146200022b5762000116565b806326e0fc1f146200011b578063331b6ab314620001495780633659cfe6146200017957806342f542e214620001a7575b600080fd5b3480156200012857600080fd5b5062000147600480360381019062000141919062001cf0565b620003ff565b005b3480156200015657600080fd5b506200016162000576565b60405162000170919062001dc2565b60405180910390f35b3480156200018657600080fd5b50620001a560048036038101906200019f919062001e24565b6200059c565b005b348015620001b457600080fd5b50620001bf62000734565b005b620001df6004803603810190620001d9919062001fb8565b620007bd565b005b348015620001ee57600080fd5b50620001f962000905565b60405162000208919062002039565b60405180910390f35b3480156200021e57600080fd5b5062000229620009c1565b005b3480156200023857600080fd5b50620002576004803603810190620002519190620020bf565b620009d9565b005b3480156200026657600080fd5b506200027162000c95565b60405162000280919062002125565b60405180910390f35b3480156200029657600080fd5b50620002b56004803603810190620002af919062002142565b62000cbf565b005b348015620002c457600080fd5b50620002e36004803603810190620002dd919062001e24565b62000dc2565b005b348015620002f257600080fd5b50620002fd62000f50565b6040516200030c9190620021bd565b60405180910390f35b3480156200032257600080fd5b506200032d62000f64565b005b3480156200033c57600080fd5b506200035b600480360381019062000355919062001e24565b620010ce565b005b3480156200036a57600080fd5b506200037562001366565b604051620003849190620021bd565b60405180910390f35b3480156200039a57600080fd5b50620003b96004803603810190620003b3919062001e24565b6200137a565b005b348015620003c857600080fd5b50620003e76004803603810190620003e19190620021da565b62001404565b604051620003f6919062002125565b60405180910390f35b606560009054906101000a900461ffff1661ffff168261ffff161062000451576040517fd23276a200000000000000000000000000000000000000000000000000000000815260040160405180910390fd5b6000600167ffffffffffffffff81111562000471576200047062001e71565b5b604051908082528060200260200182016040528015620004a05781602001602082028036833780820191505090505b5090508181600081518110620004bb57620004ba6200220c565b5b602002602001018181525050606660008461ffff1661ffff16815260200190815260200160002060009054906101000a900473ffffffffffffffffffffffffffffffffffffffff1673ffffffffffffffffffffffffffffffffffffffff16637a34289d826040518263ffffffff1660e01b81526004016200053d919062002309565b600060405180830381600087803b1580156200055857600080fd5b505af11580156200056d573d6000803e3d6000fd5b50505050505050565b606760029054906101000a900473ffffffffffffffffffffffffffffffffffffffff1681565b7f000000000000000000000000000000000000000000000000000000000000000073ffffffffffffffffffffffffffffffffffffffff163073ffffffffffffffffffffffffffffffffffffffff16036200062d576040517f08c379a00000000000000000000000000000000000000000000000000000000081526004016200062490620023b4565b60405180910390fd5b7f000000000000000000000000000000000000000000000000000000000000000073ffffffffffffffffffffffffffffffffffffffff166200066e62001437565b73ffffffffffffffffffffffffffffffffffffffff1614620006c7576040517f08c379a0000000000000000000000000000000000000000000000000000000008152600401620006be906200244c565b60405180910390fd5b620006d28162001490565b6200073181600067ffffffffffffffff811115620006f557620006f462001e71565b5b6040519080825280601f01601f191660200182016040528015620007285781602001600182028036833780820191505090505b5060006200149d565b50565b6200073e6200161c565b6000606760029054906101000a900473ffffffffffffffffffffffffffffffffffffffff16606560009054906101000a900461ffff16604051620007829062001c54565b6200078f9291906200246e565b604051809103906000f080158015620007ac573d6000803e3d6000fd5b509050620007ba81620016a1565b50565b7f000000000000000000000000000000000000000000000000000000000000000073ffffffffffffffffffffffffffffffffffffffff163073ffffffffffffffffffffffffffffffffffffffff16036200084e576040517f08c379a00000000000000000000000000000000000000000000000000000000081526004016200084590620023b4565b60405180910390fd5b7f000000000000000000000000000000000000000000000000000000000000000073ffffffffffffffffffffffffffffffffffffffff166200088f62001437565b73ffffffffffffffffffffffffffffffffffffffff1614620008e8576040517f08c379a0000000000000000000000000000000000000000000000000000000008152600401620008df906200244c565b60405180910390fd5b620008f38262001490565b62000901828260016200149d565b5050565b60007f000000000000000000000000000000000000000000000000000000000000000073ffffffffffffffffffffffffffffffffffffffff163073ffffffffffffffffffffffffffffffffffffffff161462000998576040517f08c379a00000000000000000000000000000000000000000000000000000000081526004016200098f9062002511565b60405180910390fd5b7f360894a13ba1a3210667c828492db98dca3e2076cc3735a920a3ca505d382bbc60001b905090565b620009cb6200161c565b620009d7600062001795565b565b606560009054906101000a900461ffff1661ffff16606760009054906101000a900461ffff1661ffff161062000a3b576040517fd23276a200000000000000000000000000000000000000000000000000000000815260040160405180910390fd5b5b60011562000c915760666000606760009054906101000a900461ffff1661ffff1661ffff16815260200190815260200160002060009054906101000a900473ffffffffffffffffffffffffffffffffffffffff1673ffffffffffffffffffffffffffffffffffffffff16637a34289d83836040518363ffffffff1660e01b815260040162000acc9291906200259b565b600060405180830381600087803b15801562000ae757600080fd5b505af192505050801562000af9575060015b62000c85573d806000811462000b2c576040519150601f19603f3d011682016040523d82523d6000602084013e62000b31565b606091505b506040516024016040516020818303038152906040527f57f69531000000000000000000000000000000000000000000000000000000007bffffffffffffffffffffffffffffffffffffffffffffffffffffffff19166020820180517bffffffffffffffffffffffffffffffffffffffffffffffffffffffff83818316178352505050508051906020012081805190602001201462000bd257805181602001fd5b606560009054906101000a900461ffff1661ffff166001606760009054906101000a900461ffff1662000c069190620025f0565b61ffff161062000c42576040517fd23276a200000000000000000000000000000000000000000000000000000000815260040160405180910390fd5b6001606760008282829054906101000a900461ffff1662000c649190620025f0565b92506101000a81548161ffff021916908361ffff1602179055505062000c8b565b62000c91565b62000a3c565b5050565b6000603360009054906101000a900473ffffffffffffffffffffffffffffffffffffffff16905090565b606560009054906101000a900461ffff1661ffff168361ffff161062000d11576040517fd23276a200000000000000000000000000000000000000000000000000000000815260040160405180910390fd5b606660008461ffff1661ffff16815260200190815260200160002060009054906101000a900473ffffffffffffffffffffffffffffffffffffffff1673ffffffffffffffffffffffffffffffffffffffff16637a34289d83836040518363ffffffff1660e01b815260040162000d899291906200259b565b600060405180830381600087803b15801562000da457600080fd5b505af115801562000db9573d6000803e3d6000fd5b50505050505050565b60008060019054906101000a900460ff1615905080801562000df45750600160008054906101000a900460ff1660ff16105b8062000e25575062000e06306200185b565b15801562000e245750600160008054906101000a900460ff1660ff16145b5b62000e67576040517f08c379a000000000000000000000000000000000000000000000000000000000815260040162000e5e90620026a5565b60405180910390fd5b60016000806101000a81548160ff021916908360ff160217905550801562000ea5576001600060016101000a81548160ff0219169083151502179055505b81606760026101000a81548173ffffffffffffffffffffffffffffffffffffffff021916908373ffffffffffffffffffffffffffffffffffffffff16021790555062000ef06200187e565b801562000f4c5760008060016101000a81548160ff0219169083151502179055507f7f26b83ff96e1f2b6a682f133852f6798a09c465da95921460cefb3847402498600160405162000f43919062002717565b60405180910390a15b5050565b606760009054906101000a900461ffff1681565b62000f6e6200161c565b606560009054906101000a900461ffff1661ffff16606760009054906101000a900461ffff1661ffff161062000fd0576040517fd23276a200000000000000000000000000000000000000000000000000000000815260040160405180910390fd5b600073ffffffffffffffffffffffffffffffffffffffff16606660006001606760009054906101000a900461ffff166200100b9190620025f0565b61ffff1661ffff16815260200190815260200160002060009054906101000a900473ffffffffffffffffffffffffffffffffffffffff1673ffffffffffffffffffffffffffffffffffffffff160362001090576040517fd23276a200000000000000000000000000000000000000000000000000000000815260040160405180910390fd5b6001606760008282829054906101000a900461ffff16620010b29190620025f0565b92506101000a81548161ffff021916908361ffff160217905550565b620010d86200161c565b600073ffffffffffffffffffffffffffffffffffffffff1660666000606560009054906101000a900461ffff1661ffff1661ffff16815260200190815260200160002060009054906101000a900473ffffffffffffffffffffffffffffffffffffffff1673ffffffffffffffffffffffffffffffffffffffff16146200119757806040517f9cfabd160000000000000000000000000000000000000000000000000000000081526004016200118e919062002125565b60405180910390fd5b6000819050606760029054906101000a900473ffffffffffffffffffffffffffffffffffffffff1673ffffffffffffffffffffffffffffffffffffffff168173ffffffffffffffffffffffffffffffffffffffff1663331b6ab36040518163ffffffff1660e01b8152600401602060405180830381865afa15801562001221573d6000803e3d6000fd5b505050506040513d601f19601f8201168201806040525081019062001247919062002779565b73ffffffffffffffffffffffffffffffffffffffff161462001294576040517eaec95400000000000000000000000000000000000000000000000000000000815260040160405180910390fd5b606560009054906101000a900461ffff1661ffff168173ffffffffffffffffffffffffffffffffffffffff166328b070e06040518163ffffffff1660e01b8152600401602060405180830381865afa158015620012f5573d6000803e3d6000fd5b505050506040513d601f19601f820116820180604052508101906200131b9190620027c2565b61ffff161462001357576040517fb893b72300000000000000000000000000000000000000000000000000000000815260040160405180910390fd5b6200136282620016a1565b5050565b606560009054906101000a900461ffff1681565b620013846200161c565b600073ffffffffffffffffffffffffffffffffffffffff168173ffffffffffffffffffffffffffffffffffffffff1603620013f6576040517f08c379a0000000000000000000000000000000000000000000000000000000008152600401620013ed906200286a565b60405180910390fd5b620014018162001795565b50565b60666020528060005260406000206000915054906101000a900473ffffffffffffffffffffffffffffffffffffffff1681565b6000620014677f360894a13ba1a3210667c828492db98dca3e2076cc3735a920a3ca505d382bbc60001b620018dc565b60000160009054906101000a900473ffffffffffffffffffffffffffffffffffffffff16905090565b6200149a6200161c565b50565b620014cb7f4910fdfa16fed3260ed0e7147f7cc6da11a60208b5b9406d12a635614ffd914360001b620018e6565b60000160009054906101000a900460ff1615620014f357620014ed83620018f0565b62001617565b8273ffffffffffffffffffffffffffffffffffffffff166352d1902d6040518163ffffffff1660e01b8152600401602060405180830381865afa9250505080156200155e57506040513d601f19601f820116820180604052508101906200155b9190620028bd565b60015b620015a0576040517f08c379a0000000000000000000000000000000000000000000000000000000008152600401620015979062002965565b60405180910390fd5b7f360894a13ba1a3210667c828492db98dca3e2076cc3735a920a3ca505d382bbc60001b811462001608576040517f08c379a0000000000000000000000000000000000000000000000000000000008152600401620015ff90620029fd565b60405180910390fd5b5062001616838383620019b0565b5b505050565b62001626620019e2565b73ffffffffffffffffffffffffffffffffffffffff166200164662000c95565b73ffffffffffffffffffffffffffffffffffffffff16146200169f576040517f08c379a0000000000000000000000000000000000000000000000000000000008152600401620016969062002a6f565b60405180910390fd5b565b8060666000606560009054906101000a900461ffff1661ffff1661ffff16815260200190815260200160002060006101000a81548173ffffffffffffffffffffffffffffffffffffffff021916908373ffffffffffffffffffffffffffffffffffffffff1602179055507fcf6a3b406170499209d0fcf152a1605c7c5a5c99c855e2bb803433fc960718eb606560009054906101000a900461ffff16826040516200174e92919062002a91565b60405180910390a16001606560008282829054906101000a900461ffff16620017789190620025f0565b92506101000a81548161ffff021916908361ffff16021790555050565b6000603360009054906101000a900473ffffffffffffffffffffffffffffffffffffffff16905081603360006101000a81548173ffffffffffffffffffffffffffffffffffffffff021916908373ffffffffffffffffffffffffffffffffffffffff1602179055508173ffffffffffffffffffffffffffffffffffffffff168173ffffffffffffffffffffffffffffffffffffffff167f8be0079c531659141344cd1fd0a4f28419497f9722a3daafe3b4186f6b6457e060405160405180910390a35050565b6000808273ffffffffffffffffffffffffffffffffffffffff163b119050919050565b600060019054906101000a900460ff16620018d0576040517f08c379a0000000000000000000000000000000000000000000000000000000008152600401620018c79062002b34565b60405180910390fd5b620018da620019ea565b565b6000819050919050565b6000819050919050565b620018fb8162001a52565b6200193d576040517f08c379a0000000000000000000000000000000000000000000000000000000008152600401620019349062002bcc565b60405180910390fd5b806200196c7f360894a13ba1a3210667c828492db98dca3e2076cc3735a920a3ca505d382bbc60001b620018dc565b60000160006101000a81548173ffffffffffffffffffffffffffffffffffffffff021916908373ffffffffffffffffffffffffffffffffffffffff16021790555050565b620019bb8362001a75565b600082511180620019c95750805b15620019dd57620019db838362001ac6565b505b505050565b600033905090565b600060019054906101000a900460ff1662001a3c576040517f08c379a000000000000000000000000000000000000000000000000000000000815260040162001a339062002b34565b60405180910390fd5b62001a5062001a4a620019e2565b62001795565b565b6000808273ffffffffffffffffffffffffffffffffffffffff163b119050919050565b62001a8081620018f0565b8073ffffffffffffffffffffffffffffffffffffffff167fbc7cd75a20ee27fd9adebab32041f755214dbc6bffa90cc0225b39da2e5c2d3b60405160405180910390a250565b606062001aee8383604051806060016040528060278152602001620042676027913962001af6565b905092915050565b60606000808573ffffffffffffffffffffffffffffffffffffffff168560405162001b22919062002c71565b600060405180830381855af49150503d806000811462001b5f576040519150601f19603f3d011682016040523d82523d6000602084013e62001b64565b606091505b509150915062001b778683838762001b82565b925050509392505050565b6060831562001bec57600083510362001be35762001ba08562001a52565b62001be2576040517f08c379a000000000000000000000000000000000000000000000000000000000815260040162001bd99062002cda565b60405180910390fd5b5b82905062001bf9565b62001bf8838362001c01565b5b949350505050565b60008251111562001c155781518083602001fd5b806040517f08c379a000000000000000000000000000000000000000000000000000000000815260040162001c4b919062002d48565b60405180910390fd5b6114fa8062002d6d83390190565b6000604051905090565b600080fd5b600080fd5b600061ffff82169050919050565b62001c8f8162001c76565b811462001c9b57600080fd5b50565b60008135905062001caf8162001c84565b92915050565b6000819050919050565b62001cca8162001cb5565b811462001cd657600080fd5b50565b60008135905062001cea8162001cbf565b92915050565b6000806040838503121562001d0a5762001d0962001c6c565b5b600062001d1a8582860162001c9e565b925050602062001d2d8582860162001cd9565b9150509250929050565b600073ffffffffffffffffffffffffffffffffffffffff82169050919050565b6000819050919050565b600062001d8262001d7c62001d768462001d37565b62001d57565b62001d37565b9050919050565b600062001d968262001d61565b9050919050565b600062001daa8262001d89565b9050919050565b62001dbc8162001d9d565b82525050565b600060208201905062001dd9600083018462001db1565b92915050565b600062001dec8262001d37565b9050919050565b62001dfe8162001ddf565b811462001e0a57600080fd5b50565b60008135905062001e1e8162001df3565b92915050565b60006020828403121562001e3d5762001e3c62001c6c565b5b600062001e4d8482850162001e0d565b91505092915050565b600080fd5b600080fd5b6000601f19601f8301169050919050565b7f4e487b7100000000000000000000000000000000000000000000000000000000600052604160045260246000fd5b62001eab8262001e60565b810181811067ffffffffffffffff8211171562001ecd5762001ecc62001e71565b5b80604052505050565b600062001ee262001c62565b905062001ef0828262001ea0565b919050565b600067ffffffffffffffff82111562001f135762001f1262001e71565b5b62001f1e8262001e60565b9050602081019050919050565b82818337600083830152505050565b600062001f5162001f4b8462001ef5565b62001ed6565b90508281526020810184848401111562001f705762001f6f62001e5b565b5b62001f7d84828562001f2b565b509392505050565b600082601f83011262001f9d5762001f9c62001e56565b5b813562001faf84826020860162001f3a565b91505092915050565b6000806040838503121562001fd25762001fd162001c6c565b5b600062001fe28582860162001e0d565b925050602083013567ffffffffffffffff81111562002006576200200562001c71565b5b620020148582860162001f85565b9150509250929050565b6000819050919050565b62002033816200201e565b82525050565b600060208201905062002050600083018462002028565b92915050565b600080fd5b600080fd5b60008083601f84011262002079576200207862001e56565b5b8235905067ffffffffffffffff81111562002099576200209862002056565b5b602083019150836020820283011115620020b857620020b76200205b565b5b9250929050565b60008060208385031215620020d957620020d862001c6c565b5b600083013567ffffffffffffffff811115620020fa57620020f962001c71565b5b620021088582860162002060565b92509250509250929050565b6200211f8162001ddf565b82525050565b60006020820190506200213c600083018462002114565b92915050565b6000806000604084860312156200215e576200215d62001c6c565b5b60006200216e8682870162001c9e565b935050602084013567ffffffffffffffff81111562002192576200219162001c71565b5b620021a08682870162002060565b92509250509250925092565b620021b78162001c76565b82525050565b6000602082019050620021d46000830184620021ac565b92915050565b600060208284031215620021f357620021f262001c6c565b5b6000620022038482850162001c9e565b91505092915050565b7f4e487b7100000000000000000000000000000000000000000000000000000000600052603260045260246000fd5b600081519050919050565b600082825260208201905092915050565b6000819050602082019050919050565b620022728162001cb5565b82525050565b600062002286838362002267565b60208301905092915050565b6000602082019050919050565b6000620022ac826200223b565b620022b8818562002246565b9350620022c58362002257565b8060005b83811015620022fc578151620022e0888262002278565b9750620022ed8362002292565b925050600181019050620022c9565b5085935050505092915050565b600060208201905081810360008301526200232581846200229f565b905092915050565b600082825260208201905092915050565b7f46756e6374696f6e206d7573742062652063616c6c6564207468726f7567682060008201527f64656c656761746563616c6c0000000000000000000000000000000000000000602082015250565b60006200239c602c836200232d565b9150620023a9826200233e565b604082019050919050565b60006020820190508181036000830152620023cf816200238d565b9050919050565b7f46756e6374696f6e206d7573742062652063616c6c6564207468726f7567682060008201527f6163746976652070726f78790000000000000000000000000000000000000000602082015250565b600062002434602c836200232d565b91506200244182620023d6565b604082019050919050565b60006020820190508181036000830152620024678162002425565b9050919050565b600060408201905062002485600083018562002114565b620024946020830184620021ac565b9392505050565b7f555550535570677261646561626c653a206d757374206e6f742062652063616c60008201527f6c6564207468726f7567682064656c656761746563616c6c0000000000000000602082015250565b6000620024f96038836200232d565b915062002506826200249b565b604082019050919050565b600060208201905081810360008301526200252c81620024ea565b9050919050565b600080fd5b600062002546838562002246565b93507f07ffffffffffffffffffffffffffffffffffffffffffffffffffffffffffffff8311156200257c576200257b62002533565b5b6020830292506200258f83858462001f2b565b82840190509392505050565b60006020820190508181036000830152620025b881848662002538565b90509392505050565b7f4e487b7100000000000000000000000000000000000000000000000000000000600052601160045260246000fd5b6000620025fd8262001c76565b91506200260a8362001c76565b92508261ffff03821115620026245762002623620025c1565b5b828201905092915050565b7f496e697469616c697a61626c653a20636f6e747261637420697320616c72656160008201527f647920696e697469616c697a6564000000000000000000000000000000000000602082015250565b60006200268d602e836200232d565b91506200269a826200262f565b604082019050919050565b60006020820190508181036000830152620026c0816200267e565b9050919050565b6000819050919050565b600060ff82169050919050565b6000620026ff620026f9620026f384620026c7565b62001d57565b620026d1565b9050919050565b6200271181620026de565b82525050565b60006020820190506200272e600083018462002706565b92915050565b6000620027418262001ddf565b9050919050565b620027538162002734565b81146200275f57600080fd5b50565b600081519050620027738162002748565b92915050565b60006020828403121562002792576200279162001c6c565b5b6000620027a28482850162002762565b91505092915050565b600081519050620027bc8162001c84565b92915050565b600060208284031215620027db57620027da62001c6c565b5b6000620027eb84828501620027ab565b91505092915050565b7f4f776e61626c653a206e6577206f776e657220697320746865207a65726f206160008201527f6464726573730000000000000000000000000000000000000000000000000000602082015250565b6000620028526026836200232d565b91506200285f82620027f4565b604082019050919050565b60006020820190508181036000830152620028858162002843565b9050919050565b62002897816200201e565b8114620028a357600080fd5b50565b600081519050620028b7816200288c565b92915050565b600060208284031215620028d657620028d562001c6c565b5b6000620028e684828501620028a6565b91505092915050565b7f45524331393637557067726164653a206e657720696d706c656d656e7461746960008201527f6f6e206973206e6f742055555053000000000000000000000000000000000000602082015250565b60006200294d602e836200232d565b91506200295a82620028ef565b604082019050919050565b6000602082019050818103600083015262002980816200293e565b9050919050565b7f45524331393637557067726164653a20756e737570706f727465642070726f7860008201527f6961626c65555549440000000000000000000000000000000000000000000000602082015250565b6000620029e56029836200232d565b9150620029f28262002987565b604082019050919050565b6000602082019050818103600083015262002a1881620029d6565b9050919050565b7f4f776e61626c653a2063616c6c6572206973206e6f7420746865206f776e6572600082015250565b600062002a576020836200232d565b915062002a648262002a1f565b602082019050919050565b6000602082019050818103600083015262002a8a8162002a48565b9050919050565b600060408201905062002aa86000830185620021ac565b62002ab7602083018462002114565b9392505050565b7f496e697469616c697a61626c653a20636f6e7472616374206973206e6f74206960008201527f6e697469616c697a696e67000000000000000000000000000000000000000000602082015250565b600062002b1c602b836200232d565b915062002b298262002abe565b604082019050919050565b6000602082019050818103600083015262002b4f8162002b0d565b9050919050565b7f455243313936373a206e657720696d706c656d656e746174696f6e206973206e60008201527f6f74206120636f6e747261637400000000000000000000000000000000000000602082015250565b600062002bb4602d836200232d565b915062002bc18262002b56565b604082019050919050565b6000602082019050818103600083015262002be78162002ba5565b9050919050565b600081519050919050565b600081905092915050565b60005b8381101562002c2457808201518184015260208101905062002c07565b8381111562002c34576000848401525b50505050565b600062002c478262002bee565b62002c53818562002bf9565b935062002c6581856020860162002c04565b80840191505092915050565b600062002c7f828462002c3a565b915081905092915050565b7f416464726573733a2063616c6c20746f206e6f6e2d636f6e7472616374000000600082015250565b600062002cc2601d836200232d565b915062002ccf8262002c8a565b602082019050919050565b6000602082019050818103600083015262002cf58162002cb3565b9050919050565b600081519050919050565b600062002d148262002cfc565b62002d2081856200232d565b935062002d3281856020860162002c04565b62002d3d8162001e60565b840191505092915050565b6000602082019050818103600083015262002d64818462002d07565b90509291505056fe61016060405260006001553480156200001757600080fd5b50604051620014fa380380620014fa83398181016040528101906200003d919062000290565b6000601483600062000064620000586200011b60201b60201c565b6200012360201b60201c565b83608081815250508260a08181525050826001901b60c081815250508173ffffffffffffffffffffffffffffffffffffffff1660e08173ffffffffffffffffffffffffffffffffffffffff16815250508073ffffffffffffffffffffffffffffffffffffffff166101008173ffffffffffffffffffffffffffffffffffffffff16815250504363ffffffff166101208163ffffffff1681525050505050508061ffff166101408161ffff16815250505050620002d7565b600033905090565b60008060009054906101000a900473ffffffffffffffffffffffffffffffffffffffff169050816000806101000a81548173ffffffffffffffffffffffffffffffffffffffff021916908373ffffffffffffffffffffffffffffffffffffffff1602179055508173ffffffffffffffffffffffffffffffffffffffff168173ffffffffffffffffffffffffffffffffffffffff167f8be0079c531659141344cd1fd0a4f28419497f9722a3daafe3b4186f6b6457e060405160405180910390a35050565b600080fd5b600073ffffffffffffffffffffffffffffffffffffffff82169050919050565b60006200021982620001ec565b9050919050565b6200022b816200020c565b81146200023757600080fd5b50565b6000815190506200024b8162000220565b92915050565b600061ffff82169050919050565b6200026a8162000251565b81146200027657600080fd5b50565b6000815190506200028a816200025f565b92915050565b60008060408385031215620002aa57620002a9620001e7565b5b6000620002ba858286016200023a565b9250506020620002cd8582860162000279565b9150509250929050565b60805160a05160c05160e0516101005161012051610140516111ba620003406000396000610545015260006105e3015260006105690152600081816104ac015261058d0152600081816107560152610aea015260006106fc015260006107ac01526111ba6000f3fe60806040526004361061011f5760003560e01c80638be9b119116100a0578063c5b208ff11610064578063c5b208ff146103c5578063d0383d6814610402578063f207564e1461042d578063f220b9ec14610449578063f2fde38b146104745761011f565b80638be9b119146102de5780638da5cb5b1461030757806398366e3514610332578063ae74552a1461035d578063bc499128146103885761011f565b80634add651e116100e75780634add651e146101f95780635daf08ca146102245780636bdcc8ab14610261578063715018a61461029e5780637a34289d146102b55761011f565b806322d9730c1461012457806328b070e0146101615780632b7ac3f31461018c578063331b6ab3146101b75780633ccfd60b146101e2575b600080fd5b34801561013057600080fd5b5061014b60048036038101906101469190610b86565b61049d565b6040516101589190610bce565b60405180910390f35b34801561016d57600080fd5b50610176610543565b6040516101839190610c06565b60405180910390f35b34801561019857600080fd5b506101a1610567565b6040516101ae9190610ca0565b60405180910390f35b3480156101c357600080fd5b506101cc61058b565b6040516101d99190610cdc565b60405180910390f35b3480156101ee57600080fd5b506101f76105af565b005b34801561020557600080fd5b5061020e6105e1565b60405161021b9190610d16565b60405180910390f35b34801561023057600080fd5b5061024b60048036038101906102469190610b86565b610605565b6040516102589190610d40565b60405180910390f35b34801561026d57600080fd5b5061028860048036038101906102839190610b86565b61061d565b6040516102959190610bce565b60405180910390f35b3480156102aa57600080fd5b506102b361063d565b005b3480156102c157600080fd5b506102dc60048036038101906102d79190610dc0565b610651565b005b3480156102ea57600080fd5b5061030560048036038101906103009190610e6d565b61069f565b005b34801561031357600080fd5b5061031c6106d1565b6040516103299190610ee2565b60405180910390f35b34801561033e57600080fd5b506103476106fa565b6040516103549190610d40565b60405180910390f35b34801561036957600080fd5b5061037261071e565b60405161037f9190610d40565b60405180910390f35b34801561039457600080fd5b506103af60048036038101906103aa9190610b86565b610724565b6040516103bc9190610d40565b60405180910390f35b3480156103d157600080fd5b506103ec60048036038101906103e79190610f29565b61073c565b6040516103f99190610d40565b60405180910390f35b34801561040e57600080fd5b50610417610754565b6040516104249190610d40565b60405180910390f35b61044760048036038101906104429190610b86565b610778565b005b34801561045557600080fd5b5061045e6107aa565b60405161046b9190610d40565b60405180910390f35b34801561048057600080fd5b5061049b60048036038101906104969190610f29565b6107ce565b005b600080821415801561053c57507f000000000000000000000000000000000000000000000000000000000000000073ffffffffffffffffffffffffffffffffffffffff1663e493ef8c6040518163ffffffff1660e01b8152600401602060405180830381865afa158015610515573d6000803e3d6000fd5b505050506040513d601f19601f820116820180604052508101906105399190610f6b565b82105b9050919050565b7f000000000000000000000000000000000000000000000000000000000000000081565b7f000000000000000000000000000000000000000000000000000000000000000081565b7f000000000000000000000000000000000000000000000000000000000000000081565b6040517fd623472500000000000000000000000000000000000000000000000000000000815260040160405180910390fd5b7f000000000000000000000000000000000000000000000000000000000000000081565b60036020528060005260406000206000915090505481565b60046020528060005260406000206000915054906101000a900460ff1681565b610645610851565b61064f60006108cf565b565b610659610851565b600082829050905060005b818110156106995761068e84848381811061068257610681610f98565b5b90506020020135610993565b806001019050610664565b50505050565b6040517fd623472500000000000000000000000000000000000000000000000000000000815260040160405180910390fd5b60008060009054906101000a900473ffffffffffffffffffffffffffffffffffffffff16905090565b7f000000000000000000000000000000000000000000000000000000000000000081565b60015481565b60026020528060005260406000206000915090505481565b60056020528060005260406000206000915090505481565b7f000000000000000000000000000000000000000000000000000000000000000081565b6040517fd623472500000000000000000000000000000000000000000000000000000000815260040160405180910390fd5b7f000000000000000000000000000000000000000000000000000000000000000081565b6107d6610851565b600073ffffffffffffffffffffffffffffffffffffffff168173ffffffffffffffffffffffffffffffffffffffff1603610845576040517f08c379a000000000000000000000000000000000000000000000000000000000815260040161083c9061104a565b60405180910390fd5b61084e816108cf565b50565b610859610a39565b73ffffffffffffffffffffffffffffffffffffffff166108776106d1565b73ffffffffffffffffffffffffffffffffffffffff16146108cd576040517f08c379a00000000000000000000000000000000000000000000000000000000081526004016108c4906110b6565b60405180910390fd5b565b60008060009054906101000a900473ffffffffffffffffffffffffffffffffffffffff169050816000806101000a81548173ffffffffffffffffffffffffffffffffffffffff021916908373ffffffffffffffffffffffffffffffffffffffff1602179055508173ffffffffffffffffffffffffffffffffffffffff168173ffffffffffffffffffffffffffffffffffffffff167f8be0079c531659141344cd1fd0a4f28419497f9722a3daafe3b4186f6b6457e060405160405180910390a35050565b61099c81610a41565b600154600360008381526020019081526020016000208190555060016004600083815260200190815260200160002060006101000a81548160ff0219169083151502179055507f5a92c2530f207992057b9c3e544108ffce3beda4a63719f316967c49bf6159d281600154604051610a159291906110d6565b60405180910390a16001806000828254610a2f919061112e565b9250508190555050565b600033905090565b610a4a8161049d565b610a8b57806040517f7f3e75af000000000000000000000000000000000000000000000000000000008152600401610a829190610d40565b60405180910390fd5b600115156004600083815260200190815260200160002060009054906101000a900460ff16151503610ae8576040517e0a60f700000000000000000000000000000000000000000000000000000000815260040160405180910390fd5b7f000000000000000000000000000000000000000000000000000000000000000060015410610b43576040517f57f6953100000000000000000000000000000000000000000000000000000000815260040160405180910390fd5b50565b600080fd5b600080fd5b6000819050919050565b610b6381610b50565b8114610b6e57600080fd5b50565b600081359050610b8081610b5a565b92915050565b600060208284031215610b9c57610b9b610b46565b5b6000610baa84828501610b71565b91505092915050565b60008115159050919050565b610bc881610bb3565b82525050565b6000602082019050610be36000830184610bbf565b92915050565b600061ffff82169050919050565b610c0081610be9565b82525050565b6000602082019050610c1b6000830184610bf7565b92915050565b600073ffffffffffffffffffffffffffffffffffffffff82169050919050565b6000819050919050565b6000610c66610c61610c5c84610c21565b610c41565b610c21565b9050919050565b6000610c7882610c4b565b9050919050565b6000610c8a82610c6d565b9050919050565b610c9a81610c7f565b82525050565b6000602082019050610cb56000830184610c91565b92915050565b6000610cc682610c6d565b9050919050565b610cd681610cbb565b82525050565b6000602082019050610cf16000830184610ccd565b92915050565b600063ffffffff82169050919050565b610d1081610cf7565b82525050565b6000602082019050610d2b6000830184610d07565b92915050565b610d3a81610b50565b82525050565b6000602082019050610d556000830184610d31565b92915050565b600080fd5b600080fd5b600080fd5b60008083601f840112610d8057610d7f610d5b565b5b8235905067ffffffffffffffff811115610d9d57610d9c610d60565b5b602083019150836020820283011115610db957610db8610d65565b5b9250929050565b60008060208385031215610dd757610dd6610b46565b5b600083013567ffffffffffffffff811115610df557610df4610b4b565b5b610e0185828601610d6a565b92509250509250929050565b6000610e1882610c21565b9050919050565b610e2881610e0d565b8114610e3357600080fd5b50565b600081359050610e4581610e1f565b92915050565b600081905082602060080282011115610e6757610e66610d65565b5b92915050565b60008060006101408486031215610e8757610e86610b46565b5b6000610e9586828701610b71565b9350506020610ea686828701610e36565b9250506040610eb786828701610e4b565b9150509250925092565b6000610ecc82610c21565b9050919050565b610edc81610ec1565b82525050565b6000602082019050610ef76000830184610ed3565b92915050565b610f0681610ec1565b8114610f1157600080fd5b50565b600081359050610f2381610efd565b92915050565b600060208284031215610f3f57610f3e610b46565b5b6000610f4d84828501610f14565b91505092915050565b600081519050610f6581610b5a565b92915050565b600060208284031215610f8157610f80610b46565b5b6000610f8f84828501610f56565b91505092915050565b7f4e487b7100000000000000000000000000000000000000000000000000000000600052603260045260246000fd5b600082825260208201905092915050565b7f4f776e61626c653a206e6577206f776e657220697320746865207a65726f206160008201527f6464726573730000000000000000000000000000000000000000000000000000602082015250565b6000611034602683610fc7565b915061103f82610fd8565b604082019050919050565b6000602082019050818103600083015261106381611027565b9050919050565b7f4f776e61626c653a2063616c6c6572206973206e6f7420746865206f776e6572600082015250565b60006110a0602083610fc7565b91506110ab8261106a565b602082019050919050565b600060208201905081810360008301526110cf81611093565b9050919050565b60006040820190506110eb6000830185610d31565b6110f86020830184610d31565b9392505050565b7f4e487b7100000000000000000000000000000000000000000000000000000000600052601160045260246000fd5b600061113982610b50565b915061114483610b50565b9250827fffffffffffffffffffffffffffffffffffffffffffffffffffffffffffffffff03821115611179576111786110ff565b5b82820190509291505056fea264697066735822122080702afa180498dc14ee9cd29cf35aa3eed2f3db78ee1fdb9b4ebf005387d01b64736f6c634300080f0033416464726573733a206c6f772d6c6576656c2064656c65676174652063616c6c206661696c6564a2646970667358221220ef23e762c66c99dc19074eafc1b1183231eeb13cd3d64ace0d2c6e4f954fc96264736f6c634300080f0033",
  "devdoc": {
    "kind": "dev",
    "methods": {
      "owner()": {
        "details": "Returns the address of the current owner."
      },
      "proxiableUUID()": {
        "details": "Implementation of the ERC1822 {proxiableUUID} function. This returns the storage slot used by the implementation. It is used to validate the implementation's compatibility when performing an upgrade. IMPORTANT: A proxy pointing at a proxiable contract should not be considered proxiable itself, because this risks bricking a proxy that upgrades to it, by delegating to itself until out of gas. Thus it is critical that this function revert if invoked through a proxy. This is guaranteed by the `notDelegated` modifier."
      },
      "renounceOwnership()": {
        "details": "Leaves the contract without owner. It will not be possible to call `onlyOwner` functions. Can only be called by the current owner. NOTE: Renouncing ownership will leave the contract without an owner, thereby disabling any functionality that is only available to the owner."
      },
      "transferOwnership(address)": {
        "details": "Transfers ownership of the contract to a new account (`newOwner`). Can only be called by the current owner."
      },
      "upgradeTo(address)": {
        "custom:oz-upgrades-unsafe-allow-reachable": "delegatecall",
        "details": "Upgrade the implementation of the proxy to `newImplementation`. Calls {_authorizeUpgrade}. Emits an {Upgraded} event."
      },
      "upgradeToAndCall(address,bytes)": {
        "custom:oz-upgrades-unsafe-allow-reachable": "delegatecall",
        "details": "Upgrade the implementation of the proxy to `newImplementation`, and subsequently execute the function call encoded in `data`. Calls {_authorizeUpgrade}. Emits an {Upgraded} event."
      }
    },
    "version": 1
  },
  "userdoc": {
    "kind": "user",
    "methods": {},
    "version": 1
  },
  "storageLayout": {
    "storage": [
      {
        "astId": 655,
        "contract": "contracts/WakuRlnRegistry.sol:WakuRlnRegistry",
        "label": "_initialized",
        "offset": 0,
        "slot": "0",
        "type": "t_uint8"
      },
      {
        "astId": 658,
        "contract": "contracts/WakuRlnRegistry.sol:WakuRlnRegistry",
        "label": "_initializing",
        "offset": 1,
        "slot": "0",
        "type": "t_bool"
      },
      {
        "astId": 1188,
        "contract": "contracts/WakuRlnRegistry.sol:WakuRlnRegistry",
        "label": "__gap",
        "offset": 0,
        "slot": "1",
        "type": "t_array(t_uint256)50_storage"
      },
      {
        "astId": 527,
        "contract": "contracts/WakuRlnRegistry.sol:WakuRlnRegistry",
        "label": "_owner",
        "offset": 0,
        "slot": "51",
        "type": "t_address"
      },
      {
        "astId": 647,
        "contract": "contracts/WakuRlnRegistry.sol:WakuRlnRegistry",
        "label": "__gap",
        "offset": 0,
        "slot": "52",
        "type": "t_array(t_uint256)49_storage"
      },
      {
        "astId": 217,
        "contract": "contracts/WakuRlnRegistry.sol:WakuRlnRegistry",
        "label": "nextStorageIndex",
        "offset": 0,
        "slot": "101",
        "type": "t_uint16"
      },
      {
        "astId": 221,
        "contract": "contracts/WakuRlnRegistry.sol:WakuRlnRegistry",
        "label": "storages",
        "offset": 0,
        "slot": "102",
        "type": "t_mapping(t_uint16,t_address)"
      },
      {
        "astId": 224,
        "contract": "contracts/WakuRlnRegistry.sol:WakuRlnRegistry",
        "label": "usingStorageIndex",
        "offset": 0,
        "slot": "103",
        "type": "t_uint16"
      },
      {
        "astId": 227,
        "contract": "contracts/WakuRlnRegistry.sol:WakuRlnRegistry",
        "label": "poseidonHasher",
        "offset": 2,
        "slot": "103",
        "type": "t_contract(IPoseidonHasher)2351"
      }
    ],
    "types": {
      "t_address": {
        "encoding": "inplace",
        "label": "address",
        "numberOfBytes": "20"
      },
      "t_array(t_uint256)49_storage": {
        "base": "t_uint256",
        "encoding": "inplace",
        "label": "uint256[49]",
        "numberOfBytes": "1568"
      },
      "t_array(t_uint256)50_storage": {
        "base": "t_uint256",
        "encoding": "inplace",
        "label": "uint256[50]",
        "numberOfBytes": "1600"
      },
      "t_bool": {
        "encoding": "inplace",
        "label": "bool",
        "numberOfBytes": "1"
      },
      "t_contract(IPoseidonHasher)2351": {
        "encoding": "inplace",
        "label": "contract IPoseidonHasher",
        "numberOfBytes": "20"
      },
      "t_mapping(t_uint16,t_address)": {
        "encoding": "mapping",
        "key": "t_uint16",
        "label": "mapping(uint16 => address)",
        "numberOfBytes": "32",
        "value": "t_address"
      },
      "t_uint16": {
        "encoding": "inplace",
        "label": "uint16",
        "numberOfBytes": "2"
      },
      "t_uint256": {
        "encoding": "inplace",
        "label": "uint256",
        "numberOfBytes": "32"
      },
      "t_uint8": {
        "encoding": "inplace",
        "label": "uint8",
        "numberOfBytes": "1"
      }
    }
  }
}