{
  "address": "0xb61a949493847FF51A82d2617FEdAeD5D67cf785",
  "abi": [
    {
      "inputs": [
        {
          "internalType": "address",
          "name": "_poseidonHasher",
          "type": "address"
        },
        {
          "internalType": "uint16",
          "name": "_contractIndex",
          "type": "uint16"
        }
      ],
      "stateMutability": "nonpayable",
      "type": "constructor"
    },
    {
      "inputs": [],
      "name": "DuplicateIdCommitment",
      "type": "error"
    },
    {
      "inputs": [],
      "name": "FullTree",
      "type": "error"
    },
    {
      "inputs": [
        {
          "internalType": "uint256",
          "name": "idCommitment",
          "type": "uint256"
        }
      ],
      "name": "InvalidIdCommitment",
      "type": "error"
    },
    {
      "inputs": [],
      "name": "NotImplemented",
      "type": "error"
    },
    {
      "anonymous": false,
      "inputs": [
        {
          "indexed": false,
          "internalType": "uint256",
          "name": "idCommitment",
          "type": "uint256"
        },
        {
          "indexed": false,
          "internalType": "uint256",
          "name": "index",
          "type": "uint256"
        }
      ],
      "name": "MemberRegistered",
      "type": "event"
    },
    {
      "anonymous": false,
      "inputs": [
        {
          "indexed": false,
          "internalType": "uint256",
          "name": "idCommitment",
          "type": "uint256"
        },
        {
          "indexed": false,
          "internalType": "uint256",
          "name": "index",
          "type": "uint256"
        }
      ],
      "name": "MemberWithdrawn",
      "type": "event"
    },
    {
      "anonymous": false,
      "inputs": [
        {
          "indexed": true,
          "internalType": "address",
          "name": "previousOwner",
          "type": "address"
        },
        {
          "indexed": true,
          "internalType": "address",
          "name": "newOwner",
          "type": "address"
        }
      ],
      "name": "OwnershipTransferred",
      "type": "event"
    },
    {
      "inputs": [],
      "name": "DEPTH",
      "outputs": [
        {
          "internalType": "uint256",
          "name": "",
          "type": "uint256"
        }
      ],
      "stateMutability": "view",
      "type": "function"
    },
    {
      "inputs": [],
      "name": "MEMBERSHIP_DEPOSIT",
      "outputs": [
        {
          "internalType": "uint256",
          "name": "",
          "type": "uint256"
        }
      ],
      "stateMutability": "view",
      "type": "function"
    },
    {
      "inputs": [],
      "name": "SET_SIZE",
      "outputs": [
        {
          "internalType": "uint256",
          "name": "",
          "type": "uint256"
        }
      ],
      "stateMutability": "view",
      "type": "function"
    },
    {
      "inputs": [],
      "name": "contractIndex",
      "outputs": [
        {
          "internalType": "uint16",
          "name": "",
          "type": "uint16"
        }
      ],
      "stateMutability": "view",
      "type": "function"
    },
    {
      "inputs": [],
      "name": "deployedBlockNumber",
      "outputs": [
        {
          "internalType": "uint32",
          "name": "",
          "type": "uint32"
        }
      ],
      "stateMutability": "view",
      "type": "function"
    },
    {
      "inputs": [],
      "name": "idCommitmentIndex",
      "outputs": [
        {
          "internalType": "uint256",
          "name": "",
          "type": "uint256"
        }
      ],
      "stateMutability": "view",
      "type": "function"
    },
    {
      "inputs": [
        {
          "internalType": "uint256",
          "name": "idCommitment",
          "type": "uint256"
        }
      ],
      "name": "isValidCommitment",
      "outputs": [
        {
          "internalType": "bool",
          "name": "",
          "type": "bool"
        }
      ],
      "stateMutability": "view",
      "type": "function"
    },
    {
      "inputs": [
        {
          "internalType": "uint256",
          "name": "",
          "type": "uint256"
        }
      ],
      "name": "members",
      "outputs": [
        {
          "internalType": "uint256",
          "name": "",
          "type": "uint256"
        }
      ],
      "stateMutability": "view",
      "type": "function"
    },
    {
      "inputs": [],
      "name": "owner",
      "outputs": [
        {
          "internalType": "address",
          "name": "",
          "type": "address"
        }
      ],
      "stateMutability": "view",
      "type": "function"
    },
    {
      "inputs": [],
      "name": "poseidonHasher",
      "outputs": [
        {
          "internalType": "contract PoseidonHasher",
          "name": "",
          "type": "address"
        }
      ],
      "stateMutability": "view",
      "type": "function"
    },
    {
      "inputs": [
        {
          "internalType": "uint256[]",
          "name": "idCommitments",
          "type": "uint256[]"
        }
      ],
      "name": "register",
      "outputs": [],
      "stateMutability": "nonpayable",
      "type": "function"
    },
    {
      "inputs": [
        {
          "internalType": "uint256",
          "name": "idCommitment",
          "type": "uint256"
        }
      ],
      "name": "register",
      "outputs": [],
      "stateMutability": "payable",
      "type": "function"
    },
    {
      "inputs": [],
      "name": "renounceOwnership",
      "outputs": [],
      "stateMutability": "nonpayable",
      "type": "function"
    },
    {
      "inputs": [
        {
          "internalType": "uint256",
          "name": "idCommitment",
          "type": "uint256"
        },
        {
          "internalType": "address payable",
          "name": "receiver",
          "type": "address"
        },
        {
          "internalType": "uint256[8]",
          "name": "proof",
          "type": "uint256[8]"
        }
      ],
      "name": "slash",
      "outputs": [],
      "stateMutability": "pure",
      "type": "function"
    },
    {
      "inputs": [
        {
          "internalType": "uint256",
          "name": "",
          "type": "uint256"
        }
      ],
      "name": "stakedAmounts",
      "outputs": [
        {
          "internalType": "uint256",
          "name": "",
          "type": "uint256"
        }
      ],
      "stateMutability": "view",
      "type": "function"
    },
    {
      "inputs": [
        {
          "internalType": "address",
          "name": "newOwner",
          "type": "address"
        }
      ],
      "name": "transferOwnership",
      "outputs": [],
      "stateMutability": "nonpayable",
      "type": "function"
    },
    {
      "inputs": [],
      "name": "verifier",
      "outputs": [
        {
          "internalType": "contract IVerifier",
          "name": "",
          "type": "address"
        }
      ],
      "stateMutability": "view",
      "type": "function"
    },
    {
      "inputs": [],
      "name": "withdraw",
      "outputs": [],
      "stateMutability": "pure",
      "type": "function"
    },
    {
      "inputs": [
        {
          "internalType": "address",
          "name": "",
          "type": "address"
        }
      ],
      "name": "withdrawalBalance",
      "outputs": [
        {
          "internalType": "uint256",
          "name": "",
          "type": "uint256"
        }
      ],
      "stateMutability": "view",
      "type": "function"
    }
  ],
  "transactionHash": "0x4456c1e652e5beef22c26a64de8266c2a3644b583820931619bc50e148b5d7b9",
  "args": [
    "0xcBC443bAE23a0BeF71d7f23588108C9929C582C2",
    0
  ],
  "numDeployments": 1,
  "bytecode": "0x610160604052600180553480156200001657600080fd5b50604051620014533803806200145383398181016040528101906200003c91906200028f565b6000601483600062000063620000576200011a60201b60201c565b6200012260201b60201c565b83608081815250508260a08181525050826001901b60c081815250508173ffffffffffffffffffffffffffffffffffffffff1660e08173ffffffffffffffffffffffffffffffffffffffff16815250508073ffffffffffffffffffffffffffffffffffffffff166101008173ffffffffffffffffffffffffffffffffffffffff16815250504363ffffffff166101208163ffffffff1681525050505050508061ffff166101408161ffff16815250505050620002d6565b600033905090565b60008060009054906101000a900473ffffffffffffffffffffffffffffffffffffffff169050816000806101000a81548173ffffffffffffffffffffffffffffffffffffffff021916908373ffffffffffffffffffffffffffffffffffffffff1602179055508173ffffffffffffffffffffffffffffffffffffffff168173ffffffffffffffffffffffffffffffffffffffff167f8be0079c531659141344cd1fd0a4f28419497f9722a3daafe3b4186f6b6457e060405160405180910390a35050565b600080fd5b600073ffffffffffffffffffffffffffffffffffffffff82169050919050565b60006200021882620001eb565b9050919050565b6200022a816200020b565b81146200023657600080fd5b50565b6000815190506200024a816200021f565b92915050565b600061ffff82169050919050565b620002698162000250565b81146200027557600080fd5b50565b60008151905062000289816200025e565b92915050565b60008060408385031215620002a957620002a8620001e6565b5b6000620002b98582860162000239565b9250506020620002cc8582860162000278565b9150509250929050565b60805160a05160c05160e0516101005161012051610140516111146200033f60003960006104fd0152600061059b0152600061052101526000818161046401526105450152600081816106ee0152610a44015260006106940152600061074401526111146000f3fe6080604052600436106101145760003560e01c80638be9b119116100a0578063c5b208ff11610064578063c5b208ff1461037d578063d0383d68146103ba578063f207564e146103e5578063f220b9ec14610401578063f2fde38b1461042c57610114565b80638be9b119146102965780638da5cb5b146102bf57806398366e35146102ea578063ae74552a14610315578063bc4991281461034057610114565b80633ccfd60b116100e75780633ccfd60b146101d75780634add651e146101ee5780635daf08ca14610219578063715018a6146102565780637a34289d1461026d57610114565b806322d9730c1461011957806328b070e0146101565780632b7ac3f314610181578063331b6ab3146101ac575b600080fd5b34801561012557600080fd5b50610140600480360381019061013b9190610ae0565b610455565b60405161014d9190610b28565b60405180910390f35b34801561016257600080fd5b5061016b6104fb565b6040516101789190610b60565b60405180910390f35b34801561018d57600080fd5b5061019661051f565b6040516101a39190610bfa565b60405180910390f35b3480156101b857600080fd5b506101c1610543565b6040516101ce9190610c36565b60405180910390f35b3480156101e357600080fd5b506101ec610567565b005b3480156101fa57600080fd5b50610203610599565b6040516102109190610c70565b60405180910390f35b34801561022557600080fd5b50610240600480360381019061023b9190610ae0565b6105bd565b60405161024d9190610c9a565b60405180910390f35b34801561026257600080fd5b5061026b6105d5565b005b34801561027957600080fd5b50610294600480360381019061028f9190610d1a565b6105e9565b005b3480156102a257600080fd5b506102bd60048036038101906102b89190610dc7565b610637565b005b3480156102cb57600080fd5b506102d4610669565b6040516102e19190610e3c565b60405180910390f35b3480156102f657600080fd5b506102ff610692565b60405161030c9190610c9a565b60405180910390f35b34801561032157600080fd5b5061032a6106b6565b6040516103379190610c9a565b60405180910390f35b34801561034c57600080fd5b5061036760048036038101906103629190610ae0565b6106bc565b6040516103749190610c9a565b60405180910390f35b34801561038957600080fd5b506103a4600480360381019061039f9190610e83565b6106d4565b6040516103b19190610c9a565b60405180910390f35b3480156103c657600080fd5b506103cf6106ec565b6040516103dc9190610c9a565b60405180910390f35b6103ff60048036038101906103fa9190610ae0565b610710565b005b34801561040d57600080fd5b50610416610742565b6040516104239190610c9a565b60405180910390f35b34801561043857600080fd5b50610453600480360381019061044e9190610e83565b610766565b005b60008082141580156104f457507f000000000000000000000000000000000000000000000000000000000000000073ffffffffffffffffffffffffffffffffffffffff1663e493ef8c6040518163ffffffff1660e01b8152600401602060405180830381865afa1580156104cd573d6000803e3d6000fd5b505050506040513d601f19601f820116820180604052508101906104f19190610ec5565b82105b9050919050565b7f000000000000000000000000000000000000000000000000000000000000000081565b7f000000000000000000000000000000000000000000000000000000000000000081565b7f000000000000000000000000000000000000000000000000000000000000000081565b6040517fd623472500000000000000000000000000000000000000000000000000000000815260040160405180910390fd5b7f000000000000000000000000000000000000000000000000000000000000000081565b60036020528060005260406000206000915090505481565b6105dd6107e9565b6105e76000610867565b565b6105f16107e9565b600082829050905060005b818110156106315761062684848381811061061a57610619610ef2565b5b9050602002013561092b565b8060010190506105fc565b50505050565b6040517fd623472500000000000000000000000000000000000000000000000000000000815260040160405180910390fd5b60008060009054906101000a900473ffffffffffffffffffffffffffffffffffffffff16905090565b7f000000000000000000000000000000000000000000000000000000000000000081565b60015481565b60026020528060005260406000206000915090505481565b60046020528060005260406000206000915090505481565b7f000000000000000000000000000000000000000000000000000000000000000081565b6040517fd623472500000000000000000000000000000000000000000000000000000000815260040160405180910390fd5b7f000000000000000000000000000000000000000000000000000000000000000081565b61076e6107e9565b600073ffffffffffffffffffffffffffffffffffffffff168173ffffffffffffffffffffffffffffffffffffffff16036107dd576040517f08c379a00000000000000000000000000000000000000000000000000000000081526004016107d490610fa4565b60405180910390fd5b6107e681610867565b50565b6107f16109a4565b73ffffffffffffffffffffffffffffffffffffffff1661080f610669565b73ffffffffffffffffffffffffffffffffffffffff1614610865576040517f08c379a000000000000000000000000000000000000000000000000000000000815260040161085c90611010565b60405180910390fd5b565b60008060009054906101000a900473ffffffffffffffffffffffffffffffffffffffff169050816000806101000a81548173ffffffffffffffffffffffffffffffffffffffff021916908373ffffffffffffffffffffffffffffffffffffffff1602179055508173ffffffffffffffffffffffffffffffffffffffff168173ffffffffffffffffffffffffffffffffffffffff167f8be0079c531659141344cd1fd0a4f28419497f9722a3daafe3b4186f6b6457e060405160405180910390a35050565b610934816109ac565b600160036000838152602001908152602001600020819055507f5a92c2530f207992057b9c3e544108ffce3beda4a63719f316967c49bf6159d281600154604051610980929190611030565b60405180910390a1600180600082825461099a9190611088565b9250508190555050565b600033905090565b6109b581610455565b6109f657806040517f7f3e75af0000000000000000000000000000000000000000000000000000000081526004016109ed9190610c9a565b60405180910390fd5b6000600360008381526020019081526020016000205414610a42576040517e0a60f700000000000000000000000000000000000000000000000000000000815260040160405180910390fd5b7f000000000000000000000000000000000000000000000000000000000000000060015410610a9d576040517f57f6953100000000000000000000000000000000000000000000000000000000815260040160405180910390fd5b50565b600080fd5b600080fd5b6000819050919050565b610abd81610aaa565b8114610ac857600080fd5b50565b600081359050610ada81610ab4565b92915050565b600060208284031215610af657610af5610aa0565b5b6000610b0484828501610acb565b91505092915050565b60008115159050919050565b610b2281610b0d565b82525050565b6000602082019050610b3d6000830184610b19565b92915050565b600061ffff82169050919050565b610b5a81610b43565b82525050565b6000602082019050610b756000830184610b51565b92915050565b600073ffffffffffffffffffffffffffffffffffffffff82169050919050565b6000819050919050565b6000610bc0610bbb610bb684610b7b565b610b9b565b610b7b565b9050919050565b6000610bd282610ba5565b9050919050565b6000610be482610bc7565b9050919050565b610bf481610bd9565b82525050565b6000602082019050610c0f6000830184610beb565b92915050565b6000610c2082610bc7565b9050919050565b610c3081610c15565b82525050565b6000602082019050610c4b6000830184610c27565b92915050565b600063ffffffff82169050919050565b610c6a81610c51565b82525050565b6000602082019050610c856000830184610c61565b92915050565b610c9481610aaa565b82525050565b6000602082019050610caf6000830184610c8b565b92915050565b600080fd5b600080fd5b600080fd5b60008083601f840112610cda57610cd9610cb5565b5b8235905067ffffffffffffffff811115610cf757610cf6610cba565b5b602083019150836020820283011115610d1357610d12610cbf565b5b9250929050565b60008060208385031215610d3157610d30610aa0565b5b600083013567ffffffffffffffff811115610d4f57610d4e610aa5565b5b610d5b85828601610cc4565b92509250509250929050565b6000610d7282610b7b565b9050919050565b610d8281610d67565b8114610d8d57600080fd5b50565b600081359050610d9f81610d79565b92915050565b600081905082602060080282011115610dc157610dc0610cbf565b5b92915050565b60008060006101408486031215610de157610de0610aa0565b5b6000610def86828701610acb565b9350506020610e0086828701610d90565b9250506040610e1186828701610da5565b9150509250925092565b6000610e2682610b7b565b9050919050565b610e3681610e1b565b82525050565b6000602082019050610e516000830184610e2d565b92915050565b610e6081610e1b565b8114610e6b57600080fd5b50565b600081359050610e7d81610e57565b92915050565b600060208284031215610e9957610e98610aa0565b5b6000610ea784828501610e6e565b91505092915050565b600081519050610ebf81610ab4565b92915050565b600060208284031215610edb57610eda610aa0565b5b6000610ee984828501610eb0565b91505092915050565b7f4e487b7100000000000000000000000000000000000000000000000000000000600052603260045260246000fd5b600082825260208201905092915050565b7f4f776e61626c653a206e6577206f776e657220697320746865207a65726f206160008201527f6464726573730000000000000000000000000000000000000000000000000000602082015250565b6000610f8e602683610f21565b9150610f9982610f32565b604082019050919050565b60006020820190508181036000830152610fbd81610f81565b9050919050565b7f4f776e61626c653a2063616c6c6572206973206e6f7420746865206f776e6572600082015250565b6000610ffa602083610f21565b915061100582610fc4565b602082019050919050565b6000602082019050818103600083015261102981610fed565b9050919050565b60006040820190506110456000830185610c8b565b6110526020830184610c8b565b9392505050565b7f4e487b7100000000000000000000000000000000000000000000000000000000600052601160045260246000fd5b600061109382610aaa565b915061109e83610aaa565b9250827fffffffffffffffffffffffffffffffffffffffffffffffffffffffffffffffff038211156110d3576110d2611059565b5b82820190509291505056fea26469706673582212203a935db4009103789e7c86b3ae5a240e2fcda6b329847761754acbf3f301cf6264736f6c634300080f0033",
  "devdoc": {
    "kind": "dev",
    "methods": {
      "owner()": {
        "details": "Returns the address of the current owner."
      },
      "register(uint256)": {
        "params": {
          "idCommitment": "The idCommitment of the member"
        }
      },
      "renounceOwnership()": {
        "details": "Leaves the contract without owner. It will not be possible to call `onlyOwner` functions. Can only be called by the current owner. NOTE: Renouncing ownership will leave the contract without an owner, thereby disabling any functionality that is only available to the owner."
      },
      "slash(uint256,address,uint256[8])": {
        "details": "Allows a user to slash a member",
        "params": {
          "idCommitment": "The idCommitment of the member"
        }
      },
      "transferOwnership(address)": {
        "details": "Transfers ownership of the contract to a new account (`newOwner`). Can only be called by the current owner."
      }
    },
    "version": 1
  }
}