{
  "address": "0x8e1F3742B987d8BA376c0CBbD7357fE1F003ED71",
  "abi": [
    {
      "inputs": [
        {
          "internalType": "address",
          "name": "_poseidonHasher",
          "type": "address"
        }
      ],
      "stateMutability": "nonpayable",
      "type": "constructor"
    },
    {
      "inputs": [],
      "name": "IncompatibleStorage",
      "type": "error"
    },
    {
      "inputs": [],
      "name": "IncompatibleStorageIndex",
      "type": "error"
    },
    {
      "inputs": [],
      "name": "NoStorageContractAvailable",
      "type": "error"
    },
    {
      "inputs": [
        {
          "internalType": "address",
          "name": "storageAddress",
          "type": "address"
        }
      ],
      "name": "StorageAlreadyExists",
      "type": "error"
    },
    {
      "anonymous": false,
      "inputs": [
        {
          "indexed": false,
          "internalType": "uint16",
          "name": "index",
          "type": "uint16"
        },
        {
          "indexed": false,
          "internalType": "address",
          "name": "storageAddress",
          "type": "address"
        }
      ],
      "name": "NewStorageContract",
      "type": "event"
    },
    {
      "anonymous": false,
      "inputs": [
        {
          "indexed": true,
          "internalType": "address",
          "name": "previousOwner",
          "type": "address"
        },
        {
          "indexed": true,
          "internalType": "address",
          "name": "newOwner",
          "type": "address"
        }
      ],
      "name": "OwnershipTransferred",
      "type": "event"
    },
    {
      "inputs": [],
      "name": "forceProgress",
      "outputs": [],
      "stateMutability": "nonpayable",
      "type": "function"
    },
    {
      "inputs": [],
      "name": "newStorage",
      "outputs": [],
      "stateMutability": "nonpayable",
      "type": "function"
    },
    {
      "inputs": [],
      "name": "nextStorageIndex",
      "outputs": [
        {
          "internalType": "uint16",
          "name": "",
          "type": "uint16"
        }
      ],
      "stateMutability": "view",
      "type": "function"
    },
    {
      "inputs": [],
      "name": "owner",
      "outputs": [
        {
          "internalType": "address",
          "name": "",
          "type": "address"
        }
      ],
      "stateMutability": "view",
      "type": "function"
    },
    {
      "inputs": [],
      "name": "poseidonHasher",
      "outputs": [
        {
          "internalType": "contract IPoseidonHasher",
          "name": "",
          "type": "address"
        }
      ],
      "stateMutability": "view",
      "type": "function"
    },
    {
      "inputs": [
        {
          "internalType": "uint16",
          "name": "storageIndex",
          "type": "uint16"
        },
        {
          "internalType": "uint256",
          "name": "commitment",
          "type": "uint256"
        }
      ],
      "name": "register",
      "outputs": [],
      "stateMutability": "nonpayable",
      "type": "function"
    },
    {
      "inputs": [
        {
          "internalType": "uint256[]",
          "name": "commitments",
          "type": "uint256[]"
        }
      ],
      "name": "register",
      "outputs": [],
      "stateMutability": "nonpayable",
      "type": "function"
    },
    {
      "inputs": [
        {
          "internalType": "uint16",
          "name": "storageIndex",
          "type": "uint16"
        },
        {
          "internalType": "uint256[]",
          "name": "commitments",
          "type": "uint256[]"
        }
      ],
      "name": "register",
      "outputs": [],
      "stateMutability": "nonpayable",
      "type": "function"
    },
    {
      "inputs": [
        {
          "internalType": "address",
          "name": "storageAddress",
          "type": "address"
        }
      ],
      "name": "registerStorage",
      "outputs": [],
      "stateMutability": "nonpayable",
      "type": "function"
    },
    {
      "inputs": [],
      "name": "renounceOwnership",
      "outputs": [],
      "stateMutability": "nonpayable",
      "type": "function"
    },
    {
      "inputs": [
        {
          "internalType": "uint16",
          "name": "",
          "type": "uint16"
        }
      ],
      "name": "storages",
      "outputs": [
        {
          "internalType": "address",
          "name": "",
          "type": "address"
        }
      ],
      "stateMutability": "view",
      "type": "function"
    },
    {
      "inputs": [
        {
          "internalType": "address",
          "name": "newOwner",
          "type": "address"
        }
      ],
      "name": "transferOwnership",
      "outputs": [],
      "stateMutability": "nonpayable",
      "type": "function"
    },
    {
      "inputs": [],
      "name": "usingStorageIndex",
      "outputs": [
        {
          "internalType": "uint16",
          "name": "",
          "type": "uint16"
        }
      ],
      "stateMutability": "view",
      "type": "function"
    }
  ],
  "transactionHash": "0x1a30a4113f0264e9605f82ec8c1085196a72b04cb67fa4841c1aebace92f7661",
  "args": [
    "0xcBC443bAE23a0BeF71d7f23588108C9929C582C2"
  ],
  "numDeployments": 1,
  "solcInputHash": "0184fe58b46c750eb9a0230445d04a5f",
  "bytecode": "0x60a06040526000600260006101000a81548161ffff021916908361ffff1602179055503480156200002f57600080fd5b5060405162002ec138038062002ec18339818101604052810190620000559190620001e6565b6200007562000069620000b060201b60201c565b620000b860201b60201c565b8073ffffffffffffffffffffffffffffffffffffffff1660808173ffffffffffffffffffffffffffffffffffffffff16815250505062000218565b600033905090565b60008060009054906101000a900473ffffffffffffffffffffffffffffffffffffffff169050816000806101000a81548173ffffffffffffffffffffffffffffffffffffffff021916908373ffffffffffffffffffffffffffffffffffffffff1602179055508173ffffffffffffffffffffffffffffffffffffffff168173ffffffffffffffffffffffffffffffffffffffff167f8be0079c531659141344cd1fd0a4f28419497f9722a3daafe3b4186f6b6457e060405160405180910390a35050565b600080fd5b600073ffffffffffffffffffffffffffffffffffffffff82169050919050565b6000620001ae8262000181565b9050919050565b620001c081620001a1565b8114620001cc57600080fd5b50565b600081519050620001e081620001b5565b92915050565b600060208284031215620001ff57620001fe6200017c565b5b60006200020f84828501620001cf565b91505092915050565b608051612c7f62000242600039600081816103e2015281816104120152610ad80152612c7f6000f3fe60806040523480156200001157600080fd5b5060043610620000e25760003560e01c8063ab02492a1162000099578063ef653d5e116200006f578063ef653d5e14620001d1578063f184ef4c14620001f1578063f2fde38b1462000213578063f5542147146200023357620000e2565b8063ab02492a1462000183578063cf61637414620001a3578063d44fda1f14620001c557620000e2565b806326e0fc1f14620000e7578063331b6ab3146200010757806342f542e21462000129578063715018a614620001355780637a34289d14620001415780638da5cb5b1462000161575b600080fd5b620001056004803603810190620000ff919062001045565b62000269565b005b62000111620003e0565b60405162000120919062001117565b60405180910390f35b6200013362000404565b005b6200013f6200048b565b005b6200015f6004803603810190620001599190620011a2565b620004a3565b005b6200016b6200075f565b6040516200017a91906200121c565b60405180910390f35b620001a160048036038101906200019b919062001239565b62000788565b005b620001ad6200088b565b604051620001bc9190620012b4565b60405180910390f35b620001cf6200089f565b005b620001ef6004803603810190620001e9919062001302565b62000a09565b005b620001fb62000c9e565b6040516200020a9190620012b4565b60405180910390f35b6200023160048036038101906200022b919062001302565b62000cb2565b005b6200025160048036038101906200024b919062001334565b62000d3c565b6040516200026091906200121c565b60405180910390f35b600060149054906101000a900461ffff1661ffff168261ffff1610620002bb576040517fd23276a200000000000000000000000000000000000000000000000000000000815260040160405180910390fd5b6000600167ffffffffffffffff811115620002db57620002da62001366565b5b6040519080825280602002602001820160405280156200030a5781602001602082028036833780820191505090505b509050818160008151811062000325576200032462001395565b5b602002602001018181525050600160008461ffff1661ffff16815260200190815260200160002060009054906101000a900473ffffffffffffffffffffffffffffffffffffffff1673ffffffffffffffffffffffffffffffffffffffff16637a34289d826040518263ffffffff1660e01b8152600401620003a7919062001492565b600060405180830381600087803b158015620003c257600080fd5b505af1158015620003d7573d6000803e3d6000fd5b50505050505050565b7f000000000000000000000000000000000000000000000000000000000000000081565b6200040e62000d6f565b60007f0000000000000000000000000000000000000000000000000000000000000000600060149054906101000a900461ffff16604051620004509062000fb3565b6200045d929190620014b6565b604051809103906000f0801580156200047a573d6000803e3d6000fd5b509050620004888162000df4565b50565b6200049562000d6f565b620004a1600062000ee7565b565b600060149054906101000a900461ffff1661ffff16600260009054906101000a900461ffff1661ffff161062000505576040517fd23276a200000000000000000000000000000000000000000000000000000000815260040160405180910390fd5b5b6001156200075b5760016000600260009054906101000a900461ffff1661ffff1661ffff16815260200190815260200160002060009054906101000a900473ffffffffffffffffffffffffffffffffffffffff1673ffffffffffffffffffffffffffffffffffffffff16637a34289d83836040518363ffffffff1660e01b8152600401620005969291906200155a565b600060405180830381600087803b158015620005b157600080fd5b505af1925050508015620005c3575060015b6200074f573d8060008114620005f6576040519150601f19603f3d011682016040523d82523d6000602084013e620005fb565b606091505b506040516024016040516020818303038152906040527f57f69531000000000000000000000000000000000000000000000000000000007bffffffffffffffffffffffffffffffffffffffffffffffffffffffff19166020820180517bffffffffffffffffffffffffffffffffffffffffffffffffffffffff8381831617835250505050805190602001208180519060200120146200069c57805181602001fd5b600060149054906101000a900461ffff1661ffff166001600260009054906101000a900461ffff16620006d09190620015af565b61ffff16106200070c576040517fd23276a200000000000000000000000000000000000000000000000000000000815260040160405180910390fd5b6001600260008282829054906101000a900461ffff166200072e9190620015af565b92506101000a81548161ffff021916908361ffff1602179055505062000755565b6200075b565b62000506565b5050565b60008060009054906101000a900473ffffffffffffffffffffffffffffffffffffffff16905090565b600060149054906101000a900461ffff1661ffff168361ffff1610620007da576040517fd23276a200000000000000000000000000000000000000000000000000000000815260040160405180910390fd5b600160008461ffff1661ffff16815260200190815260200160002060009054906101000a900473ffffffffffffffffffffffffffffffffffffffff1673ffffffffffffffffffffffffffffffffffffffff16637a34289d83836040518363ffffffff1660e01b8152600401620008529291906200155a565b600060405180830381600087803b1580156200086d57600080fd5b505af115801562000882573d6000803e3d6000fd5b50505050505050565b600260009054906101000a900461ffff1681565b620008a962000d6f565b600060149054906101000a900461ffff1661ffff16600260009054906101000a900461ffff1661ffff16106200090b576040517fd23276a200000000000000000000000000000000000000000000000000000000815260040160405180910390fd5b600073ffffffffffffffffffffffffffffffffffffffff16600160006001600260009054906101000a900461ffff16620009469190620015af565b61ffff1661ffff16815260200190815260200160002060009054906101000a900473ffffffffffffffffffffffffffffffffffffffff1673ffffffffffffffffffffffffffffffffffffffff1603620009cb576040517fd23276a200000000000000000000000000000000000000000000000000000000815260040160405180910390fd5b6001600260008282829054906101000a900461ffff16620009ed9190620015af565b92506101000a81548161ffff021916908361ffff160217905550565b62000a1362000d6f565b600073ffffffffffffffffffffffffffffffffffffffff16600160008060149054906101000a900461ffff1661ffff1661ffff16815260200190815260200160002060009054906101000a900473ffffffffffffffffffffffffffffffffffffffff1673ffffffffffffffffffffffffffffffffffffffff161462000ad157806040517f9cfabd1600000000000000000000000000000000000000000000000000000000815260040162000ac891906200121c565b60405180910390fd5b60008190507f000000000000000000000000000000000000000000000000000000000000000073ffffffffffffffffffffffffffffffffffffffff168173ffffffffffffffffffffffffffffffffffffffff1663331b6ab36040518163ffffffff1660e01b8152600401602060405180830381865afa15801562000b59573d6000803e3d6000fd5b505050506040513d601f19601f8201168201806040525081019062000b7f919062001633565b73ffffffffffffffffffffffffffffffffffffffff161462000bcc576040517eaec95400000000000000000000000000000000000000000000000000000000815260040160405180910390fd5b600060149054906101000a900461ffff1661ffff168173ffffffffffffffffffffffffffffffffffffffff166328b070e06040518163ffffffff1660e01b8152600401602060405180830381865afa15801562000c2d573d6000803e3d6000fd5b505050506040513d601f19601f8201168201806040525081019062000c5391906200167c565b61ffff161462000c8f576040517fb893b72300000000000000000000000000000000000000000000000000000000815260040160405180910390fd5b62000c9a8262000df4565b5050565b600060149054906101000a900461ffff1681565b62000cbc62000d6f565b600073ffffffffffffffffffffffffffffffffffffffff168173ffffffffffffffffffffffffffffffffffffffff160362000d2e576040517f08c379a000000000000000000000000000000000000000000000000000000000815260040162000d259062001735565b60405180910390fd5b62000d398162000ee7565b50565b60016020528060005260406000206000915054906101000a900473ffffffffffffffffffffffffffffffffffffffff1681565b62000d7962000fab565b73ffffffffffffffffffffffffffffffffffffffff1662000d996200075f565b73ffffffffffffffffffffffffffffffffffffffff161462000df2576040517f08c379a000000000000000000000000000000000000000000000000000000000815260040162000de990620017a7565b60405180910390fd5b565b80600160008060149054906101000a900461ffff1661ffff1661ffff16815260200190815260200160002060006101000a81548173ffffffffffffffffffffffffffffffffffffffff021916908373ffffffffffffffffffffffffffffffffffffffff1602179055507fcf6a3b406170499209d0fcf152a1605c7c5a5c99c855e2bb803433fc960718eb600060149054906101000a900461ffff168260405162000ea0929190620017c9565b60405180910390a16001600060148282829054906101000a900461ffff1662000eca9190620015af565b92506101000a81548161ffff021916908361ffff16021790555050565b60008060009054906101000a900473ffffffffffffffffffffffffffffffffffffffff169050816000806101000a81548173ffffffffffffffffffffffffffffffffffffffff021916908373ffffffffffffffffffffffffffffffffffffffff1602179055508173ffffffffffffffffffffffffffffffffffffffff168173ffffffffffffffffffffffffffffffffffffffff167f8be0079c531659141344cd1fd0a4f28419497f9722a3daafe3b4186f6b6457e060405160405180910390a35050565b600033905090565b61145380620017f783390190565b600080fd5b600080fd5b600061ffff82169050919050565b62000fe48162000fcb565b811462000ff057600080fd5b50565b600081359050620010048162000fd9565b92915050565b6000819050919050565b6200101f816200100a565b81146200102b57600080fd5b50565b6000813590506200103f8162001014565b92915050565b600080604083850312156200105f576200105e62000fc1565b5b60006200106f8582860162000ff3565b925050602062001082858286016200102e565b9150509250929050565b600073ffffffffffffffffffffffffffffffffffffffff82169050919050565b6000819050919050565b6000620010d7620010d1620010cb846200108c565b620010ac565b6200108c565b9050919050565b6000620010eb82620010b6565b9050919050565b6000620010ff82620010de565b9050919050565b6200111181620010f2565b82525050565b60006020820190506200112e600083018462001106565b92915050565b600080fd5b600080fd5b600080fd5b60008083601f8401126200115c576200115b62001134565b5b8235905067ffffffffffffffff8111156200117c576200117b62001139565b5b6020830191508360208202830111156200119b576200119a6200113e565b5b9250929050565b60008060208385031215620011bc57620011bb62000fc1565b5b600083013567ffffffffffffffff811115620011dd57620011dc62000fc6565b5b620011eb8582860162001143565b92509250509250929050565b600062001204826200108c565b9050919050565b6200121681620011f7565b82525050565b60006020820190506200123360008301846200120b565b92915050565b60008060006040848603121562001255576200125462000fc1565b5b6000620012658682870162000ff3565b935050602084013567ffffffffffffffff81111562001289576200128862000fc6565b5b620012978682870162001143565b92509250509250925092565b620012ae8162000fcb565b82525050565b6000602082019050620012cb6000830184620012a3565b92915050565b620012dc81620011f7565b8114620012e857600080fd5b50565b600081359050620012fc81620012d1565b92915050565b6000602082840312156200131b576200131a62000fc1565b5b60006200132b84828501620012eb565b91505092915050565b6000602082840312156200134d576200134c62000fc1565b5b60006200135d8482850162000ff3565b91505092915050565b7f4e487b7100000000000000000000000000000000000000000000000000000000600052604160045260246000fd5b7f4e487b7100000000000000000000000000000000000000000000000000000000600052603260045260246000fd5b600081519050919050565b600082825260208201905092915050565b6000819050602082019050919050565b620013fb816200100a565b82525050565b60006200140f8383620013f0565b60208301905092915050565b6000602082019050919050565b60006200143582620013c4565b620014418185620013cf565b93506200144e83620013e0565b8060005b838110156200148557815162001469888262001401565b975062001476836200141b565b92505060018101905062001452565b5085935050505092915050565b60006020820190508181036000830152620014ae818462001428565b905092915050565b6000604082019050620014cd60008301856200120b565b620014dc6020830184620012a3565b9392505050565b600080fd5b82818337600083830152505050565b6000620015058385620013cf565b93507f07ffffffffffffffffffffffffffffffffffffffffffffffffffffffffffffff8311156200153b576200153a620014e3565b5b6020830292506200154e838584620014e8565b82840190509392505050565b6000602082019050818103600083015262001577818486620014f7565b90509392505050565b7f4e487b7100000000000000000000000000000000000000000000000000000000600052601160045260246000fd5b6000620015bc8262000fcb565b9150620015c98362000fcb565b92508261ffff03821115620015e357620015e262001580565b5b828201905092915050565b6000620015fb82620011f7565b9050919050565b6200160d81620015ee565b81146200161957600080fd5b50565b6000815190506200162d8162001602565b92915050565b6000602082840312156200164c576200164b62000fc1565b5b60006200165c848285016200161c565b91505092915050565b600081519050620016768162000fd9565b92915050565b60006020828403121562001695576200169462000fc1565b5b6000620016a58482850162001665565b91505092915050565b600082825260208201905092915050565b7f4f776e61626c653a206e6577206f776e657220697320746865207a65726f206160008201527f6464726573730000000000000000000000000000000000000000000000000000602082015250565b60006200171d602683620016ae565b91506200172a82620016bf565b604082019050919050565b6000602082019050818103600083015262001750816200170e565b9050919050565b7f4f776e61626c653a2063616c6c6572206973206e6f7420746865206f776e6572600082015250565b60006200178f602083620016ae565b91506200179c8262001757565b602082019050919050565b60006020820190508181036000830152620017c28162001780565b9050919050565b6000604082019050620017e06000830185620012a3565b620017ef60208301846200120b565b939250505056fe610160604052600180553480156200001657600080fd5b50604051620014533803806200145383398181016040528101906200003c91906200028f565b6000601483600062000063620000576200011a60201b60201c565b6200012260201b60201c565b83608081815250508260a08181525050826001901b60c081815250508173ffffffffffffffffffffffffffffffffffffffff1660e08173ffffffffffffffffffffffffffffffffffffffff16815250508073ffffffffffffffffffffffffffffffffffffffff166101008173ffffffffffffffffffffffffffffffffffffffff16815250504363ffffffff166101208163ffffffff1681525050505050508061ffff166101408161ffff16815250505050620002d6565b600033905090565b60008060009054906101000a900473ffffffffffffffffffffffffffffffffffffffff169050816000806101000a81548173ffffffffffffffffffffffffffffffffffffffff021916908373ffffffffffffffffffffffffffffffffffffffff1602179055508173ffffffffffffffffffffffffffffffffffffffff168173ffffffffffffffffffffffffffffffffffffffff167f8be0079c531659141344cd1fd0a4f28419497f9722a3daafe3b4186f6b6457e060405160405180910390a35050565b600080fd5b600073ffffffffffffffffffffffffffffffffffffffff82169050919050565b60006200021882620001eb565b9050919050565b6200022a816200020b565b81146200023657600080fd5b50565b6000815190506200024a816200021f565b92915050565b600061ffff82169050919050565b620002698162000250565b81146200027557600080fd5b50565b60008151905062000289816200025e565b92915050565b60008060408385031215620002a957620002a8620001e6565b5b6000620002b98582860162000239565b9250506020620002cc8582860162000278565b9150509250929050565b60805160a05160c05160e0516101005161012051610140516111146200033f60003960006104fd0152600061059b0152600061052101526000818161046401526105450152600081816106ee0152610a44015260006106940152600061074401526111146000f3fe6080604052600436106101145760003560e01c80638be9b119116100a0578063c5b208ff11610064578063c5b208ff1461037d578063d0383d68146103ba578063f207564e146103e5578063f220b9ec14610401578063f2fde38b1461042c57610114565b80638be9b119146102965780638da5cb5b146102bf57806398366e35146102ea578063ae74552a14610315578063bc4991281461034057610114565b80633ccfd60b116100e75780633ccfd60b146101d75780634add651e146101ee5780635daf08ca14610219578063715018a6146102565780637a34289d1461026d57610114565b806322d9730c1461011957806328b070e0146101565780632b7ac3f314610181578063331b6ab3146101ac575b600080fd5b34801561012557600080fd5b50610140600480360381019061013b9190610ae0565b610455565b60405161014d9190610b28565b60405180910390f35b34801561016257600080fd5b5061016b6104fb565b6040516101789190610b60565b60405180910390f35b34801561018d57600080fd5b5061019661051f565b6040516101a39190610bfa565b60405180910390f35b3480156101b857600080fd5b506101c1610543565b6040516101ce9190610c36565b60405180910390f35b3480156101e357600080fd5b506101ec610567565b005b3480156101fa57600080fd5b50610203610599565b6040516102109190610c70565b60405180910390f35b34801561022557600080fd5b50610240600480360381019061023b9190610ae0565b6105bd565b60405161024d9190610c9a565b60405180910390f35b34801561026257600080fd5b5061026b6105d5565b005b34801561027957600080fd5b50610294600480360381019061028f9190610d1a565b6105e9565b005b3480156102a257600080fd5b506102bd60048036038101906102b89190610dc7565b610637565b005b3480156102cb57600080fd5b506102d4610669565b6040516102e19190610e3c565b60405180910390f35b3480156102f657600080fd5b506102ff610692565b60405161030c9190610c9a565b60405180910390f35b34801561032157600080fd5b5061032a6106b6565b6040516103379190610c9a565b60405180910390f35b34801561034c57600080fd5b5061036760048036038101906103629190610ae0565b6106bc565b6040516103749190610c9a565b60405180910390f35b34801561038957600080fd5b506103a4600480360381019061039f9190610e83565b6106d4565b6040516103b19190610c9a565b60405180910390f35b3480156103c657600080fd5b506103cf6106ec565b6040516103dc9190610c9a565b60405180910390f35b6103ff60048036038101906103fa9190610ae0565b610710565b005b34801561040d57600080fd5b50610416610742565b6040516104239190610c9a565b60405180910390f35b34801561043857600080fd5b50610453600480360381019061044e9190610e83565b610766565b005b60008082141580156104f457507f000000000000000000000000000000000000000000000000000000000000000073ffffffffffffffffffffffffffffffffffffffff1663e493ef8c6040518163ffffffff1660e01b8152600401602060405180830381865afa1580156104cd573d6000803e3d6000fd5b505050506040513d601f19601f820116820180604052508101906104f19190610ec5565b82105b9050919050565b7f000000000000000000000000000000000000000000000000000000000000000081565b7f000000000000000000000000000000000000000000000000000000000000000081565b7f000000000000000000000000000000000000000000000000000000000000000081565b6040517fd623472500000000000000000000000000000000000000000000000000000000815260040160405180910390fd5b7f000000000000000000000000000000000000000000000000000000000000000081565b60036020528060005260406000206000915090505481565b6105dd6107e9565b6105e76000610867565b565b6105f16107e9565b600082829050905060005b818110156106315761062684848381811061061a57610619610ef2565b5b9050602002013561092b565b8060010190506105fc565b50505050565b6040517fd623472500000000000000000000000000000000000000000000000000000000815260040160405180910390fd5b60008060009054906101000a900473ffffffffffffffffffffffffffffffffffffffff16905090565b7f000000000000000000000000000000000000000000000000000000000000000081565b60015481565b60026020528060005260406000206000915090505481565b60046020528060005260406000206000915090505481565b7f000000000000000000000000000000000000000000000000000000000000000081565b6040517fd623472500000000000000000000000000000000000000000000000000000000815260040160405180910390fd5b7f000000000000000000000000000000000000000000000000000000000000000081565b61076e6107e9565b600073ffffffffffffffffffffffffffffffffffffffff168173ffffffffffffffffffffffffffffffffffffffff16036107dd576040517f08c379a00000000000000000000000000000000000000000000000000000000081526004016107d490610fa4565b60405180910390fd5b6107e681610867565b50565b6107f16109a4565b73ffffffffffffffffffffffffffffffffffffffff1661080f610669565b73ffffffffffffffffffffffffffffffffffffffff1614610865576040517f08c379a000000000000000000000000000000000000000000000000000000000815260040161085c90611010565b60405180910390fd5b565b60008060009054906101000a900473ffffffffffffffffffffffffffffffffffffffff169050816000806101000a81548173ffffffffffffffffffffffffffffffffffffffff021916908373ffffffffffffffffffffffffffffffffffffffff1602179055508173ffffffffffffffffffffffffffffffffffffffff168173ffffffffffffffffffffffffffffffffffffffff167f8be0079c531659141344cd1fd0a4f28419497f9722a3daafe3b4186f6b6457e060405160405180910390a35050565b610934816109ac565b600160036000838152602001908152602001600020819055507f5a92c2530f207992057b9c3e544108ffce3beda4a63719f316967c49bf6159d281600154604051610980929190611030565b60405180910390a1600180600082825461099a9190611088565b9250508190555050565b600033905090565b6109b581610455565b6109f657806040517f7f3e75af0000000000000000000000000000000000000000000000000000000081526004016109ed9190610c9a565b60405180910390fd5b6000600360008381526020019081526020016000205414610a42576040517e0a60f700000000000000000000000000000000000000000000000000000000815260040160405180910390fd5b7f000000000000000000000000000000000000000000000000000000000000000060015410610a9d576040517f57f6953100000000000000000000000000000000000000000000000000000000815260040160405180910390fd5b50565b600080fd5b600080fd5b6000819050919050565b610abd81610aaa565b8114610ac857600080fd5b50565b600081359050610ada81610ab4565b92915050565b600060208284031215610af657610af5610aa0565b5b6000610b0484828501610acb565b91505092915050565b60008115159050919050565b610b2281610b0d565b82525050565b6000602082019050610b3d6000830184610b19565b92915050565b600061ffff82169050919050565b610b5a81610b43565b82525050565b6000602082019050610b756000830184610b51565b92915050565b600073ffffffffffffffffffffffffffffffffffffffff82169050919050565b6000819050919050565b6000610bc0610bbb610bb684610b7b565b610b9b565b610b7b565b9050919050565b6000610bd282610ba5565b9050919050565b6000610be482610bc7565b9050919050565b610bf481610bd9565b82525050565b6000602082019050610c0f6000830184610beb565b92915050565b6000610c2082610bc7565b9050919050565b610c3081610c15565b82525050565b6000602082019050610c4b6000830184610c27565b92915050565b600063ffffffff82169050919050565b610c6a81610c51565b82525050565b6000602082019050610c856000830184610c61565b92915050565b610c9481610aaa565b82525050565b6000602082019050610caf6000830184610c8b565b92915050565b600080fd5b600080fd5b600080fd5b60008083601f840112610cda57610cd9610cb5565b5b8235905067ffffffffffffffff811115610cf757610cf6610cba565b5b602083019150836020820283011115610d1357610d12610cbf565b5b9250929050565b60008060208385031215610d3157610d30610aa0565b5b600083013567ffffffffffffffff811115610d4f57610d4e610aa5565b5b610d5b85828601610cc4565b92509250509250929050565b6000610d7282610b7b565b9050919050565b610d8281610d67565b8114610d8d57600080fd5b50565b600081359050610d9f81610d79565b92915050565b600081905082602060080282011115610dc157610dc0610cbf565b5b92915050565b60008060006101408486031215610de157610de0610aa0565b5b6000610def86828701610acb565b9350506020610e0086828701610d90565b9250506040610e1186828701610da5565b9150509250925092565b6000610e2682610b7b565b9050919050565b610e3681610e1b565b82525050565b6000602082019050610e516000830184610e2d565b92915050565b610e6081610e1b565b8114610e6b57600080fd5b50565b600081359050610e7d81610e57565b92915050565b600060208284031215610e9957610e98610aa0565b5b6000610ea784828501610e6e565b91505092915050565b600081519050610ebf81610ab4565b92915050565b600060208284031215610edb57610eda610aa0565b5b6000610ee984828501610eb0565b91505092915050565b7f4e487b7100000000000000000000000000000000000000000000000000000000600052603260045260246000fd5b600082825260208201905092915050565b7f4f776e61626c653a206e6577206f776e657220697320746865207a65726f206160008201527f6464726573730000000000000000000000000000000000000000000000000000602082015250565b6000610f8e602683610f21565b9150610f9982610f32565b604082019050919050565b60006020820190508181036000830152610fbd81610f81565b9050919050565b7f4f776e61626c653a2063616c6c6572206973206e6f7420746865206f776e6572600082015250565b6000610ffa602083610f21565b915061100582610fc4565b602082019050919050565b6000602082019050818103600083015261102981610fed565b9050919050565b60006040820190506110456000830185610c8b565b6110526020830184610c8b565b9392505050565b7f4e487b7100000000000000000000000000000000000000000000000000000000600052601160045260246000fd5b600061109382610aaa565b915061109e83610aaa565b9250827fffffffffffffffffffffffffffffffffffffffffffffffffffffffffffffffff038211156110d3576110d2611059565b5b82820190509291505056fea26469706673582212203a935db4009103789e7c86b3ae5a240e2fcda6b329847761754acbf3f301cf6264736f6c634300080f0033a2646970667358221220673f265e611f9b9231234833cd030e87f836da979de9a51f4834cec3f4e71f6964736f6c634300080f0033",
  "devdoc": {
    "kind": "dev",
    "methods": {
      "owner()": {
        "details": "Returns the address of the current owner."
      },
      "renounceOwnership()": {
        "details": "Leaves the contract without owner. It will not be possible to call `onlyOwner` functions. Can only be called by the current owner. NOTE: Renouncing ownership will leave the contract without an owner, thereby disabling any functionality that is only available to the owner."
      },
      "transferOwnership(address)": {
        "details": "Transfers ownership of the contract to a new account (`newOwner`). Can only be called by the current owner."
      }
    },
    "version": 1
  },
  "userdoc": {
    "kind": "user",
    "methods": {},
    "version": 1
  },
  "storageLayout": {
    "storage": [
      {
        "astId": 500,
        "contract": "contracts/WakuRlnRegistry.sol:WakuRlnRegistry",
        "label": "_owner",
        "offset": 0,
        "slot": "0",
        "type": "t_address"
      },
      {
        "astId": 205,
        "contract": "contracts/WakuRlnRegistry.sol:WakuRlnRegistry",
        "label": "nextStorageIndex",
        "offset": 20,
        "slot": "0",
        "type": "t_uint16"
      },
      {
        "astId": 209,
        "contract": "contracts/WakuRlnRegistry.sol:WakuRlnRegistry",
        "label": "storages",
        "offset": 0,
        "slot": "1",
        "type": "t_mapping(t_uint16,t_address)"
      },
      {
        "astId": 212,
        "contract": "contracts/WakuRlnRegistry.sol:WakuRlnRegistry",
        "label": "usingStorageIndex",
        "offset": 0,
        "slot": "2",
        "type": "t_uint16"
      }
    ],
    "types": {
      "t_address": {
        "encoding": "inplace",
        "label": "address",
        "numberOfBytes": "20"
      },
      "t_mapping(t_uint16,t_address)": {
        "encoding": "mapping",
        "key": "t_uint16",
        "label": "mapping(uint16 => address)",
        "numberOfBytes": "32",
        "value": "t_address"
      },
      "t_uint16": {
        "encoding": "inplace",
        "label": "uint16",
        "numberOfBytes": "2"
      }
    }
  }
}