{
  "address": "0x37312300F863CC84eC217F8F0aeEE12008dDDa59",
  "abi": [
    {
      "inputs": [
        {
          "internalType": "uint256",
          "name": "membershipDeposit",
          "type": "uint256"
        },
        {
          "internalType": "uint256",
          "name": "depth",
          "type": "uint256"
        },
        {
          "internalType": "address",
          "name": "_poseidonHasher",
          "type": "address"
        },
        {
          "internalType": "address",
          "name": "_validGroupStorage",
          "type": "address"
        }
      ],
      "stateMutability": "nonpayable",
      "type": "constructor"
    },
    {
      "anonymous": false,
      "inputs": [
        {
          "indexed": false,
          "internalType": "uint256",
          "name": "idCommitment",
          "type": "uint256"
        },
        {
          "indexed": false,
          "internalType": "uint256",
          "name": "index",
          "type": "uint256"
        }
      ],
      "name": "MemberRegistered",
      "type": "event"
    },
    {
      "anonymous": false,
      "inputs": [
        {
          "indexed": false,
          "internalType": "uint256",
          "name": "idCommitment",
          "type": "uint256"
        }
      ],
      "name": "MemberWithdrawn",
      "type": "event"
    },
    {
      "inputs": [],
      "name": "DEPTH",
      "outputs": [
        {
          "internalType": "uint256",
          "name": "",
          "type": "uint256"
        }
      ],
      "stateMutability": "view",
      "type": "function"
    },
    {
      "inputs": [],
      "name": "MEMBERSHIP_DEPOSIT",
      "outputs": [
        {
          "internalType": "uint256",
          "name": "",
          "type": "uint256"
        }
      ],
      "stateMutability": "view",
      "type": "function"
    },
    {
      "inputs": [],
      "name": "SET_SIZE",
      "outputs": [
        {
          "internalType": "uint256",
          "name": "",
          "type": "uint256"
        }
      ],
      "stateMutability": "view",
      "type": "function"
    },
    {
      "inputs": [],
      "name": "idCommitmentIndex",
      "outputs": [
        {
          "internalType": "uint256",
          "name": "",
          "type": "uint256"
        }
      ],
      "stateMutability": "view",
      "type": "function"
    },
    {
      "inputs": [],
      "name": "interep",
      "outputs": [
        {
          "internalType": "contract IInterep",
          "name": "",
          "type": "address"
        }
      ],
      "stateMutability": "view",
      "type": "function"
    },
    {
      "inputs": [
        {
          "internalType": "uint256",
          "name": "",
          "type": "uint256"
        }
      ],
      "name": "members",
      "outputs": [
        {
          "internalType": "bool",
          "name": "",
          "type": "bool"
        }
      ],
      "stateMutability": "view",
      "type": "function"
    },
    {
      "inputs": [],
      "name": "poseidonHasher",
      "outputs": [
        {
          "internalType": "contract IPoseidonHasher",
          "name": "",
          "type": "address"
        }
      ],
      "stateMutability": "view",
      "type": "function"
    },
    {
      "inputs": [
        {
          "internalType": "uint256",
          "name": "groupId",
          "type": "uint256"
        },
        {
          "internalType": "bytes32",
          "name": "signal",
          "type": "bytes32"
        },
        {
          "internalType": "uint256",
          "name": "nullifierHash",
          "type": "uint256"
        },
        {
          "internalType": "uint256",
          "name": "externalNullifier",
          "type": "uint256"
        },
        {
          "internalType": "uint256[8]",
          "name": "proof",
          "type": "uint256[8]"
        },
        {
          "internalType": "uint256",
          "name": "idCommitment",
          "type": "uint256"
        }
      ],
      "name": "register",
      "outputs": [],
      "stateMutability": "nonpayable",
      "type": "function"
    },
    {
      "inputs": [
        {
          "internalType": "uint256",
          "name": "idCommitment",
          "type": "uint256"
        }
      ],
      "name": "register",
      "outputs": [],
      "stateMutability": "payable",
      "type": "function"
    },
    {
      "inputs": [
        {
          "internalType": "uint256[]",
          "name": "idCommitments",
          "type": "uint256[]"
        }
      ],
      "name": "registerBatch",
      "outputs": [],
      "stateMutability": "payable",
      "type": "function"
    },
    {
      "inputs": [
        {
          "internalType": "uint256",
          "name": "",
          "type": "uint256"
        }
      ],
      "name": "stakedAmounts",
      "outputs": [
        {
          "internalType": "uint256",
          "name": "",
          "type": "uint256"
        }
      ],
      "stateMutability": "view",
      "type": "function"
    },
    {
      "inputs": [],
      "name": "validGroupStorage",
      "outputs": [
        {
          "internalType": "contract IValidGroupStorage",
          "name": "",
          "type": "address"
        }
      ],
      "stateMutability": "view",
      "type": "function"
    },
    {
      "inputs": [
        {
          "internalType": "uint256",
          "name": "secret",
          "type": "uint256"
        },
        {
          "internalType": "address payable",
          "name": "receiver",
          "type": "address"
        }
      ],
      "name": "withdraw",
      "outputs": [],
      "stateMutability": "nonpayable",
      "type": "function"
    },
    {
      "inputs": [
        {
          "internalType": "uint256",
          "name": "secret",
          "type": "uint256"
        }
      ],
      "name": "withdraw",
      "outputs": [],
      "stateMutability": "nonpayable",
      "type": "function"
    },
    {
      "inputs": [
        {
          "internalType": "uint256[]",
          "name": "secrets",
          "type": "uint256[]"
        },
        {
          "internalType": "address payable[]",
          "name": "receivers",
          "type": "address[]"
        }
      ],
      "name": "withdrawBatch",
      "outputs": [],
      "stateMutability": "nonpayable",
      "type": "function"
    }
  ],
  "transactionHash": "0xf8753adaf6feace2825757cdb4eb6fccc7805ccfdb7296b7b1430ba257c19476",
  "args": [
    1000000000000000,
    20,
    "0x87E9587d9C7b635859EDBaD7D3C223230C5b6e31",
    "0x97A0acd6b6B96be6F8A0D5730AdccC25Bef0f87b"
  ],
  "numDeployments": 1,
  "solcInputHash": "b8e33ba299e95051cdf4858cd81bbca9",
  "bytecode": "0x60e06040523480156200001157600080fd5b506040516200223938038062002239833981810160405281019062000037919062000258565b83608081815250508260a08181525050826001901b60c0818152505081600360006101000a81548173ffffffffffffffffffffffffffffffffffffffff021916908373ffffffffffffffffffffffffffffffffffffffff16021790555080600460006101000a81548173ffffffffffffffffffffffffffffffffffffffff021916908373ffffffffffffffffffffffffffffffffffffffff160217905550600460009054906101000a900473ffffffffffffffffffffffffffffffffffffffff1673ffffffffffffffffffffffffffffffffffffffff16635d0a8dc26040518163ffffffff1660e01b8152600401602060405180830381865afa15801562000143573d6000803e3d6000fd5b505050506040513d601f19601f82011682018060405250810190620001699190620002ca565b600560006101000a81548173ffffffffffffffffffffffffffffffffffffffff021916908373ffffffffffffffffffffffffffffffffffffffff16021790555050505050620002fc565b600080fd5b6000819050919050565b620001cd81620001b8565b8114620001d957600080fd5b50565b600081519050620001ed81620001c2565b92915050565b600073ffffffffffffffffffffffffffffffffffffffff82169050919050565b60006200022082620001f3565b9050919050565b620002328162000213565b81146200023e57600080fd5b50565b600081519050620002528162000227565b92915050565b60008060008060808587031215620002755762000274620001b3565b5b60006200028587828801620001dc565b94505060206200029887828801620001dc565b9350506040620002ab8782880162000241565b9250506060620002be8782880162000241565b91505092959194509250565b600060208284031215620002e357620002e2620001b3565b5b6000620002f38482850162000241565b91505092915050565b60805160a05160c051611ef162000348600039600081816105440152818161085e0152610d13015260006106730152600081816105b50152818161088201526108f10152611ef16000f3fe6080604052600436106100e75760003560e01c806398366e351161008a578063bc49912811610059578063bc499128146102c0578063d0383d68146102fd578063f207564e14610328578063f220b9ec14610344576100e7565b806398366e3514610216578063a19aaee814610241578063ae74552a1461026c578063baa8d18914610297576100e7565b806340070712116100c657806340070712146101695780635d0a8dc2146101925780635daf08ca146101bd57806369e4863f146101fa576100e7565b8062f714ce146100ec5780632e1a7d4d14610115578063331b6ab31461013e575b600080fd5b3480156100f857600080fd5b50610113600480360381019061010e9190610fa7565b61036f565b005b34801561012157600080fd5b5061013c60048036038101906101379190610fe7565b61037d565b005b34801561014a57600080fd5b50610153610389565b6040516101609190611073565b60405180910390f35b34801561017557600080fd5b50610190600480360381019061018b9190611149565b6103af565b005b34801561019e57600080fd5b506101a76104f4565b6040516101b491906111eb565b60405180910390f35b3480156101c957600080fd5b506101e460048036038101906101df9190610fe7565b61051a565b6040516101f19190611221565b60405180910390f35b610214600480360381019061020f919061123c565b61053a565b005b34801561022257600080fd5b5061022b610671565b6040516102389190611298565b60405180910390f35b34801561024d57600080fd5b50610256610695565b60405161026391906112d4565b60405180910390f35b34801561027857600080fd5b506102816106bb565b60405161028e9190611298565b60405180910390f35b3480156102a357600080fd5b506102be60048036038101906102b99190611347565b6106c1565b005b3480156102cc57600080fd5b506102e760048036038101906102e29190610fe7565b610844565b6040516102f49190611298565b60405180910390f35b34801561030957600080fd5b5061031261085c565b60405161031f9190611298565b60405180910390f35b610342600480360381019061033d9190610fe7565b610880565b005b34801561035057600080fd5b506103596108ef565b6040516103669190611298565b60405180910390f35b6103798282610913565b5050565b61038681610b86565b50565b600360009054906101000a900473ffffffffffffffffffffffffffffffffffffffff1681565b6000848490509050600081036103fa576040517f08c379a00000000000000000000000000000000000000000000000000000000081526004016103f190611459565b60405180910390fd5b84849050811461043f576040517f08c379a0000000000000000000000000000000000000000000000000000000008152600401610436906114eb565b60405180910390fd5b828290508114610484576040517f08c379a000000000000000000000000000000000000000000000000000000000815260040161047b9061157d565b60405180910390fd5b60005b818110156104ec576104d98686838181106104a5576104a461159d565b5b905060200201358585848181106104bf576104be61159d565b5b90506020020160208101906104d491906115cc565b610913565b80806104e490611628565b915050610487565b505050505050565b600560009054906101000a900473ffffffffffffffffffffffffffffffffffffffff1681565b60026020528060005260406000206000915054906101000a900460ff1681565b60008282905090507f0000000000000000000000000000000000000000000000000000000000000000816000546105719190611670565b11156105b2576040517f08c379a00000000000000000000000000000000000000000000000000000000081526004016105a990611712565b60405180910390fd5b807f00000000000000000000000000000000000000000000000000000000000000006105de9190611732565b341461061f576040517f08c379a0000000000000000000000000000000000000000000000000000000008152600401610616906117fe565b60405180910390fd5b60005b8181101561066b576106588484838181106106405761063f61159d565b5b905060200201358334610653919061184d565b610cb0565b808061066390611628565b915050610622565b50505050565b7f000000000000000000000000000000000000000000000000000000000000000081565b600460009054906101000a900473ffffffffffffffffffffffffffffffffffffffff1681565b60005481565b600460009054906101000a900473ffffffffffffffffffffffffffffffffffffffff1673ffffffffffffffffffffffffffffffffffffffff1663b655ee34876040518263ffffffff1660e01b815260040161071c9190611298565b602060405180830381865afa158015610739573d6000803e3d6000fd5b505050506040513d601f19601f8201168201806040525081019061075d91906118aa565b61079c576040517f08c379a000000000000000000000000000000000000000000000000000000000815260040161079390611949565b60405180910390fd5b600560009054906101000a900473ffffffffffffffffffffffffffffffffffffffff1673ffffffffffffffffffffffffffffffffffffffff16636673e84987878787876040518663ffffffff1660e01b81526004016107ff959493929190611998565b600060405180830381600087803b15801561081957600080fd5b505af115801561082d573d6000803e3d6000fd5b5050505061083c816000610cb0565b505050505050565b60016020528060005260406000206000915090505481565b7f000000000000000000000000000000000000000000000000000000000000000081565b7f000000000000000000000000000000000000000000000000000000000000000034146108e2576040517f08c379a00000000000000000000000000000000000000000000000000000000081526004016108d990611a5e565b60405180910390fd5b6108ec8134610cb0565b50565b7f000000000000000000000000000000000000000000000000000000000000000081565b600061091e83610e64565b90506002600082815260200190815260200160002060009054906101000a900460ff16610980576040517f08c379a000000000000000000000000000000000000000000000000000000000815260040161097790611af0565b60405180910390fd5b60006001600083815260200190815260200160002054036109d6576040517f08c379a00000000000000000000000000000000000000000000000000000000081526004016109cd90611b82565b60405180910390fd5b600073ffffffffffffffffffffffffffffffffffffffff168273ffffffffffffffffffffffffffffffffffffffff1603610a45576040517f08c379a0000000000000000000000000000000000000000000000000000000008152600401610a3c90611c14565b60405180910390fd5b60008273ffffffffffffffffffffffffffffffffffffffff166001600084815260200190815260200160002054604051610a7e90611c65565b60006040518083038185875af1925050503d8060008114610abb576040519150601f19603f3d011682016040523d82523d6000602084013e610ac0565b606091505b5050905080610b04576040517f08c379a0000000000000000000000000000000000000000000000000000000008152600401610afb90611cc6565b60405180910390fd5b60006002600084815260200190815260200160002060006101000a81548160ff021916908315150217905550600060016000848152602001908152602001600020819055507fad2d771c5ad1c1e6f50cc769e53ec1e194002c29f28c3dd2af5639b60d8072a682604051610b789190611298565b60405180910390a150505050565b6000610b9182610e64565b90506002600082815260200190815260200160002060009054906101000a900460ff16610bf3576040517f08c379a0000000000000000000000000000000000000000000000000000000008152600401610bea90611af0565b60405180910390fd5b6000600160008381526020019081526020016000205414610c49576040517f08c379a0000000000000000000000000000000000000000000000000000000008152600401610c4090611d32565b60405180910390fd5b60006002600083815260200190815260200160002060006101000a81548160ff0219169083151502179055507fad2d771c5ad1c1e6f50cc769e53ec1e194002c29f28c3dd2af5639b60d8072a681604051610ca49190611298565b60405180910390a15050565b6002600083815260200190815260200160002060009054906101000a900460ff1615610d11576040517f08c379a0000000000000000000000000000000000000000000000000000000008152600401610d0890611dc4565b60405180910390fd5b7f000000000000000000000000000000000000000000000000000000000000000060005410610d75576040517f08c379a0000000000000000000000000000000000000000000000000000000008152600401610d6c90611e30565b60405180910390fd5b60008114610dc65760016002600084815260200190815260200160002060006101000a81548160ff021916908315150217905550806001600084815260200190815260200160002081905550610e0c565b60016002600084815260200190815260200160002060006101000a81548160ff021916908315150217905550600060016000848152602001908152602001600020819055505b7f5a92c2530f207992057b9c3e544108ffce3beda4a63719f316967c49bf6159d282600054604051610e3f929190611e50565b60405180910390a16001600080828254610e599190611670565b925050819055505050565b6000600360009054906101000a900473ffffffffffffffffffffffffffffffffffffffff1673ffffffffffffffffffffffffffffffffffffffff1663b189fd4c836040518263ffffffff1660e01b8152600401610ec19190611298565b602060405180830381865afa158015610ede573d6000803e3d6000fd5b505050506040513d601f19601f82011682018060405250810190610f029190611e8e565b9050919050565b600080fd5b600080fd5b6000819050919050565b610f2681610f13565b8114610f3157600080fd5b50565b600081359050610f4381610f1d565b92915050565b600073ffffffffffffffffffffffffffffffffffffffff82169050919050565b6000610f7482610f49565b9050919050565b610f8481610f69565b8114610f8f57600080fd5b50565b600081359050610fa181610f7b565b92915050565b60008060408385031215610fbe57610fbd610f09565b5b6000610fcc85828601610f34565b9250506020610fdd85828601610f92565b9150509250929050565b600060208284031215610ffd57610ffc610f09565b5b600061100b84828501610f34565b91505092915050565b6000819050919050565b600061103961103461102f84610f49565b611014565b610f49565b9050919050565b600061104b8261101e565b9050919050565b600061105d82611040565b9050919050565b61106d81611052565b82525050565b60006020820190506110886000830184611064565b92915050565b600080fd5b600080fd5b600080fd5b60008083601f8401126110b3576110b261108e565b5b8235905067ffffffffffffffff8111156110d0576110cf611093565b5b6020830191508360208202830111156110ec576110eb611098565b5b9250929050565b60008083601f8401126111095761110861108e565b5b8235905067ffffffffffffffff81111561112657611125611093565b5b60208301915083602082028301111561114257611141611098565b5b9250929050565b6000806000806040858703121561116357611162610f09565b5b600085013567ffffffffffffffff81111561118157611180610f0e565b5b61118d8782880161109d565b9450945050602085013567ffffffffffffffff8111156111b0576111af610f0e565b5b6111bc878288016110f3565b925092505092959194509250565b60006111d582611040565b9050919050565b6111e5816111ca565b82525050565b600060208201905061120060008301846111dc565b92915050565b60008115159050919050565b61121b81611206565b82525050565b60006020820190506112366000830184611212565b92915050565b6000806020838503121561125357611252610f09565b5b600083013567ffffffffffffffff81111561127157611270610f0e565b5b61127d8582860161109d565b92509250509250929050565b61129281610f13565b82525050565b60006020820190506112ad6000830184611289565b92915050565b60006112be82611040565b9050919050565b6112ce816112b3565b82525050565b60006020820190506112e960008301846112c5565b92915050565b6000819050919050565b611302816112ef565b811461130d57600080fd5b50565b60008135905061131f816112f9565b92915050565b60008190508260206008028201111561134157611340611098565b5b92915050565b6000806000806000806101a0878903121561136557611364610f09565b5b600061137389828a01610f34565b965050602061138489828a01611310565b955050604061139589828a01610f34565b94505060606113a689828a01610f34565b93505060806113b789828a01611325565b9250506101806113c989828a01610f34565b9150509295509295509295565b600082825260208201905092915050565b7f524c4e2c20776974686472617742617463683a2062617463682073697a65207a60008201527f65726f0000000000000000000000000000000000000000000000000000000000602082015250565b60006114436023836113d6565b915061144e826113e7565b604082019050919050565b6000602082019050818103600083015261147281611436565b9050919050565b7f524c4e2c20776974686472617742617463683a2062617463682073697a65206d60008201527f69736d6174636820736563726574730000000000000000000000000000000000602082015250565b60006114d5602f836113d6565b91506114e082611479565b604082019050919050565b60006020820190508181036000830152611504816114c8565b9050919050565b7f524c4e2c20776974686472617742617463683a2062617463682073697a65206d60008201527f69736d6174636820726563656976657273000000000000000000000000000000602082015250565b60006115676031836113d6565b91506115728261150b565b604082019050919050565b600060208201905081810360008301526115968161155a565b9050919050565b7f4e487b7100000000000000000000000000000000000000000000000000000000600052603260045260246000fd5b6000602082840312156115e2576115e1610f09565b5b60006115f084828501610f92565b91505092915050565b7f4e487b7100000000000000000000000000000000000000000000000000000000600052601160045260246000fd5b600061163382610f13565b91507fffffffffffffffffffffffffffffffffffffffffffffffffffffffffffffffff8203611665576116646115f9565b5b600182019050919050565b600061167b82610f13565b915061168683610f13565b9250827fffffffffffffffffffffffffffffffffffffffffffffffffffffffffffffffff038211156116bb576116ba6115f9565b5b828201905092915050565b7f524c4e2c20726567697374657242617463683a207365742069732066756c6c00600082015250565b60006116fc601f836113d6565b9150611707826116c6565b602082019050919050565b6000602082019050818103600083015261172b816116ef565b9050919050565b600061173d82610f13565b915061174883610f13565b9250817fffffffffffffffffffffffffffffffffffffffffffffffffffffffffffffffff0483118215151615611781576117806115f9565b5b828202905092915050565b7f524c4e2c20726567697374657242617463683a206d656d62657273686970206460008201527f65706f736974206973206e6f7420736174697366696564000000000000000000602082015250565b60006117e86037836113d6565b91506117f38261178c565b604082019050919050565b60006020820190508181036000830152611817816117db565b9050919050565b7f4e487b7100000000000000000000000000000000000000000000000000000000600052601260045260246000fd5b600061185882610f13565b915061186383610f13565b9250826118735761187261181e565b5b828204905092915050565b61188781611206565b811461189257600080fd5b50565b6000815190506118a48161187e565b92915050565b6000602082840312156118c0576118bf610f09565b5b60006118ce84828501611895565b91505092915050565b7f524c4e2c2072656769737465723a20696e76616c696420696e7465726570206760008201527f726f757000000000000000000000000000000000000000000000000000000000602082015250565b60006119336024836113d6565b915061193e826118d7565b604082019050919050565b6000602082019050818103600083015261196281611926565b9050919050565b611972816112ef565b82525050565b82818337600083830152505050565b6119946101008383611978565b5050565b6000610180820190506119ae6000830188611289565b6119bb6020830187611969565b6119c86040830186611289565b6119d56060830185611289565b6119e26080830184611987565b9695505050505050565b7f524c4e2c2072656769737465723a206d656d62657273686970206465706f736960008201527f74206973206e6f74207361746973666965640000000000000000000000000000602082015250565b6000611a486032836113d6565b9150611a53826119ec565b604082019050919050565b60006020820190508181036000830152611a7781611a3b565b9050919050565b7f524c4e2c205f77697468647261773a206d656d626572206e6f7420726567697360008201527f7465726564000000000000000000000000000000000000000000000000000000602082015250565b6000611ada6025836113d6565b9150611ae582611a7e565b604082019050919050565b60006020820190508181036000830152611b0981611acd565b9050919050565b7f524c4e2c205f77697468647261773a206d656d62657220686173206e6f20737460008201527f616b650000000000000000000000000000000000000000000000000000000000602082015250565b6000611b6c6023836113d6565b9150611b7782611b10565b604082019050919050565b60006020820190508181036000830152611b9b81611b5f565b9050919050565b7f524c4e2c205f77697468647261773a20656d707479207265636569766572206160008201527f6464726573730000000000000000000000000000000000000000000000000000602082015250565b6000611bfe6026836113d6565b9150611c0982611ba2565b604082019050919050565b60006020820190508181036000830152611c2d81611bf1565b9050919050565b600081905092915050565b50565b6000611c4f600083611c34565b9150611c5a82611c3f565b600082019050919050565b6000611c7082611c42565b9150819050919050565b7f7472616e73666572206661696c65640000000000000000000000000000000000600082015250565b6000611cb0600f836113d6565b9150611cbb82611c7a565b602082019050919050565b60006020820190508181036000830152611cdf81611ca3565b9050919050565b7f524c4e2c205f77697468647261773a207374616b656400000000000000000000600082015250565b6000611d1c6016836113d6565b9150611d2782611ce6565b602082019050919050565b60006020820190508181036000830152611d4b81611d0f565b9050919050565b7f524c4e2c205f72656769737465723a206d656d62657220616c7265616479207260008201527f6567697374657265640000000000000000000000000000000000000000000000602082015250565b6000611dae6029836113d6565b9150611db982611d52565b604082019050919050565b60006020820190508181036000830152611ddd81611da1565b9050919050565b7f524c4e2c2072656769737465723a207365742069732066756c6c000000000000600082015250565b6000611e1a601a836113d6565b9150611e2582611de4565b602082019050919050565b60006020820190508181036000830152611e4981611e0d565b9050919050565b6000604082019050611e656000830185611289565b611e726020830184611289565b9392505050565b600081519050611e8881610f1d565b92915050565b600060208284031215611ea457611ea3610f09565b5b6000611eb284828501611e79565b9150509291505056fea264697066735822122015ad536e35627d188beb2552246d0d052083569f1e162df8e8e2cbaea938b70164736f6c634300080f0033",
  "devdoc": {
    "kind": "dev",
    "methods": {
      "register(uint256,bytes32,uint256,uint256,uint256[8],uint256)": {
        "details": "Registers a member via a valid Interep Semaphore group.",
        "params": {
          "externalNullifier": ": External nullifier.",
          "groupId": ": Id of the group.",
          "idCommitment": ": ID Commitment of the member.",
          "nullifierHash": ": Nullifier hash.",
          "proof": ": Zero-knowledge proof.",
          "signal": ": Semaphore signal."
        }
      }
    },
    "version": 1
  },
  "userdoc": {
    "kind": "user",
    "methods": {},
    "version": 1
  },
  "storageLayout": {
    "storage": [
      {
        "astId": 2334,
        "contract": "contracts/Rln.sol:RLN",
        "label": "idCommitmentIndex",
        "offset": 0,
        "slot": "0",
        "type": "t_uint256"
      },
      {
        "astId": 2338,
        "contract": "contracts/Rln.sol:RLN",
        "label": "stakedAmounts",
        "offset": 0,
        "slot": "1",
        "type": "t_mapping(t_uint256,t_uint256)"
      },
      {
        "astId": 2342,
        "contract": "contracts/Rln.sol:RLN",
        "label": "members",
        "offset": 0,
        "slot": "2",
        "type": "t_mapping(t_uint256,t_bool)"
      },
      {
        "astId": 2345,
        "contract": "contracts/Rln.sol:RLN",
        "label": "poseidonHasher",
        "offset": 0,
        "slot": "3",
        "type": "t_contract(IPoseidonHasher)1876"
      },
      {
        "astId": 2348,
        "contract": "contracts/Rln.sol:RLN",
        "label": "validGroupStorage",
        "offset": 0,
        "slot": "4",
        "type": "t_contract(IValidGroupStorage)2806"
      },
      {
        "astId": 2351,
        "contract": "contracts/Rln.sol:RLN",
        "label": "interep",
        "offset": 0,
        "slot": "5",
        "type": "t_contract(IInterep)236"
      }
    ],
    "types": {
      "t_bool": {
        "encoding": "inplace",
        "label": "bool",
        "numberOfBytes": "1"
      },
      "t_contract(IInterep)236": {
        "encoding": "inplace",
        "label": "contract IInterep",
        "numberOfBytes": "20"
      },
      "t_contract(IPoseidonHasher)1876": {
        "encoding": "inplace",
        "label": "contract IPoseidonHasher",
        "numberOfBytes": "20"
      },
      "t_contract(IValidGroupStorage)2806": {
        "encoding": "inplace",
        "label": "contract IValidGroupStorage",
        "numberOfBytes": "20"
      },
      "t_mapping(t_uint256,t_bool)": {
        "encoding": "mapping",
        "key": "t_uint256",
        "label": "mapping(uint256 => bool)",
        "numberOfBytes": "32",
        "value": "t_bool"
      },
      "t_mapping(t_uint256,t_uint256)": {
        "encoding": "mapping",
        "key": "t_uint256",
        "label": "mapping(uint256 => uint256)",
        "numberOfBytes": "32",
        "value": "t_uint256"
      },
      "t_uint256": {
        "encoding": "inplace",
        "label": "uint256",
        "numberOfBytes": "32"
      }
    }
  }
}